:020000040000FA
:0600000002010702219835
:03001B000225F3C8
:03002B000225D2D9
:0300530002220E78
:03006B000225A3C8
:030073000226580A
:10008300022047E5C754F84401F5C779012200006F
:100093000080FB120086B900030200F1E4792178A5
:1000A30008B800028004F709D8FCE479297802B87B
:1000B30000028004F709D8FCE490028178E379090F
:1000C3008002F0A3D8FCD9FA7A637B0B90013778CE
:1000D300B879048015E493A3AD82AE838A828B83BF
:1000E300F0A3AA82AB838D828E83D8E9D9E7758288
:1000F3009B7583AB74031201197582917583007428
:100103000012011975D00075813F751881751902A8
:10011300759F00020096C09FF59FE473D09F22D085
:1001230083D082C09FE493C0E0740193C0E0740263
:1001330093F59F22FF0000B4000028002800283018
:1001430075A000A000A000A00000080008E001F0D6
:10015300001000100010001000100010005000509C
:1001630000500010001000D0070000000000000F36
:100173000001000500307507001000010081FF0039
:10018300000000FFEC060A07F206FF020202080263
:100193005000A0000000E803022F91010000D4905A
:1001A30002EB90010000BA0B02EF90010000B302D2
:1001B30002EB90010000BB0B02F190010000C902A9
:1001C30002EB90010000BC0B02F390010000CB0294
:1001D30002EB90010000BD0B02F590080000CC0279
:1001E30002EB90010000BE0B02F790010000BF0B71
:1001F300FF0100FF20022F910100001D9002EB90F0
:10020300010000230C02F990000000000002ED90B1
:100213000300001903040D040D040D040D040D0463
:100223000D040D040D040D040D040D040D040DDA6D
:100233000FF20FD40FFFFF110199010F1264040194
:10024300022F91010000DA9002EB900100006B0C89
:100253000225910100006C0C02ED90030000710770
:1002630002FD900100006D0C020202020202020272
:1002730002010D0000001001022F91010000E09027
:1002830002EB90010000970C022191010000770717
:1002930002EB90010000980C021F910100001090E6
:1002A30002EB90010000990C020B910100000290F7
:1002B30002EB900100009A0C0209910100008E8F5D
:1002C30002EB900100009B0C020791010000B28F2A
:1002D30002EB900100009C0C0205910100007C8F51
:1002E30002EB900100009D0C020391010000A08F1E
:1002F30002EB900100009E0C020191010000F48FBB
:1003030002EB900100009F0C02FF90010000A00C83
:1003130001E803053F100A1509484944204B657954
:10032300626F6172642026204D6F7573650201054B
:100333000319C103050212180F1860EA00000194A3
:10034300139A13000001DC130000E60202192A04C9
:1003530006011201011202011203010E0002120E24
:10036300120A0003022F91010000DD9002E99001BF
:1003730000007E0A02EB900100007A0D0215914005
:1003830000009C9002EB900100007E0D0219918009
:100393000000800A02EB900100007F0D021D91C056
:1003A3000000800D02EB900100007B0D02179140CD
:1003B3000000FE8D02FB900100007C0D02EB90011A
:1003C3000000810D021B91400000810A02ED908123
:1003D3000000820A02FD90010000820D02EB9001F1
:1003E3000000840D021B91400000880A02ED9081F9
:1003F3000000890A02FD90010000850D02EB9001C7
:100403000000870D021B914000008F0A02ED9081CE
:100413000000900A02FD90010000880D02EB90019C
:1004230000008A0D021B91C00000960A02FD900194
:1004330000008B0D02EB900100008D0D020F914027
:100443000000970A02ED90810000980A02EB9001E8
:1004530000008E0D021391C000009E0A02EB900172
:1004630000008F0D0211914000009F0A02ED908160
:100473000000A00A02EB90010000900D021B91C046
:100483000000A60A02FD90010000910DFF0001305B
:1004930075030201060000000000000000000000D8
:1004A3000000000000000000000000000000000049
:1004B30000FFFF0600800CE8030410022F910100E7
:1004C30000D79002EB90010000E80E022B91800010
:1004D30000580B02EB90010000E90E022D91000081
:1004E300005C0B02ED908100005D0B120122B199BB
:1004F30003120122C89903120122F999031201225E
:10050300349A031201225E9A03120122889A03127B
:1005130001229F9A03120122B69A03120122CD9A55
:1005230003120122F69A03120122099B03120122EC
:100533001F9B03120122329B03120122599B0312B8
:10054300012227A3021201222BA40212012263A477
:100553000212012286A40212012291A40212012294
:10056300B4A402120122C3A50212012298A6021208
:10057300012213A7021201229BA702120122D6A76E
:10058300021201220DA8021201229BA802120122CB
:1005930074A902120122D4A902120122DFA90212B4
:1005A30001225EAA0212012261AA0212012264AA96
:1005B30002120122F3AA02120122F6AA0212012256
:1005C30026AB0212012250AB021201223EAC0212F0
:1005D3000122F0AC0212012202E7021201222AE7F1
:1005E3000212012258E7021201228FE702120122AE
:1005F300EDE70212012238E80212012283E8021217
:100603000122C3E80212012209E90212012237E999
:1006130002120122F4E902120122FEE9021201226E
:100623000BEA021201223EEA021201220AEB021233
:10063300012216EB021201222EEB0212012238EBE9
:1006430002120122D6A703120122E4A703120122F8
:10065300FCA70312012214A803120122FEB0011207
:100663000122AAB10112012225B20112012246B3CD
:100673000112012282B3011201222BB401120122C1
:1006830012B50112012276B601120122CDB6011272
:1006930001224EB7011201223EB8011201228BB88A
:1006A3000112012211B90112012243B901120122DF
:1006B30057BB0112012299BB01120122B7BB0112E0
:1006C30001223ABC011201220EBD01120122D6BD44
:1006D3000112012287D0021201225AD102120122F1
:1006E30003D20212012256D20212012206D30212AF
:1006F300012292D3021201227ED402120122ADD42E
:1007030002120122C0D50212012208D602120122CE
:10071300DDD60212012219D70212012235D70212A5
:100723000122B3AA03120122C88303120122DE832A
:1007330003120122048403120122208503120122E1
:100743002A85031201225F860312012257870312AF
:10075300012218DD0212012248DE021201227BDE91
:1007630002120122C5DE021201228CE002120122D2
:100773003291011201229C9101120122FB9201127A
:1007830001220B93011201223893011201228F934C
:10079300011201223894011201223F950112012214
:1007A300099601120122699701120122AC970112E5
:1007B30001225198011201229E9801120122C4982C
:1007C30001120122D29A01120122D79A01120122A7
:1007D300DC9C01120122299D011201229C9D011220
:1007E3000122CF9D01120122719E011201221A9F43
:1007F30001120122529F01120122559F011201226F
:100803009D9F01120122DD9F0112012234A00112DA
:100813000122919003120122A99003120122F19067
:10082300031201220791031201224E9103120122A6
:10083300629203120122EF92031201223A930312EE
:100843000122C02600120122CC2600120122072712
:10085300001201224C27001201220C28001201224F
:10086300922800120122BE2800120122F72800124A
:100873000122352B00120122192D00120122FF2E15
:100883000012012242300012012290320012012292
:10089300A23300120122ED3400120122FD350012B1
:1008A30001221A3600120122553600120122773630
:1008B30000120122DA36001201229B3B00120122B0
:1008C300303C00120122813C00120122A83C00129C
:1008D3000122FA3C00120122183D00120122723D4E
:1008E30000120122713E00120122F53E0012012284
:1008F30048F00212012252F00212012295F0021274
:100903000122B0F00212012240F10212012268F129
:1009130002120122A5F102120122DCF102120122CC
:1009230005F2021201227AF2021201228FF202125E
:100933000122A4F202120122D5F202120122E9F2EB
:10094300021201220EF30212012248F302120122C3
:1009530074F302120122F7F30212012240F402128D
:1009630001226AF40212012295F402120122C3A2A7
:10097300031201220080021201222E8002120122A0
:100983007C81021201225C82021201227B8202120A
:100993000122F882021201223B8302120122918476
:1009A30002120122528502120122D9870212012268
:1009B3007A88021201227089021201226D8A0212C0
:1009C3000122C78B02120122528C0212012236A08D
:1009D300031201229FA003120122F3A0031201229A
:1009E3001AA1031201224BA103120122BDF4021228
:1009F30001222AF50212012271F50212012289F65F
:100A03000212012285F70212012268F80212012262
:100A1300A4C002120122E6C002120122B8C10212CE
:100A2300012291C2021201228BC3021201226DC460
:100A330002120122D6C4021201228CC50212012223
:100A430000C6021201226CC60212012295C60212CE
:100A530001220FC702120122A8C7021201220DC8E8
:100A63000212012222C80212012268C802120122C4
:100A730081C802120122E6C802120122E9C8021249
:100A83000122B38A03120122DB8A03120122198B8A
:100A930003120122D78B031201223E8C031201227F
:100AA3005A8C03120122828C03120122B28C03128C
:100AB3000122C18C031201223E8D03120122648D97
:100AC3000312012221A101120122BFA2011201225C
:100AD300DAA40112012216A50112012243A5011273
:100AE300012228A6011201226FA601120122B3A638
:100AF30001120122C5A60112012205A7011201223A
:100B030032A7011201227DA701120122BDA7011202
:100B13000122EBA7011201223DA801120122CDA857
:100B2300011201226BAB0112012281AD01120122DC
:100B3300BFAD0112012250AF0112012295AF011284
:100B430001220CB00112012256B0011201222BB76F
:100B530002120122AAB7021201226CBD0212012263
:100B63007BBE02120122E3BF021201227AC00212EB
:100B73000122A75400120122F054001201221D5534
:100B8300001201225055001201225D55001201226C
:100B93006955001201227B55001201226256001290
:100BA3000122C05600120122F556001201223858C4
:100BB30000120122855800120122A95800120122B5
:100BC300165900120122D459001201228D5A001223
:100BD3000122FA5A00120122AC5B00120122BC5B13
:100BE30000120122435C00120122025D0012012265
:100BF3002F5D00120122A85D00120122055E001282
:100C030001224F5E00120122E55E00120122B05F55
:100C130000120122656000120122DA600012012233
:100C23003B6100120122A56100120122DE61001264
:100C33000122806200120122906300120122D0631C
:100C430000120122ED63001201220C640012012242
:100C5300536400120122786400120122A564001279
:100C630001221F65001201226065001201228466C1
:100C7300001201223467001201228B670012012245
:100C8300F567001201220E680012012261AD021203
:100C93000122B4AD02120122C0AD0212012295AEAF
:100CA30002120122BCAE02120122F7AE021201228D
:100CB30063AF021201229FAF02120122D8AF0212C8
:100CC3000122F0AF0212012245B0021201225EB0EE
:100CD30002120122A7B002120122BAB002120122AB
:100CE300D4B002120122EAB0021201221DB2021292
:100CF300012264B30212012266B40212012260B51A
:100D030002120122F97F001201226FEA011201226D
:100D13009FEA0112012267EE01120122BEEF0112C6
:100D2300012287F00112012207F201120122D8F2F7
:100D33000112012215F30112012238F301120122DB
:100D430076F3011201227FF301120122C9F301128A
:100D53000122D3F3011201227DF40112012256F57F
:100D630001120122AAF5011201220CF6011201223D
:100D73005FF6011201228EF601120122CBF6011257
:100D83000122406800120122A76B00120122AD6B01
:100D9300001201222F7100120122A87500120122F4
:100DA3007E7900120122618703120122D787031281
:100DB3000122ED87031201222E8803120122688883
:100DC30003120122E188031201221C89031201226A
:100DD3008F8903120122CD8903120122D6890312BE
:100DE3000122E28903120122FE8903120122298AC8
:100DF300031201223F8A03120122838A0312012272
:100E03003FE20212012252E2021201226CE20212BA
:100E1300012295E202120122D8E20212012217E313
:100E23000212012255E302120122BAE30212012245
:100E3300CFE302120122DAE302120122E7E30212F4
:100E43000122FEE3021201220CE40212012217E442
:100E53000212012223E40212012236E402120122C9
:100E630041E40212012264E4021201220BE50212A0
:100E730001221BE50212012235E50212012252E58D
:100E8300021201226EE50212012293E502120122EF
:100E93009EE502120122B3E502120122C7E5021206
:100EA300012228E6021201222EE60212012234E672
:100EB300021201223AE60212012252E60212012232
:100EC30085E60212012260CE01120122E4CE011254
:100ED300012293CF01120122F2D00112012213D376
:100EE30001120122FFD30112012234D40112012283
:100EF30056D40112012205D501120122FDD6011299
:100F0300012226D701120122B8D701120122EAD702
:100F130001120122F7D7011201224ED80112012238
:100F230074D801120122E1DA01120122E4DB011279
:100F330001223CDC01120122EFBF01120122F9C0A0
:100F430001120122E0C101120122EAC101120122B0
:100F53000CC20112012218C201120122B1C30112F3
:100F63000122E0C301120122FCC40112012255C572
:100F730001120122BBC6011201229AC701120122EA
:100F8300F6C70112012263C8011201229EC8011291
:100F93000122DDC80112012296CB01120122B0CB3E
:100FA300011201223CCC011201224ACC011201227E
:100FB300A3CC01120122B1CC0112012224CD0112D2
:100FC300012288CD01120122D2CD01120122D38C3C
:100FD30002120122F58C021201221B8F021201223E
:100FE300309202120122489302120122FB93021251
:100FF3000122DD94021201226B9B03120122909BBA
:1010030003120122029C031201220DC902120122C2
:1010130016C9021201221FC902120122F6C90212C5
:101023000122A7CB02120122DDCB0212012217CC2F
:10103300021201224DCC0212012287CC021201229C
:10104300BBCC02120122E7CC0212012230CD0212E4
:1010530001226ACD02120122B3CD021201220BCE6C
:101063000212012240CE021201229BCE0212012261
:10107300D5CE0212012226CF021201225CCF021228
:10108300012296CF02120122C4CF02120122E7CF1E
:10109300021201226EA9031201229AA9031201224C
:1010A300F5A903120122FFA9031201220FAA0312B9
:1010B300012291A103120122BBA10312012229A241
:1010C300031201229EA203120122AAD702120122B5
:1010D300B4D702120122F2D7021201223BD8021224
:1010E300012275D802120122CFD802120122F0D8B0
:1010F30002120122F9D8021201224AD90212012254
:1011030073D9021201227DD902120122E9D90212F6
:10111300012277DA02120122C5DA02120122FBDA76
:101123000212012282DB02120122C2DB021201221D
:10113300FADB021201220CDC021201222BDC021266
:10114300012234DC02120122EEDC02120122EBA5A1
:1011530003120122CF9503120122059603120122E5
:101163003B96031201229497031201227E7F001201
:101173000122947F001201229E7F001201222AF98C
:101183000212012243F902120122E7F9021201229B
:1011930027FA0212012240FA0212012274FA021201
:1011A3000122C1FA02120122F5FA0212012237FBCF
:1011B300021201223BFD0212012237AB031201226C
:1011C300E5A6031201220EA70312012237A7031279
:1011D30001224FA70312012291A7031201220080CB
:1011E30003120122308003120122438003120122E1
:1011F300728003120122F080031201220F81031275
:101203000122B48103120122468203120122CB82FE
:1012130003120122918303120122AC8D03120122D6
:10122300D18D0312012237AC031201225C3F00125D
:101233000122B641001201228F42001201223E44D4
:1012430000120122304500120122B545001201228D
:10125300334600120122584600120122C0460012F2
:101263000122E449001201225E4A001201224D4B81
:1012730000120122874B00120122C74B00120122E8
:10128300814D00120122D44D001201221D4E001285
:1012930001228B4E00120122BD4E00120122D54EB7
:1012A30000120122E64F00120122F64F0012012222
:1012B3002651001201224851001201227E510012D0
:1012C300012223530012012262530012012282548D
:1012D30000120122ADA803120122BEA803120122AB
:1012E30063A903120122EEAB031201222DAC0312F8
:1012F3000122E87F0012012219AA0312012229AA5E
:101303000312012241AA03120122A9AA03120122F4
:10131300E7A4031201226CA503120122D2A5031232
:101323000122DCA30312012203A40312012259A404
:1013330003120122A9A403120122BFEB021201220C
:10134300D3EB021201224CEC0212012225ED021210
:101353000122E3EF02120122CE97031201224998E0
:1013630003120122E09803120122F89803120122CA
:101373000C9903120122699903120122779903122E
:101383000122CD7900120122F57B00120122D67CC5
:10139300001201222A7D00120122097E001201227D
:1013A3000C7E00120122907E00120122019802128B
:1013B3000122619802120122639902120122859986
:1013C300021201229899021201222D9A021201227D
:1013D300049C02120122189E02120122259F02126E
:1013E30001228A9F02120122E59F0212012246A0D6
:1013F3000212012287A0021201228AA002120122F4
:10140300D9A002120122E5A10212012283A2021233
:101413000122CFA202120122F4A20212012248FDEC
:101423000212012212FF021201227FFF0212012285
:10143300AF9E03120122049F03120122729F031223
:101443000122E29F031201226493031201228E936D
:1014530003120122639403120122579503120122FE
:10146300A6F70112012263F8011201229EF801126C
:101473000122C6F80112012228F90112012274F98E
:1014830001120122CDF9011201225EFA0112012299
:1014930060FB011201221DFD011201229FFD0112B9
:1014A300012204FE011201221BFE011201222BFF65
:1014B3000112012269FF011201228ADC01120122B9
:1014C30014E0011201229CE101120122F3E1011255
:1014D300012212E20112012290E2011201222EE402
:1014E3000112012212E501120122FCE8011201227C
:1014F300CCE901120122109D03120122409D031227
:101503000122589D03120122A79D03120122AC9DC3
:1015130003120122789E031201227EAC03120122E0
:10152300D6FF01E066701008A3E066700A08A3E026
:1015330066700408A3E06622C3E7960809E79608E5
:1015430009E7960809E79622C3E09608A3E0960800
:10155300A3E09608A3E09622C008C3E096F5080826
:10156300A3E096420808A3E096420808A3E0964544
:10157300087001D3D00822080808EAC0E0EBC0E0F5
:1015830086F0E7A4FA180986F0E7A42AFA18098670
:10159300F0E7A42AFA180986F0E7A42AFA1986F0D4
:1015A300E7A4FBE5F02AFA190886F0E7A42BFBE58C
:1015B300F03AFA190886F0E7A42BFBE5F03AFA189B
:1015C300180986F0E7A4C5F02BFBE43AFA1908E7FB
:1015D300C5F0C6A426F6E5F03BFBE43AFA1886F01C
:1015E300E7A4F6E5F00826F6E43B08F6E43A08F645
:1015F300D0E0FBD0E0FA22E4CFC0E0E4CEC0E0E4E8
:10160300CDC0E0E4CCC0E075F020E626F608E63372
:10161300F608E633F608E633F6181818EC33FCED53
:1016230033FDEE33FEEF33FFC3EC9709ED9709EE7D
:101633009709EF97191919400FFFEC97FC09ED97DC
:10164300FD09EE97FE191906D5F0BFECF709EDF782
:1016530009EEF709EFF7191919D0E0FCD0E0FDD036
:10166300E0FED0E0FF226016080808C6C313C618C0
:10167300C613C618C613C618C613C6D5E0EA227029
:1016830009080808226016181818C6C333C608C606
:1016930033C608C633C608C633C6D5E0EA22E627F2
:1016A300F60809E637F60809E637F60809E637F6D5
:1016B30022E026F608A3E036F608A3E036F608A3F0
:1016C300E036F622E026F008A3E036F008A3E03681
:1016D300F008A3E036F022C3E697F60809E697F68A
:1016E3000809E697F60809E697F622C3E096F0089C
:1016F300A3E096F008A3E096F008A3E096F022E0BA
:1017030056F608A3E056F608A3E056F608A3E056FB
:10171300F622E056F008A3E056F008A3E056F008DE
:10172300A3E056F022E0F608A3E0F608A3E0F608EB
:10173300A3E0F622E6F008A3E6F008A3E6F008A388
:10174300E6F022E0FAA3E0FBA3E0FCA3E0FD22EA3B
:10175300F0A3EBF0A3ECF0A3EDF022E0F8A3E0F9A3
:10176300A3E0FAA3E0FB22E8F0A3E9F0A3EAF0A3E5
:10177300EBF022CAC0E0E6F0A308DAFAD0E0FA22DE
:10178300CAC0E0E0A3C582CCC582C583CDC583F0C2
:10179300A3C582CCC582C583CDC583DAE6D0E0CAB2
:1017A30022C3E498F8E499F91217E58026C3E49A72
:1017B300FAE49BFBE920E7E91217E5E498F8E499DA
:1017C300F922C3E498F8E499F91217E5E498F8E4E8
:1017D30099F9C3E49AFAE49BFB22EB20E7CFE920D3
:1017E300E7E0B90010BB0008E88AF084F8AAF02209
:1017F300E4FBC8FA22EB70227B10C833C8C933C993
:10180300335007C39AC3DBF280069A50012ADBEAFE
:10181300C833F4C8C933F4C9FA2275F008E4C833ED
:10182300C8C933C933C99AC99B5004C92AC93BD50E
:10183300F0ECFBC833F4C8E4C9FA22600D08C6A271
:10184300E713C618C613C6D5E0F322600C08C6C357
:1018530013C618C613C6D5E0F422700422600D180F
:10186300C6C333C608C633C6D5E0F41822251810FC
:10187300AF08F518400C15198008F5184002151922
:10188300D2AF2200C0D0251810AF08F518500C05B0
:10189300198008F51850020519D2AFD0D0222518A7
:1018A300F58210AF08F518400C15198008F518409B
:1018B300021519D2AF851983222518F582E435194B
:1018C300F583222518F8E43519F9222518FAE435A9
:1018D30019FB222518FCE43519FD22E4732518C5EC
:1018E30082C0E0E51934FFC583C0E0E518C39582E3
:1018F30024F810AF08858319858218800885831919
:10190300858218D2AFCEF0A3E520F0A37808E608CD
:10191300F0A3DEFAEFF0A3E58124FAF8E608F0A3DA
:10192300E608F0A3E608F0A30808E608F0A3E60833
:10193300F0A315811581D0E0FED0E0F81581158163
:101943001581E8C0E0EEC0E0222518C582C0E0E5BD
:101953001934FFC583C0E0E518C3958224F910AF9D
:10196300088583198582188008858319858218D292
:10197300AFCEF0A3E520F0A37808E608F0A3DEFAE3
:10198300EFF0A3E58124FBF8E608F0A3E608F0A353
:101993000808E608F0A3E608F0A315811581D0E056
:1019A300FED0E0F815811581E8C0E0EEC0E02285A5
:1019B3001983851882E0A3FEE0A3F5207808E0A34D
:1019C300F608DFFAE0A3FFE0A3C0E0E0A3C0E0E095
:1019D300A3C0E0E0A3C0E0E0A3C0E010AF088582AD
:1019E300188583198008858218858319D2AFD0831F
:1019F300D08202011F851983851882E0A3FEE0A32C
:101A0300F5207808E0A3F608DFFAE0A3FFE0A3C01F
:101A1300E0E0A3C0E0E0A3C0E0E0A3C0E010AF08B3
:101A23008582188583198008858218858319D2AF2A
:101A3300D083D08222C0D02518C582C0E0E51934F6
:101A4300FFC583C0E0E518C3958224F310AF088572
:101A530083198582188008858319858218D2AFC8B7
:101A6300F0A3E9F0A3EAF0A3EBF0A37908E709F008
:101A7300A3D8FAECF0A3EDF0A3EEF0A3EFF0A3D01C
:101A8300E0F0A3D0E0F0A3D0E0F0A3E520F0A3E5DD
:101A9300F0F0A322851983851882E0C0E0A3E0F962
:101AA300A3E0FAA3E0FBA37808E0F608A3DFFAE0DB
:101AB300FCA3E0FDA3E0FEA3E0FFA3E0C0E0A3E0FE
:101AC300C0E0A3E0F5D0A3E0F520A3E0A3F5F01078
:101AD300AF08858319858218800885831985821844
:101AE300D2AFD082D083D0E0F8D0E0327404800645
:101AF300740280027401C0E0F4041218A1D0E01251
:101B03001776227404800474028000CCC0E0EDC018
:101B1300E0E518C39CCCAD1950011D10AF068C181D
:101B23008D1980068C188D19D2AF121783D0E0FD62
:101B3300D0E0FC22D083D082E9C0E0E493A3C38643
:101B4300F0C5F095F0F908E493A386F0C5F095F09D
:101B5300700BE493A3C3994005E9048002A3E475E1
:101B6300F002A42582F582E5F03583F583D0E0F910
:101B7300E493A3C0E0E493C0E022D083D082ECC01E
:101B8300E0EDC0E0E493A3FCE493A3FDED4C600D12
:101B9300121BC9EC24FFFCED34FFFD80EFE493A39B
:101BA300FCE493A3FDED4C600D121C08EC24FFFC38
:101BB300ED34FFFD80EFD0E0FDD0E0FCE493A3C063
:101BC300E0E493C0E022C0E0C3E493960874019379
:101BD3009618400FE49366700808740193661870B2
:101BE300007019A3A3C3E49396087401939618A3F2
:101BF300A3400DD0E0D0E0D0E0021BB9A3A3A3A380
:101C0300A3A3D0E022C0E0C0F088F0E4936670089C
:101C13000874019366187000A8F0A3A3700BD0F0AA
:101C2300D0E0D0E0D0E0021BB9A3A3D0F0D0E022F3
:101C340074F512194CEAFEEBFFEE2434F8EF34008D
:101C4400F988088909EE2435121D60F8EE2437124C
:101C54001D60F50AEC850AF0A4FCAAF0850AF0EDF3
:101C6400A42AFDE82CF8E43DF97A257B001217E557
:101C7400EA850882850983F074075AF87401B8006C
:101C8400028004C333D8FCFBEA131313541FF8EE89
:101C940028F8EF3400F9E8245DF582E9121D635B4E
:101CA4006003EA801CEE2436121D60F5F0EA84A875
:101CB400F0EE28F8EF3400F9E82438F582E9121D33
:101CC40063F97F040219F874F512194CEAFEEBFF6C
:101CD400EE2434121D60C0E0EE2435F582EF3400AA
:101CE400F583D0E0F08E828F83A3A3A3A3A3E0FAAD
:101CF400A3E0FB8E828F83A3A3A3A3A3A3A3E0FCEF
:101D0400A3E0FDECC39AF50AED9BF50BEE247FF5F9
:101D140008EF3400F509850882F583E06401702B2F
:101D2400EE2480F582EF3400F583121B0A121D693C
:101D34007402121886E960137CDC7D04EEFAEFFB72
:101D4400120C2C850882850983E4F0AC0AAD0BEEF5
:101D5400FAEFFB121C3412258F021CC6F582EF34F5
:101D640000F583E022C082C083851882851983E050
:101D7400F8A3E0F9C3EA9CEB9D5010C3EC98ED99ED
:101D8400401BC3EA98EB995014800EC3EA98EB9970
:101D94004007C3EC98ED994004790180027900D0A2
:101DA40083D08222EAC39CFAEB9DFB2274ED1219C4
:101DB4004C9003A2E064086005E06407702C906115
:101DC400C8E060269003D0E0F874FF68601CE875F2
:101DD400F003A4C8AAF02AF974D228FE740339FFC8
:101DE4008E828F83A3A3A3E070057900021F50EEB7
:101DF4002468F510EF3400F511906060E0851082DE
:101E0400851183F0750A45750B0575080075090081
:101E1400E5D914F50EE5D95403F50F601CEE2482C0
:101E2400F50CEF3400F50D7403650F6058E50E6092
:101E340013EE2467121D60700B793DEEFAEFFB126E
:101E44000C5080A6900540E064016026850C8285D4
:101E54000D83E06004780480027800850E08E508AC
:101E6400C398FA95E0FB120AD68A088B09EA450959
:101E74007006120EA8021DEE850C82850D83E0709B
:101E8400048A0A8B0B78008016E5D9C0E08812E535
:101E94000A2512F582E50B3400F583D0E0F008E85A
:101EA400C3950E40E4850C82850D83E0602874FCA4
:101EB400250EF50E780A121AF3AC0EA90FEEFAEFFE
:101EC400FB120CFE7402121886E9700AAA08AB0908
:101ED400121436021E3D7403650F6058850E0C758E
:101EE4000D00780C121AF3AC0AAD0BAA08AB091258
:101EF4000CC27402121886851082851183E0F8746E
:101F040080687005750C7F8002880CE50CF50A78F2
:101F14000A121AF7E50FF50A780A121AF7A90EAC95
:101F240008AD099003D0E0FA7B0012096E74021226
:101F3400188680139003A2E06408600BAC0AAD0B12
:101F4400EEFAEFFB120D94120EB479017F0C021914
:101F5400F874F312194C74FC121870EAFEEBFF8942
:101F640008A2AFE433F509C2AFEE2463F50AEF34F7
:101F740000F50B8010AA0AAB0B120C7A12143690DF
:101F840004E3E004F0850A82850B83E0F8A3E0F91A
:101F9400E849602FE82402FAE93400FBEA2402F558
:101FA4000CEB3400F50D780C121AF38A828B83E063
:101FB400FCA3E0F9EEFAEFFB120C6E740212188621
:101FC400E960B29004E3E060579004E4E0F8900420
:101FD400E3E0C398500C7402650870449004E5E093
:101FE400603E8E828F83A3A3A3A3E0851882851904
:101FF4008312203474021218BCE81220349004E2D4
:10200400E028F074021218BCAC82AD838518828576
:102014001983AA82AB83790112097A9004E3E4F06C
:10202400E509A2E092AF74041218867F060219F83B
:10203400F0A3E4F09004E3E0F82200008521878512
:1020440022C622C0E074EF121A38A2AFE433FEC2F3
:10205400AF759B00906182E0A2E05012E591A2E08E
:10206400500C7591FE740165217003121DB0E0A23D
:10207400E55051E591A2E5504B7591DF9003A2E044
:1020840064076005E0640870237401652170357984
:10209400019003D0E0FA75F003A4CAA8F028FB74F9
:1020A400D22AFA74033BFB121F558018E0640D70AA
:1020B400139003C4E004F064287002E4F07A00E0B2
:1020C400F9120EBA906182E0A2E6400302216EE5A5
:1020D40091A2E6400302216E7591BF9003A2E064D1
:1020E400057008120DD6120DE28003120DDC752165
:1020F40000120E48E99003A3F07900120E3C120B73
:10210400967A017B009003A1E0F9121124907803E0
:10211400E064427055900544E014F0704DC2AF1273
:10212400212600782AD0E0F618D0E0F6E59F54077F
:1021340070057509FF800375097FC4C0E07829E63E
:10214400F50808E65509F509740B780812184ED0FD
:10215400E02508F8906270E0A2E740F8E8C3339005
:102164006272F0906270E0D2E0F0906181E0A2E3EC
:102174005009E5E9A2E3500375E9F7A3E0A2E750AB
:1021840009E591A2E7500375917FEEA2E092AF7F3B
:1021940004021A97C0E0C0D0C082C083906183E07B
:1021A400A2E05009E5BFA2E0500375BFFEE0A2E142
:1021B4005009E5BFA2E1500375BFFDE0A2E250095A
:1021C400E5BFA2E2500375BFFBE0A2E35009E5BFFF
:1021D400A2E3500375BFF7E0A2E45009E5BFA2E40F
:1021E400500375BFEFE0A2E55009E5BFA2E5500337
:1021F40075BFDFE0A2E65009E5BFA2E6500375BF54
:10220400BFD083D082D0D0D0E032C0E074F2121AB2
:1022140038E5A7A2E4500FE5A1A2E4500953A7EFC3
:1022240075A1EF122262E5A7A2E5500CE5A1A2E593
:10223400500653A7DF75A1DFE5A7A2E15009E5A188
:10224400A2E1500375A1FDE5A7A2E2500CE5A1A20D
:10225400E2500653A7FB75A1FB7F01021A9774F89D
:1022640012194C7521019003A2E0640670077A00EC
:102274007B00120DBEA2AFE433FED2AF9003A8E000
:10228400640170187A207B009003A1E0F91211A276
:102294007A207B009003A1E0F912112A906182E078
:1022A400D2E6F0900541E0602185C62280169003B5
:1022B400A7E064017008E5C654F84405F5C653BEAA
:1022C400FC1220407401652160E4EEA2E092AF7F2D
:1022D400010219F88E238F24858228858327851887
:1022E40082851983E0CEA3E0CF852882852783EBFE
:1022F400C9EAC8EDCBECCA75F010C3E833C8E933BA
:10230400C9EA33CAEB33CBC3EA9EF526EB9FF52526
:10231400B35004AB25AA26EC33CCED33CDD5F0DA9B
:10232400AE23AF242274F112194C8A088B098C0A4B
:102334008D0B9090947808121702740F1218BC78C1
:102344000C121728909094780C1217027808790CC4
:1023540012153B90905C50107808790C1216DA78BC
:102364000812155B4014800E780C79081216DA787E
:102374000C12155B50047901800279007F08021960
:10238400F874ED12194C8A088B098C0A8D0B909005
:1023940094780812170274131218BC780C121728B8
:1023A400909094780C121702780C790812153B401F
:1023B400117808790C1216DAAA08AB09AC0AAD0B2D
:1023C40080227510007511007512007513017810C4
:1023D400790C1216DA781079081216A1AA10AB112A
:1023E400AC12AD137F0C0219F89090947808121770
:1023F400288A828B8378081217157F040219F874CF
:10240400F512194C8C828D8378081217288A828BD6
:102414008378081216EE122457C3E098F0A3E099CB
:10242400122449401E9090A478081217288A828B9F
:102434008378081216C78E828F83E02420F0A3E0ED
:10244400344EF080A4F08E828F83C3E09420A3E006
:10245400944E22EA2404F8EB3400F9E8FEE9FF8CF8
:10246400828D83A3A3A3A3E0F8A3E0F98E828F83D4
:102474002274F512194CE9FE9004F7E0FAA3E0FB8C
:10248400EEC333F8E433F974E428F582748F39F534
:1024940083E02AF508A3E03BF5097808121AF390C3
:1024A40090D01217461222D874021218868A088B0A
:1024B400098C0A8D0B74107808121669AA08AB09E6
:1024C4007F040219F874F112194C8A0C8B0D8C0ECE
:1024D4008D0F740F1218BCE0FAA3E0FB74111218EC
:1024E400BCE0F508A3E0F5097808121AF3EA240120
:1024F400F508EB3400F509E4F50AF50B780C7908D6
:1025040012157A9090687808121728780C790812B6
:10251400157AAA0CAB0DAC0EAD0F1222D8740212B0
:1025240018868B09EA450960047A0180027A00EC76
:102534002AFCED3400FD74131218BCE0F8A3E0F992
:10254400E8FEE9FFECF8EDF97A717B021217E588F1
:10255400088909E4F50AF50B8E828F83780812172F
:1025640037ECF8EDF97A717B021217E58A088B09CA
:102574007405780812185D8E828F83A3A3A3A3E544
:1025840008F0A3E509F07F080219F8C082C083E9C6
:10259400906000F0D083D08222C2AF02000022C03B
:1025A400E074F2121A38A2AFE433FED2AFE589A286
:1025B400E04006E589A2E1500312133475890075E1
:1025C4008900C2C5EEA2E092AF7F01021A97C0E073
:1025D400C0D0E8C0E0E9C0E0E5A8D2AFC2C7A2E736
:1025E400A2E792AFD0E0F9D0E0F8D0D0D0E032C08A
:1025F400E0C0D0E8C0E0E9C0E0EAC0E0C082C08347
:10260400A2AFE433FAD2AFE5F9C0E0900910E0F8E4
:10261400748F28F582E43408F583D0E0F090090F34
:10262400E0F8A3E0687006E595900912F0900910AF
:10263400E004F0C394804002E4F0A3E4F0EAA2E0F2
:1026440092AFD083D082D0E0FAD0E0F9D0E0F8D0D5
:10265400D0D0E032C0E0C0D0E8C0E0E9C0E0C008BB
:10266400C009C082C083A2AFE433F9D2AF9009930A
:10267400E0F8A3E0687008539AF7A374018025C2B8
:10268400EA900993E0F50874012508F0741325080D
:10269400F582E43409F583E0F5F9900993E0C394F5
:1026A400804002E4F0E9A2E092AFD083D082D00966
:1026B400D0088095FFFFFFFFFFFFFFFFC082C083AC
:1026C400E9900C22F00228EA74F71218E0E990026B
:1026D400E1F07C197D037AFF7BFF1208CC9002E2C3
:1026E40074FFF0A3F0A3E4F0A3F0790512085A9064
:1026F40002E1E0F912077C7AE47B08120A887F0180
:102704000219B274F41218E08A088B09EB54806041
:10271400309002E1E0F912110C8A0A8B0BAE0AAF79
:102724000BEE4F60138E828F83E064B07003120847
:102734006CEEFAEFFB1210FAAA08E5096480FB803C
:10274400047A007B000228B974F21218E074FC12B7
:102754001870EAFEEBFFEE4F603874021218BCEEFC
:10276400F0A3EF122B1EECF0A3ED122B1EAA82ABEA
:1027740083120776E9F508707374121218BC1236C6
:10278400D2E50A450B60658E828F831227FAEE4FDD
:10279400700575080280557A067B001211608A0C58
:1027A4008B0DA80CA90DE8497005750813803D88A8
:1027B400828983E4122804A3A3EEF0A3EF123B6BF7
:1027C400E50AF0A3E50BF09002E712288C9002E7EB
:1027D4006017E0FCA3E08003EAFCEBFD8C828D83B0
:1027E40012288C70F38C828D831235F7A908740437
:1027F400121886023D6DA3A3A3A3E0FEA3E0FF226B
:10280400F0A3F0888289832274F21218E0890AE91D
:1028140075F017A4FEAFF09002E6E4F09002E41223
:10282400288C600A1211669002E4E4F0A3F0EEFA38
:10283400EFFB1211608A088B09EA4509602FEEFC50
:10284400EFFD79001210E89002E4E508F0A3E50931
:10285400F07B008008122876E4F0A3F00BEBC3951C
:102864000A40F2E50A9002E6F07900800279130248
:102874003D6DEB75F017A4F8A9F09002E4E028FA96
:10288400A3E0398A82F5832212338DEA4B2274F451
:102894001218E07900EAA2E0501B750852750990FD
:1028A4007808121AF37C047D007A247B0C120854F5
:1028B40074021218867F040219B2C082C083900287
:1028C400E71228F1601C88828983A3A3E06A70035D
:1028D400A3E06B8882898370E8A3A3A3A31233893E
:1028E40080047A007B00D083D08202011F123E4014
:1028F400E8492274EE1218E074FC121870EAFEEB38
:10290400FF851882851983E4F0A3F0EE24021235C2
:10291400DBEE2405122B0CEE2404F50EEF122EF13F
:10292400E024FE603924FC604624FE605224FE60EC
:102934005E24FE7003022A1124FE7003022A8924F5
:10294400FE7003022A9824FE7003022AA724FC7056
:1029540003022AB624FE7003022AC5022B02900346
:10296400007417F0A3E4122B261204F4022B028540
:102974001882851983AC82AD83120872022AD2852B
:102984001882851983AC82AD83120878022AD28515
:102994000C08850D0974021218BCAC82AD8385083D
:1029A4008285098312338912079A8A0C8B0DAC0C29
:1029B400AD0DEC4D6042E4F50CF50D780C121AF3F4
:1029C400750C00750D03780C121AF3750C01750D56
:1029D40003780C121AF374081218BC121B0A791625
:1029E4001233831208B47408121886E9F50C700BBC
:1029F40012337F12050C800F750C0185088285093E
:102A040083122B141235F7850C08022AD57402128E
:102A140018BCAC82AD83850C82850D831233891278
:102A2400079A8A108B11AC10AD11EC4D6043850CE4
:102A340082850D83A3A3121B0A75100075110378F8
:102A440010121AF37510017511037810121AF37429
:102A5400081218BC121B0A79161233831208B474B4
:102A640008121886E9F509700B12337F12051280DB
:102A74000F750901850C82850D83122B141235F70D
:102A8400850908804C851882851983AC82AD831230
:102A9400087E803A851882851983AC82AD8312083A
:102AA40084802B851882851983AC82AD8312088AB1
:102AB400801C851882851983AC82AD8312089080AE
:102AC4000D851882851983AC82AD83120896E9F5C9
:102AD40008E50860298E828F83A3E06414601F8553
:102AE4000E82850F83E0900300122B1E123E3C9051
:102AF40003011235F7E508A3122B261204EEEEFAB1
:102B0400EFFB1208180234E3F50CEF3400F50D2244
:102B1400123E4085188285198322F0851882851912
:102B24008322F07C007D03850A82850B8312338D1A
:102B34002274EE1218E074FC1218708A0A8B0B8C43
:102B44000E8D0FEA2405F508EB3400F5097C157D9C
:102B54000079007A007B031210E8E5082402F50CE2
:102B6400E509122B0F8518828519838582108583C8
:102B7400117810121AF3850882850983A3A3A3A3ED
:102B8400123039121AF3E5082405F510E50934006A
:102B9400F5117810121AF3850C82850D8312339384
:102BA40012079474061218868A108B11AE10AF1196
:102BB400E50A2402F50AE50B1235DEEE4F70030236
:102BC4002CFB801774021218BC1233898882898303
:102BD400EAF0A3EBF0900300E004F0900300E0C3FC
:102BE40094054003022CFBE4F510F5117810121A39
:102BF400F37510E97511027810121AF37510EA755D
:102C040011027810121AF374061218BC121B0A79F6
:102C140010EEFCEFFD1233831208B4740812188608
:102C2400E9705E850882850983A3A3A3A3A3A3A354
:102C3400E0F89002E9E0687048123039121AF37C27
:102C4400EA7D02E5082408FAE5093400FB1210E2E3
:102C54007402121886E960298E828F83A3A3A3A32A
:102C6400123389900300E0F5107402781012185D95
:102C740074012510F58274033511F583EAF0A3EB92
:102C8400F074021218BC8582108583117810121A10
:102C9400F374021218BC121B0A850C82850D831270
:102CA4003E511207A074041218868A108B11AE10BC
:102CB400AF11900300E0F510751100740278101242
:102CC400185D74002510F874033511F9888289831E
:102CD400A312288C7003022BBFE82403F8E9340004
:102CE400F9EE4F6003022BC88882898374FFF0A336
:102CF400F0900300E004F0900300E0600A12337FD8
:102D04001205007900800B8508828509831235EE4F
:102D1400790A0234E374EA1218E074FE1218708C13
:102D2400128D13EA2405F50CEB123E5B1227FE7597
:102D34000800750900EA2402F510EB3400F511854A
:102D4400188285198385820A85830B780A121AF3FF
:102D5400850C82850D83A3A3A3A3122EFB121AF361
:102D6400E50C2405F50AE50D1235DE780A121AF38E
:102D7400850C82850D83123E4F1207947406121837
:102D8400868A0A8B0BEA450B7003022EACEA2404F4
:102D9400F50EEB122EF11227FE8A828B83A3A3A3D6
:102DA400E0F9851082851183123389120782E9F5CF
:102DB400096003022EACE4F514F5157814121AF325
:102DC4007514E97515027814121AF37514EA751559
:102DD400027814121AF374061218BC121B0A79131F
:102DE400AC0AAD0B8510828511831233891208B4A5
:102DF4007408121886E9F5096003022EAC9002E902
:102E0400E0F8E5087009E02402900301F0801790CF
:102E14000301E0FCE82402FAE43400FBEA6C7001EC
:102E2400EB6003022EB0850882AA8212303094141B
:102E34001230285073850E82850F83E0C0E074023F
:102E44002A122EE8D0E0F00508850E82850F83A3B0
:102E5400E0C0E085080A7402250A122EE8D0E0F0EA
:102E640005089002E9122EFB121AF37CEA7D028512
:102E7400080A7402250AFA74033400FB1210D07491
:102E8400021218869002E9E02508F50874FF6E70B6
:102E94000374FF6F6012EE24010EEF3400FFE508A7
:102EA400C394145003022D43E50860131232748551
:102EB400108285118312338912050679008014E586
:102EC40009700375090A851282851383EEF0A3EF56
:102ED400F0A90974021218867F0E0219B285080C33
:102EE4007402250CF58274033400F583223400F552
:102EF4000F850E82F58322123B7E2274EE1218E0B7
:102F040074FE1218708C0E8D0FEA2405F50CEB126A
:102F14002B0F750B00900300E4F0F50AEA2402F588
:102F240008EB3400F5098049900300E0FA9002E9C7
:102F3400E0F81230309417123028400D900300E06E
:102F4400F87416C3989002E9F0123039121AF37C1F
:102F5400EA7D0274012AFA74033400FB1210D0745F
:102F6400021218869002E9E0F8900300E028F005C8
:102F74000AE50C2416F582E50D122EECE0F8E50ABC
:102F8400C3984003023011900300E0C39416507DAF
:102F9400E50AC333F8E433F9E50C28FEE50D39FFFF
:102FA400851882851983AC82AD838E828F83123318
:102FB4008912079A8A108B11AC10AD11EC4D700573
:102FC400750B018043E4F510F5117810121AF375AE
:102FD40010E97511027810121AF37510EA751102CE
:102FE4007810121AF374061218BC121B0A7916858B
:102FF40008828509831233891208B474081218866A
:10300400E9F50B7003022F2C1235EA80107C007D49
:1030140003850882850983123389120518A90B7464
:10302400020234E5E99400C365D03322EA28F8E4C7
:103034003400F9E822E0F51075110078102274EAE2
:103044001218E074FC1218708A0C8B0D8C128D13FC
:10305400EA2405F50AEB1235DE750800750900E56A
:103064000A2402F510E50B3400F51174021218BCA1
:1030740085820E85830F780E121AF3850A82850BDA
:1030840083A3A3A3A3123B2A121AF3E50A2405F58A
:103094000EE50B3400F50F780E121AF385108285B5
:1030A40011831235E41233831207947406121886BE
:1030B4008A0E8B0FAE0EAF0FE50C2402F50EE50D54
:1030C4003400F50F80408882898374FFF00508126C
:1030D4002EE174FFF005089002E9E0F50C750D008F
:1030E400780C121AF37CEA7D0285080C7402250C14
:1030F400FA74033400FB1210D07402121886900282
:10310400E9E02508F508EE4F60718E828F83A3A352
:10311400A3E0F9850E82850F83123389120782E9B1
:10312400F509EE2404122B0CE97044E4F514F515AA
:103134007814121AF37514E97515027814121AF337
:103144007514EA7515027814121AF374081218BC6F
:10315400121B0A7911EEFCEFFD850E82850F831296
:1031640033891208B47408121886E9F509602785B2
:103174000C82850D8312326A1235F7E5087003025A
:103184003250123274850E82850F831233891205F0
:103194001E7900023265850882AA82EA9002E970EB
:1031A40009E02404900301F08022E0F8900301E098
:1031B400F514E82404FCE43400FDEC65147001ED1E
:1031C40070C0123030941212302850B6850C8285AB
:1031D4000D83E0C0E074022A122EE8D0E0F0050866
:1031E400850C82850D83A3E0C0E0122EE1D0E012AD
:1031F400328685820C85830D780C121AF3740412BE
:1032040018BC121B0A851082851183123E511207C5
:10321400A074041218868A0C8B0DAE0CAF0D8508B1
:103224000C7402250CF874033400F9EE4F70030299
:1032340030CA851882851983E08882898312328690
:10324400A3E0C0E0122EE1D0E00230D8E50970031B
:1032540075090A850A82850B8312326A1235F7A929
:10326400097404022ED9123E4085128285138322EA
:10327400900301E0F5F0E50884900300F07C007D04
:103284000322F005088518828519832274EC12182C
:10329400E074FE1218708A088B098C0E8D0FEA24D4
:1032A40005FEEB3400FF851882851983AC82AD835B
:1032B4008E828F8312338912079A8A0A8B0BEE242B
:1032C40018122B0CEA450B700302335A1234CC50FB
:1032D400328518828519831233891208A88A108BC3
:1032E40011EA4511606B7912AC0AAD0B8508828531
:1032F40009831233898510828511831218DEE9F55A
:103304000A7058E4F50AF50B780A121AF38E828FC4
:1033140083A3A3E0F50A780A121AF3EE2403123504
:10332400DB780A121AF38E828F831233931208BA4F
:103334007406121886E9F50A7021850C82850D83BE
:10334400E0701F8508828509831233891205248061
:1033540011750A0E8009750A018004E50A600312DA
:1033640035EA850C82850D83E0600479008002A92A
:103374000A74021218867F0C0219B27C007D038540
:103384000A82850B8312338D22E0FAA3E0FB22E04C
:10339400FCA3E0FD85088285098312338D2274EE37
:1033A4001218E074FE1218708A088B098C0C8D0DAB
:1033B400EA2405FEEB3400FF750E0085188285199A
:1033C40083AC82AD838E828F8312338912079A8AEB
:1033D4000A8B0BEA450B70030234B81234CC503517
:1033E4008518828519831233891208A88A0E8B0FD7
:1033F400EA450F605E7912AC0AAD0B850882850937
:1034040083123389850E82850F831218DEE9F50E47
:1034140060030234BB8508828509831236D2AA0A66
:10342400FB12089C8A108B11A810A911E849701E80
:103434007AFF7BFF12089C8A108B11A810A911E84F
:1034440049606C88828983E50AF0A3E50BF0750A6C
:10345400008007750E0E805F050A9002E6E0FAE52B
:103464000AC39A504AE50A75F017A4FAABF08882A9
:103474008983A3A3E02AFAA3E03BFB8A828B83120D
:1034840035E4EC4D70D2750A17750B00780A121AE0
:10349400F3EEFCEFFD1210D07402121886EEFCEF6E
:1034A400FD85088285098312338912052A801475E3
:1034B4000E098003750E01123E38850C82850D833A
:1034C4001235F7A90E023023E5082402F508E509B0
:1034D4003400F5098A828B83A3A3A3E0A2E52274B6
:1034E400041218867F0A0219B274EC1218E08C10C8
:1034F4008D11EA2405F50CEB122B0F750F00EA244D
:1035040002F50AEB1235DE850A82F583123389123D
:10351400089C8A088B09EA450970030235D0750EA8
:10352400008071850C82850D83E06401704F8E826A
:103534008F83A3A3121B0A8E828F83A3A3A3A3E06A
:10354400F5127513007812121AF3EE2405F512EF32
:103554003400F5137812121AF31233831208BA7472
:1035640006121886E9F50F6014850C82850D83E434
:10357400F0123E388510828511831235F77C177D51
:10358400007900EEFAEFFB1210E88E828F83E4F0EC
:10359400A3F0050E9002E6E0F8E50EC398501EE590
:1035A4000E75F017A4F8A9F0850882850983A3A3F2
:1035B400123E651235E4EC4D60030235278508821E
:1035C40085098374FFF0A3F0E50F700612338312AC
:1035D4000530A90F02337AF50AEF3400F50B22A364
:1035E400E0FCA3E0FD228E828F83123E40850E8292
:1035F400850F83E8F0A3E9F022C082C0839002E241
:10360400E06A7003A3E06B70067AE27B0280047ABE
:10361400007B000228EAC082C08378008C828D83FC
:10362400E06A7003A3E06B7010E875F003A4F8A9D6
:10363400F0EC28FAED39FB8015088C828D83A3A366
:10364400A3E06A7003A3E06B60DF7A007B000228CA
:10365400EA74F61218E01208668A828B83E58245C2
:103664008370067A007B008007A3A3A3A312338987
:10367400023CE974F21218E0E9FE740E1218BC124E
:1036840036D274101218BC123B4A8C828D83E064CB
:10369400027036A3123E46F50CA3E0F9A80C74029E
:1036A4006870037429697021750C02750D00780C1B
:1036B400121AF37808121AF3780A121AF3EEF912AE
:1036C40008DE740612188680027901023D6DE0F569
:1036D4000AA3E0F50B2274E81218E074FB121870C8
:1036E400E9851882851983F08A168B17ECFEEDFFA5
:1036F400751000741D1218BC123E3C741D1218BCC7
:103704001235F78E828F83A3A3A3E0A2E4502D7415
:103714001D1218BC1233891208A88A828B83E58291
:1037240045837003023B1B790AEEFCEFFDAA16AB3E
:10373400171218DEE9F5106003023B1E741F1218FD
:10374400BC123B4A74211218BC1236D274231218CC
:10375400BCE0F50EA3E0F50F8E828F83E064026077
:1037640003023AC9A3123E3C850882850983A385D6
:103774008212858313EE2406122B0C88828983E03F
:10378400FAA3E0F9EA2400F514E439F515781412E3
:103794001B7D010000280128BE370700022883385A
:1037A4000328F0370029BA390129E5390229863975
:1037B4000329BA390429643AC93AE50E450F60036E
:1037C400023AC4850C82850D83123B3FFAE9FB8AD9
:1037D400828B83E0850A82850B83123B75121AF370
:1037E4008A828B83A3E0FCA3E0023A4EE50E450FE8
:1037F4006003023AC4850A82850B837401F0123B8C
:1038040052850882850983F07C007D008E828F8337
:10381400A3A3A3A3E02401FAA3E03400FB12079AB4
:10382400EA4B60418A828B83E02402F8850A828510
:103834000B83E028F0EA2404F8EB3400F988828949
:1038440083E0851282851383123B87123B75121A1B
:10385400F38A828B831235E3E5082403FAE50934FD
:1038640000FB023A53850A82850B83E02404F07C32
:10387400047D007900AA12AB131210E8023B1EE586
:103884000E450F6003023AC4123B52FEA3E0FF85CB
:103894000A82850B837404F0EE850882850983F01F
:1038A400EF851282851383F074031218BCAC82ADC9
:1038B40083EEFAEFFB12079A8A0C8B0DEA450D7022
:1038C400030239678A828B83A3A31227FA74011235
:1038D40018BC85820E85830F780E121AF3740512B4
:1038E40018BC121B0A7CFF7DFF1207A07404121877
:1038F400868B0FEA450F7033850C82850D83123B4E
:103904002A121AF3850C82850D83A3121B0A7C02EA
:103914007D007AE77B901205CC7404121886E97056
:103924000A74011218BC74FFF0A3F08E828F83E036
:1039340064027039750C02750D00780C121AF38E3E
:10394400828F831235E3E5082404FAE5093400FB89
:103954001210D07402121886850A82850B83E02423
:1039640002800974011218BCEEF0A3EFF074011286
:1039740018BC123B3BF074011218BCA3123B330277
:103984003ABEE50E450F6003023AC4850C82850DEC
:10399400831235E4AA16AB171208D2850A82850B66
:1039A400837402F0EA850882850983F08512828592
:1039B4001383EB023AC1E50E450F6003023AC412C9
:1039C4003B52F8A3E0F9850A82850B837402F0E880
:1039D400850882850983F0E9851282851383023A7A
:1039E400C1850C82850D831233891210CAEAFC8CBE
:1039F40082A882C3950EE4950F405FE8650E7002BD
:103A0400E50F70047C008022851882851983E0FA12
:103A1400E50E2AFAE50F3400FBC3EA98EB94005054
:103A240003E08005E50ECCC39CFCEC850A82850B83
:103A340083F08C0A750B00780A121AF3850C8285C0
:103A44000D83E0250EFCA3E0350FFDAA08AB091297
:103A540010D07402121886023B1E751007023B1E1A
:103A6400E50E450F705A850C82850D83123E3C8508
:103A74000A82850B837407122806123B3312280628
:103A8400A3E0851282851383F0E82402FAE9340066
:103A9400FB8A828B83123B33123B62123B3BA312A1
:103AA4003B6B123B44F0E82405F8E93400F98882C2
:103AB4008983123B44A3123B87A3A3A3A3F0805A98
:103AC40075100B8055741D1218BC123389120866C8
:103AD4008A828B83E5824583603D123E3C880C8953
:103AE4000DE8450D6031780E121AF3780A121AF3B4
:103AF4007808121AF374061218BCE0F9EEFCEFFD14
:103B0400AA16AB17850C82850D831218DE74061273
:103B14001886E9F510800375100EA91074051218A3
:103B2400867F100219B2E0F50E750F00780E22E0C0
:103B340085088285098322123B9122123E40E822A5
:103B4400123B91A3A322E0F508A3E0F50922850C1A
:103B540082850D83E0F8A3E0F5838882E022A3A3A5
:103B6400F08A828B83A322F088828983A3A3A3A3F0
:103B740022F08A828B83123B7E22E0F50A750B00C9
:103B8400780A22F088828983A3123B9122E0850877
:103B940082850983A3A32274EE1218E074FE12181E
:103BA400708A0A8B0BECFAEDFB74141218BCE0F566
:103BB40010A3E0F51174161218BCE0FE7418121864
:103BC400BCE0F50EA3E0F50F851882851983AC825D
:103BD400AD8312079A8A0C8B0DEA450D604985184E
:103BE400828519831233891208668A828B83E5825F
:103BF4004583602FA3A3123B4AE508450960247856
:103C04000E121AF37810121AF3EEF9AC0CAD0DAAD9
:103C14000AAB0B8508828509831218DE7404121816
:103C2400868006790E8002790102302374F6121818
:103C3400E074FE121870740C1218BC123B3F851805
:103C440082851983F074011218BCE9F0E4F508F5D3
:103C5400097808121AF37508027808121AF3740422
:103C64001218BC8582088583097808121AF3120891
:103C7400BA74061218867402121886806874F712D1
:103C840018E0EAFEEBFF89087C197D031208D2EAEA
:103C94005402600BA908EEFAEFFB12078E8002793A
:103CA4000102270274F61218E074FF6A700374FFAD
:103CB4006B70168C828D83123CEEE4F08C828D83C3
:103CC400A3A3A3123CEEA380181208A28A088B09AE
:103CD400A808A909E849600D8882898374FF12281D
:103CE40004A3A3E4F07F020219B274FFF0A3F08CE2
:103CF400828D83A3A32274F61218E01208A28A828A
:103D04008B83E58245836006A3A3E0FA80027A00F0
:103D14007B0080D174F21218E08A088B09ECFEED66
:103D2400FF740E1218BCE0F50A1208A28A0C8B0D5F
:103D3400A80CA90DE8497026EEFCEFFD7AFF7BFF85
:103D44001208A28A0C8B0DA80CA90DE849700479FD
:103D540011801688828983E508F0A3E509F088823A
:103D64008983A3A3E50AF079007F060219B274EEF1
:103D74001218E0EAFEEBFF8C088D09890C7414120A
:103D840018BC123E3C74161218BC123389750D000F
:103D9400E8496003023E307402650C6003023E2B66
:103DA40074121218BC123E46FCA3E0F9EC2400F590
:103DB4000EE439F50FEAF4F8EBF4F9EC58F8E50FF2
:103DC40059F9E849705CE5082406F8ED3400F988EF
:103DD4000A890B8882F583123E511208D28A108B0D
:103DE40011E50E65107004E50F65116042780E123E
:103DF4001AF3850A82850B83123E511208D8740285
:103E0400121886E9F50D7027780E121AF3850882C8
:103E1400850983A3A3123E4F1208EA74021218867E
:103E2400800D750D808008750D0D8003750D0BA92F
:103E34000D0234E88E828F83123E4022E0F8A3E024
:103E4400F922123E4088828983E022A3A3E0FCA3E6
:103E5400E0FDEEFAEFFB223400F50D850C82F583CC
:103E640022E028FEA3E039FF8E828F832274F212AF
:103E740018E0EAFEEBFF890B7401650B600E740217
:103E8400650B706A7901120AA6E97062EEFAEFFB1B
:103E940012089C8A088B09EA45096047750A008064
:103EA4000B7C177D0079001210E8050A9002E6E009
:103EB400F8E50AC3985021E50A75F017A4F8A9F0AB
:103EC400850882850983A3A3E028FAA3E039FB8A45
:103ED400828B831228F170C985088285098374FF57
:103EE400F0A3F07C197D03EEFAEFFB1208CC023D3F
:103EF4006D74F21218E08A088B09ECFEEDFF740E63
:103F04001218BC1236D2900C22E0F4603D7A097B80
:103F1400001210F4EA4B60328A828B8374B1F0A3EE
:103F2400E4123B64A3123B62A3E508F0A3E5091283
:103F34003F51EEF0A3EF123F51A3A3E50AF0A3E52E
:103F44000BF0900C22E0F9121100023D6DF08A8210
:103F54008B83A3A3A3A3A32274F01218E074FA1210
:103F640018708908ECFEEDFF7509008A0A8B0B783E
:103F74000A121B3700041084419F3FBD3FD73FEF17
:103F84003F0D4025404840604074409E401B412CFA
:103F94004143415E4184418441B4407401650860F9
:103FA4000302417F8E828F83E0F8C39403400302AF
:103FB400417FE8900D3F02415B7402650860030293
:103FC400417F8E828F83124A58900D40E8F0A3E916
:103FD40002415B74016508600302417F1241AC40F9
:103FE4000302417FE890078002415B740165086029
:103FF4000302417F8E828F83E0F8C394054003025D
:10400400417FE890078102415B7401650860030207
:10401400417F1241AC400302417FE8900782024194
:104024005B74106508600302417F750A10750B000C
:10403400780A121AF37A837B071210D074021218CA
:10404400860241A574016508600302417F1241ACF8
:10405400400302417FE890079302415B74016508C5
:10406400600302417F8E828F83E0900D4302415BA7
:1040740074046508600302417F8E828F83780C127A
:1040840017289090D0780C12155B500302417F9052
:104094000795780C1217370241A5E9600302417FA6
:1040A40012073AE970051212988056900828806326
:1040B40074076508600302417F750A06750B007872
:1040C4000A121AF38E828F83A3AC82AD8374021218
:1040D40018CE1210D674021218867C007D00AA181D
:1040E400AB198E828F83E0F912123EE9F50AC3946C
:1040F4000A40030241A212073AE9700CA90A1212FB
:104104009E79501214B4806E7429250AF582E43421
:1041140008F5837401804074016508705E1241AC37
:104124005059E8900794802F74016508704D8E8271
:104134008F83E0F8C3940A5042E8900D42801874CB
:1041440001650870368E828F83E0F874F928C39471
:104154000A5028E8900D44F0804774016508701BEC
:10416400900827E0F88E828F83E0900827F0E870AB
:1041740030E06401702B12128C802675091880219E
:10418400C3EA9427EB9400501574026508700F8EEF
:10419400828F83124D7B1205D8E9F50980037509D6
:1041A40002A90974060246B88E828F83E0F8C3948C
:1041B400022274F41218E0ECFEEDFF7508008A0A7E
:1041C4008B0B780A121B3700040E6742EE41F34151
:1041D400034208420D4212422F423442394267429E
:1041E40048424D42524257425D42900D3F80679093
:1041F4000D40124A588E828F83E8F0A3E9807890AC
:1042040007808052900781804D9007828048750A0C
:1042140010750B00780A121AF37C837D07EEFAEF0F
:10422400FB1210D0740212188680529007938026D5
:10423400900D43802190079512175E8E828F831212
:10424400176A8039900794800D900D428008900D74
:10425400448003900827E08004121292E98E828F32
:10426400838014C3EA9427EB9400500E1205DE8E6B
:10427400828F83EAF0A3EBF08003750802A908801B
:1042840005740E1218867F040219B274F01218E035
:1042940074AB1218708C0E8D0F90903A741412181F
:1042A400D6740612178374141218D612123EE9F546
:1042B4000B74651218BCE0F50CE9C3940A400302C0
:1042C400440A75F006E9A4F50974471218D67A0E63
:1042D40074202509F91214AEE9700974531218BC3C
:1042E400E0FE80027E00900D3FE0640270057508D8
:1042F4000180037508007408650C70047422800240
:1043040074212509FF7C1B7D007900741A1218CED4
:104314001210E8EEA2E0E433F50A741A1218D67A01
:104324001BEFF91214AEE9702574341218BCE024A2
:10433400F9C3940A50187808121AF7741B1218D685
:10434400A90AAA0EAB0F12067A74011218867C14FD
:104354007D007900AA18AB191210E8AC18AD197ACF
:104364001074242509F91214AEE9702E7C1079FF1B
:10437400AA18AB19121148E9702074101218BCACB9
:1043840082AD837A0474252509F91214AEAC18ADF4
:1043940019A90AAA0EAB0F12066274351218D67A3E
:1043A400127470250BF91214AEE9704974351218A1
:1043B400CE1212747F00EF75F003A4F8A9F07435DF
:1043C4001218BCE58228F8E583124B80124D756003
:1043D4001D88828983A3A3E0F50875090078081273
:1043E4001AF3AA0EAB0F1208C074021218860FEF4C
:1043F400C3940640C1EEA2E1500C90077FE0F9AAF5
:104404000EAB0F1208C67404650C7027900D3FE0C4
:104414006402701F7A00900793E060010A9007809D
:10442400E06004780480027800E84AF9AA0EAB0F31
:10443400120722790074550246B874F11218E07418
:10444400F01218708A0C8B0D8C088D097E0AE960B5
:104454000C14600914603A14607502452412128623
:10446400E9FEC3940A4003024524E50845097003A4
:10447400024524750A06750B00780A121AF3AC0C6F
:10448400AD0DAA08AB091210D074021218860245A9
:10449400247F00750A06750B00780A121AF3AC0C17
:1044A400AD0DEF75F00EA4F8A9F074A128FA740705
:1044B40039FB1210E27402121886E970090FEFC377
:1044C400940A505C80CDEFFEC3940A505380427F1F
:1044D40000AC18AD197A1075F006EFA42423F91274
:1044E40014AEE9701C7C1079FFAA18AB191211489C
:1044F400E9700EAC0CAD0DAA18AB19120644E960B4
:10450400090FEFC3940A501880C7EFFEC3940A50F2
:104514000FE50845096009AA08AB09EEF9121280F3
:10452400EEF974101218867F070219B274F4121887
:10453400E0E9FF7E1574FF6A700374FF6B702875E1
:104544000800EFFC7A027B00A908121262E96002FB
:104554007E000508E508C3940A40E7EF604E7AB090
:104564007B12120AB88045120A9A8A088B09EA4516
:104574000960387C007D00EA2405FAE43509FB85EE
:104584000882850983A3A3A3A3E0F912123EE9C319
:10459400940A500BEFFC7A027B001212627E00EF49
:1045A400600AAA08AB091212B080011EEEF9024299
:1045B4008A74F21218E08C088D097E15740E121894
:1045C400BCE0F50AA3E0F50B74FF6A700374FF6B9B
:1045D400701D7F00AC0AAD0BAA08AB09EFF91212EB
:1045E40068E960027E000FEFC3940A503B80E51235
:1045F4000A9A8A828B83E5824583602B7C007D0046
:10460400E5822405FAE43583FBA3A3A3A3E0F9120E
:10461400123EE9C3940A5010AC0AAD0BAA08AB09C8
:104624001212687E0080011EEEF97F060219B2C0E4
:1046340082C083900799EAF0A3EBF090077FE0FC37
:104644007D007A267B001205D890077FE0F91208D6
:104654004202517774F01218E074FF121870E98561
:104664001882851983F0EAFEEBFF750800E0703DBF
:104674008E088F097808121AF374131218BC780C78
:104684001217289090D07808121728780C790812FD
:1046940015FAAA08AB09AC0AAD0B1206747402121F
:1046A4001886E9F50860097901EEFAEFFB12066E47
:1046B400A90874011218867F080219B274F012183E
:1046C400E074EC121870EAFEEBFFEE240CF50CE437
:1046D4003FF50DEE2405F50EE43FF50FEE2409F544
:1046E4000AE43FF50BEE2403F508E43FF5098E8256
:1046F4008F83A3A3E024FA700302497C24FD700392
:1047040002489A14700302479714601024FD700342
:104714000248711470030248D10249D312547960DB
:104724004AE0F5838882E0F50EA3E0F50FE50E4537
:104734000F6038850C82850D83E0F50C780C121A15
:10474400F7EE240BF582E43FF583E0F9850A8285D0
:104754000B83124D7B0A0A0AAB09850E82850F83EF
:104764001218DE74011218860249D3850A82850B59
:1047740083121B0A900795121746120674740212CC
:104784001886E970030249D37901850A82850B836F
:104794000249478E828F83A385820A85830BE0605A
:1047A40003024854850E82850F83E0A2E040030291
:1047B400485490083312547C60030248547C0E7DA4
:1047C400007900AA18AB191210E8850C82850D83B4
:1047D400125142EA4B6010750C06750D00780C12EC
:1047E4001AF3EA2410801B12513C120A9AEA4B7005
:1047F400030249D3750C06750D00780C121AF3EAFE
:104804002405FCE43BFD74021218CE1210D074028D
:10481400121886850E82850F83E0A2E25004D2F03E
:104824008002C2F0A2F0E433F8740C1218BCE04821
:10483400F0EEFCEFFDAA18AB1912127AE970117AA6
:10484400027B0090077FE0F912112479000249D518
:1048540012547970030249D31249DA70030249D31E
:10486400850A82850B83E0FC790102497012547930
:1048740070030249D3125101890BE8450B700302FE
:1048840049D38E828F83A3E0FC790212513C888243
:10489400850B830249777C007D00EE2404FAE43F13
:1048A400FB850882850983E0F912123EE9F8C39476
:1048B4000A40030249D3EE240AFCE43FFD7A04755E
:1048C400F006E8A42425F91214A80249D312513C95
:1048D400900794E06007900D42E0F98069900D3FE5
:1048E400E070047905805F120A9A8A0C8B0DA80C7B
:1048F400A90DE82404F50CE439F50D8E828F83A309
:10490400A3A3A3A3A3A3E0A2E05041E84970030238
:1049140049D3850C82850D83E0FE6030850A82854B
:104924000B83E054107025740E1218D6E82405FA8F
:10493400E439FBEEF912123EE9701179038508821D
:1049440085098312514212066E0249D3AC0EAD0F93
:10495400850C82850D83E0F912513C1212BC12546D
:1049640079606C1249DA60677C00790012513C8EE0
:10497400828F831218DE805712073AE9705190082B
:1049840028E064017015121298900828E4F07C0A5B
:10499400FDF97A297B081210E8802C750A00850A33
:1049A4000874292508FEE43408FF8E828F83E064AE
:1049B40001700BA90A12129E8E828F83E4F0050AFD
:1049C400E50AC3940A40D779501214B412128C79B0
:1049D4000174140246B8125105E8FEE9FFEE4F22B5
:1049E40074F41218E074F2121870EAFE8C0975F06F
:1049F40006E9A42420F508AC18AD197A0EF91214AE
:104A0400AEE9704B7C0679FFAA18AB19121148E97C
:104A1400703D740C1218BC124A58E8F50BE5096095
:104A240005EE420B8004EEF4520B850B82AA82E859
:104A34006A7001E96015740C1218BCEAF0A3E4F082
:104A4400AC18AD197A0EA9081214A879018002795C
:104A540000024285E0F8A3E0F92274F21218E0742F
:104A6400E012187089098A0C8B0DECFEEDFF7412AC
:104A74001218D67A0E75F006E9A42420F91214AEA1
:104A8400E96003024B437C0679FF74121218CE12BC
:104A94001148E96003024B4374702509F508AC180A
:104AA400AD197A12F91214AEE96003024B3FAA1849
:104AB400AB19121274E50C450D701D7C127900AA15
:104AC40018AB19121148E970727C127D007900AAA2
:104AD40018AB191210E88051AC18AD19AA0CAB0D23
:104AE40012126E8A0A8B0BA80AA90BE8497022EEEF
:104AF4004F604CAC18AD197A007B0012126EEAF8C4
:104B0400EBF9EA4B603988828983E50CF0A3E50D63
:104B1400F0124BBCFAEE6A7001EF601FEEF04F70BA
:104B24000888828983E4F0A3F0AA18AB19121274DE
:104B3400AC18AD197A12A9081214A8790180027967
:104B440000742012188602462E74F71218E07F00B3
:104B5400EF75F003A4F8A9F0EC28F8ED124B80E00F
:104B64006A7003A3E06B7006E8FAE9FB800B0FEFB1
:104B7400C3940640DB7A007B00024EB839F9888280
:104B840089832274F71218E07E00EE75F003A4F80E
:104B9400A9F0EA28F8EB124B80E0F4FCA3E0F4FD62
:104BA40088828983ECF0A3EDF0124BBCF4F00EEE96
:104BB400C3940640D5024EB8E82402F582E439F5E0
:104BC40083E02274F41218E074EE121870EAFEEB1B
:104BD400FF8C0A8D0B90083312547C704FEE4F708B
:104BE40003024D56EC450B7003024D56121286E932
:104BF400900D45F0C3940A40337508007C0679FF94
:104C0400E50875F00EA4FAABF0749B2AFA74073B1E
:104C1400FB121148E96003024CAF0508E508C39490
:104C24000A40D975090AE509900D45F0900D45E053
:104C3400C3940A4003024D5675F006E0A4F89008A8
:104C440033125142EA4B7069EEFCEFFD7A0E742088
:104C540028F91214A87C127D0079FFAA18AB191246
:104C640010E8AC18AD197A12900D45E02470F912D1
:104C740014A875080E7509007808121AF3EEFCEFF3
:104C8400FD900D45E075F00EA4F8A9F0749B28FA88
:104C9400740739FB1210D07402121886900833E599
:104CA4000AF0A3E50BF07900024D58850809024C7F
:104CB4002A124D5D2406124D6F60197A1B74212847
:104CC400F91214A8124D662406F582E438F583E43B
:104CD400F0A380D1124D5D240A124D6F60107A1B2F
:104CE400742228F91214A8124D66240A80DB124D8E
:104CF4005D240C124D6F60107A10742328F912147D
:104D0400A8124D66240C80C1124D5D2408124D6F0B
:104D140060347A10742428F91214A8124D662408F9
:104D2400F582E438F583E02410FCA3E03400FD7A36
:104D34000475F006900D45E0A42425F91214A81278
:104D44004D6624088083900827E060031212C21283
:104D540012B679017412024287900833E0F9A3E095
:104D6400C922900833E0F8A3E0C822F582E439F5BB
:104D740083124D7BEC4D22E0FCA3E0FD2274F4127F
:104D840018E074F2121870EAFEEBFFE9C3940A50BB
:104D940004EE4F700479028034AC18AD197A0E75A4
:104DA400F006E9A42420F91214AEE9F508701C7584
:104DB4000A06750B00780A121AF374021218D6EE5A
:104DC400FAEFFB1210D07402121886A90802428569
:104DD40074F41218E0EAFEEBFF750800750A067514
:104DE4000B00780A121AF3EEFCEFFDE50875F00EDD
:104DF400A4F8A9F0749B28FA740739FB1210E27422
:104E040002121886E96004A908800B0508E508C3A6
:104E1400940A40C8790A02428A74F71218E07508A5
:104E240000E50875F00EA4F8A9F0749B28FE740739
:104E340039FFEEFCEFFD7A0E75F006E508A4242098
:104E4400F91214AEE960297C067D0079FFEEFAEFD1
:104E5400FB1210E87C067D0079FFEE2CFAE43FFBA0
:104E64001210E8EE240CF582E43FF583E4F0A3F09D
:104E74000508E508C3940A40A8900827E0600312D7
:104E840012C21212B6802D74F71218E07E007F0051
:104E94007C0679FFEF75F00EA4FAABF0749B2AFA46
:104EA40074073BFB121148E970010E0FEFC3940A1B
:104EB40040DEEEF97F010219B274F71218E07E00A9
:104EC400EEF912129E0EEEC3940A5003E960F180CB
:104ED400E374F31218E074C5121870E9FF900D45DD
:104EE400E06F701B7A017B0090077FE0F912112AB2
:104EF4007A027B0090077FE0F912112A1212CE7514
:104F0400F006EFA4FE74202EF508741B1218D67A4E
:104F14000EA9081214AEE96003024FD77C0679FF8C
:104F2400741B1218CE121148E96003024FD77C0E8D
:104F34007D0079FF741B1218CE1210E87C1B7D00D3
:104F440079FFAA18AB191210E87C127D0079FF745E
:104F5400291218CE1210E8741B1218D67A0EA9085A
:104F64001214A8E9F508AC18AD197A1B74212EF9AE
:104F74001214A8E9F50CAC18AD197A1B74222EF999
:104F84001214A8E9F50BAC18AD197A1074232EF994
:104F94001214A8E9F509AC18AD197A1074242EF985
:104FA4001214A8E9F50AAC18AD197A0474252EF97F
:104FB4001214A8E9FE74291218D67A1274702FF903
:104FC4001214A8E9F8E50C450B4509450A4E484278
:104FD400088003750800A908743B1218867F05022F
:104FE40019B274F71218E0E990077FF012128C02DC
:104FF4004EB874F41218E0EAFEEBFF54807003021A
:10500400508E90077FE0F912110C8A088B09EA454B
:1050140009607078018A828B83E02450603D1460BB
:105024000624E1604F8052A3A3A3A3E0704E8A82BA
:105034008B83A3A3A3A3A3A3A3121B0A8A828B8398
:10504400A3A3A3A3A3124D7B8A828B83A3A3125190
:105054004212124A74021218868021A3A3A3A3E069
:10506400641E701879008A828B83A3A312514212A2
:105074001244800812125CE9F8E86007AA08AB0938
:105084001210FAEEFAEF64808065EE540260237C1D
:10509400007D007A007B0012127AE960117A017BAC
:1050A4000090077FE0F9121124EE6402803F7A0237
:1050B4008046EEA2E0503F1251121251421212C821
:1050C400E9602F125479601F12510188088909E898
:1050D400450960137C00790112511212514285086E
:1050E400828509831218DE1212CEEE6401FAEFFBF8
:1050F40080087A0180027A007B0002428A125105FC
:1051040022E0F5838882A3A3E0F8A3E0F9229008C3
:1051140033E0F8A3E0F5838882A3A3A3227F0202ED
:1051240019B2C082C08390077FE0F98A828B83A37F
:105134001251421208C6803B850882850983E0FA31
:10514400A3E0FB22C082C08374FF12187012129273
:10515400E9C394028518828519834004740280028D
:10516400740AF0AC18AD197A01790512075274016A
:10517400121886D083D08202011F74F41218E074CE
:10518400E81218708A088B09E9FE8C0A8D0B7C18CA
:105194007D007900AA18AB191210E88518828519C8
:1051A40083E508F0A3E509F0900781E0C0E074020C
:1051B4001218BCD0E0F0900782E0C0E0740312182B
:1051C400BCD0E0F0900D44E0C0E074171218BCD0DD
:1051D400E0F074151218BCE054FEF8A3E0F9900D49
:1051E40043E0A2E0E433FAE84AF874151218BC125A
:1051F4005319A2E15004D2F08002C2F0E854FDFA3F
:10520400A2F0E43325E0F8EA48F874151218BC1249
:105214005319A2E35004D2F08002C2F0E854F7FA22
:10522400A2F0E433F5087509007403780812185DD8
:105234001253121218BC125319A2E45004D2F08073
:1052440002C2F0E854EFFAA2F0E433F508740478EB
:105254000812185D1253121218BC125319A2E55009
:1052640004D2F08002C2F0E854DFFAA2F0E433F58D
:10527400087405780812185D1253121218BC1253E0
:1052840019A2E25004D2F08002C2F0E854FBFAA260
:10529400F0E433F5087402780812185D1253121200
:1052A40018BCE8F0A3E9F0900782E0601D750810CF
:1052B4007808121AF37C837D0774061218BCAA823C
:1052C400AB831210D07402121886900793E060101A
:1052D400EE600974151218BCE04402F078018002F3
:1052E400780074141218BCE048F0900780E0600461
:1052F40078048002780074141218BCE048F0AC0AF8
:10530400AD0BAA18AB191206687418024287EA4555
:1053140008F8741522E8F0A3E9F0900D43E0227434
:10532400F71218E0120938750800E50875F00EA4A4
:10533400F8A9F0749B28FE740739FF7C0679FFEE08
:10534400FAEFFB121148E97009EEFAEFFB7900124B
:10535400093E0508E508C3940A40CF024EB874F626
:105364001218E074FD121870EAFEEBFF9008351273
:10537400547C70397508377509087808121AF37562
:1053840008027509007808121AF37508ED7509907A
:105394007808121AF37CFF7DFF7A017B00120794D0
:1053A4007406121886900835EAF0A3EBF0900835DD
:1053B40012547C7003025463E4F508F5097808126A
:1053C4001AF374041218C6880889097808121AF3A3
:1053D40074041218C6880889097808121AF3900808
:1053E40037121B0A79029008351254711208B474EA
:1053F40008121886E97036851882851983E0FA74D4
:10540400011218BCE0F8E4C8F9EA28F508E439F513
:1054140009EA450960177808121AF3900835125101
:1054240015A312547112124A7402121886E4F50874
:10543400F5097808121AF3900837121B0A7CFF7DCD
:10544400FF9008351251421207A074041218869076
:105454000835EAF0A3EBF090083512547C70047917
:1054640001800279007403121886025121124D7BC7
:10547400EEFAEFFB22900799124A58E84922C082BB
:10548400C08390083312547C601090083312514248
:105494001210FA900833E4F0A3F0900D45740AF06A
:1054A400025177C082C0839061907404F0A3744861
:1054B400F0A3E4F09061807440F09061BC7407F054
:1054C4009061877469F09061B67416F07900120BDC
:1054D4009C7902120BA29026B8E493F46006E4933C
:1054E400F9120B787905120E9C0258A2C082C0836F
:1054F400E9540FF9906185E0696012E5C65480446F
:1055040049F5C6E59E547F644970F8E9F053C680B6
:10551400E59E547F70FA0258A274F71218E0E5A8C9
:10552400FE53A87E120B84C2BA539AFEC289759B9D
:1055340000C2C2120B8A75A91175B905120B90D25B
:10554400BA439A0174805E42A8025E39C082C08365
:10555400906181E4F0A302589F75E900759100758C
:10556400BF0002011FC082C083906181E4F0A37474
:10557400C0F0A3E40258A1C082C08374F81218706A
:105584009003A41267D2700302565A9003A4E05405
:105594004060237908851882851983AA82AB831217
:1055A4000C98851882851983AA82AB8312095690B8
:1055B40003A4E054BFF0E054806010790C7A657B5A
:1055C40005120C989003A4E0547FF0E0A2E0500F81
:1055D4007900120B9C12095C9003A4E054FEF0E0E5
:1055E4005402600F7901120B9C12095C9003A4E031
:1055F40054FDF0E05404600F7900120BA21209620A
:105604009003A4E054FBF0E05408600F7901120BFE
:10561400A21209629003A4E054F7F0E05410600F62
:105624007902120BA21209629003A4E054EFF0E095
:105634005420600F7903120BA21209629003A4E0B4
:1056440054DFF0A3E05401600D120BAE1209689010
:1056540003A5E054FEF074081218860258A2C08212
:10566400C083E9600514602A804F90619A7433F016
:10567400A37455F09061A0743AF090053FE0640182
:105684007009C2919003A67467802D9003A674617B
:10569400802690619A743FF0A3745AF09061A074CC
:1056A4007FF090053FE064017009D2919003A674E5
:1056B4007180059003A6746AF00258A2C082C08368
:1056C400E9600B14600D14601714600C80209026A0
:1056D400BC80159026BD801090053FE064017005E4
:1056E4009026BE80039026BFE493906186F0025812
:1056F400A274EE1218E074F41218708518828519D9
:1057040083AC82AD837583907582C8740412178349
:105714009026BC93F4600302581F907808E0C39469
:105724000250030257FF74041218BCAC82AD837597
:1057340083907582267408121783FC7EFF7FFF8E88
:105744000C7D008C8285820E800F74086D606D74F0
:10575400096D6068740A6D60638D087509007402D0
:10576400780812185D125829121728A909E50AC9E0
:10577400F8881074187808121669E5104508FAE9D3
:10578400FBE50EC333F8E433F974041218BCE58264
:1057940028F582E58339125D29C3E89AE99B40081C
:1057A400E8C39AF8E99B8006EAC398F8EB99F9C331
:1057B400E89EE99F5006E8FEE9FF8D0C0DEDC394C9
:1057C40013408774FF6E700374FF6F6024850C08A8
:1057D4007402780812185D12582912172885188245
:1057E400851983E582250EF582E5831261C8E508F3
:1057F400F00CECC39404500302573F75080175097B
:10580400007808121AF374021218BCAC82AD837AC1
:10581400AF7B091213167402121886740C121886C0
:105824007F0A0219B274482508F58274783509F59F
:1058340083780822C082C083906186E0F89026BFF6
:10584400E4936870099026BEE493906186F09061B9
:10585400AE7468F0A3746AF090624574FBF0A3041C
:10586400F053F4FD43FE0290053F7401F09061A0F3
:10587400E0643A7004790080027901120B9C0258AA
:10588400A2C082C0839004F1E06401700A9004F61F
:10589400E06004790C800279008003F0A3F0D083E7
:1058A400D08202011FC082C08375E1F19004F4E04C
:1058B400604D146009146051146049147050120B47
:1058C400C09004EAE0F97AEB7B04120E1E9090C4B7
:1058D400121746120E5490908C121746120E2A90EC
:1058E40004F5E0F9120E367901120E901259C5240E
:1058F400161261C574D8F0A3740BF07900809F125E
:105904000BC680BD120BCC80B8120BD280B37912B7
:1059140080EB74F41218E075D90D9004D5E0A2E080
:10592400E4331313F81259BB484401F5D978001233
:105934005A2840FB7800880874D612672874041229
:105944005A3240F275E1959004D5E0F97AD67B0499
:10595400120E24900C44744EF0A3740B125A381295
:105964005A7C125A73125B909004F4E06401900420
:10597400E8700B1259CE1217289090C08009125962
:10598400CE1217289090BC78081216B49090947890
:10599400081217021259C5240E1261C5780812178D
:1059A400371259C524141261C57413F09003A274FC
:1059B40002F07F040219B29004EAE0C4333354C005
:1059C400229004E8E0F8A3E0C82212666078082276
:1059D40074F61218E0125B618AD97800125A2840D2
:1059E400FB78008006125AD9125C16E8C39940F578
:1059F400125B53125A2840FB780080081267247403
:105A040005125C16E8C39940F375E195900C447453
:105A14005AF0A3740B125A38125A427412F09003BB
:105A2400A2025DFD880874EB2508F5827404125DFA
:105A340093940622125B797454F0A3740B22125AC5
:105A44007C125A73125B949004E8E0F8A3E0C82433
:105A54000E125A6B74FF12649D9004E8E0F8A3E000
:105A6400C82414125A6B22F582E83400F58322F01C
:105A7400A3746CF0A3740B22125A8022125A84224B
:105A8400F0A37404F0A3740D2274F61218E0125AF1
:105A9400CE1259BB4402F5D97800125A2840FB783B
:105AA400008006125AD9125C16E8C39940F575E1D4
:105AB40095900C44125AE4F0A3125AE4125A457415
:105AC40014F09003A27404025DFF9004FAE0F974E8
:105AD4000729F5D922880874FB2508F58274042265
:105AE4007466125AF1125AF1F0A3740B22F0A374E3
:105AF4000BF0A374662274F61218E0125B6174064C
:105B04004AF5D97800125A2840FB78008006125AC8
:105B1400D9125C16E8C39940F5125B53125A284017
:105B2400FB780080081267247405125C16E8C39998
