:020000040000FA
:060000000201070223F5D6
:03001B0002286355
:03002B0002283D6B
:0300330002281F81
:0300530002246B19
:03006B000229184F
:030073000228C997
:03007B0002293C1B
:1000830002224BE5C754F84401F5C7790122000069
:100093000080FB120086B900030200F1E4792178A5
:1000A30008B800028004F709D8FCE479297802B87B
:1000B30000028004F709D8FCE490028178E3791602
:1000C3008002F0A3D8FCD9FA7A637B1890013778C1
:1000D300D279048015E493A3AD82AE838A828B83A5
:1000E300F0A3AA82AB838D828E83D8E9D9E7758288
:1000F300AA75837F74001201197582917583007448
:100103000012011975D00075813F751881751902A8
:10011300759F00020096C09FF59FE473D09F22D085
:1001230083D082C09FE493C0E0740193C0E0740263
:1001330093F59F22110199010F12640400AD270169
:100143001131040102FB84010000E08402F7840101
:1001530000006818023385010000691802F5840362
:1001630000008A02023185010000711802F3840144
:1001730000006A18FF0000B400002800280028309F
:1001830075A000A000A000A00000080008E001F096
:10019300001000100010001000100010005000505C
:1001A30000500010001000D0070000000000000FF6
:1001B3000001000500307507001000010081FF00F9
:1001C300000000FFFFFF60077E076607A207FF022C
:1001D300020208025000A0000000E80302FB8401B1
:1001E3000000E98402F784010000FE1802F1840193
:1001F3000000CA0202F784010000FF1802EF840125
:100203000000E00202F784010000001902098501E1
:100213000000E20202F7840100000119020B8508C5
:100223000000E30202F784010000021902258501A0
:1002330000000319FF0100FF2002FB84010000EC12
:100243008402F7840100006719022D850000000075
:100253000002F584030000110317000E0E0E0E0EAC
:100263000E0E0E0E0E0E0E0E0E0E0E0E0E0E0E0EAB
:100273000E0E0E0E0EB410C610AE100202020202D3
:1002830002020202010D000000100102FB840100C2
:1002930000E68402F784010000AA19020385010025
:1002A300004B0702F784010000AB1902058501002A
:1002B30000D98302F784010000AC1902078501000D
:1002C30000AF8302F784010000AD19020D85010020
:1002D300001C8302F784010000AE19020F850100A0
:1002E30000F88202F784010000AF190211850100B2
:1002F300002E8302F784010000B019022985010052
:10030300000A8302F784010000B119022B85010062
:1003130000BD8302F784010000B2190227850100A2
:1003230000B31901E8030577100A0A3412015413C4
:1003330000001509484944204B6579626F61726476
:100343002026204D6F7573650201050319C103054E
:100353000212180F1860EA00000189C613CC1300BB
:100363000001E60202192A04060112010112020128
:100373001203010E0002120E120A000302FB840193
:100383000000E38402F9840100006B0B02F784018F
:100393000000921A021B854000009D8402F784012D
:1003A3000000961A021F858000006D0B02F784017E
:1003B3000000971A022385C00000981A02F78401EF
:1003C3000000931A021D854000000080022F850162
:1003D3000000941A02F784010000991A0221854053
:1003E30000006E0B02F5848100006F0B0231850162
:1003F30000009A1A02F7840100009C1A022185402A
:100403000000710B02F584810000720B023185013B
:1004130000009D1A02F7840100009F1A0221854003
:100423000000740B02F584810000750B0231850115
:100433000000A01A02F784010000A21A022185C05D
:100443000000770B023185010000A31A02F7840133
:100453000000A51A021585400000780B02F584817F
:100463000000790B02F784010000A61A021985C067
:1004730000007B0B02F784010000A71A02178540D6
:1004830000007C0B02F5848100007D0B02F78401E0
:100493000000A81A022185C000007F0B02318501EC
:1004A3000000A91AFFFFFF000130750302010600D7
:1004B3000000000000000000000000000000000039
:1004C3000000000000000000000000FFFF060080A5
:1004D3000CE803041002FB84010000DD8402F784AE
:1004E300010000021C0239858000005C1802F784B9
:1004F300010000031C023B85000000601802F58424
:100503008100006118120122459503120122A19571
:1005130003120122B49503120122E695031201226C
:100523005E96031201227F9603120122249703127F
:100533000122BA970312012278980312012223A100
:100543000312012236A10312012267A10312012221
:10055300A1A103120122FAA10312012241A2031253
:10056300012289A203120122B8A203120122E7A2E7
:10057300031201221EA30312012265A30312012207
:100583007EA303120122D3A303120122ECA30312BD
:1005930001223AA40312012274A40312012242F796
:1005A3000112012245F8011201227EF801120122F3
:1005B300A1F801120122B3F801120122F1F801128C
:1005C30001226DF90112012235FA0112012257FAB3
:1005D30001120122EEFA0112012240FB0112012253
:1005E30071FB011201227EFB01120122E8FB0112C1
:1005F30001223FFC0112012242FC011201227BFC79
:10060300011201227EFC0112012288FC0112012247
:10061300DCFC011201221DFD0112012250FD011219
:1006230001228DFD011201228FFE0112012233FFEF
:10063300011201229CFF01120122DAFF01120122A1
:100643004299031201226A99031201229799031214
:100653000122CF99031201222D9A03120122799AC2
:1006630003120122E09A03120122209B03120122AA
:100673005D9B031201228B9B03120122359C031203
:1006830001223F9C031201224C9C031201227F9CF6
:10069300031201228B9C03120122A39C0312012249
:1006A300AD9C0312012295C903120122A3C90312AF
:1006B3000122BBC903120122D2C903120122F5A9E7
:1006C300011201229FAA01120122B2AB01120122DF
:1006D3002EAC011201224CAD0112012288AD011290
:1006E300012223AE0112012207AF01120122D3AF6F
:1006F3000112012261B101120122D2B101120122C0
:100703008CB2011201227EB301120122BEB3011287
:10071300012272B401120122A4B4011201229AB679
:1007230001120122DCB601120122FAB601120122E2
:1007330060B7011201222FB801120122F3B801128E
:10074300012212BB011201225DDC0212012247DDEC
:1007530002120122F2DD0212012243DE0212012201
:10076300F3DE0212012264DF0212012249E00212C7
:1007730001227DE00212012276E102120122B3E19D
:10078300021201228FE202120122CEE202120122A0
:10079300EAE20212012234B803120122B8B80312AA
:1007A3000122E3B803120122FDB9031201223B9D8A
:1007B30003120122519D031201226F9D0312012294
:1007C300809E031201228A9E03120122B59F031207
:1007D3000122ACA00312012219A1031201224BE34F
:1007E3000212012281E402120122FBE4021201221D
:1007F3002BE5021201223EE50212012295E50212C7
:100803000122AAE7021201223F8501120122CB85B0
:10081300011201222F87011201223B8701120122BB
:10082300768701120122E58701120122EE88011267
:100833000122F78901120122BE8A011201221B8CB7
:1008430001120122398C01120122568C011201225C
:10085300038D01120122808D01120122A88D011244
:1008630001227290011201227790011201229092CB
:1008730001120122DE92011201224E930112012282
:100883008C9301120122689401120122289501120E
:100893000122749501120122779501120122BB9561
:1008A3000112012203960112012242960112012232
:1008B300649601120122989601120122FB960112FD
:1008C3000122E4EE02120122F2EE0212012245EFAE
:1008D3000212012264EF02120122A9EF0212012285
:1008E300EDF00212012288F102120122CCF1021270
:1008F3000122F6F10212012265F202120122ABF289
:100903000212012222F302120122D3F30212012264
:10091300682900120122782900120122192A0012E3
:100923000122752A00120122322B001201224E2CC1
:1009330000120122802C00120122AF2C001201228E
:100943005C2E00120122D330001201224333001225
:1009530001223534001201222E35001201223537CF
:1009630000120122293A00120122583B00120122EF
:100973005C3D001201226C3E00120122FB3F00127B
:100983000122EC40001201223A4100120122A94146
:1009930000120122CD41001201221E420012012247
:1009A300BF4600120122C047001201222148001253
:1009B30001224C48001201221249001201223F91E8
:1009C300031201224991031201228E910312012283
:1009D300A291031201223292031201226B9203129B
:1009E3000122A69203120122CF9203120122239322
:1009F300031201223893031201225A930312012294
:100A03006F9303120122839303120122989303121B
:100A13000122D29303120122FE9303120122859431
:100A230003120122C89403120122F2940312012239
:100A33001D950312012293C50312012281AE0212F6
:100A4300012264AF02120122DFAF021201221AB0A7
:100A5300021201226BB102120122F9B10212012228
:100A63008BB4021201223DB50212012249B60212D1
:100A73000122BCB70212012215B8021201228C8492
:100A830003120122CF840312012253850312012290
:100A93002A8803120122C0B30312012272B4031283
:100AA30001226EB503120122ADB50312012207B66E
:100AB30003120122E3BD0312012246BE03120122E7
:100AC300E3BE0312012218BF0312012248BF03121F
:100AD300012283BF03120122A3BF03120122E5F304
:100AE3000212012271F40212012230F502120122D4
:100AF30048F60212012262F8021201222674001241
:100B030001224B7400120122187500120122EC75A8
:100B13000012012259760012012299760012012255
:100B230035770012012269780012012244790012FC
:100B33000122A379001201222F7A001201229D7A49
:100B430000120122297B001201226F7B0012012275
:100B5300E17B00120122737C00120122147D00123A
:100B63000122347D001201227C7D00120122C57D09
:100B730000120122E17D00120122077E00120122F0
:100B8300817E001201228F7E001201221E7F00123D
:100B93000122877F0012012299F8021201221EF915
:100BA3000212012260F90212012244FA0212012206
:100BB300B1FA02120122F5FA0212012239FB0212E2
:100BC300012266FB021201228EFB02120122C6FBE6
:100BD3000212012204FC021201222BFC0212012246
:100BE300A5FC02120122EFFC021201221FBB01121B
:100BF3000122BEBC01120122F6BE011201224ABF2C
:100C03000112012275BF0112012251C001120122FA
:100C130081C001120122B0C001120122C3C001121E
:100C2300012204C10112012231C1011201227FC13B
:100C330001120122BBC10112012200C201120122D1
:100C43004DC201120122C7C20112012208C50112BD
:100C53000122F2C6011201222EC701120122BDC8D0
:100C63000112012202C90112012275C901120122D6
:100C7300CAC9011201222ECA011201224DCB01124F
:100C830001225ECB011201227EC202120122F7C2AF
:100C930002120122B1C802120122BCC902120122AE
:100CA30065CB02120122F3CB021201221360001260
:100CB3000122946000120122C160001201220A6124
:100CC300001201220B62001201226462001201224F
:100CD300E063001201226264001201227D640012AB
:100CE3000122EE6400120122AB65001201226E663E
:100CF30000120122FC6600120122B36700120122D6
:100D0300C667001201225F6800120122F668001212
:100D130001221D6900120122866900120122D06995
:100D2300001201221E6A00120122C36A001201226C
:100D3300616B00120122EE6B001201225F6C001244
:100D43000122A66C00120122FE6C00120122306DFA
:100D530000120122EA6D00120122F16E001201223B
:100D63003A6F00120122576F00120122766F0012B0
:100D73000122A97000120122607100120122857103
:100D8300001201229A71001201220A72001201223A
:100D93004B72001201226F7300120122F0730012D2
:100DA3000122BEB80212012209B90212012215B9A9
:100DB30002120122E9B90212012200BA021201222F
:100DC3003DBA021201226EBA02120122A6BA02121F
:100DD3000122FCBA0212012212BB021201224EBBF3
:100DE3000212012261BB0212012288BB02120122FC
:100DF300BCBB02120122E2BC021201222CBE02126F
:100E0300012228BF0212012245C002120122FD7FE6
:100E13000012012281CB01120122BCCB011201225B
:100E23000ECF011201226AD00112012229D101122F
:100E3300012290D4011201227AD501120122C6D5D2
:100E430001120122E0D5011201221DD60112012255
:100E530028D60112012267D60112012270D601128F
:100E630001221AD701120122F1D70112012245D81A
:100E730001120122A2D80112012214D90112012266
:100E8300D39701120122329B01120122389B0112D6
:100E9300012269A20112012270A6011201224DA8AA
:100EA300031201222AA9031201226EA903120122AD
:100EB300A8A90312012240AA03120122AFAA031216
:100EC3000122B8AA03120122C4AA03120122DEAA34
:100ED3000312012208AB0312012238AB03120122D1
:100EE300DC8803120122E988031201220389031219
:100EF3000122368903120122748903120122D9893E
:100F030003120122EE8903120122F989031201223D
:100F1300068A031201221D8A031201222B8A03125D
:100F23000122368A03120122428A03120122518AC4
:100F3300031201225C8A031201227F8A0312012217
:100F4300238B03120122338B031201224D8B0312D5
:100F530001226A8B03120122858B03120122AA8BC1
:100F630003120122B58B03120122CA8B0312012241
:100F7300DE8B031201223F8C03120122458C0312E4
:100F830001224B8C03120122518C03120122698C22
:100F9300031201229C8C03120122058002120122FA
:100FA3009C80021201223481021201222482021245
:100FB30001225B82021201226E8202120122DC8272
:100FC300021201227784021201229E84021201225C
:100FD30040850212012275850212012286850212C2
:100FE3000122FF8502120122208602120122388685
:100FF3000212012290870212012299890212012210
:10100300E98B02120122EC8C021201223B8D0212A7
:10101300012263DA0112012260DB011201224BDC9F
:101023000112012255DC0112012277DC0112012297
:1010330083DC01120122D5DD0112012204DE01123B
:10104300012234DF0112012276DF01120122A2E024
:101053000112012278E101120122CAE101120122E7
:1010630029E20112012260E2011201229BE2011234
:10107300012236E6011201224FE601120122D1E6D6
:1010830001120122DFE60112012234E701120122DB
:1010930042E701120122AFE70112012221E8011206
:1010A300012267E801120122DB9802120122FD9856
:1010B30002120122E79A021201228C9E02120122DD
:1010C300CF9F02120122A9A002120122B1BF031273
:1010D3000122D6BF0312012247C0031201221DCCF5
:1010E3000212012226CC021201222FCC021201226B
:1010F30060CD021201227FCF02120122B5CF02126C
:101103000122EFCF0212012225D0021201225FD069
:101113000212012293D002120122BFD00212012235
:1011230008D10212012242D1021201228AD10212F3
:101133000122E0D10212012215D20212012270D241
:1011430002120122AAD202120122FBD202120122AE
:1011530031D3021201226BD30212012299D302125C
:101163000122BCD3021201221ECB031201224ACB5D
:1011730003120122A5CB03120122AFCB03120122DA
:10118300BFCB0312012257AE031201227EAE03121C
:1011930001223DCD031201227E4900120122DC4BC4
:1011A30000120122B44C001201226D4E00120122E2
:1011B300CA4E00120122B74F001201223E50001204
:1011C3000122BC5000120122E150001201224451BD
:1011D300001201222E54001201229F5400120122F8
:1011E300905500120122C855001201220B5600121D
:1011F3000122B657001201220B580012012258583F
:1012030000120122CA5800120122F15800120122D1
:101213000B5900120122355A001201224C5A0012B6
:1012230001223A5C00120122605C00120122965CEA
:1012330000120122FE5D001201227E5E00120122D5
:10124300BD5E00120122EE5F001201222CBA0312CE
:10125300012289BA031201224CBB031201226BBB88
:1012630003120122C1BB0312012262CA031201222B
:1012730073CA0312012213CB03120122B3FF02121A
:101283000122F2FF0212012215CE03120122C9CB61
:1012930003120122D9CB03120122F1CB0312012243
:1012A30059CC03120122A7C6031201222BC7031232
:1012B300012291C703120122EEC20312012217C3B6
:1012C3000312012284C303120122D7C30312012292
:1012D30030C403120122008003120122178003127B
:1012E30001229080031201226981031201222784C3
:1012F300031201222FFD02120122A5FD0212012277
:1013030039FE02120122CFFE02120122E7FE02126F
:101313000122FBFE0212012258FF0212012270FF7A
:10132300021201227EFF02120122888D0212012283
:10133300D78D02120122018F02120122238F021282
:101343000122368F02120122C68F02120122AB91B3
:1013530002120122C39302120122BE94021201223D
:10136300229502120122859502120122C6950212CC
:101373000122C995021201221296021201226596D8
:1013830002120122039702120122B39702120122D1
:101393005198021201228A9802120122A89802127D
:1013A3000122EBA30212012243A40212012261A42F
:1013B3000212012292A40212012275A70212012233
:1013C300EAA7021201223FA8021201224CA902122B
:1013D30001224FA9021201220FAB0212012248AED1
:1013E300021201226DAE02120122DCA403120122B9
:1013F3006DA703120122E1A7031201226BC403129A
:1014030001228BC403120122FAC40312012272C502
:1014130003120122A4C803120122CDC80312012220
:10142300F6C8031201220EC90312012250C9031286
:10143300012271E9021201227BE902120122BBE9B6
:101443000212012204EA021201223EEA02120122DE
:1014530098EA02120122B7EA02120122C0EA02123A
:10146300012211EB021201223AEB021201224FEB8D
:1014730002120122C0EB021201224EEC02120122DF
:1014830096EC02120122BEEC021201223BED021283
:1014930001227EED02120122B9ED02120122CBEDEF
:1014A30002120122EAED02120122F3ED02120122DD
:1014B300B8EE0212012267C103120122BCC103125A
:1014C30001222AC2031201229AC20312012266AB2D
:1014D3000312012290AB0312012285AC03120122F5
:1014E300AAAC031201222CAD03120122AAC70312D4
:1014F3000122D9CC0312012232B60312012268B6AB
:1015030003120122A1B603120122FAB70312012228
:1015130063CC0312012279CC0312012283CC031280
:1015230001224AD40212012207D50212012242D516
:10153300021201226AD502120122CCD50212012223
:1015430018D6021201227CD602120122F6D602120A
:101553000122F8D702120122ABD9021201222DDA9D
:101563000212012292DA02120122A9DA02120122E4
:10157300B2DB02120122F0DB021201221E8D0312E2
:101583000122378D03120122DB8D031201221B8EF0
:1015930003120122348E03120122678E03120122E9
:1015A300B48E03120122E88E031201222A8F031242
:1015B3000122329103120122F0E801120122D5EC3B
:1015C3000112012267EE01120122BEEE0112012275
:1015D300DDEE011201225BEF01120122FBF0011289
:1015E3000122DFF101120122CBF5011201229FF644
:1015F3000112012243B1031201226CB10312012231
:10160300DAB103120122F8B1031201220CBC031256
:10161300012266BC0312012279BC0312012212BD0E
:101623000312012217BD0312012285CD03120122E9
:10163300CBCD03120122F7CD03E066701008A3E0BF
:1016430066700A08A3E066700408A3E06622C00877
:10165300C3E096F50808A3E096420808A3E0964283
:101663000808A3E0964208A2D265D033E5087001CA
:10167300D3D00822C3E7960809E7960809E7960836
:1016830009E79622C3E09608A3E09608A3E096082C
:10169300A3E09622C008C3E096F50808A3E09642AB
:1016A3000808A3E096420808A3E09645087001D312
:1016B300D00822080808EAC0E0EBC0E086F0E7A4FF
:1016C300FA180986F0E7A42AFA180986F0E7A42A8B
:1016D300FA180986F0E7A42AFA1986F0E7A4FBE5CD
:1016E300F02AFA190886F0E7A42BFBE5F03AFA1979
:1016F3000886F0E7A42BFBE5F03AFA18180986F000
:10170300E7A4C5F02BFBE43AFA1908E7C5F0C6A431
:1017130026F6E5F03BFBE43AFA1886F0E7A4F6E593
:10172300F00826F6E43B08F6E43A08F6D0E0FBD0EE
:10173300E0FA22E4CFC0E0E4CEC0E0E4CDC0E0E4D0
:10174300CCC0E075F020E626F608E633F608E6336B
:10175300F608E633F6181818EC33FCED33FDEE33D8
:10176300FEEF33FFC3EC9709ED9709EE9709EF9767
:10177300191919400FFFEC97FC09ED97FD09EE9736
:10178300FE191906D5F0BFECF709EDF709EEF709D5
:10179300EFF7191919D0E0FCD0E0FDD0E0FED0E05E
:1017A300FF22E4C396F608E496F608E496F608E406
:1017B30096F6226016080808C6C313C618C613C6D1
:1017C30018C613C618C613C6D5E0EA22700908085E
:1017D30008226016181818C6C333C608C633C608CD
:1017E300C633C608C633C6D5E0EA22E627F608099B
:1017F300E637F60809E637F60809E637F622E02663
:10180300F608A3E036F608A3E036F608A3E036F6BA
:1018130022E026F008A3E036F008A3E036F008A3A0
:10182300E036F022C3E697F60809E697F60809E6DC
:1018330097F60809E697F622C3E096F008A3E09628
:10184300F008A3E096F008A3E096F022E056F6082D
:10185300A3E056F608A3E056F608A3E056F622E006
:1018630056F008A3E056F008A3E056F008A3E056AC
:10187300F022E0F608A3E0F608A3E0F608A3E0F6FA
:1018830022E6F008A3E6F008A3E6F008A3E6F022B8
:10189300E0FAA3E0FBA3E0FCA3E0FD22EAF0A3EB64
:1018A300F0A3ECF0A3EDF022E0F8A3E0F9A3E0FA53
:1018B300A3E0FB22E8F0A3E9F0A3EAF0A3EBF02214
:1018C300CAC0E0E6F0A308DAFAD0E0FA22CAC0E020
:1018D300E0A3C582CCC582C583CDC583F0A3C582F1
:1018E300CCC582C583CDC583DAE6D0E0CA22C3E482
:1018F30098F8E499F91219328026C3E49AFAE49B22
:10190300FBE920E7E9121932E498F8E499F922C3D4
:10191300E498F8E499F9121932E498F8E499F9C3D0
:10192300E49AFAE49BFB22EB20E7CFE920E7E0B956
:101933000010BB0008E88AF084F8AAF022E4FBC890
:10194300FA22EB70227B10C833C8C933C93350075E
:10195300C39AC3DBF280069A50012ADBEAC833F448
:10196300C8C933F4C9FA2275F008E4C833C8C933C7
:10197300C933C99AC99B5004C92AC93BD5F0ECFBAA
:10198300C833F4C8E4C9FA22600D08C6A2E713C637
:1019930018C613C6D5E0F322600C08C6C313C618D5
:1019A300C613C6D5E0F422700422600D18C6C333F3
:1019B300C608C633C6D5E0F41822251810AF08F5BB
:1019C30018400C15198008F51840021519D2AF22DA
:1019D30000C0D0251810AF08F518500C0519800861
:1019E300F51850020519D2AFD0D0222518F5821070
:1019F300AF08F518400C15198008F51840021519A1
:101A0300D2AF851983222518F582E43519F583228F
:101A13002518F8E43519F9222518FAE43519FB22BB
:101A23002518FCE43519FD22E4732518C582C0E0AE
:101A3300E51934FFC583C0E0E518C3958224F81087
:101A4300AF088583198582188008858319858218D4
:101A5300D2AFCEF0A3E520F0A37808E608F0A3DE2A
:101A6300FAEFF0A3E58124FAF8E608F0A3E608F01C
:101A7300A3E608F0A30808E608F0A3E608F0A31518
:101A8300811581D0E0FED0E0F8158115811581E83C
:101A9300C0E0EEC0E0222518C582C0E0E51934FF9E
:101AA300C583C0E0E518C3958224F910AF08858388
:101AB300198582188008858319858218D2AFCEF0E4
:101AC300A3E520F0A37808E608F0A3DEFAEFF0A37D
:101AD300E58124FBF8E608F0A3E608F0A30808E68E
:101AE30008F0A3E608F0A315811581D0E0FED0E04D
:101AF300F815811581E8C0E0EEC0E02285198385E1
:101B03001882E0A3FEE0A3F5207808E0A3F608DF3F
:101B1300FAE0A3FFE0A3C0E0E0A3C0E0E0A3C0E0DD
:101B2300E0A3C0E0E0A3C0E010AF0885821885837E
:101B3300198008858218858319D2AFD083D0820299
:101B4300011F851983851882E0A3FEE0A3F52078A1
:101B530008E0A3F608DFFAE0A3FFE0A3C0E0E0A3F8
:101B6300C0E0E0A3C0E0E0A3C0E010AF08858218A6
:101B73008583198008858218858319D2AFD083D0D5
:101B83008222C0D02518C582C0E0E51934FFC58381
:101B9300C0E0E518C3958224F310AF088583198547
:101BA30082188008858319858218D2AFC8F0A3E90B
:101BB300F0A3EAF0A3EBF0A37908E709F0A3D8FABE
:101BC300ECF0A3EDF0A3EEF0A3EFF0A3D0E0F0A3CD
:101BD300D0E0F0A3D0E0F0A3E520F0A3E5F0F0A37C
:101BE30022851983851882E0C0E0A3E0F9A3E0FA17
:101BF300A3E0FBA37808E0F608A3DFFAE0FCA3E088
:101C0300FDA3E0FEA3E0FFA3E0C0E0A3E0C0E0A3E8
:101C1300E0F5D0A3E0F520A3E0A3F5F010AF08852D
:101C230083198582188008858319858218D2AFD0DD
:101C330082D083D0E0F8D0E032740480067402804E
:101C4300027401C0E0F4041219EED0E01218C322AA
:101C53007404800474028000CCC0E0EDC0E0E51899
:101C6300C39CCCAD1950011D10AF068C188D198083
:101C7300068C188D19D2AF1218D0D0E0FDD0E0FC3D
:101C830022D083D082E9C0E0E493A3C386F0C5F0F9
:101C930095F0F908E493A386F0C5F095F0700BE492
:101CA30093A3C3994005E9048002A3E475F002A459
:101CB3002582F582E5F03583F583D0E0F9E493A33B
:101CC300C0E0E493C0E022D083D082ECC0E0EDC05A
:101CD300E0E493A3FCE493A3FDED4C600D121D1609
:101CE300EC24FFFCED34FFFD80EFE493A3FCE493CD
:101CF300A3FDED4C600D121D55EC24FFFCED34FFEC
:101D0300FD80EFD0E0FDD0E0FCE493A3C0E0E493DA
:101D1300C0E022C0E0C3E493960874019396184090
:101D23000FE49366700808740193661870007019C5
:101D3300A3A3C3E49396087401939618A3A3400D39
:101D4300D0E0D0E0D0E0021D06A3A3A3A3A3A3D0B9
:101D5300E022C0E0C0F088F0E493667008087401E4
:101D63009366187000A8F0A3A3700BD0F0D0E0D056
:101D7300E0D0E0021D06A3A3D0F0D0E02274F61257
:101D83001A99EAFEEBFF8C088D09EE2434F8E43F40
:101D9300F9E8FCE9FDEE2435122093FAEE2437121C
:101DA3002093F88508F0A4C885F00A8509F0A425D6
:101DB3000AF9EA28F8E439F97A257B00121932EA9C
:101DC3008C828D83F0FA131313541FF8EE28F8E472
:101DD3003FF9E8245DF582E439F583E0C0E0740758
:101DE3005AF8D0E0B800028004C313D8FCA2E0EE96
:101DF30050082434F582E43F80182436122093F5EA
:101E0300F0EA84A8F0EE28F8E43FF9E82438F582F4
:101E1300E439F583E0F97F03021B4574F7121A993D
:101E2300EAFEEBFFEE2434122093C0E0EE2435F5F6
:101E330082E43FF583D0E0F08E828F83A3A3A3A334
:101E4300A3A3A3C082C0838E828F83A3A3A3A3A3D0
:101E5300E0F8A3E0F9D083D082E0C398F508A3E0CB
:101E630099F509EE247F1220936401703EEE2480DD
:101E7300F582E43FF583C082C0838E828F83A3A360
:101E8300A3A3A3E0240108A3E03400F9D083D08204
:101E9300E0687003A3E06970127CBC7D04120D4EF0
:101EA300EE247FF582E43FF583E4F0AC08AD09EE60
:101EB300FAEFFB121D80E9F91227EB7F02021B45A3
:101EC300C082C083851882851983E0F8A3E0F9C333
:101ED300EA9CEB9D5010C3EC98ED99401BC3EA9824
:101EE300EB995014800EC3EA98EB994007C3EC9822
:101EF300ED994004790180027900D083D08222EAEF
:101F0300C39CFAEB9DFB2274EF121A99900381E0B4
:101F130064086005E06407702A9061C8E06024905B
:101F230003AFE0F4601DE0F875F00BA4C8AAF02A33
:101F3300F974B128FE740339FF8E828F83A3A3A3A0
:101F4300E07003022018906060E0C0E0EE2468F5C2
:101F530082E43FF583D0E0F0750C2C750D05750810
:101F630000750900E5D914F50AE5D95403F50E60A7
:101F7300127403650E6043E50A600AEE24671220BB
:101F83009370028075900527E06401601F12209012
:101F930060047A0480027A00E50AC39AFA95E0FBAA
:101FA300120BFE8A088B09EA45097005120F7C8023
:101FB3006412209070048A0C8B0DE50A6012850C64
:101FC30082850D83F50BE5D9F0A3150BE50B70F6B0
:101FD300122090604474FC250AF50A780C121C4008
:101FE300AC0AA90EEEFAEFFB120E0874021219D313
:101FF300E97026AA08AB091214BC793D8E828F833F
:10200300A3A3A3A3E0FA7B00120A60EEFAEFFB128C
:102013000D72120E1A7900806F7403650E6051857C
:102023000A107511007810121C40AC0CAD0DAA08F3
:10203300AB09120DCC74021219D3EE24681220934B
:1020430064807004747F8001E0F50C780C121C44EA
:10205300E50EF50C780C121C44A90AAC08AD0990E6
:1020630003AFE0FA7B00120A3674021219D380130D
:10207300900381E06408600BAC0CAD0DEEFAEFFB4E
:10208300120E92120F8879017F0A021B45EE2483F8
:10209300F582E43FF583E02274F2121A9974FC127C
:1020A30019BDEAFEEBFF8909A2AFE433F508C2AF1D
:1020B300022165E0601B780C121C40AC0BA90EEEEC
:1020C300FAEFFB120E0274021219D37404250BF5F6
:1020D3000B7401250BF5D9850ED9E50B6018F50AAC
:1020E300850C82850D83E0F5D9A385820C85830D4C
:1020F300150AE50A70EA75E195EE2463F8E43FF901
:102103007A007B00A2AFE433F50BC2AF88828983E8
:10211300E0FCA3E0FDEC4D603A88828983E0FAA3FA
:10212300E0FB8A828B83E0FCA3E0FD88828983EC59
:10213300F0A3EDF08A828B83E4F0A3F08882898395
:10214300E0FCA3E0FDEC4D700A88828983A3A3E43D
:10215300F0A3F0E50BA2E092AF1214BC9004C3E02D
:1021630004F0EE2463122093F8A3E0F9E8496064D5
:10217300EE24631220932402F8A3E03400F988824A
:102183008983E5822402F50CE43583F50DE0F50B34
:10219300A3E0F50EEE246212209364017036906181
:1021A300D0E0F812209060047C0480027C007480EC
:1021B300C398FA95E0FBE50B2CF8E43400F9E82426
:1021C30002F8500109C3EA98EB99A2D265D03340D3
:1021D300030220B69004C3E0604D9004C4E0F8907D
:1021E30004C3E0C398500C74026509703A9004C5A7
:1021F300E060348E828F83A3A3A3A3E08518828536
:10220300198312223A7402121A09E812223A90042C
:10221300C2E028F07402121A23AA18AB197901122A
:102223000A8A9004C3E4F0E508A2E092AF740412B2
:1022330019D37F07021B45F0A3E4F09004C3E0F831
:10224300228521878522C622C0E074EB121B85A25A
:10225300AFE433F508C2AF759B00906182E0A2E062
:102263005030E591A2E0502A7591FE74016521700A
:10227300211223DE120ED41223CC121C53122595E5
:1022830074041219D3E9640170057901120F101255
:102293001F0A906182E0A2E5505DE591A2E55057E7
:1022A3007591DF900381E064076005E06408702F97
:1022B3001223DE74016521703E120ED41223CC1258
:1022C3001C5312259574041219D3E964017005791E
:1022D30001120F107901EEFAEFFB12209B8018E038
:1022E300640D70139003A3E004F064287002E4F01B
:1022F3007A00E0F9120F8E906182E0A2E6400302B9
:1023030023A1E591A2E640030223A17591BF9003A7
:1023130081E064057008120EBC120EC88003120E11
:10232300C2752100120F1CE9900382F07900120F8D
:1023330010120CBE7A017B00900380E0F912148C1A
:10234300907803E06442705690052BE014F0704ED1
:10235300C2AF12235800782AD0E0F618D0E0F6E591
:102363009F5407F87005750DFF8003750D7FC4C07A
:10237300E07829E6F50A08E6550DF50B740B780AA3
:1023830012199BD0E0250AF8906270E0A2E740F8AA
:10239300E8C333906272F0906270E0D2E0F0906133
:1023A30081E0A2E35009E5E9A2E3500375E9F7A34D
:1023B300E0A2E75009E591A2E7500375917FE50894
:1023C300A2E092AF7F08021BE48E828F83E0F8A322
:1023D300E0C82416F582E438F583229003AFE0F8D1
:1023E30075F00BA4C8AAF02AF974B128FE74033956
:1023F300FF22C0E0C0D0C082C083906183E0A2E02E
:102403005009E5BFA2E0500375BFFEE0A2E1500909
:10241300E5BFA2E1500375BFFDE0A2E25009E5BFAD
:10242300A2E2500375BFFBE0A2E35009E5BFA2E3BC
:10243300500375BFF7E0A2E45009E5BFA2E45003DF
:1024430075BFEFE0A2E55009E5BFA2E5500375BFF4
:10245300DFE0A2E65009E5BFA2E6500375BFBFD097
:1024630083D082D0D0D0E032C0E074F2121B85E575
:10247300A7A2E6500FE5A1A2E6500953A7BF75A195
:10248300BF1224BFE5A7A2E5500CE5A1A2E55006C3
:1024930053A7DF75A1DFE5A7A2E15009E5A1A2E1FA
:1024A300500375A1FDE5A7A2E2500CE5A1A2E250FD
:1024B3000653A7FB75A1FB7F01021BE474F7121AF5
:1024C30099752101900381E064067015120E3E8A0E
:1024D300828B83A3A3A3A3A3A3E0FAA3E0FB120E1F
:1024E300AAA2AFE433FED2AF900387E06401701871
:1024F3007A207B00900380E0F91215A07A207B00FC
:10250300900380E0F9121492906182E0D2E6F09099
:102513000528E0602185C6228016900386E06401C9
:102523007008E5C654F84405F5C653BEFC122244B0
:102533007401652160E4EEA2E092AF7F02021B45C5
:10254300008E238F24858228858327851882851909
:1025530083E0CEA3E0CF852882852783EBC9EAC831
:10256300EDCBECCA75F010C3E833C8E933C9EA33DD
:10257300CAEB33CBC3EA9EF526EB9FF525B3500494
:10258300AB25AA26EC33CCED33CDD5F0DAAE23AFB1
:10259300242274F1121A998A088B098C0A8D0B90E4
:1025A3008469780812184F740F121A09780C1218DC
:1025B30075908469780C12184F7808790C12167785
:1025C30090847950107808790C121827780812161D
:1025D300974014800E780C7908121827780C12167D
:1025E3009750047901800279007F08021B4574ED3E
:1025F300121A998A088B098C0A8D0B9084697808C2
:1026030012184F7413121A09780C121875908469F2
:10261300780C12184F780C79081216774011780845
:10262300790C121827AA08AB09AC0AAD0B802275E6
:1026330010007511007512007513017810790C12D2
:102643001827781079081217EEAA10AB11AC12AD47
:10265300137F0C021B4590846978081218758A82CF
:102663008B8378081218627F04021B4574F5121AD3
:10267300998C828D8378081218758A828B837808E7
:1026830012183B1226C7C3E09CF0A3E09D1226B9A3
:1026930040229084D178081218758A828B83780837
:1026A3001218148A828B83A3A3A3A3E02420F0A38C
:1026B300E0344EF080A0F088828983C3E09420A3A5
:1026C300E0944E22EA2404F8E43BF98C828D83A340
:1026D300A3A3A3E0FCA3E0FD888289832274F512FF
:1026E3001A99E9FE9004DEE0FAA3E0FBEE29F8E490
:1026F30033F9748128F582748339F583E02AF50868
:10270300A3E03BF5097808121C409084AD1218939E
:1027130012254474021219D38A088B098C0A8D0B73
:10272300741078081217B6AA08AB097F04021B4578
:1027330074F1121A998A0C8B0D8C0E8D0F74111271
:102743001A09121C577411121A09E02401F508A37F
:10275300E03400F509E4F50AF50B780C7908121654
:10276300B69084757808121875780C79081216B625
:10277300AA0CAB0DAC0EAD0F12254474021219D383
:102783008B09EA450960047A0180027A00EC2AFC8D
:10279300E43DFD7413121A09E0F8A3E0F9E8FEE939
:1027A300FFECF8EDF97A717B021219328808890976
:1027B300E4F50AF50B8E828F837808121884ECF8FF
:1027C300EDF97A717B021219328A088B0974057844
:1027D300081219AA8E828F83A3A3A3A3E508F0A3EB
:1027E300E509F07F08021B45C082C083E9906000C1
:1027F300F0D083D08222C0E074F2121B85A2AFE432
:1028030033FED2AFE589A2E150031212D0758900DD
:10281300C2C5EEA2E092AF7F01021BE4C0E074F2F6
:10282300121B85A2AFE433FED2AFE58BA2E05003C7
:102833001212D0758B00C2E880D8C0E0C0D0E8C0C7
:10284300E0E9C0E0A9A8D2AFC2C7E9A2E7E433F840
:10285300E9A2E792AFD0E0F9D0E0F8D0D0D0E032EF
:10286300C0E0C0D0E8C0E0E9C0E0EAC0E0C082C098
:1028730083A2AFE433FAD2AFA8F9E8C0E09008E44A
:10288300E0F8746328F582E43408F583D0E0F0902F
:1028930008E3E0F8A3E0687006E5959008E6F09099
:1028A30008E4E004F0C394804002E4F0A3E4F0EA17
:1028B300A2E092AFD083D082D0E0FAD0E0F9D0E0AA
:1028C300F8D0D0D0E032C0E0C0D0E8C0E0E9C0E04A
:1028D300EAC0E0C082C083A2AFE433FAD2AF90096A
:1028E30067E0F8A3E0687008539AF7A374018022A5
:1028F300C2EA900967E0F8740128F074E728F582CA
:10290300E43408F583E0F5F9900967E0C394804067
:1029130002E4F0809AC0E074F2121B85A2AFE433A4
:10292300FED2AF758900C2C5A28240031213E4EE42
:10293300A2E092AF7F01021BE4C0E074F2121B8598
:10294300A2AFE433FED2AF758A00C2EBA297500365
:0B2953001213E480DAC2AF0200002281
:10296000FFFFFFFFFFFFFFFFC082C083E9901966F2
:10297000F0D083D08202011F74F6121A2DE9900262
:10298000F3F0900353E0F50875090074027808121B
:1029900019AAAA08AB091215049002F412332B905D
:1029A00002F4123718606F900353E075F003A4FA35
:1029B000ABF012150490031112332B900311123750
:1029C00018700B9002F41236E912150A8048900331
:1029D0001112467D7AFF7BFF12124C7A0080198A11
:1029E00008750900740278081219AA12412574FFAB
:1029F000122B2BE4F0A3F00A900353E0F8EAC398FB
:102A000040DD79051209289002F3E0F91208147AE2
:102A1000B27B09120B9E0241C874F4121A2D8A0867
:102A20008B09EB548060479002F3E0F91214748A2A
:102A30000A8B0BAE0AAF0BEE4F602A8E828F83E0BB
:102A400064B0701A12093AE960148E828F83A3A3CE
:102A5000A3A3E0F9EE2405FAE43FFB12090AEEFA1B
:102A6000EFFB121462AA08E5096480FB80047A0077
:102A70007B00022C7B74F2121A2D74FB1219BDEA32
:102A8000FEEBFFEE4F60457403121A09EEF0A3EF60
:102A9000F0851882851983ECF0A3EDF07402121A08
:102AA00009E9F0AA18AB1912080EE9F50870757457
:102AB00013121A09E0F50AA3E0F50BE50A450B60CD
:102AC000638E828F831230B4EE4F700575080280DA
:102AD000537A067B001215048A0C8B0DA80CA90DE5
:102AE000E8497005750813803B88828983E4122BBE
:102AF0002BEEF0A3EF122C47E50AF0A3E50BF090C4
:102B000002F7122C409002F76017E0FCA3E080036C
:102B1000EAFCEBFD8C828D83122C4070F38C828D4D
:102B200083123D40A90874050248FDF0A312465FD8
:102B3000A32274F2121A2D8908890C750D007403F2
:102B4000780C1219AA850C0A850D0B9002F6F090EC
:102B500002F4123B4B122C3E602E12150A790080B3
:102B60001D890C750D007402780C1219AA9002F4DC
:102B7000123FE48882F583A3A3E4F0A3F009900355
:102B800053E0F8E9C39840D9900353E0FA850AF07E
:102B9000A4CAA8F0850BF0A428FB1215048A0C8B9C
:102BA0000DAE0CAF0DEE4F7003022C34900353E0CA
:102BB000FC850AF0A4CCA8F0850BF0A428FD7900D0
:102BC0001214507C0080318D0C750D007403780C4C
:102BD0001219AA8A828B83122C3988828983E4F0A5
:102BE000122C46A3A3F0A3F00DEDC3950840D8EE38
:102BF000250AFEEF350BFF0C900353E0F8ECC39869
:102C000050288C0C750D007402780C1219AA9002D1
:102C1000F4122C39E82402500109FAE9FB8A828B6C
:102C200083EEF0A3EFF07D0080BFE5089002F6F0A0
:102C3000790080027913024900123FE8F922A3A328
:102C40001236EDEA4B22A312465FA3A3A32274F42B
:102C5000121A2D7900EAA2E0501F75081A7509842E
:102C60007808121C4079107C047D007A687B191268
:102C7000092274021219D3E9F980007F04021AFFB5
:102C8000C082C0839002F7123718601C8882898343
:102C9000A3A3E06A7003A3E06B8882898370E8A332
:102CA000A3A3A31236E980047A007B000229717481
:102CB000F2121A2D74FD1219BDEAFEEBFF8518827F
:102CC000851983E4F0A3F07402121A097401F0125A
:102CD00037157014120AD81215049002FA12332B09
:102CE0001237157003022E4112342BEE2404F50A1C
:102CF000E43FF50B850A82F583E024FE603C24FC6A
:102D0000607424FE607E24FE7003022D9124FE7008
:102D100003022D9E24FE7003022DAB24FE700302DD
:102D20002DB824FE7003022DC524FC7003022DE68D
:102D300024FE7003022DFE022E3A120AD89002FCE5
:102D4000EAF0A3EB122E4D12054AE96003022E3A77
:102D50009002FC121C578E828F83A3A3A3A3A312FD
:102D6000467D8508828509831236E91208F27402CD
:102D70001219D3022E3AAC18AD19EEFAEFFB120974
:102D800040022E09AC18AD19EEFAEFFB120946808D
:102D900078AC18AD19EEFAEFFB12094C806BAC1849
:102DA000AD19EEFAEFFB120952805EAC18AD19EEC8
:102DB000FAEFFB1209588051AC18AD19EEFAEFFB8F
:102DC00012095E80447402121A13880C890D780C63
:102DD000121C407402121A23EEFAEFFB12096474FB
:102DE000021219D38023AC18AD19EEFAEFFB1209C9
:102DF0006AE9F870167402121A09E4F0803CAC1803
:102E0000AD19EEFAEFFB120970E9F8E8602C8E823A
:102E10008F83A3E064146022850A82850B83E0908F
:102E200002FCF08518828519831236E99002FD12A2
:102E3000332BE8A3122E4D120544EEFAEFFB1208D5
:102E4000C87402121A09E0F974030248FDF07CFC10
:102E50007D028508828509831236ED2274E8121AF4
:102E60002D74FA1219BD7404121A09ECF0A3EDF0D6
:102E70008A128B13EA2405F50EE43513F50FEA24C4
:102E800002F510E43513F511851082F5831236E949
:102E900012063A8A0A8B0B7508007C037D007900C4
:102EA0007AFC7B02121450E50E2402F516E4350F6D
:102EB000F5177402121A13880C890D780C121C4035
:102EC000850E82850F83A3A3A3A3E0F50C750D00E7
:102ED000780C121C40E50E2405F50CE4350FF50DB9
:102EE000780C121C408516828517831239F012085F
:102EF0002C74061219D38A0C8B0DE50C450D70034A
:102F000002307D8020851882851983E0888289833C
:102F1000F00508851882851983A3E0C0E01230BE51
:102F2000D0E0F00508E50A24FBFAE50B34FFFBC30B
:102F3000E5089AE49B400302307D7E007F00851205
:102F400082851383A3A3A3A3E0F5097809121C4487
:102F5000E4F514F5157814121C407514F975150272
:102F60007814121C409002FA121C577409121A09A4
:102F7000121C57E50A24F9F9AC0CAD0D85108285B9
:102F800011831236E912099A74091219D3E9600300
:102F900002301E850E82850F83A3A3A3A3A3A3A340
:102FA000E0F89002F9E0687075E0F5148E15781479
:102FB000121C4012467A850E82850F83A3A3A3A319
:102FC000A3A3A3A31236E912144A74021219D3E977
:102FD000604C9002FD123718703BE4F5147814121F
:102FE0001C407CFF7DFF7907851082851183123696
:102FF000E912090474021219D312371E7017850ED4
:1030000082850F831248177404121A091240D812CD
:103010003A210230B1850C82850D831230B4A81894
:10302000A919881489157814121C407404121A09FD
:10303000121C5785168285178312332112083874A3
:10304000041219D38A0C8B0DEE4F7003022EFA1264
:1030500030BEEE1230C91239D7EF1230C9F8A3E0F2
:103060003400F9E50C450D6003022F058882898341
:1030700074FFF005081230BE74FFF00508E5086023
:103080001A1313543F123331120556E960099002A6
:10309000FD1236E91214BC79008016850E82850F68
:1030A000831248177404121A091240D8123D40794D
:1030B0000A0239AAA3A3A3A3E0FEA3E0FF22A80863
:1030C0009002FDE0281239D722F00508089002FD91
:1030D000E0282274E8121A2D74FA1219BD74021233
:1030E0001A0912332B7404121A09ECF0A3EDF074D0
:1030F00002121A09E024051239C0E0F50CA3E0F52C
:103100000D7402121A09E02402F510A3E03400F550
:1031100011851082F5831236E912063A750800759A
:103120000900EA24FCFEEB34FFFF8008050CE50CE7
:103130007002050DA808C3EE98EF94005003023208
:10314000DDA818A919880E890F780E121C40851465
:1031500082851583A3A3A3A3124681121C40E51404
:103160002405F50EE43515F50F780E121C40851474
:103170008285158312331F12082C74061219D38A04
:103180000E8B0FEA450F70030232DDEA2404F516B8
:10319000E4350FF517851682F583E0F50CA3E0F50D
:1031A0000D85188285198312467D8A828B83A3A39D
:1031B000A3E0F98510828511831236E912081AE915
:1031C000F50960030232DD7402121A091239E7F5BB
:1031D000097809121C44E4F512F5137812121C4008
:1031E0007512F97513027812121C409002FA121C23
:1031F000577407121A09121C57EEF9AC0EAD0F8561
:1032000010828511831236E912099A74091219D3B2
:10321000E9F50960030232DDE508703FE4F50EF5DB
:103220000F780E121C407CFF7DFF79098510828586
:1032300011831236E912090474021219D3123A0DDD
:10324000700D7404121A091233147911023311909B
:1032500002F9E024029002FDF080149002FDE0FAF1
:103260009002F9E0790024025001096A497072A8BD
:10327000089002F9E0FAE82AFAE43400FBEE9AEF4B
:103280009B405A851682851783E0C0E09002FE12AB
:1032900030C3D0E0F00508851682851783A3E0C00F
:1032A000E0089002FE1230C3D0E0F005089002F969
:1032B000124681121C4012467AA8081239B4121420
:1032C0003874021219D39002F9E02508F50874FF4A
:1032D000650C700474FF650D600302312CE5086015
:1032E0001F9002FDE0F5F0E5088412333112055C11
:1032F000E960099002FE1236E91214BC79008011CF
:10330000E509700375090A7404121A09123314A925
:10331000090239AA123B4FE50CF0A3E50DF022A3F8
:10332000A312490CAA0CAB0D22A3A3EAF0A3EBF065
:10333000229002FCF07CFC7D0285108285118312B4
:1033400036ED2274EC121A2D74FC1219BD123E5087
:103350007402121A231236E31208328A0C8B0DEA19
:10336000450D700302341B12342BA818A9198810BC
:1033700089117810121C407CFF7DFF790B85088233
:103380008509831236E912090474021219D3123521
:1033900021700C850A82850B83123A1E0234288E16
:1033A000828F83A3A3A3A3E0F5127812121C44E436
:1033B000F512F5137812121C407512FC7513027881
:1033C00012121C407810121C407409121A09121CA7
:1033D000577409121A09E0F9AC0CAD0D8508828505
:1033E00009831236E912099A74091219D3E9FE7099
:1033F000157CFC7D028508828509831236E9120559
:1034000062E97009802074166E70027E009002FDE1
:103410001236E91214BCEE7004800B7E01850A821C
:10342000850B83123D3DEEF9023D52EE2402F50874
:10343000E43FF5092274EC121A2D74FC1219BDEA4E
:10344000FEEBFF8C0E8D0FEE2405F508E43FF50929
:103450007402121A238508828509831236E912083C
:10346000328A0C8B0DEA450D7003023511EE2402F1
:10347000F50AE43FF50BA818A919881089117810EE
:10348000121C407CFF7DFF790D1236E31209047493
:10349000021219D3123521700B8508828509831217
:1034A0003A1E807A8E828F83A3A3A3A3E0F51278BD
:1034B00012121C44850882850983A3A3121C577528
:1034C00012FC7513027812121C407810121C407402
:1034D00009121A09121C577409121A09E0F9123656
:1034E000DF12099A74091219D3E9FE700F7CFC7D72
:1034F000021236E3120568E97009802074166E70B6
:10350000027E009002FD1236E91214BCEE700480B7
:103510000B7E01850882850983123D3DEEF9023D4F
:1035200052123728F510A3E0F511EA45112274E88C
:10353000121A2D74FE1219BD8A168B178C148D1554
:10354000EA2405F50CE43517F50DEA2402F50EE43E
:103550003517F50F850E82F5831236E912063A8A81
:10356000088B09750B007C037D0079007AFC7B02D7
:10357000121450750A00E50814F5100424FFF5082C
:10358000E50934FFF50980549002FCE0FA9002F955
:10359000E0F8EA28F8E43400F9E50898E5099950DC
:1035A0000D9002FCE0F8E510C3989002F9F0E0F508
:1035B000127513007812121C4012467A9002FDE038
:1035C0002AFAA3E03400FB12143874021219D390C3
:1035D00002F9E0F89002FCE028F0050A850C8285EB
:1035E0000D83A3A3123FF440030236C49002FCE013
:1035F000C39508E4950940030236C4AE0AEE2EFED8
:10360000E433FF123703AC18AD19124695E439FBC9
:103610001208328A128B13AC12AD13EC4D701B756D
:103620000B011236F3123D419002FD122C40600353
:103630001214BCA90B74020239AC8516828517835B
:10364000A3A3A3A3E0F50B780B121C44E4F512F539
:10365000137812121C407512F97513027812121C9D
:10366000409002FA121C577407121A09121C57A92B
:1036700010850E82850F831236E912099A74091299
:1036800019D3E9F50B709B9002FD12371860030205
:103690003588E4F512F5137812121C407CFF7DFF8B
:1036A000790F850E82850F831236E91209047402A0
:1036B0001219D312371E60030235881236F3123AFC
:1036C000220236357CFC7D02850E82850F83123600
:1036D000E912056EE960030236287900023635AC3E
:1036E0000CAD0D850A82850B831236ED22E0FAA31C
:1036F000E0FB22123703E0FAA3E0F9EA85148285A1
:10370000158322850C82850D83E02EF8A3E03FF916
:1037100088828983229002FA12481BE849221237D4
:1037200028F8A3E0F9E849229002FDEAF0A3EBF0C3
:103730009002FDE02274E8121A2D74FA1219BD7479
:1037400004121A0912332B8C168D177404121A09DD
:10375000E02405F50EA3E03400F50F7404121A09F5
:10376000E024021239C01236E912063A8A0A8B0B9B
:103770007F007E00A818A919880889097808121CFA
:1037800040850E82850F83A3A3A3A3E0F5088E09CD
:103790007808121C40E50E2405F508E4350FF509FC
:1037A0007808121C40850E82850F83A3A31239F07E
:1037B00012082C74061219D38A0C8B0D8029123929
:1037C000E1F00F1239E1F00F9002F9123D2C121CBA
:1037D0004012467AEFF81239B412143874021219F2
:1037E000D39002F9E02FFFE50C450D70030238700D
:1037F000851882851983123E62A3A3A3E0F985147C
:10380000828515831236E912081AE9FEE50C2404B4
:10381000F510E4350DF511EE70507404121A09120A
:1038200039E7F5087808121C44E4F508F50978082A
:10383000121C407508F97509027808121C409002A4
:10384000FA121C577407121A09121C57E50A24FAB7
:10385000F9AC0CAD0D8514828515831236E9120979
:103860009A74091219D3E9FE60391239FD123D40EC
:10387000EF70030239979002FDE0F5F0EF849002BB
:10388000FCF07CFC7D028514828515831236E912DA
:103890000574E960099002FE1236E91214BC790041
:1038A0000239AA8F08EF703BE4F512F51378121273
:1038B0001C407CFF7DFF79118514828515831236AB
:1038C000E912090474021219D3123A0D700912395F
:1038D000FD123A210239AA9002F9E024049002FD77
:1038E000F080359002F9E0F89002FDE0FAE8240457
:1038F000FCE43400FDEC6A4D6003023876E50A24EE
:10390000FAFAE50B34FFFBE50828F8E43400F9EA9D
:1039100098EB995003023876851082851183E0C0B8
:10392000E09002FEE02FF8A3E034008882F583D017
:10393000E0F00F851082851183A3E0C0E01239CE3C
:10394000D0E0F00F7402121A13880889097808125F
:103950001C407402121A09121C57850E82850F83AF
:1039600012331F12083874041219D38A0C8B0DEA13
:10397000450D70030237BE7402121A09E0C0E0124E
:1039800039CED0E0F00F7402121A09A3E0C0E012A1
:1039900039CED0E00237C6EE70027E0A850E8285EF
:1039A0000F83123A03123D40EEF974061219D37FC9
:1039B00010021AFF9002FEE028FAA3E03400FB2276
:1039C000F514A3E03400F515851482F5832212392D
:1039D000D2229002FEE02FFAA3E034008A82F5831F
:1039E000221239D274FF22123B4FA3A3A3A3E022D9
:1039F00012490C850E82850F831236ED22851082C6
:103A000085118312481B851682851783229002FE3A
:103A1000EAF0A3EBF09002FE12481BE84922123DA7
:103A200046E8F0A3E9F079112274EA121A2D74FE27
:103A30001219BD8A088B098C128D13EA2405FEE445
:103A40003509FFAC18AD198E828F831236E9120842
:103A5000328A0C8B0DEE2406F50EE43FF50FEA4595
:103A60000D7003023B21E5082402F50AE43509F54F
:103A70000B8A828B83A3A3A3E0A2E550288518823A
:103A80008519831236E912098E8A108B11EA4511C5
:103A9000602079121236DF851082851183121A2B6D
:103AA000E9F50C707F850E82850F83E060097952FD
:103AB0008011750C0E806D850882850983A3A3A3F0
:103AC000A3E0F9E4F508F5097808121C408E828F0E
:103AD00083A3A3E0F5087808121C408E828F83A38D
:103AE000A3A3121C578E828F8312467D1236E312D7
:103AF00009A074061219D3E9F50C7011850E8285A0
:103B00000F83E0702D1236E312057A802574166556
:103B10000C7011750C007418121A09123B4BE480DA
:103B200010750C01124813851282851383E8F0A3E7
:103B3000E9F0850E82850F83E0600479008002A998
:103B40000C74021219D37F0E021AFF123B4F22E0AF
:103B5000F8A3E0F58388822274EC121A2D74F71210
:103B600019BD8A0A8B0B8C108D11EA2405FEE435F1
:103B70000BFF750C00AC18AD198E828F831236E9DD
:103B80001208328A088B09EA45097003023D17E5DD
:103B90000A2402F50A5002050B8A828B83A3A3A391
:103BA000E0A2E5502F8518828519831236E91209A3
:103BB0008E8A0C8B0DEA450D604F7912AC08AD0969
:103BC0001236E3850C82850D83121A2BE9F50C6001
:103BD00003023D1A850A82850B83E0F508A3E0F510
:103BE00009AA08FB120982EA4B70197AFF7BFF12BF
:103BF0000982EA4B7003023D0D8A828B83E508F04F
:103C0000A3E509F07508008008750C0E023D1A0541
:103C1000089002F6E0F8E508C3984003023D0D85E0
:103C2000080E750F007403780E1219AA8A828B830E
:103C3000A3A3E0250EF8A3E0350F1240E170D08E6B
:103C4000828F83123D3512332B8E828F83A3A31272
:103C50003D35123329EE2404F508E43FF5098508C3
:103C600082F583E088828983A3A3A3A3F0A3E4F071
:103C7000EE2405F50EE43FF50F850E82F583123D27
:103C800035A3A3A3A3123329751207751300781265
:103C9000121C40EEFCEFFD7404121A1B121438744F
:103CA000021219D3E4F5127812121C40850882859D
:103CB0000983E0FC7D0079171236E31209047402CF
:103CC0001219D37407121A0912332B7407121A0926
:103CD000E0FA4B603D850882850983123D2C121C59
:103CE00040850E82850F8312467D121438740212AD
:103CF00019D37402121A231236E3120580E96026E2
:103D00007407121A091236E91214BC8019750C09CD
:103D10008008750C118003750C0112481385108200
:103D2000851183123D40A90C74098028E0F50875BF
:103D300009007808221236ED8882898322123D46D6
:103D4000E8F0A3E9F022E0F8A3E0F9850E82850F00
:103D5000832274041219D37F0C021AFF74EC121A16
:103D60002D123E50751000EE2402F50CE43FF50DC7
:103D7000850C82F5831236E91209828A088B09EADA
:103D800045097003023E34850A82850B83E0640195
:103D90006003023E29AC08AD09AA0AAB0B120976F2
:103DA000E9606E8508828509831230B6EE2406F537
:103DB0000AE43FF50B8E828F83A3A3121C578E82D9
:103DC0008F83A3A3A3A3121C57850A82850B83129A
:103DD0001C5779188E828F83123E621236E91209BF
:103DE000A074061219D3E9F8741668700B850A825C
:103DF000850B83E4F0A38014E860128E828F831217
:103E000036E9850E82850F83EAF0A3EBF0881080F7
:103E100018780E121C40AC08AD09EEFAEFFB12093F
:103E20007C74021219D3E9F510AA08AB09120988AB
:103E3000E510700E850C82850D831236E912058619
:103E40008009741665107003751000A910023D57A3
:103E5000EAFEEBFF8C0E8D0FEE2405F50AE43FF52C
:103E60000B2212490C850C82850D832274EA121AEA
:103E70002D7508007509007E007F00750A00EC248E
:103E800002F510E43DF5118035EC65087003ED6531
:103E9000096003023F2188828983A3A3E06A70033B
:103EA000A3E06B707C88828983A3A3A3A312481725
:103EB000EE28FEEF39FFEA28FAEB39FB050A123F3C
:103EC000F1503A850A0C750D007403780C1219AA8A
:103ED000851082851183123FE41240E1601FE508DE
:103EE000450970A58C088D09888289831230B488B1
:103EF000828983A3A3E02EFAA3E03F80BEE50AC334
:103F000094025003023FDF750800750900EE4F6010
:103F100010EEFAEFFB1214B68A0E8B0FEA450F7003
:103F2000057900023FE1750B00023FB4850B0C756B
:103F30000D007403780C1219AA851082851183E094
:103F4000250CF50CA3E0350DF50DE50C2406F51454
:103F5000E4350DF515851482F5831240E66042E5DF
:103F60000C2404F512E4350DF513851282F5831245
:103F70001C57E50E2508FAE50F3509FB12143874B5
:103F8000021219D3851282851383E02508F508A350
:103F9000E03509F5098514828515831236E9121476
:103FA000BCE50B600D7C087D007900AA0CAB0D12FE
:103FB0001450050BE50BC3950A5003023F2C8510E6
:103FC0008285118312481788828983A3A3A3A3A3A0
:103FD000A3E50EF0A3E50F122C47EEF0A3EFF07966
:103FE00001023B46123FE822E0250CF8A3E0350D24
:103FF000229002F6E0F8E50AC3982274F0121A2D16
:104000008A0E8B0F8C0A8D0B750D00750C0080507D
:104010007916EE2406F508E43FF5098E828F83A316
:10402000A3121C578E828F83A3A3A3A3121C5785B0
:104030000882850983121C57850E82850F83A3A3EE
:104040001236E91209A074061219D3E9F50D741697
:10405000650D706C850882850983E4F0A3F0050C7A
:104060009002F6E0F8E50CC3985066AA0C8A087531
:104070000900740378081219AA850A82850B83A3A4
:10408000A3124130E8FEE9FF8E828F831240E66082
:1040900040EA2401F508E43400F5099002F6E065F1
:1040A000087002E509601488828983A3A3A3A3A3EF
:1040B000A3A3A3123718600302401079180240121C
:1040C000E9609B1248137410121A091240D8123D6D
:1040D00040A90D7F08021AFFE0FAA3E0F5838A8267
:1040E00022F98882898312490CEC4D2274F6121A47
:1040F0002D7C0080010C900353E0F8ECC398501E17
:104100008C08750900740278081219AA124125E07A
:104110006A7003A3E06B70DDE8FAE9FB80047A00C3
:104120007B000241C89002F41241308882898322C8
:10413000E02508F8A3E03509F92274F2121A2D8A55
:10414000088B09750A0080278E828F83A3A3A3A3FF
:10415000122C3E60031214BC7C087D007900EEFA3C
:10416000EFFB1214508E828F83E4F0A3F0050A1245
:104170003FF15027850A0C750D007403780C121955
:10418000AA850882850983A3A3E0250CFEA3E03558
:104190000DFF8E828F8312371870AD8508828509D6
:1041A0008374FFF0A3F002490074F6121A2D12096D
:1041B000348A828B83E582458370067A007B008097
:1041C00007A3A3A3A31236E97F02021AFF74F41215
:1041D0001A2D89088C828D83E06402703C1247B6E8
:1041E000FEA3E0F9EEF8740268700374296970297F
:1041F000750A02750B00780A121C407410121A0915
:10420000121C577410121A09121C57A908121252C4
:1042100074061219D3E9F980027901022C7B74E843
:10422000121A2D74FB1219BDE9851882851983F0C5
:104230008A168B17ECFEEDFF7510008E828F83A31C
:10424000A3A3E0A2E4502D741D121A091236E9123C
:10425000098E8A828B83E5824583700302465579F5
:104260000AEEFCEFFDAA16AB17121A2BE9F5106047
:1042700003024658741F121A09E0F508A3E0F50975
:104280007421121A09E0F50AA3E0F50B7423121A3F
:1042900009E0F50EA3E0F50F8E828F83E0640260E3
:1042A000030245F6A3124817850882850983A38572
:1042B0008212858313EE2406F50CE43FF50D888207
:1042C0008983124695F514E439F5157814121CCA41
:1042D000010000280128F84207000228BD430328F6
:1042E0002B430029EC44012917450229B84403292E
:1042F000EC4404299045F645E50E450F6003024560
:10430000F1850C82850D83124817E8FAE9FB8A8251
:104310008B83E0850A82850B831246A0121C408A9B
:10432000828B83A3E0FCA3E002457AE50E450F6093
:10433000030245F1850A82850B837401F012468AD7
:10434000850882850983F07C007D008E828F83A39F
:10435000A3A3A3E02401FAA3E03400FB120832EA8D
:104360004B60408A828B83E02402F8850A82850BA9
:1043700083E028F0EA2404F8E43BF988828983E0AA
:104380008512828513831246AE1246A0121C408A03
:10439000828B83A312467DE5082403FAE43509FBEA
:1043A00002457F850A82850B83E02404F07C047D2E
:1043B000007900AA12AB13121450024658E50E45BC
:1043C0000F60030245F112468AFEA3E0FF850A82D0
:1043D000850B837404F0EE850882850983F0EF85F0
:1043E0001282851383F07403121A23EEFAEFFB1284
:1043F00008328A0C8B0DEA450D700302449B8A82B9
:104400008B83A3A31230B47401121A13880E890F80
:10441000780E121C407405121A09121C577CFF7D7D
:10442000FF12083874041219D38B0FEA450F70334A
:10443000850C82850D83124681121C40850C828575
:104440000D83A3121C577C027D007A357B851206F2
:104450002874041219D3E9700A7401121A0974FF3E
:10446000F0A3F08E828F83E064027039750C0275C0
:104470000D00780C121C408E828F83A312467DE5BE
:10448000082404FAE43509FB12143874021219D313
:10449000850A82850B83E0240280097401121A09BF
:1044A000EEF0A3EFF07401121A0912466F740112B4
:1044B0001A091246660245EBE50E450F60030245F8
:1044C000F1850C82850D83124905AA16AB171212CD
:1044D00058850A82850B837402F0850882850983DA
:1044E000EAF0851282851383EB0245EEE50E450F57
:1044F00060030245F112468AF8A3E0F9850A828535
:104500000B837402F0E8850882850983F0E985123F
:10451000828513830245EE850C82850D831236E970
:10452000121432EAFAF8C3950EE4950F405CE86580
:104530000E450F70047A008021851882851983E06A
:10454000FCE50E2CFCE4350FFDC3EC98ED94005017
:1045500003E08005E50ECAC39AFAEA850A82850B54
:1045600083F08A0A750B00780A121C40850C82853C
:104570000D83E0250EFCA3E0350FFDAA08AB091260
:10458000143874021219D30246587510070246589F
:10459000E50E450F705B850C82850D8312481785EB
:1045A0000A82850B837407F088828983124667121A
:1045B000465FE0851282851383F0E82402FAE4392D
:1045C000FB8A828B8312466F8A828B83124666A394
:1045D000A3122C46124674F0E82405F8500109880D
:1045E000828983124674A31246AEA3A3A3A3F080CC
:1045F0006775100B8062741D121A091236E91209D0
:10460000348A828B83E5824583604A124817880C7E
:10461000890DE8450D603E7425121A09E0F5107801
:1046200010121C44780E121C40780A121C407808A4
:10463000121C407407121A09E0F9EEFCEFFDAA16ED
:10464000AB17850C82850D83121A2B74071219D3B0
:10465000E9F510800375100EA91074050239ACF04D
:1046600088828983A322A3E0850882850983221298
:1046700046B5F0221246B5A3A3229002FA12490CC5
:1046800022E0F50E750F00780E22850C82850D83D1
:10469000123B4FE022E0FAA3E0F8E4C8F9EA28224E
:1046A000F08A828B83E0F50A750B00780A221246A5
:1046B0005F1246B522E0850882850983A3A3227490
:1046C000EE121A2D74FE1219BD8A088B09ECFEED4C
:1046D000FF890AAC18AD19EEFAEFFB1208328A0C0A
:1046E0008B0DEA450D70030247A785188285198353
:1046F0001236E91209348A828B83E582458370037E
:104700000247A2A3A3124817880E890FE8450F702D
:10471000030247A27414121A09E0F510A3E0F51180
:10472000E50AF50B780B121C447419121A09121CB5
:10473000577810121C40741B121A09E0F9AC0CAD2A
:104740000DAA08AB09850E82850F83121A2B7405FA
:104750001219D3E9F50B705274FE650A604C850C92
:1047600082850D83E0640270411247B6FAA3E0F936
:10477000EAF87402687003742969702E85108285C6
:104780001183124695F50CE439F50D780C121C4096
:10479000EEFCEFFDAA08AB091209B874021219D396
:1047A0008008750B0E8003750B01A90B740212199A
:1047B000D37F0A021AFFA312481B88828983E02252
:1047C00074F6121A2D74FE1219BD740C121A091205
:1047D0004817E8851882851983F07401121A09E9CF
:1047E000F0E4F508F5097808121C4075080278080D
:1047F000121C407404121A13880889097808121CC4
:104800004079FE1209A074061219D374021219D34A
:104810000241C88E828F8312481B22E0F8A3E0F980
:104820002274F7121A2DEAFEEBFF89089003111289
:10483000467D121258EA5402600BA908EEFAEFFB0B
:10484000120826800279017F01021AFF74F2121AFF
:104850002D74FE1219BDEAFEEBFF890A7401650A88
:1048600060147402650A60030248FB7901120BBCF4
:10487000E960030248FBEEFAEFFB120982EA4B60A3
:1048800003120988A818A919880889097808121C30
:10489000407508027509007808121C407508F57506
:1048A00009847808121C407CFF7DFF7A017B00128E
:1048B000082C74061219D38038850882850983A3D1
:1048C000A3A3A3A3A3124905EEFAEFFB12124CE433
:1048D000F50CF50D780C121C407402121A09121C0A
:1048E000577CFF7DFFAA08AB09120838740412191F
:1048F000D38A088B09E508450970BE74021219D3E2
:104900007F06021AFF123B4F12490C22E0FCA3E083
:10491000FD2274F4121A2D8A088B09ECFEEDFF902B
:104920001966E0F4604B7A097B0012145CEA4B6074
:10493000408A828B8374B1F0A3E4124974F08A82B6
:104940008B83A3A3E508F0A3E509124974A3EEF055
:10495000A3EFF0740C121A091248178A828B83A3F2
:10496000A3A3A3A3A3A3123D40901966E0F91214D8
:1049700068022C7BF08A828B83A3A3A3A32274F00A
:10498000121A2D74FA1219BD8908ECFEEDFF750993
:10499000008A0A8B0B780A121C84000410A54BC1F4
:1049A00049DF49FA49124A304A484A6B4A834A97D2
:1049B0004AC14A3C4B4D4B644B7F4BA54BA54BD753
:1049C0004A740165086003024BA08E828F83E0F871
:1049D000C394034003024BA0E8901A52024B7C742C
:1049E0000265086003024BA08E828F83125C2BF954
:1049F000901A53E8F0A3E9024B7C74016508600348
:104A0000024BA0124BD24003024BA0E89007540285
:104A10004B7C740165086003024BA08E828F83E09B
:104A2000F8C394054003024BA0E8900755024B7C65
:104A3000740165086003024BA0124BD24003024B85
:104A4000A0E8900756024B7C741065086003024B87
:104A5000A0750A10750B00780A121C407A577B0764
:104A600012143874021219D3024BC674016508601F
:104A700003024BA0124BD24003024BA0E890076701
:104A8000024B7C740165086003024BA08E828F8309
:104A9000E0901A56024B7C740465086003024BA038
:104AA0008E828F83780C1218759084AD780C121654
:104AB000975003024BA0900769780C121884024BA0
:104AC000C6E96003024BA01207C0E9700512120A82
:104AD00080559007FC8061740765086003024BA055
:104AE000750A06750B00780A121C408E828F83A30C
:104AF000AC82AD837402121A1B12143E7402121996
:104B0000D37C007D00AA18AB198E828F83E0F91246
:104B100011B0E9FEC3940A4003024BC31207C0E977
:104B2000700CEEF91212107950121576806D74FD2A
:104B30002EF582E43407F583740180407401650822
:104B4000705E124BD25059E8900768802F7401654F
:104B500008704D8E828F83E0F8C3940A5042E8902B
:104B60001A5580187401650870368E828F83E0F8BC
:104B700074F928C3940A5028E8901A57F0804774B3
:104B8000016508701B9007FBE0F88E828F83E09030
:104B900007FBF0E87030E06401702B1211FE8026F4
:104BA0007509188021C3EA9427EB9400501574020C
:104BB0006508700F8E828F831257B0120640E9F598
:104BC000098003750902A90974061219D37F080226
:104BD0001AFF8E828F83E0F8C394022274F4121AB3
:104BE0002DECFEEDFF7508008A0A8B0B780A121C6B
:104BF0008400040E8E4C144C194C2A4C2F4C344C0F
:104C0000394C564C5B4C604C8E4C6F4C744C794C10
:104C10007E4C844C901A528068901A53125C2BF987
:104C20008E828F83E8F0A3E98078900754805290B9
:104C30000755804D9007568048750A10750B00780F
:104C40000A121C407C577D07EEFAEFFB12143874F1
:104C5000021219D380529007678026901A5680213D
:104C60009007691218AB8E828F831218B780399023
:104C70000768800D901A558008901A578003900796
:104C8000FBE08004121204E98E828F838014C3EA51
:104C90009427EB9400500E1206468E828F83EAF022
:104CA000A3EBF08003750802A90880031219D37FD3
:104CB00004021AFF74F1121A2D74AB1219BD8C0C78
:104CC0008D0D9084207414121A2374061218D07457
:104CD00014121A231211B0E9F50A7464121A09E0C9
:104CE000F50BE9C3940A4003024E3375F006E9A4BC
:104CF000F5097447121A237A0E74202509F9121542
:104D000070E970097453121A09E0FE80027E009067
:104D10001A52E0640270057508018003750800747A
:104D200008650B70047422800274212509FF7C1B26
:104D30007D007900741A121A1B121450741A121A78
:104D4000237A1BEFF9121570E970297434121A09CD
:104D5000E024F9C3940A501C7808121C44741B12F6
:104D60001A23EEA2E0E433F9AA0CAB0D1206E274AA
:104D7000011219D37C147D007900AA18AB19121402
:104D800050AC18AD197A1074242509F9121570E980
:104D900070327C1079FFAA18AB191214B0E9702494
:104DA0007410121A09AC82AD837A0474252509F9AE
:104DB000121570AC18AD19EEA2E0E433F9AA0CABF1
:104DC0000D1206CA7435121A237A127470250AF964
:104DD000121570E9704C7435121A1B1211E67F001F
:104DE000EF75F003A4F8A9F07435121A09E58228CA
:104DF000F8E58339F9888289831257AA601D888271
:104E00008983A3A3E0F5087509007808121C40AA5D
:104E10000CAB0D1209A674021219D30FEFC394063E
:104E200040BEEEA2E1500C900753E0F9AA0CAB0D86
:104E30001209AC7404650B7028901A52E064027079
:104E4000207800900767E060027801900754E060E6
:104E5000057404488001E8FEEEF9AA0CAB0D1207B8
:104E600096790074551219D37F07021AFF74F7124E
:104E70001A2D1207C0E9704F9007FCE0640170150D
:104E800012120A9007FCE4F07C0AFDF97AFD7B0718
:104E9000121450802A750800A80874FD28FEE43416
:104EA00007FF8E828F83E06401700BA90812121035
:104EB0008E828F83E4F00508E508C3940A40D9790F
:104EC000501215761211FE0258EC74F1121A2D745C
:104ED000F01219BD8A0C8B0D8C088D097E0AE960D1
:104EE0000C14600914603A146075024FB01211F886
:104EF000E9FEC3940A4003024FB0E5084509700378
:104F0000024FB0750A06750B00780A121C40AC0CF3
:104F1000AD0DAA08AB0912143874021219D3024F4E
:104F2000B07F00750A06750B00780A121C40AC0CA5
:104F3000AD0DEF75F00EA4F8A9F0747528FA74079A
:104F400039FB12144A74021219D3E970090FEFC326
:104F5000940A505C80CDEFFEC3940A505380427F88
:104F600000AC18AD197A1075F006EFA42423F912DD
:104F70001570E9701C7C1079FFAA18AB191214B0D7
:104F8000E9700EAC0CAD0DAA18AB191206A6E960BB
:104F9000090FEFC3940A501880C7EFFEC3940A505C
:104FA0000FE50845096009AA08AB09EEF91211F2EC
:104FB000EEF97410024E6574F4121A2DE9FF7E1595
:104FC00074FF6A700374FF6B7028750800EFFC7A39
:104FD000027B00A9081211D4E960027E000508E5F1
:104FE00008C3940A40E7EF60507A227B12120BE06C
:104FF0008047120BB08A088B09EA450960397C00AA
:105000007D00EA2405FAE43509FB850882850983D9
:10501000A3A3A3A3E0F91211B0E9F9C3940A500BBA
:10502000EFFC7A027B001211D47E00EF600BAA081D
:10503000AB0912122280027E14EEF9024CAF74F218
:10504000121A2D8C088D097E15740E121A09E0F5BE
:105050000AA3E0F50B74FF6A700374FF6B701D7F89
:1050600000AC0AAD0BAA08AB09EFF91211DAE9603E
:10507000027E000FEFC3940A503D80E5120BB08A08
:10508000828B83E5824583602C7C007D00E5822451
:1050900005FAE43583FBA3A3A3A3E0F91211B0E959
:1050A000F9C3940A5011AC0AAD0BAA08AB0912114E
:1050B000DA7E0080027E14EEF902558BC082C08336
:1050C00090076DEAF0A3EBF0900753E0FC7D007AC7
:1050D000267B00120640900753E0F9120910025C8B
:1050E0008F74F0121A2D74FF1219BDE9851882858C
:1050F0001983F0EAFEEBFF750800E0703D8E088F23
:10510000097808121C407413121A09780C121875C9
:105110009084AD7808121875780C7908121736AAA1
:1051200008AB09AC0AAD0B1206DC74021219D3E904
:10513000F50860097901EEFAEFFB1206D6A90874AA
:1051400001024BCA74F0121A2D74EC1219BDEAFE5A
:10515000EBFF8E828F83A385820C85830DEE240561
:10516000F50EE43FF50FEE2409F50AE43FF50BEEEA
:105170002403F508E43FF5098E828F83A3A3E0247E
:10518000FA700302540824FD700302532A147003BA
:1051900002521A14601024FD700302530D147003A0
:1051A00002536102540E125FE46047E0F583888287
:1051B000E0F50EA3E0F50FE50E450F60351258C07F
:1051C000E0F50C780C121C44EE240BF582E43FF55C
:1051D00083E0F9850A82850B831257B00A0A0AAB6D
:1051E00009850E82850F83121A2B74011219D302BE
:1051F000540E850A82850B83121C5790076912187A
:10520000931206DC74021219D3E9700302540E796A
:1052100001850A82850B830253D8750A00850C82AA
:10522000850D83E060030252D4850E82850F83E0F2
:10523000A2E040030252D4900807125FE760030225
:1052400052D47C0E7D007900AA18AB1912145012AA
:1052500058C012549A4B6010750A06750B00780AF4
:10526000121C40EA2410801B125C50120BB0EA4B57
:10527000700302540E750A06750B00780A121C4062
:10528000EA2405FCE43BFD7402121A1B1214387464
:10529000021219D3850E82850F83E0A2E25004D258
:1052A000F08002C2F0A2F0E433F8740C121A09E0A4
:1052B00048F0EEFCEFFDAA18AB191211ECE97011E1
:1052C0007A027B00900753E0F912148C79000254A3
:1052D00010750A15125FE4700302540E125C09FE89
:1052E000A3E0FFEE4F700302540E850C82850D8300
:1052F000E0FC7901125415121A2BE50A70030254CE
:105300000EFC7903125C50125C12025403125FE42B
:10531000700302540E125423700302540E850C8243
:10532000850D83E0FC79020254007C007D00EE24B0
:1053300004FAE43FFB850882850983E0F91211B085
:10534000E9F8C3940A400302540EEE240AFCE43F39
:10535000FD7A0475F006E8A42425F912156A0254B2
:105360000E125C50900768E06007901A55E0F980D3
:105370006A901A52E0700479058060120BB08A0CB2
:105380008B0DA80CA90DE849700302540EE8240403
:10539000F50CE439F50D8E828F83A3A3A3A3A3A3F9
:1053A000A3E0A2E0503A850C82850D83E0FE6030D8
:1053B000850A82850B83A3E054027024740E121AAE
:1053C00023E82405FAE439FBEEF91211B0E9701074
:1053D0007903850882850983125C561206D6802ED1
:1053E000AC0EAD0F850C82850D83E0F9125C501276
:1053F000122E125FE4601712542360127C007900B1
:10540000125415121A2B8006125C501211AA79013F
:105410007414024BCA850882850983125C5A8E82F5
:105420008F8322125C20F9E8FEE9FFEE4F2274F52B
:10543000121A2D74F21219BDEAFE8C0975F006E9F4
:10544000125BFC121570E970457C0679FFAA18AB57
:10545000191214B0E97037740C121A0912549AF820
:10546000E5096005EEC8488004EEF4C858F8EA681B
:105470007001EB6015740C121A09E8F0A3E4F0ACAB
:1054800018AD197A0EA90812156A790180027900FF
:10549000740E1219D37F03021AFF125C5AEA2274A7
:1054A000F2121A2D74E01219BD89098A0C8B0DECC9
:1054B000FEEDFF7412121A237A0E75F006E9A42489
:1054C00020F9121570E960030255847C0679FF7497
:1054D00012121A1B1214B0E960030255847470256D
:1054E00009F508AC18AD197A12F9121570E96003C4
:1054F000025580AA18AB191211E6E50C450D701D76
:105500007C127900AA18AB191214B0E970727C12DF
:105510007D007900AA18AB191214508051AC18AD57
:1055200019AA0CAB0D1211E08A0A8B0BA80AA90B61
:10553000E8497022EE4F604CAC18AD197A007B0040
:105540001211E0EAF8EBF9EA4B603988828983E5C9
:105550000CF0A3E50DF0125600FAEE6A7001EF6050
:105560001FEEF04F700888828983E4F0A3F0AA1838
:10557000AB191211E6AC18AD197A12A90812156A06
:1055800079018002790074201219D37F06021AFF74
:1055900074F7121A2DEAFEEBFF750800E50875F0A6
:1055A00003A4F8A9F0EC28FAED39FB8A828B83E09A
:1055B0006E7003A3E06F600D0508E508C394064014
:1055C000DB7A007B000258EC74F7121A2D7C00EC99
:1055D00075F003A4F8A9F0EA28F8EB39F988828974
:1055E00083E0F4FEA3E0F4FF88828983EEF0A3EF6A
:1055F000F0125600F4F00CECC3940640D20258ECC2
:10560000E82402F582E439F583E02274F4121A2DBD
:1056100074EE1219BDEAFEEBFF8C0A8D0B900807A1
:10562000125FE7704FEE4F700302578CEC450B7022
:105630000302578C1211F8E9901A58F0C3940A40EB
:10564000337508007C0679FFE50875F00EA4FAAB07
:10565000F0746F2AFA74073BFB1214B0E96003027E
:1056600056E60508E508C3940A40D975090AE50914
:10567000901A58F0901A58E0C3940A400302578CCD
:1056800075F006E0A4F890080712549A4B705CEE8F
:10569000FCEFFD7A0E742028F912156A7C127D0049
:1056A00079FFAA18AB19121450AC18AD197A1290E0
:1056B0001A58E02470F912156A75080E75090078F9
:1056C00008121C40EEFCEFFD901A58E012584812E8
:1056D000143874021219D3900807E50AF0A3E50BF9
:1056E000F0790002578E85080980831257932406AB
:1056F0001257A460197A1B742128F912156A1257DF
:105700009C2406F582E438F583E4F0A380D2125796
:1057100093240A1257A460107A1B742228F91215D8
:105720006A12579C240A80DB125793240C1257A448
:1057300060107A10742328F912156A12579C240CF1
:1057400080C112579324081257A460347A1074242D
:1057500028F912156A12579C2408F582E438F5835B
:10576000E02410FCA3E03400FD7A0475F006901AE2
:1057700058E0A42425F912156A12579C2408808346
:105780009007FBE0600312123A121228790174129A
:10579000024CAC900807E0F9A3E0C9229008071278
:1057A0005C2BC822F582E439F5831257B0EC4D2208
:1057B000E0FCA3E0FD2274F4121A2D74F21219BD5C
:1057C000EAFEEBFFE9C3940A5004EE4F700479023D
:1057D0008034AC18AD197A0E75F006E9A42420F9CE
:1057E000121570E9F508701C750A06750B00780A29
:1057F000121C407402121A23EEFAEFFB12143874D2
:10580000021219D3A908740E024CAC74F4121A2DAA
:10581000EAFEEBFF750800750A06750B00780A12A0
:105820001C40EEFCEFFDE50812584812144A7402C1
:105830001219D3E96004A908800B0508E508C39490
:105840000A40D4790A024CAF75F00EA4F8A9F0749E
:105850006F28FA740739FB2274F7121A2D750800A5
:10586000E50875F00EA4F8A9F0746F28FE740739E6
:10587000FFEEFCEFFD7A0E75F006E508A42420F992
:10588000121570E960237C067D0079FFEEFAEFFBCC
:105890001214507C067D0079FFEE2CFAE43FFB12D7
:1058A00014501258C0E4F0A3F00508E508C3940AA8
:1058B00040AE9007FBE0600312123A121228802CCF
:1058C000EE240CF582E43FF5832274F7121A2D7E44
:1058D000007F007C06EF12584874FFF91214B0E9FB
:1058E00070010E0FEFC3940A40E9EEF97F01021A2E
:1058F000FF74F7121A2D7E00EEF9121210E9F90E5C
:10590000EEC3940A5003E960EF80E174F3121A2D9C
:1059100074C51219BDE9FF901A58E06F701B7A0127
:105920007B00900753E0F91214927A027B009007F3
:1059300053E0F9121492121246901A59E06F701245
:105940007A047B00900753E0F9121492901A59746C
:105950000AF075F006EFA4FE74202EF508741B12F1
:105960001A237A0EA908121570E96003025A267CE0
:105970000679FF741B121A1B1214B0E96003025A55
:10598000267C0E7D0079FF741B121A1B1214507CAA
:105990001B7D0079FFAA18AB191214507C127D00F0
:1059A00079FF7429121A1B121450741B121A237ACD
:1059B0000EA90812156AE9F508AC18AD197A1B741E
:1059C000212EF912156AE9F50CAC18AD197A1B7481
:1059D000222EF912156AE9F50BAC18AD197A10747C
:1059E000232EF912156AE9F509AC18AD197A10746D
:1059F000242EF912156AE9F50AAC18AD197A047467
:105A0000252EF912156AE9FE7429121A237A1274E6
:105A1000702FF912156AE9F8E50C450B4509450A9E
:105A20004E4842088003750800A908743B1219D338
:105A30007F05021AFF74F7121A2DE9900753F0122E
:105A400011FE7A5A7B1A1207F00258EC74F2121AFD
:105A50002D74F21219BDEAFEEBFF54807003025B55
:105A600011900753E0F91214748A088B09EA45096A
:105A70007003025B097801EA2405F50CE43509F5A9
:105A80000DEA2404F50AE43509F50B8A828B83E0DC
:105A90002450603C14600624E1605F8062850A82C5
:105AA000850B83E0705C8A828B83A3A3A3A3A3A34B
:105AB000A3121C57850C82850D831257B08A828BE6
:105AC00083A3A3125C561211BC74021219D3803244
:105AD000850A82850B83E0641E700E79008A828BB2
:105AE00083A3A3125C561211B6850A82850B83E04C
:105AF000F9AA0CAB0D12090A80081211CEE9F8E8D8
:105B00006007AA08AB09121462EEFAEF6480025B28
:105B1000F0EE54026016EE6402FE7C007D007A0016
:105B20007B001211ECE9704C7A02804AEEA2E05040
