:020000040000FA
:060000000201070223F5D6
:03001B0002285761
:03002B0002283D6B
:0300330002281F81
:0300530002246B19
:03006B0002291156
:030073000228BFA1
:03007B0002293522
:1000830002224BE5C754F84401F5C7790122000069
:100093000080FB120086B900030200F1E4792178A5
:1000A30008B800028004F709D8FCE479297802B87B
:1000B30000028004F709D8FCE490028178E3791602
:1000C3008002F0A3D8FCD9FA7A637B1890013778C1
:1000D300D279048015E493A3AD82AE838A828B83A5
:1000E300F0A3AA82AB838D828E83D8E9D9E7758288
:1000F300527583CD7403120119758291758300744F
:100103000012011975D00075813F751881751902A8
:10011300759F00020096C09FF59FE473D09F22D085
:1001230083D082C09FE493C0E0740193C0E0740263
:1001330093F59F22110199010F12640400AD270169
:1001430011310401022D850100001085025985013A
:10015300000068180257850100006918022585030D
:1001630000008A0202138501000071180223850131
:1001730000006A18FF0000B400002800280028309F
:1001830075A000A000A000A00000080008E001F096
:10019300001000100010001000100010005000505C
:1001A30000500010001000D0070000000000000FF6
:1001B3000001000500307507001000010081FF00F9
:1001C300000000FFFFFF60077E076607A207FF022C
:1001D300020208025000A0000000E803022D85017E
:1001E30000000A85025985010000FE1802218501DD
:1001F3000000CA02025985010000FF18021F850191
:100203000000E0020259850100000019021D85016A
:100213000000E2020259850100000119021B850852
:100223000000E30202598501000002190219850149
:1002330000000319FF0100FF20022D8501000007C4
:100243008502598501000067190217850000000027
:1002530000022585030000110317000E0E0E0E0E7B
:100263000E0E0E0E0E0E0E0E0E0E0E0E0E0E0E0EAB
:100273000E0E0E0E0EB410C610AE100202020202D3
:1002830002020202010D0000001001022D8501008F
:10029300000485025985010000AA19023385010073
:1002A300004B07025985010000AB19023585010097
:1002B30000F683025985010000AC1902498501004B
:1002C30000CC83025985010000AD19024B85010062
:1002D300001B83025985010000AE19024D85010000
:1002E30000F782025985010000AF19024F85010012
:1002F300000983025985010000B0190251850100EC
:1003030000E582025985010000B1190253850100FD
:1003130000DA83025985010000B2190255850100F4
:1003230000B31901E8030577100A0A3412015413C4
:1003330000001509484944204B6579626F61726476
:100343002026204D6F7573650201050319C103054E
:100353000212180F1860EA00000189C613CC1300BB
:100363000001E60202192A04060112010112020128
:100373001203010E0002120E120A0003022D850160
:1003830000000D850229850100006B0B02598501D0
:100393000000921A023F85400000898402598501BA
:1003A3000000961A0243858000006D0B02598501F7
:1003B3000000971A024785C00000981A0259850168
:1003C3000000931A02418540000000800215850158
:1003D3000000941A025985010000991A02458540CC
:1003E30000006E0B0225858100006F0B021385014F
:1003F30000009A1A0259850100009C1A02458540A3
:100403000000710B022585810000720B0213850128
:1004130000009D1A0259850100009F1A024585407C
:100423000000740B022585810000750B0213850102
:100433000000A01A025985010000A21A024585C0D6
:100443000000770B021385010000A31A02598501EE
:100453000000A51A023985400000780B022585812A
:100463000000790B025985010000A61A023D85C0E0
:1004730000007B0B025985010000A71A023B85404F
:1004830000007C0B0225858100007D0B025985014C
:100493000000A81A024585C000007F0B02138501E6
:1004A3000000A91AFFFFFF000130750302010600D7
:1004B3000000000000000000000000000000000039
:1004C3000000000000000000000000FFFF060080A5
:1004D3000CE8030410022D850100000185025985F3
:1004E300010000021C025D858000005C1802598532
:1004F300010000031C025F850000006018022585CF
:1005030081000061181201223B9503120122979585
:1005130003120122AA9503120122DC950312012280
:100523005496031201227596031201221A9703129D
:100533000122B097031201226E980312012219A11E
:10054300031201222CA1031201225DA10312012235
:1005530097A103120122F0A10312012237A2031271
:1005630001227FA203120122AEA203120122DDA205
:100573000312012214A3031201225BA3031201221B
:1005830074A303120122C9A303120122E2A30312DB
:10059300012230A4031201226AA403120122F8CB20
:1005A30002120122FBCC0212012234CD02120122DB
:1005B30057CD0212012269CD02120122A7CD0212E8
:1005C300012223CE02120122EBCE021201220DCF11
:1005D30002120122A4CF02120122F6CF021201223B
:1005E30027D00212012234D0021201229ED002121D
:1005F3000122F5D002120122F8D00212012231D1D8
:100603000212012234D1021201223ED1021201222E
:1006130092D102120122D3D10212012206D2021276
:10062300012243D20212012245D302120122E9D34D
:100633000212012252D40212012290D40212012288
:100643003899031201226099031201228D99031232
:100653000122C59903120122239A031201226F9AE0
:1006630003120122D69A03120122169B03120122BE
:10067300539B03120122819B031201222B9C031221
:100683000122359C03120122429C03120122759C14
:1006930003120122819C03120122999C031201225D
:1006A300A39C031201220BCA0312012219CA0312CB
:1006B300012231CA0312012248CA031201221AAAD3
:1006C30001120122C4AA01120122D7AB0112012295
:1006D30053AC0112012271AD01120122ADAD011221
:1006E300012248AE011201222CAF01120122F8AF00
:1006F3000112012286B101120122F7B10112012276
:10070300B1B201120122A3B301120122E3B3011218
:10071300012297B401120122C9B401120122BFB60A
:100723000112012201B7011201221FB70112012296
:1007330085B70112012254B80112012218B901121E
:10074300012237BB01120122E3DC02120122CDDDBB
:100753000212012278DE02120122C9DE02120122F4
:1007630079DF02120122EADF02120122CFE0021234
:10077300012203E102120122FCE10212012239E209
:100783000212012215E30212012254E30212012292
:1007930070E302120122ACB80312012230B9031232
:1007A30001225BB90312012275BA03120122319DA2
:1007B30003120122479D03120122659D03120122A8
:1007C300769E03120122809E03120122AB9F031225
:1007D3000122A2A0031201220FA103120122D1E3DD
:1007E3000212012207E50212012281E5021201220F
:1007F300B1E502120122C4E5021201221BE6021234
:10080300012230E802120122648501120122F085DF
:100813000112012254870112012260870112012271
:100823009B87011201220A880112012213890112F6
:1008330001221C8A01120122E38A01120122408C47
:10084300011201225E8C011201227B8C0112012212
:10085300288D01120122A58D01120122CD8D0112D5
:1008630001229790011201229C9001120122B5925C
:100873000112012203930112012273930112012237
:10088300B193011201228D94011201224D9501129F
:1008930001229995011201229C9501120122E095F2
:1008A30001120122289601120122679601120122E8
:1008B300899601120122BD9601120122209701128D
:1008C30001224EEF021201225CEF02120122AFEF6E
:1008D30002120122CEEF0212012213F002120122B0
:1008E30057F102120122F2F10212012236F2021230
:1008F300012260F202120122CFF20212012215F349
:10090300021201228CF3021201223DF4021201228F
:10091300602900120122702900120122112A0012FB
:1009230001226D2A001201222A2B00120122462CD9
:1009330000120122782C00120122A72C001201229E
:10094300542E00120122CB30001201223B3300123D
:1009530001222D34001201222635001201222D37E7
:1009630000120122213A00120122503B00120122FF
:10097300543D00120122643E00120122F33F001293
:100983000122E44000120122324100120122A1415E
:1009930000120122C5410012012216420012012257
:1009A300B74600120122B84700120122194800126B
:1009B30001224448001201220A4900120122359102
:1009C300031201223F910312012284910312012297
:1009D30098910312012228920312012261920312B9
:1009E30001229C9203120122C59203120122199340
:1009F300031201222E9303120122509303120122A8
:100A03006593031201227993031201228E93031239
:100A13000122C89303120122F493031201227B944F
:100A230003120122BE9403120122E894031201224D
:100A330013950312012207C6031201225CAE0212B0
:100A430001223FAF02120122BAAF02120122F5AF17
:100A53000212012246B102120122D4B10212012272
:100A630066B40212012218B50212012224B6021240
:100A7300012297B702120122F0B7021201228C84DD
:100A830003120122CF840312012253850312012290
:100A93002A88031201223AB603120122ECB603128A
:100AA3000122E8B70312012227B80312012281B8F9
:100AB3000312012257BE03120122BABE03120122FE
:100AC30057BF031201228CBF03120122BCBF0312C2
:100AD3000122F7BF0312012217C0031201224FF4B0
:100AE30002120122DBF4021201229AF50212012200
:100AF300B2F602120122CCF802120122377400125C
:100B030001225C7400120122297500120122FD7575
:100B1300001201226A7600120122AA760012012233
:100B23004677001201227A780012012255790012C9
:100B33000122B47900120122407A00120122AE7A16
:100B4300001201223A7B00120122807B0012012253
:100B5300F27B00120122847C00120122257D001207
:100B63000122457D001201228D7D00120122D67DD6
:100B730000120122F27D00120122187E00120122CE
:100B8300927E00120122A07E001201222F7F00120A
:100B93000122987F0012012203F90212012288F92F
:100BA30002120122CAF902120122AEFA0212012232
:100BB3001BFB021201225FFB02120122A3FB0212A2
:100BC3000122D0FB02120122F8FB0212012230FCA7
:100BD300021201226EFC0212012295FC0212012272
:100BE3000FFD0212012259FD0212012244BB011220
:100BF3000122E3BC011201221BBF011201226FBFBC
:100C0300011201229ABF0112012276C001120122B0
:100C1300A6C001120122D5C001120122E8C00112AF
:100C2300012229C10112012256C101120122A4C1CC
:100C330001120122E0C10112012225C20112012287
:100C430072C201120122ECC2011201222DC501124E
:100C5300012217C70112012253C701120122E2C860
:100C63000112012227C9011201229AC9011201228C
:100C7300EFC90112012253CA0112012272CB0112E0
:100C8300012283CB0112012259C202120122D2C2D4
:100C9300021201228CC80212012297C902120122F8
:100CA30040CB02120122CECB021201222460001299
:100CB3000122A56000120122D260001201221B61F1
:100CC300001201221C62001201227562001201222D
:100CD300F163001201227364001201228E64001278
:100CE3000122FF6400120122BC65001201227F660B
:100CF300001201220D6700120122C46700120122B3
:100D0300D7670012012270680012012207690012DE
:100D130001222E6900120122976900120122E16962
:100D2300001201222F6A00120122D46A001201224A
:100D3300726B00120122FF6B00120122706C001211
:100D43000122B76C001201220F6D00120122416DC6
:100D530000120122FB6D00120122026F0012012218
:100D63004B6F00120122686F00120122876F00127D
:100D73000122BA70001201227171001201229671D0
:100D830000120122AB71001201221B720012012218
:100D93005C7200120122807300120122017400129E
:100DA300012299B802120122E4B802120122F0B81A
:100DB30002120122C4B902120122DBB9021201227A
:100DC30018BA0212012249BA0212012281BA02128E
:100DD3000122D7BA02120122EDBA0212012229BB63
:100DE300021201223CBB0212012263BB0212012246
:100DF30097BB02120122BDBC0212012207BE0212DE
:100E0300012203BF0212012220C002120122FA7F33
:100E130000120122A6CB01120122E1CB0112012211
:100E230033CF011201228FD0011201224ED10112C0
:100E33000122B5D4011201229FD501120122EBD563
:100E43000112012205D60112012242D6011201220A
:100E53004DD6011201228CD60112012295D6011220
:100E630001223FD70112012216D8011201226AD8AA
:100E730001120122C7D80112012239D9011201221C
:100E8300F89701120122579B011201225D9B011267
:100E930001228EA20112012295A60112012243A86A
:100EA3000312012220A90312012264A903120122C1
:100EB3009EA90312012236AA03120122A5AA031234
:100EC3000122AEAA03120122BAAA03120122D4AA52
:100ED30003120122FEAA031201222EAB03120122E6
:100EE300DC8803120122E988031201220389031219
:100EF3000122368903120122748903120122D9893E
:100F030003120122EE8903120122F989031201223D
:100F1300068A031201221D8A031201222B8A03125D
:100F23000122368A03120122428A03120122518AC4
:100F3300031201225C8A031201227F8A0312012217
:100F4300238B03120122338B031201224D8B0312D5
:100F530001226A8B03120122858B03120122AA8BC1
:100F630003120122B58B03120122CA8B0312012241
:100F7300DE8B031201223F8C03120122458C0312E4
:100F830001224B8C03120122518C03120122698C22
:100F9300031201229C8C03120122058002120122FA
:100FA3009C80021201223481021201222482021245
:100FB30001225B82021201226E8202120122DC8272
:100FC300021201227784021201229E84021201225C
:100FD30040850212012275850212012286850212C2
:100FE3000122FF8502120122208602120122388685
:100FF3000212012290870212012299890212012210
:10100300E98B02120122EC8C021201223B8D0212A7
:10101300012288DA0112012285DB0112012270DC30
:10102300011201227ADC011201229CDC011201224D
:10103300A8DC01120122FADD0112012229DE0112CC
:10104300012259DF011201229BDF01120122C7E0B5
:10105300011201229DE101120122EFE1011201229D
:101063004EE20112012285E201120122C0E20112C5
:1010730001225BE60112012274E601120122F6E667
:101083000112012204E70112012259E70112012290
:1010930067E701120122D4E70112012246E8011297
:1010A30001228CE801120122888D02120122AA8DED
:1010B30002120122948F0212012239930212012299
:1010C3007C940212012256950212012225C00312BA
:1010D30001224AC003120122BBC003120122B6D46B
:1010E30002120122BFD402120122C8D40212012229
:1010F300F9D50212012218D8021201224ED8021287
:10110300012288D802120122BED802120122F8D885
:10111300021201222CD90212012258D902120122F1
:10112300A1D902120122DBD90212012223DA02120F
:10113300012279DA02120122AEDA0212012209DB5C
:101143000212012243DB0212012294DB021201226A
:10115300CADB0212012204DC0212012232DC021277
:10116300012255DC0212012297CB03120122C3CBC9
:10117300031201221ECC0312012228CC03120122E6
:1011830038CC031201225CAB0312012283AB03129E
:101193000122EECD03120122764900120122CE4B29
:1011A30000120122A74C001201225D4E00120122FF
:1011B300BA4E00120122A74F001201222E50001234
:1011C3000122AC5000120122D150001201223451ED
:1011D3000012012227540012012295540012012209
:1011E300865500120122C05500120122005600123A
:1011F3000122AE57001201220158001201224A585F
:1012030000120122BC5800120122EE5800120122E2
:10121300085900120122325A00120122495A0012BF
:101223000122375C00120122595C001201228F5CFB
:1012330000120122155E00120122955E00120122A6
:10124300D45E00120122FF5F00120122A4BA03122E
:10125300012201BB03120122C4BB03120122E3BB1F
:101263000312012239BC03120122D8CA031201223C
:10127300E9CA031201228CCB03120122A5CD03126A
:101283000122E4CD03120122E77F0012012242CCA6
:101293000312012252CC031201226ACC031201224F
:1012A300D2CC031201221BC7031201229FC70312D0
:1012B300012207C80312012262C3031201228BC356
:1012C30003120122F8C3031201224BC403120122A9
:1012D300A4C4031201220080031201221780031207
:1012E30001229080031201226981031201222784C3
:1012F300031201223CB103120122B2B103120122F3
:1013030046B203120122DCB203120122F4B2031229
:10131300012208B30312012262B3031201227AB33A
:101323000312012288B303120122989802120122A8
:10133300EE9802120122189A021201223A9A02121C
:1013430001224D9A02120122DD9A02120122B99C56
:1013530002120122D19E02120122CC9F021201220B
:1013630027A0021201228AA0021201228DA00212DA
:10137300012290A002120122D9A0021201222CA163
:1013830002120122D3A1021201227FA20212012220
:101393001DA30212012256A30212012274A30212F8
:1013A3000122A7A302120122FFA3021201221DA4FC
:1013B300021201224EA40212012238A702120122B4
:1013C300ADA70212012202A8021201220FA90212E2
:1013D300012212A902120122E1AA0212012223AE62
:1013E3000212012248AE02120122D2A403120122E8
:1013F30063A703120122D7A703120122DFC403123A
:101403000122FFC4031201226EC503120122E6C5A5
:10141300031201221AC90312012243C90312012232
:101423006CC90312012284C903120122C6C9031223
:101433000122F7E90212012201EA0212012241EA22
:10144300021201228AEA02120122C4EA02120122D2
:101453001EEB021201223DEB0212012246EB0212A5
:10146300012297EB02120122C0EB02120122D5EBFB
:101473000212012246EC02120122D4EC02120122D2
:101483001CED0212012245ED02120122C2ED0212ED
:101493000122FFED0212012234EE0212012246EE76
:1014A3000212012265EE021201226EEE02120122E5
:1014B30022EF02120122DBC10312012230C2031206
:1014C30001229EC2031201220EC3031201224FAE58
:1014D3000312012279AE031201226EAF031201221D
:1014E30093AF0312012216B00312012220C8031284
:1014F300012295FF0212012299FD02120122CFFD62
:101503000212012202FE021201225BFF02120122D9
:10151300DCCC03120122F2CC03120122FCCC031215
:10152300012267F70112012224F8011201225FF858
:101533000112012290F801120122F2F80112012294
:101543003EF90112012297F90112012279FA0112DF
:1015530001227DFB011201223BFD01120122BDFD8F
:101563000112012224FE0112012237FE011201227F
:1015730040FF011201227FFF011201221E8D03127F
:101583000122348D03120122D88D03120122178EFA
:1015930003120122348E03120122658E03120122EB
:1015A300B28E03120122E68E03120122218F03124F
:1015B300012228910312012215E901120122FAECFA
:1015C300011201228CEE01120122E3EE011201222B
:1015D30002EF0112012280EF0112012220F1011218
:1015E300012204F201120122F0F501120122C4F6D4
:1015F30001120122BDB303120122E6B30312012239
:1016030054B40312012272B40312012280BC0312E8
:101613000122DABC03120122EDBC0312012286BDB2
:10162300031201228BBD0312012236CE03120122C3
:10163300BB7F001201227CCE03E066701008A3E09A
:1016430066700A08A3E066700408A3E06622C00877
:10165300C3E096F50808A3E096420808A3E0964283
:101663000808A3E0964208A2D265D033E5087001CA
:10167300D3D00822C3E7960809E7960809E7960836
:1016830009E79622C3E09608A3E09608A3E096082C
:10169300A3E09622C008C3E096F50808A3E09642AB
:1016A3000808A3E096420808A3E09645087001D312
:1016B300D00822080808EAC0E0EBC0E086F0E7A4FF
:1016C300FA180986F0E7A42AFA180986F0E7A42A8B
:1016D300FA180986F0E7A42AFA1986F0E7A4FBE5CD
:1016E300F02AFA190886F0E7A42BFBE5F03AFA1979
:1016F3000886F0E7A42BFBE5F03AFA18180986F000
:10170300E7A4C5F02BFBE43AFA1908E7C5F0C6A431
:1017130026F6E5F03BFBE43AFA1886F0E7A4F6E593
:10172300F00826F6E43B08F6E43A08F6D0E0FBD0EE
:10173300E0FA22E4CFC0E0E4CEC0E0E4CDC0E0E4D0
:10174300CCC0E075F020E626F608E633F608E6336B
:10175300F608E633F6181818EC33FCED33FDEE33D8
:10176300FEEF33FFC3EC9709ED9709EE9709EF9767
:10177300191919400FFFEC97FC09ED97FD09EE9736
:10178300FE191906D5F0BFECF709EDF709EEF709D5
:10179300EFF7191919D0E0FCD0E0FDD0E0FED0E05E
:1017A300FF22E4C396F608E496F608E496F608E406
:1017B30096F6226016080808C6C313C618C613C6D1
:1017C30018C613C618C613C6D5E0EA22700908085E
:1017D30008226016181818C6C333C608C633C608CD
:1017E300C633C608C633C6D5E0EA22E627F608099B
:1017F300E637F60809E637F60809E637F622E02663
:10180300F608A3E036F608A3E036F608A3E036F6BA
:1018130022E026F008A3E036F008A3E036F008A3A0
:10182300E036F022C3E697F60809E697F60809E6DC
:1018330097F60809E697F622C3E096F008A3E09628
:10184300F008A3E096F008A3E096F022E056F6082D
:10185300A3E056F608A3E056F608A3E056F622E006
:1018630056F008A3E056F008A3E056F008A3E056AC
:10187300F022E0F608A3E0F608A3E0F608A3E0F6FA
:1018830022E6F008A3E6F008A3E6F008A3E6F022B8
:10189300E0FAA3E0FBA3E0FCA3E0FD22EAF0A3EB64
:1018A300F0A3ECF0A3EDF022E0F8A3E0F9A3E0FA53
:1018B300A3E0FB22E8F0A3E9F0A3EAF0A3EBF02214
:1018C300CAC0E0E6F0A308DAFAD0E0FA22CAC0E020
:1018D300E0A3C582CCC582C583CDC583F0A3C582F1
:1018E300CCC582C583CDC583DAE6D0E0CA22C3E482
:1018F30098F8E499F91219328026C3E49AFAE49B22
:10190300FBE920E7E9121932E498F8E499F922C3D4
:10191300E498F8E499F9121932E498F8E499F9C3D0
:10192300E49AFAE49BFB22EB20E7CFE920E7E0B956
:101933000010BB0008E88AF084F8AAF022E4FBC890
:10194300FA22EB70227B10C833C8C933C93350075E
:10195300C39AC3DBF280069A50012ADBEAC833F448
:10196300C8C933F4C9FA2275F008E4C833C8C933C7
:10197300C933C99AC99B5004C92AC93BD5F0ECFBAA
:10198300C833F4C8E4C9FA22600D08C6A2E713C637
:1019930018C613C6D5E0F322600C08C6C313C618D5
:1019A300C613C6D5E0F422700422600D18C6C333F3
:1019B300C608C633C6D5E0F41822251810AF08F5BB
:1019C30018400C15198008F51840021519D2AF22DA
:1019D30000C0D0251810AF08F518500C0519800861
:1019E300F51850020519D2AFD0D0222518F5821070
:1019F300AF08F518400C15198008F51840021519A1
:101A0300D2AF851983222518F582E43519F583228F
:101A13002518F8E43519F9222518FAE43519FB22BB
:101A23002518FCE43519FD22E4732518C582C0E0AE
:101A3300E51934FFC583C0E0E518C3958224F81087
:101A4300AF088583198582188008858319858218D4
:101A5300D2AFCEF0A3E520F0A37808E608F0A3DE2A
:101A6300FAEFF0A3E58124FAF8E608F0A3E608F01C
:101A7300A3E608F0A30808E608F0A3E608F0A31518
:101A8300811581D0E0FED0E0F8158115811581E83C
:101A9300C0E0EEC0E0222518C582C0E0E51934FF9E
:101AA300C583C0E0E518C3958224F910AF08858388
:101AB300198582188008858319858218D2AFCEF0E4
:101AC300A3E520F0A37808E608F0A3DEFAEFF0A37D
:101AD300E58124FBF8E608F0A3E608F0A30808E68E
:101AE30008F0A3E608F0A315811581D0E0FED0E04D
:101AF300F815811581E8C0E0EEC0E02285198385E1
:101B03001882E0A3FEE0A3F5207808E0A3F608DF3F
:101B1300FAE0A3FFE0A3C0E0E0A3C0E0E0A3C0E0DD
:101B2300E0A3C0E0E0A3C0E010AF0885821885837E
:101B3300198008858218858319D2AFD083D0820299
:101B4300011F851983851882E0A3FEE0A3F52078A1
:101B530008E0A3F608DFFAE0A3FFE0A3C0E0E0A3F8
:101B6300C0E0E0A3C0E0E0A3C0E010AF08858218A6
:101B73008583198008858218858319D2AFD083D0D5
:101B83008222C0D02518C582C0E0E51934FFC58381
:101B9300C0E0E518C3958224F310AF088583198547
:101BA30082188008858319858218D2AFC8F0A3E90B
:101BB300F0A3EAF0A3EBF0A37908E709F0A3D8FABE
:101BC300ECF0A3EDF0A3EEF0A3EFF0A3D0E0F0A3CD
:101BD300D0E0F0A3D0E0F0A3E520F0A3E5F0F0A37C
:101BE30022851983851882E0C0E0A3E0F9A3E0FA17
:101BF300A3E0FBA37808E0F608A3DFFAE0FCA3E088
:101C0300FDA3E0FEA3E0FFA3E0C0E0A3E0C0E0A3E8
:101C1300E0F5D0A3E0F520A3E0A3F5F010AF08852D
:101C230083198582188008858319858218D2AFD0DD
:101C330082D083D0E0F8D0E032740480067402804E
:101C4300027401C0E0F4041219EED0E01218C322AA
:101C53007404800474028000CCC0E0EDC0E0E51899
:101C6300C39CCCAD1950011D10AF068C188D198083
:101C7300068C188D19D2AF1218D0D0E0FDD0E0FC3D
:101C830022D083D082E9C0E0E493A3C386F0C5F0F9
:101C930095F0F908E493A386F0C5F095F0700BE492
:101CA30093A3C3994005E9048002A3E475F002A459
:101CB3002582F582E5F03583F583D0E0F9E493A33B
:101CC300C0E0E493C0E022D083D082ECC0E0EDC05A
:101CD300E0E493A3FCE493A3FDED4C600D121D1609
:101CE300EC24FFFCED34FFFD80EFE493A3FCE493CD
:101CF300A3FDED4C600D121D55EC24FFFCED34FFEC
:101D0300FD80EFD0E0FDD0E0FCE493A3C0E0E493DA
:101D1300C0E022C0E0C3E493960874019396184090
:101D23000FE49366700808740193661870007019C5
:101D3300A3A3C3E49396087401939618A3A3400D39
:101D4300D0E0D0E0D0E0021D06A3A3A3A3A3A3D0B9
:101D5300E022C0E0C0F088F0E493667008087401E4
:101D63009366187000A8F0A3A3700BD0F0D0E0D056
:101D7300E0D0E0021D06A3A3D0F0D0E02274F61257
:101D83001A99EAFEEBFF8C088D09EE2434F8E43F40
:101D9300F9E8FCE9FDEE2435122093FAEE2437121C
:101DA3002093F88508F0A4C885F00A8509F0A425D6
:101DB3000AF9EA28F8E439F97A257B00121932EA9C
:101DC3008C828D83F0FA131313541FF8EE28F8E472
:101DD3003FF9E8245DF582E439F583E0C0E0740758
:101DE3005AF8D0E0B800028004C313D8FCA2E0EE96
:101DF30050082434F582E43F80182436122093F5EA
:101E0300F0EA84A8F0EE28F8E43FF9E82438F582F4
:101E1300E439F583E0F97F03021B4574F7121A993D
:101E2300EAFEEBFFEE2434122093C0E0EE2435F5F6
:101E330082E43FF583D0E0F08E828F83A3A3A3A334
:101E4300A3A3A3C082C0838E828F83A3A3A3A3A3D0
:101E5300E0F8A3E0F9D083D082E0C398F508A3E0CB
:101E630099F509EE247F1220936401703EEE2480DD
:101E7300F582E43FF583C082C0838E828F83A3A360
:101E8300A3A3A3E0240108A3E03400F9D083D08204
:101E9300E0687003A3E06970127CBC7D04120D4EF0
:101EA300EE247FF582E43FF583E4F0AC08AD09EE60
:101EB300FAEFFB121D80E9F91227EB7F02021B45A3
:101EC300C082C083851882851983E0F8A3E0F9C333
:101ED300EA9CEB9D5010C3EC98ED99401BC3EA9824
:101EE300EB995014800EC3EA98EB994007C3EC9822
:101EF300ED994004790180027900D083D08222EAEF
:101F0300C39CFAEB9DFB2274EF121A99900381E0B4
:101F130064086005E06407702A9061C8E06024905B
:101F230003AFE0F4601DE0F875F00BA4C8AAF02A33
:101F3300F974B128FE740339FF8E828F83A3A3A3A0
:101F4300E07003022018906060E0C0E0EE2468F5C2
:101F530082E43FF583D0E0F0750C2C750D05750810
:101F630000750900E5D914F50AE5D95403F50E60A7
:101F7300127403650E6043E50A600AEE24671220BB
:101F83009370028075900527E06401601F12209012
:101F930060047A0480027A00E50AC39AFA95E0FBAA
:101FA300120BFE8A088B09EA45097005120F7C8023
:101FB3006412209070048A0C8B0DE50A6012850C64
:101FC30082850D83F50BE5D9F0A3150BE50B70F6B0
:101FD300122090604474FC250AF50A780C121C4008
:101FE300AC0AA90EEEFAEFFB120E0874021219D313
:101FF300E97026AA08AB091214BC793D8E828F833F
:10200300A3A3A3A3E0FA7B00120A60EEFAEFFB128C
:102013000D72120E1A7900806F7403650E6051857C
:102023000A107511007810121C40AC0CAD0DAA08F3
:10203300AB09120DCC74021219D3EE24681220934B
:1020430064807004747F8001E0F50C780C121C44EA
:10205300E50EF50C780C121C44A90AAC08AD0990E6
:1020630003AFE0FA7B00120A3674021219D380130D
:10207300900381E06408600BAC0CAD0DEEFAEFFB4E
:10208300120E92120F8879017F0A021B45EE2483F8
:10209300F582E43FF583E02274F2121A9974FC127C
:1020A30019BDEAFEEBFF8909A2AFE433F508C2AF1D
:1020B300022165E0601B780C121C40AC0BA90EEEEC
:1020C300FAEFFB120E0274021219D37404250BF5F6
:1020D3000B7401250BF5D9850ED9E50B6018F50AAC
:1020E300850C82850D83E0F5D9A385820C85830D4C
:1020F300150AE50A70EA75E195EE2463F8E43FF901
:102103007A007B00A2AFE433F50BC2AF88828983E8
:10211300E0FCA3E0FDEC4D603A88828983E0FAA3FA
:10212300E0FB8A828B83E0FCA3E0FD88828983EC59
:10213300F0A3EDF08A828B83E4F0A3F08882898395
:10214300E0FCA3E0FDEC4D700A88828983A3A3E43D
:10215300F0A3F0E50BA2E092AF1214BC9004C3E02D
:1021630004F0EE2463122093F8A3E0F9E8496064D5
:10217300EE24631220932402F8A3E03400F988824A
:102183008983E5822402F50CE43583F50DE0F50B34
:10219300A3E0F50EEE246212209364017036906181
:1021A300D0E0F812209060047C0480027C007480EC
:1021B300C398FA95E0FBE50B2CF8E43400F9E82426
:1021C30002F8500109C3EA98EB99A2D265D03340D3
:1021D300030220B69004C3E0604D9004C4E0F8907D
:1021E30004C3E0C398500C74026509703A9004C5A7
:1021F300E060348E828F83A3A3A3A3E08518828536
:10220300198312223A7402121A09E812223A90042C
:10221300C2E028F07402121A23AA18AB197901122A
:102223000A8A9004C3E4F0E508A2E092AF740412B2
:1022330019D37F07021B45F0A3E4F09004C3E0F831
:10224300228521878522C622C0E074EB121B85A25A
:10225300AFE433F508C2AF759B00906182E0A2E062
:102263005030E591A2E0502A7591FE74016521700A
:10227300211223DE120ED41223CC121C53122595E5
:1022830074041219D3E9640170057901120F101255
:102293001F0A906182E0A2E5505DE591A2E55057E7
:1022A3007591DF900381E064076005E06408702F97
:1022B3001223DE74016521703E120ED41223CC1258
:1022C3001C5312259574041219D3E964017005791E
:1022D30001120F107901EEFAEFFB12209B8018E038
:1022E300640D70139003A3E004F064287002E4F01B
:1022F3007A00E0F9120F8E906182E0A2E6400302B9
:1023030023A1E591A2E640030223A17591BF9003A7
:1023130081E064057008120EBC120EC88003120E11
:10232300C2752100120F1CE9900382F07900120F8D
:1023330010120CBE7A017B00900380E0F912148C1A
:10234300907803E06442705690052BE014F0704ED1
:10235300C2AF12235800782AD0E0F618D0E0F6E591
:102363009F5407F87005750DFF8003750D7FC4C07A
:10237300E07829E6F50A08E6550DF50B740B780AA3
:1023830012199BD0E0250AF8906270E0A2E740F8AA
:10239300E8C333906272F0906270E0D2E0F0906133
:1023A30081E0A2E35009E5E9A2E3500375E9F7A34D
:1023B300E0A2E75009E591A2E7500375917FE50894
:1023C300A2E092AF7F08021BE48E828F83E0F8A322
:1023D300E0C82416F582E438F583229003AFE0F8D1
:1023E30075F00BA4C8AAF02AF974B128FE74033956
:1023F300FF22C0E0C0D0C082C083906183E0A2E02E
:102403005009E5BFA2E0500375BFFEE0A2E1500909
:10241300E5BFA2E1500375BFFDE0A2E25009E5BFAD
:10242300A2E2500375BFFBE0A2E35009E5BFA2E3BC
:10243300500375BFF7E0A2E45009E5BFA2E45003DF
:1024430075BFEFE0A2E55009E5BFA2E5500375BFF4
:10245300DFE0A2E65009E5BFA2E6500375BFBFD097
:1024630083D082D0D0D0E032C0E074F2121B85E575
:10247300A7A2E6500FE5A1A2E6500953A7BF75A195
:10248300BF1224BFE5A7A2E5500CE5A1A2E55006C3
:1024930053A7DF75A1DFE5A7A2E15009E5A1A2E1FA
:1024A300500375A1FDE5A7A2E2500CE5A1A2E250FD
:1024B3000653A7FB75A1FB7F01021BE474F7121AF5
:1024C30099752101900381E064067015120E3E8A0E
:1024D300828B83A3A3A3A3A3A3E0FAA3E0FB120E1F
:1024E300AAA2AFE433FED2AF900387E06401701871
:1024F3007A207B00900380E0F91215A07A207B00FC
:10250300900380E0F9121492906182E0D2E6F09099
:102513000528E0602185C6228016900386E06401C9
:102523007008E5C654F84405F5C653BEFC122244B0
:102533007401652160E4EEA2E092AF7F02021B45C5
:10254300008E238F24858228858327851882851909
:1025530083E0CEA3E0CF852882852783EBC9EAC831
:10256300EDCBECCA75F010C3E833C8E933C9EA33DD
:10257300CAEB33CBC3EA9EF526EB9FF525B3500494
:10258300AB25AA26EC33CCED33CDD5F0DAAE23AFB1
:10259300242274F1121A998A088B098C0A8D0B90E4
:1025A30084A9780812184F740F121A09780C12189C
:1025B300759084A9780C12184F7808790C12167745
:1025C3009084F950107808790C121827780812169D
:1025D300974014800E780C7908121827780C12167D
:1025E3009750047901800279007F08021B4574ED3E
:1025F300121A998A088B098C0A8D0B9084A9780882
:1026030012184F7413121A09780C1218759084A9B2
:10261300780C12184F780C79081216774011780845
:10262300790C121827AA08AB09AC0AAD0B802275E6
:1026330010007511007512007513017810790C12D2
:102643001827781079081217EEAA10AB11AC12AD47
:10265300137F0C021B459084A978081218758A828F
:102663008B8378081218627F04021B4574F5121AD3
:10267300998C828D8378081218758A828B837808E7
:1026830012183B1226C7C3E09CF0A3E09D1226B9A3
:1026930040229084E978081218758A828B8378081F
:1026A3001218148A828B83A3A3A3A3E02420F0A38C
:1026B300E0344EF080A0F088828983C3E09420A3A5
:1026C300E0944E22EA2404F8E43BF98C828D83A340
:1026D300A3A3A3E0FCA3E0FD888289832274F512FF
:1026E3001A99E9FE9004DEE0FAA3E0FBEE29F8E490
:1026F30033F9748F28F582748339F583E02AF5085A
:10270300A3E03BF5097808121C40908495121893B6
:1027130012254474021219D38A088B098C0A8D0B73
:10272300741078081217B6AA08AB097F04021B4578
:1027330074F1121A998A0C8B0D8C0E8D0F74111271
:102743001A09121C577411121A09E02401F508A37F
:10275300E03400F509E4F50AF50B780C7908121654
:10276300B69084F57808121875780C79081216B6A5
:10277300AA0CAB0DAC0EAD0F12254474021219D383
:102783008B09EA450960047A0180027A00EC2AFC8D
:10279300E43DFD7413121A09E0F8A3E0F9E8FEE939
:1027A300FFECF8EDF97A717B021219328808890976
:1027B300E4F50AF50B8E828F837808121884ECF8FF
:1027C300EDF97A717B021219328A088B0974057844
:1027D300081219AA8E828F83A3A3A3A3E508F0A3EB
:1027E300E509F07F08021B45C082C083E9906000C1
:1027F300F0D083D08222C0E074F2121B85A2AFE432
:1028030033FED2AFE589A2E150031212D0758900DD
:10281300C2C5EEA2E092AF7F01021BE4C0E074F2F6
:10282300121B85A2AFE433FED2AFE58BA2E05003C7
:102833001212D0758B00C2E880D8C0E0C0D0E8C0C7
:10284300E0A8A8D2AFC2C7E8A2E792AFD0E0F8D021
:10285300D0D0E032C0E0C0D0E8C0E0E9C0E0EAC0D8
:10286300E0EBC0E0C082C083A2AFE433F9D2AFA8EB
:10287300F99008E4E0FA74632AF582E43408F583F6
:10288300E8F09008E3E0F8A3E0687006E5959008A7
:10289300E6F09008E4E004F0C394804002E4F0A37F
:1028A300E4F0E9A2E092AFD083D082D0E0FBD0E0A5
:1028B300FAD0E0F9D0E0F8D0D0D0E032C0E0C0D018
:1028C300E8C0E0E9C0E0EAC0E0EBC0E0C082C0835A
:1028D300A2AFE433F9D2AF900967E0F8A3E06870E0
:1028E30008539AF7A374018022C2EA900967E0F8BB
:1028F300740128F074E728F582E43408F583E0F5E1
:10290300F9900967E0C394804002E4F08094C0E04A
:1029130074F2121B85A2AFE433FED2AF758900C2F5
:10292300C5A28240031213E4EEA2E092AF7F01023C
:102933001BE4C0E074F2121B85A2AFE433FED2AFF6
:10294300758A00C2EBA29750031213E480DAC2AF78
:04295300020000225C
:10295800FFFFFFFFFFFFFFFFC082C083E9901966FA
:10296800F0D083D08202011F74F6121A2DE990026A
:10297800F3F0900353E0F508750900740278081223
:1029880019AAAA08AB091215049002F4123323906D
:1029980002F4123710606F900353E075F003A4FA45
:1029A800ABF0121504900311123323900311123760
:1029B80010700B9002F41236E112150A8048900349
:1029C800111246757AFF7BFF12124C7A0080198A21
:1029D80008750900740278081219AA12411D74FFBB
:1029E800122B23E4F0A3F00A900353E0F8EAC3980B
:1029F80040DD79051209289002F3E0F91208147AEB
:102A0800B27B09120B9E0241C074F4121A2D8A0877
:102A18008B09EB548060479002F3E0F91214748A32
:102A28000A8B0BAE0AAF0BEE4F602A8E828F83E0C3
:102A380064B0701A12093AE960148E828F83A3A3D6
:102A4800A3A3E0F9EE2405FAE43FFB12090AEEFA23
:102A5800EFFB121462AA08E5096480FB80047A007F
:102A68007B00022C7374F2121A2D74FB1219BDEA42
:102A7800FEEBFFEE4F60457403121A09EEF0A3EF68
:102A8800F0851882851983ECF0A3EDF07402121A10
:102A980009E9F0AA18AB1912080EE9F5087075745F
:102AA80013121A09E0F50AA3E0F50BE50A450B60D5
:102AB800638E828F831230ACEE4F700575080280EA
:102AC800537A067B001215048A0C8B0DA80CA90DED
:102AD800E8497005750813803B88828983E4122BC6
:102AE80023EEF0A3EF122C3FE50AF0A3E50BF090DC
:102AF80002F7122C389002F76017E0FCA3E080037D
:102B0800EAFCEBFD8C828D83122C3870F38C828D5D
:102B180083123D38A90874050248F5F0A3124657F8
:102B2800A32274F2121A2D8908890C750D007403FA
:102B3800780C1219AA850C0A850D0B9002F6F090F4
:102B480002F4123B43122C36602E12150A790080CB
:102B58001D890C750D007402780C1219AA9002F4E4
:102B6800123FDC8882F583A3A3E4F0A3F009900365
:102B780053E0F8E9C39840D9900353E0FA850AF086
:102B8800A4CAA8F0850BF0A428FB1215048A0C8BA4
:102B98000DAE0CAF0DEE4F7003022C2C900353E0DA
:102BA800FC850AF0A4CCA8F0850BF0A428FD7900D8
:102BB8001214507C0080318D0C750D007403780C54
:102BC8001219AA8A828B83122C3188828983E4F0B5
:102BD800122C3EA3A3F0A3F00DEDC3950840D8EE48
:102BE800250AFEEF350BFF0C900353E0F8ECC39871
:102BF80050288C0C750D007402780C1219AA9002DA
:102C0800F4122C31E82402500109FAE9FB8A828B7C
:102C180083EEF0A3EFF07D0080BFE5089002F6F0A8
:102C28007900800279130248F8123FE0F922A3A341
:102C38001236E5EA4B22A3124657A3A3A32274F443
:102C4800121A2D7900EAA2E0501F75083E75098412
:102C58007808121C4079107C047D007A687B191270
:102C6800092274021219D3E9F980007F04021AFFBD
:102C7800C082C0839002F7123710601C8882898353
:102C8800A3A3E06A7003A3E06B8882898370E8A33A
:102C9800A3A3A31236E180047A007B000229697499
:102CA800F2121A2D74FD1219BDEAFEEBFF85188287
:102CB800851983E4F0A3F07402121A097401F01262
:102CC800370D7014120AD81215049002FA12332321
:102CD80012370D7003022E39123423EE2404F50A3C
:102CE800E43FF50B850A82F583E024FE603C24FC72
:102CF800607424FE607E24FE7003022D8924FE7019
:102D080003022D9624FE7003022DA324FE700302F5
:102D18002DB024FE7003022DBD24FC7003022DDEAD
:102D280024FE7003022DF6022E32120AD89002FCFD
:102D3800EAF0A3EB122E4512054AE96003022E328F
:102D48009002FC121C578E828F83A3A3A3A3A31205
:102D580046758508828509831236E11208F27402E5
:102D68001219D3022E32AC18AD19EEFAEFFB120984
:102D780040022E01AC18AD19EEFAEFFB120946809D
:102D880078AC18AD19EEFAEFFB12094C806BAC1851
:102D9800AD19EEFAEFFB120952805EAC18AD19EED0
:102DA800FAEFFB1209588051AC18AD19EEFAEFFB97
:102DB80012095E80447402121A13880C890D780C6B
:102DC800121C407402121A23EEFAEFFB1209647403
:102DD800021219D38023AC18AD19EEFAEFFB1209D1
:102DE8006AE9F870167402121A09E4F0803CAC180B
:102DF800AD19EEFAEFFB120970E9F8E8602C8E8243
:102E08008F83A3E064146022850A82850B83E09097
:102E180002FCF08518828519831236E19002FD12B2
:102E28003323E8A3122E45120544EEFAEFFB1208ED
:102E3800C87402121A09E0F974030248F5F07CFC20
:102E48007D028508828509831236E52274E8121A04
:102E58002D74FA1219BD7404121A09ECF0A3EDF0DE
:102E68008A128B13EA2405F50EE43513F50FEA24CC
:102E780002F510E43513F511851082F5831236E159
:102E880012063A8A0A8B0B7508007C037D007900CC
:102E98007AFC7B02121450E50E2402F516E4350F75
:102EA800F5177402121A13880C890D780C121C403D
:102EB800850E82850F83A3A3A3A3E0F50C750D00EF
:102EC800780C121C40E50E2405F50CE4350FF50DC1
:102ED800780C121C408516828517831239E812086F
:102EE8002C74061219D38A0C8B0DE50C450D700352
:102EF8000230758020851882851983E0888289834D
:102F0800F00508851882851983A3E0C0E01230B661
:102F1800D0E0F00508E50A24FBFAE50B34FFFBC313
:102F2800E5089AE49B40030230757E007F00851215
:102F380082851383A3A3A3A3E0F5097809121C448F
:102F4800E4F514F5157814121C407514F97515027A
:102F58007814121C409002FA121C577409121A09AC
:102F6800121C57E50A24F9F9AC0CAD0D85108285C1
:102F780011831236E112099A74091219D3E9600310
:102F8800023016850E82850F83A3A3A3A3A3A3A350
:102F9800E0F89002F9E0687075E0F5148E15781481
:102FA800121C40124672850E82850F83A3A3A3A329
:102FB800A3A3A3A31236E112144A74021219D3E987
:102FC800604C9002FD123710703BE4F5147814122F
:102FD8001C407CFF7DFF790785108285118312369E
:102FE800E112090474021219D31237167017850EEC
:102FF80082850F8312480F7404121A091240D012E6
:103008003A190230A9850C82850D831230ACA818B4
:10301800A919881489157814121C407404121A0905
:10302800121C5785168285178312331912083874B3
:10303800041219D38A0C8B0DEE4F7003022EF21274
:1030480030B6EE1230C11239CFEF1230C1F8A3E01A
:103058003400F9E50C450D6003022EFD8882898352
:1030680074FFF005081230B674FFF00508E5086033
:103078001A1313543F123329120556E960099002B6
:10308800FD1236E11214BC79008016850E82850F78
:103098008312480F7404121A091240D0123D38796D
:1030A8000A0239A2A3A3A3A3E0FEA3E0FF22A80873
:1030B8009002FDE0281239CF22F00508089002FDA1
:1030C800E0282274E8121A2D74FA1219BD7402123B
:1030D8001A091233237404121A09ECF0A3EDF074E0
:1030E80002121A09E024051239B8E0F50CA3E0F53C
:1030F8000D7402121A09E02402F510A3E03400F559
:1031080011851082F5831236E112063A75080075AA
:103118000900EA24FCFEEB34FFFF8008050CE50CEF
:103128007002050DA808C3EE98EF94005003023210
:10313800D5A818A919880E890F780E121C40851475
:1031480082851583A3A3A3A3124679121C40E51414
:103158002405F50EE43515F50F780E121C4085147C
:103168008285158312331712082C74061219D38A14
:103178000E8B0FEA450F70030232D5EA2404F516C8
:10318800E4350FF517851682F583E0F50CA3E0F515
:103198000D8518828519831246758A828B83A3A3AD
:1031A800A3E0F98510828511831236E112081AE925
:1031B800F50960030232D57402121A091239DFF5D3
:1031C800097809121C44E4F512F5137812121C4010
:1031D8007512F97513027812121C409002FA121C2B
:1031E800577407121A09121C57EEF9AC0EAD0F8569
:1031F80010828511831236E112099A74091219D3C3
:10320800E9F50960030232D5E508703FE4F50EF5EB
:103218000F780E121C407CFF7DFF7909851082858E
:1032280011831236E112090474021219D3123A05F5
:10323800700D7404121A0912330C791102330990B3
:1032480002F9E024029002FDF080149002FDE0FAF9
:103258009002F9E0790024025001096A497072A8C5
:10326800089002F9E0FAE82AFAE43400FBEE9AEF53
:103278009B405A851682851783E0C0E09002FE12B3
:1032880030BBD0E0F00508851682851783A3E0C01F
:10329800E0089002FE1230BBD0E0F005089002F979
:1032A800124679121C40124672A8081239AC121440
:1032B8003874021219D39002F9E02508F50874FF52
:1032C800650C700474FF650D6003023124E5086025
:1032D8001F9002FDE0F5F0E5088412332912055C21
:1032E800E960099002FE1236E11214BC79008011DF
:1032F800E509700375090A7404121A0912330CA936
:10330800090239A2123B47E50CF0A3E50DF022A310
:10331800A3124904AA0CAB0D22A3A3EAF0A3EBF075
:10332800229002FCF07CFC7D0285108285118312BC
:1033380036E52274EC121A2D74FC1219BD123E489F
:103348007402121A231236DB1208328A0C8B0DEA29
:10335800450D7003023413123423A818A9198810D4
:1033680089117810121C407CFF7DFF790B8508823B
:103378008509831236E112090474021219D3123531
:1033880019700C850A82850B83123A160234208E36
:10339800828F83A3A3A3A3E0F5127812121C44E43E
:1033A800F512F5137812121C407512FC7513027889
:1033B80012121C407810121C407409121A09121CAF
:1033C800577409121A09E0F9AC0CAD0D850882850D
:1033D80009831236E112099A74091219D3E9FE70A9
:1033E800157CFC7D028508828509831236E1120569
:1033F80062E97009802074166E70027E009002FDEA
:103408001236E11214BCEE7004800B7E01850A822C
:10341800850B83123D35EEF9023D4AEE2402F5088C
:10342800E43FF5092274EC121A2D74FC1219BDEA56
:10343800FEEBFF8C0E8D0FEE2405F508E43FF50931
:103448007402121A238508828509831236E112084C
:10345800328A0C8B0DEA450D7003023509EE240201
:10346800F50AE43FF50BA818A919881089117810F6
:10347800121C407CFF7DFF790D1236DB12090474A3
:10348800021219D3123519700B8508828509831227
:103498003A16807A8E828F83A3A3A3A3E0F51278CD
:1034A80012121C44850882850983A3A3121C577530
:1034B80012FC7513027812121C407810121C40740A
:1034C80009121A09121C577409121A09E0F912365E
:1034D800D712099A74091219D3E9FE700F7CFC7D82
:1034E800021236DB120568E97009802074166E70C6
:1034F800027E009002FD1236E11214BCEE700480C8
:103508000B7E01850882850983123D35EEF9023D5F
:103518004A123720F510A3E0F511EA45112274E8A4
:10352800121A2D74FE1219BD8A168B178C148D155C
:10353800EA2405F50CE43517F50DEA2402F50EE446
:103548003517F50F850E82F5831236E112063A8A91
:10355800088B09750B007C037D0079007AFC7B02DF
:10356800121450750A00E50814F5100424FFF50834
:10357800E50934FFF50980549002FCE0FA9002F95D
:10358800E0F8EA28F8E43400F9E50898E5099950E4
:103598000D9002FCE0F8E510C3989002F9F0E0F510
:1035A800127513007812121C401246729002FDE048
:1035B8002AFAA3E03400FB12143874021219D390CB
:1035C80002F9E0F89002FCE028F0050A850C8285F3
:1035D8000D83A3A3123FEC40030236BC9002FCE02B
:1035E800C39508E4950940030236BCAE0AEE2EFEE8
:1035F800E433FF1236FBAC18AD1912468DE439FBE3
:103608001208328A128B13AC12AD13EC4D701B7575
:103618000B011236EB123D399002FD122C38600373
:103628001214BCA90B74020239A48516828517836B
:10363800A3A3A3A3E0F50B780B121C44E4F512F541
:10364800137812121C407512F97513027812121CA5
:10365800409002FA121C577407121A09121C57A933
:1036680010850E82850F831236E112099A740912A9
:1036780019D3E9F50B709B9002FD12371060030215
:103688003580E4F512F5137812121C407CFF7DFF9B
:10369800790F850E82850F831236E11209047402B0
:1036A8001219D312371660030235801236EB123A1C
:1036B8001A02362D7CFC7D02850E82850F83123618
:1036C800E112056EE96003023620790002362DAC5E
:1036D8000CAD0D850A82850B831236E522E0FAA32C
:1036E800E0FB221236FBE0FAA3E0F9EA85148285B2
:1036F800158322850C82850D83E02EF8A3E03FF91F
:1037080088828983229002FA124813E849221237E4
:1037180020F8A3E0F9E849229002FDEAF0A3EBF0D3
:103728009002FDE02274E8121A2D74FA1219BD7481
:1037380004121A091233238C168D177404121A09ED
:10374800E02405F50EA3E03400F50F7404121A09FD
:10375800E024021239B81236E112063A8A0A8B0BB3
:103768007F007E00A818A919880889097808121C02
:1037780040850E82850F83A3A3A3A3E0F5088E09D5
:103788007808121C40E50E2405F508E4350FF50904
:103798007808121C40850E82850F83A3A31239E88E
:1037A80012082C74061219D38A0C8B0D8029123931
:1037B800D9F00F1239D9F00F9002F9123D24121CDA
:1037C80040124672EFF81239AC121438740212190A
:1037D800D39002F9E02FFFE50C450D70030238681D
:1037E800851882851983123E5AA3A3A3E0F985148C
:1037F800828515831236E112081AE9FEE50C2404C5
:10380800F510E4350DF511EE70507404121A091212
:1038180039DFF5087808121C44E4F508F50978083A
:10382800121C407508F97509027808121C409002AC
:10383800FA121C577407121A09121C57E50A24FABF
:10384800F9AC0CAD0D8514828515831236E1120989
:103858009A74091219D3E9FE60391239F5123D3804
:10386800EF700302398F9002FDE0F5F0EF849002CB
:10387800FCF07CFC7D028514828515831236E112EA
:103888000574E960099002FE1236E11214BC790051
:103898000239A28F08EF703BE4F512F51378121283
:1038A8001C407CFF7DFF79118514828515831236B3
:1038B800E112090474021219D3123A057009123977
:1038C800F5123A190239A29002F9E024049002FD97
:1038D800F080359002F9E0F89002FDE0FAE824045F
:1038E800FCE43400FDEC6A4D600302386EE50A24FE
:1038F800FAFAE50B34FFFBE50828F8E43400F9EAA6
:1039080098EB99500302386E851082851183E0C0C8
:10391800E09002FEE02FF8A3E034008882F583D01F
:10392800E0F00F851082851183A3E0C0E01239C64C
:10393800D0E0F00F7402121A138808890978081267
:103948001C407402121A09121C57850E82850F83B7
:1039580012331712083874041219D38A0C8B0DEA23
:10396800450D70030237B67402121A09E0C0E0125E
:1039780039C6D0E0F00F7402121A09A3E0C0E012B1
:1039880039C6D0E00237BEEE70027E0A850E828507
:103998000F831239FB123D38EEF974061219D37FE2
:1039A80010021AFF9002FEE028FAA3E03400FB227E
:1039B800F514A3E03400F515851482F58322123935
:1039C800CA229002FEE02FFAA3E034008A82F5832F
:1039D800221239CA74FF22123B47A3A3A3A3E022F1
:1039E800124904850E82850F831236E522851082DE
:1039F800851183124813851682851783229002FE4B
:103A0800EAF0A3EBF09002FE124813E84922123DB7
:103A18003EE8F0A3E9F079112274EA121A2D74FE37
:103A28001219BD8A088B098C128D13EA2405FEE44D
:103A38003509FFAC18AD198E828F831236E1120852
:103A4800328A0C8B0DEE2406F50EE43FF50FEA459D
:103A58000D7003023B19E5082402F50AE43509F55F
:103A68000B8A828B83A3A3A3E0A2E5502885188242
:103A78008519831236E112098E8A108B11EA4511D5
:103A8800602079121236D7851082851183121A2B7D
:103A9800E9F50C707F850E82850F83E06009795205
:103AA8008011750C0E806D850882850983A3A3A3F8
:103AB800A3E0F9E4F508F5097808121C408E828F16
:103AC80083A3A3E0F5087808121C408E828F83A395
:103AD800A3A3121C578E828F831246751236DB12EF
:103AE80009A074061219D3E9F50C7011850E8285A8
:103AF8000F83E0702D1236DB12057A802574166567
:103B08000C7011750C007418121A09123B43E480EA
:103B180010750C0112480B851282851383E8F0A3F7
:103B2800E9F0850E82850F83E0600479008002A9A0
:103B38000C74021219D37F0E021AFF123B4722E0BF
:103B4800F8A3E0F58388822274EC121A2D74F71218
:103B580019BD8A0A8B0B8C108D11EA2405FEE435F9
:103B68000BFF750C00AC18AD198E828F831236E1ED
:103B78001208328A088B09EA45097003023D0FE5ED
:103B88000A2402F50A5002050B8A828B83A3A3A399
:103B9800E0A2E5502F8518828519831236E11209B3
:103BA8008E8A0C8B0DEA450D604F7912AC08AD0971
:103BB8001236DB850C82850D83121A2BE9F50C6011
:103BC80003023D12850A82850B83E0F508A3E0F520
:103BD80009AA08FB120982EA4B70197AFF7BFF12C7
:103BE8000982EA4B7003023D058A828B83E508F05F
:103BF800A3E509F07508008008750C0E023D120552
:103C0800089002F6E0F8E508C3984003023D0585F0
:103C1800080E750F007403780E1219AA8A828B8316
:103C2800A3A3E0250EF8A3E0350F1240D970D08E7B
:103C3800828F83123D2D1233238E828F83A3A3128A
:103C48003D2D123321EE2404F508E43FF5098508DB
:103C580082F583E088828983A3A3A3A3F0A3E4F079
:103C6800EE2405F50EE43FF50F850E82F583123D2F
:103C78002DA3A3A3A312332175120775130078127D
:103C8800121C40EEFCEFFD7404121A1B1214387457
:103C9800021219D3E4F5127812121C4085088285A5
:103CA8000983E0FC7D0079171236DB1209047402DF
:103CB8001219D37407121A091233237407121A0936
:103CC800E0FA4B603D850882850983123D24121C69
:103CD80040850E82850F83124675121438740212BD
:103CE80019D37402121A231236DB120580E96026F2
:103CF8007407121A091236E11214BC8019750C09DE
:103D08008008750C118003750C0112480B85108210
:103D1800851183123D38A90C74098028E0F50875CF
:103D280009007808221236E58882898322123D3EEE
:103D3800E8F0A3E9F022E0F8A3E0F9850E82850F08
:103D4800832274041219D37F0C021AFF74EC121A1E
:103D58002D123E48751000EE2402F50CE43FF50DD7
:103D6800850C82F5831236E11209828A088B09EAEA
:103D780045097003023E2C850A82850B83E06401A5
:103D88006003023E21AC08AD09AA0AAB0B12097602
:103D9800E9606E8508828509831230AEEE2406F547
:103DA8000AE43FF50B8E828F83A3A3121C578E82E1
:103DB8008F83A3A3A3A3121C57850A82850B8312A2
:103DC8001C5779188E828F83123E5A1236E11209D7
:103DD800A074061219D3E9F8741668700B850A8264
:103DE800850B83E4F0A38014E860128E828F83121F
:103DF80036E1850E82850F83EAF0A3EBF088108008
:103E080018780E121C40AC08AD09EEFAEFFB120947
:103E18007C74021219D3E9F510AA08AB09120988B3
:103E2800E510700E850C82850D831236E112058629
:103E38008009741665107003751000A910023D4FB3
:103E4800EAFEEBFF8C0E8D0FEE2405F50AE43FF534
:103E58000B22124904850C82850D832274EA121AFA
:103E68002D7508007509007E007F00750A00EC2496
:103E780002F510E43DF5118035EC65087003ED6539
:103E8800096003023F1988828983A3A3E06A70034B
:103E9800A3E06B707C88828983A3A3A3A312480F35
:103EA800EE28FEEF39FFEA28FAEB39FB050A123F44
:103EB800E9503A850A0C750D007403780C1219AA9A
:103EC800851082851183123FDC1240D9601FE508F6
:103ED800450970A58C088D09888289831230AC88C1
:103EE800828983A3A3E02EFAA3E03F80BEE50AC33C
:103EF80094025003023FD7750800750900EE4F6021
:103F080010EEFAEFFB1214B68A0E8B0FEA450F700B
:103F1800057900023FD9750B00023FAC850B0C7583
:103F28000D007403780C1219AA851082851183E09C
:103F3800250CF50CA3E0350DF50DE50C2406F5145C
:103F4800E4350DF515851482F5831240DE6042E5EF
:103F58000C2404F512E4350DF513851282F583124D
:103F68001C57E50E2508FAE50F3509FB12143874BD
:103F7800021219D3851282851383E02508F508A358
:103F8800E03509F5098514828515831236E1121486
:103F9800BCE50B600D7C087D007900AA0CAB0D1206
:103FA8001450050BE50BC3950A5003023F248510F6
:103FB8008285118312480F88828983A3A3A3A3A3B0
:103FC800A3E50EF0A3E50F122C3FEEF0A3EFF07976
:103FD80001023B3E123FE022E0250CF8A3E0350D3C
:103FE800229002F6E0F8E50AC3982274F0121A2D1E
:103FF8008A0E8B0F8C0A8D0B750D00750C00805086
:104008007916EE2406F508E43FF5098E828F83A31E
:10401800A3121C578E828F83A3A3A3A3121C5785B8
:104028000882850983121C57850E82850F83A3A3F6
:104038001236E11209A074061219D3E9F50D7416A7
:10404800650D706C850882850983E4F0A3F0050C82
:104058009002F6E0F8E50CC3985066AA0C8A087539
:104068000900740378081219AA850A82850B83A3AC
:10407800A3124128E8FEE9FF8E828F831240DE609A
:1040880040EA2401F508E43400F5099002F6E065F9
:10409800087002E509601488828983A3A3A3A3A3F7
:1040A800A3A3A31237106003024008791802400A3C
:1040B800E9609B12480B7410121A091240D0123D85
:1040C80038A90D7F08021AFFE0FAA3E0F5838A8277
:1040D80022F988828983124904EC4D2274F6121A57
:1040E8002D7C0080010C900353E0F8ECC398501E1F
:1040F8008C08750900740278081219AA12411DE08B
:104108006A7003A3E06B70DDE8FAE9FB80047A00CB
:104118007B000241C09002F41241288882898322E0
:10412800E02508F8A3E03509F92274F2121A2D8A5D
:10413800088B09750A0080278E828F83A3A3A3A307
:10414800122C3660031214BC7C087D007900EEFA4C
:10415800EFFB1214508E828F83E4F0A3F0050A124D
:104168003FE95027850A0C750D007403780C121965
:10417800AA850882850983A3A3E0250CFEA3E03560
:104188000DFF8E828F8312371070AD8508828509E6
:104198008374FFF0A3F00248F874F6121A2D12097E
:1041A800348A828B83E582458370067A007B00809F
:1041B80007A3A3A3A31236E17F02021AFF74F41225
:1041C8001A2D89088C828D83E06402703C1247AEF8
:1041D800FEA3E0F9EEF87402687003742969702987
:1041E800750A02750B00780A121C407410121A091D
:1041F800121C577410121A09121C57A908121252CD
:1042080074061219D3E9F980027901022C7374E853
:10421800121A2D74FB1219BDE9851882851983F0CD
:104228008A168B17ECFEEDFF7510008E828F83A324
:10423800A3A3E0A2E4502D741D121A091236E1124C
:10424800098E8A828B83E5824583700302464D7905
:104258000AEEFCEFFDAA16AB17121A2BE9F510604F
:1042680003024650741F121A09E0F508A3E0F50985
:104278007421121A09E0F50AA3E0F50B7423121A47
:1042880009E0F50EA3E0F50F8E828F83E0640260EB
:10429800030245EEA312480F850882850983A3858A
:1042A8008212858313EE2406F50CE43FF50D88820F
:1042B800898312468DF514E439F5157814121CCA51
:1042C800010000280128F04207000228B54303280E
:1042D80023430029E44401290F450229B044032956
:1042E800E44404298845EE45E50E450F6003024580
:1042F800E9850C82850D8312480FE8FAE9FB8A826A
:104308008B83E0850A82850B83124698121C408AAB
:10431800828B83A3E0FCA3E0024572E50E450F60A3
:10432800030245E9850A82850B837401F0124682EF
:10433800850882850983F07C007D008E828F83A3A7
:10434800A3A3A3E02401FAA3E03400FB120832EA95
:104358004B60408A828B83E02402F8850A82850BB1
:1043680083E028F0EA2404F8E43BF988828983E0B2
:104378008512828513831246A6124698121C408A1B
:10438800828B83A3124675E5082403FAE43509FBFA
:10439800024577850A82850B83E02404F07C047D3E
:1043A800007900AA12AB13121450024650E50E45CC
:1043B8000F60030245E9124682FEA3E0FF850A82E8
:1043C800850B837404F0EE850882850983F0EF85F8
:1043D8001282851383F07403121A23EEFAEFFB128C
:1043E80008328A0C8B0DEA450D70030244938A82C9
:1043F8008B83A3A31230AC7401121A13880E890F91
:10440800780E121C407405121A09121C577CFF7D85
:10441800FF12083874041219D38B0FEA450F703352
:10442800850C82850D83124679121C40850C828585
:104438000D83A3121C577C027D007A2B7B85120604
:104448002874041219D3E9700A7401121A0974FF46
:10445800F0A3F08E828F83E064027039750C0275C8
:104468000D00780C121C408E828F83A3124675E5CE
:10447800082404FAE43509FB12143874021219D31B
:10448800850A82850B83E0240280097401121A09C7
:10449800EEF0A3EFF07401121A09124667740112C4
:1044A8001A0912465E0245E3E50E450F6003024510
:1044B800E9850C82850D831248FDAA16AB171212E6
:1044C80058850A82850B837402F0850882850983E2
:1044D800EAF0851282851383EB0245E6E50E450F67
:1044E80060030245E9124682F8A3E0F9850A82854D
:1044F8000B837402F0E8850882850983F0E9851248
:10450800828513830245E6850C82850D831236E188
:10451800121432EAFAF8C3950EE4950F405CE86588
:104528000E450F70047A008021851882851983E072
:10453800FCE50E2CFCE4350FFDC3EC98ED9400501F
:1045480003E08005E50ECAC39AFAEA850A82850B5C
:1045580083F08A0A750B00780A121C40850C828544
:104568000D83E0250EFCA3E0350FFDAA08AB091268
:10457800143874021219D3024650751007024650B7
:10458800E50E450F705B850C82850D8312480F85FB
:104598000A82850B837407F08882898312465F122A
:1045A8004657E0851282851383F0E82402FAE4393D
:1045B800FB8A828B831246678A828B8312465EA3AC
:1045C800A3122C3E12466CF0E82405F85001098825
:1045D80082898312466CA31246A6A3A3A3A3F080E4
:1045E8006775100B8062741D121A091236E11209E0
:1045F800348A828B83E5824583604A12480F880C8F
:10460800890DE8450D603E7425121A09E0F5107809
:1046180010121C44780E121C40780A121C407808AC
:10462800121C407407121A09E0F9EEFCEFFDAA16F5
:10463800AB17850C82850D83121A2B74071219D3B8
:10464800E9F510800375100EA91074050239A4F05D
:1046580088828983A322A3E08508828509832212A0
:1046680046ADF0221246ADA3A3229002FA124904E5
:1046780022E0F50E750F00780E22850C82850D83D9
:10468800123B47E022E0FAA3E0F8E4C8F9EA28225E
:10469800F08A828B83E0F50A750B00780A221246AD
:1046A800571246AD22E0850882850983A3A32274A8
:1046B800EE121A2D74FE1219BD8A088B09ECFEED54
:1046C800FF890AAC18AD19EEFAEFFB1208328A0C12
:1046D8008B0DEA450D700302479F85188285198363
:1046E8001236E11209348A828B83E582458370038E
:1046F80002479AA3A312480F880E890FE8450F7046
:104708000302479A7414121A09E0F510A3E0F51190
:10471800E50AF50B780B121C447419121A09121CBD
:10472800577810121C40741B121A09E0F9AC0CAD32
:104738000DAA08AB09850E82850F83121A2B740502
:104748001219D3E9F50B705274FE650A604C850C9A
:1047580082850D83E0640270411247AEFAA3E0F946
:10476800EAF87402687003742969702E85108285CE
:10477800118312468DF50CE439F50D780C121C40A6
:10478800EEFCEFFDAA08AB091209B874021219D39E
:104798008008750B0E8003750B01A90B74021219A2
:1047A800D37F0A021AFFA312481388828983E02262
:1047B80074F6121A2D74FE1219BD740C121A09120D
:1047C800480FE8851882851983F07401121A09E9DF
:1047D800F0E4F508F5097808121C40750802780815
:1047E800121C407404121A13880889097808121CCC
:1047F8004079FE1209A074061219D374021219D353
:104808000241C08E828F8312481322E0F8A3E0F998
:104818002274F7121A2DEAFEEBFF89089003111291
:104828004675121258EA5402600BA908EEFAEFFB1B
:10483800120826800279017F01021AFF74F2121A07
:104848002D74FE1219BDEAFEEBFF890A7401650A90
:1048580060147402650A60030248F37901120BBC04
:10486800E960030248F3EEFAEFFB120982EA4B60B3
:1048780003120988A818A919880889097808121C38
:10488800407508027509007808121C4075082575DE
:1048980009857808121C407CFF7DFF7A017B001295
:1048A800082C74061219D38038850882850983A3D9
:1048B800A3A3A3A3A31248FDEEFAEFFB12124CE444
:1048C800F50CF50D780C121C407402121A09121C12
:1048D800577CFF7DFFAA08AB091208387404121927
:1048E800D38A088B09E508450970BE74021219D3EA
:1048F8007F06021AFF123B4712490422E0FCA3E09C
:10490800FD2274F4121A2D8A088B09ECFEEDFF9033
:104918001966E0F4604B7A097B0012145CEA4B607C
:10492800408A828B8374B1F0A3E412496CF08A82C6
:104938008B83A3A3E508F0A3E50912496CA3EEF065
:10494800A3EFF0740C121A0912480F8A828B83A302
:10495800A3A3A3A3A3A3123D38901966E0F91214E8
:1049680068022C73F08A828B83A3A3A3A32274F01A
:10497800121A2D74FA1219BD8908ECFEEDFF75099B
:10498800008A0A8B0B780A121C840004109C4BB90D
:1049980049D749F149094A274A3F4A624A7A4A8E21
:1049A8004AB84A334B444B5B4B764B9C4B9C4BCEA3
:1049B8004A740165086003024B978E828F83E0F882
:1049C800C394034003024B97E8901A52024B737446
:1049D8000265086003024B978E828F8312548F9072
:1049E8001A53E8F0A3E9024B7374016508600302E7
:1049F8004B97124BC44003024B97E89007E0024BD9
:104A080073740165086003024B978E828F83E0F808
:104A1800C394054003024B97E89007E1024B737477
:104A28000165086003024B97124BC44003024B9781
:104A3800E89007E2024B73741065086003024B9715
:104A4800750A10750B00780A121C407AE37B07126E
:104A5800143874021219D3024BBD7401650860033F
:104A6800024B97124BC44003024B97E89007F3029E
:104A78004B73740165086003024B978E828F83E045
:104A8800901A56024B73740465086003024B978EA4
:104A9800828F83780C121875908495780C1216976B
:104AA8005003024B979007F5780C121884024BBDFF
:104AB800E96003024B971207C0E9700512120A80D9
:104AC800559007FC8061740765086003024B977571
:104AD8000A06750B00780A121C408E828F83A3ACDD
:104AE80082AD837402121A1B12143E74021219D377
:104AF8007C007D00AA18AB198E828F83E0F9121111
:104B0800B0E9FEC3940A4003024BBA1207C0E97029
:104B18000CEEF91212107950121576806D74FD2E74
:104B2800F582E43407F583740180407401650870E8
:104B38005E124BC45059E89007F4802F7401650841
:104B4800704D8E828F83E0F8C3940A5042E8901A21
:104B58005580187401650870368E828F83E0F8746A
:104B6800F928C3940A5028E8901A57F0804774012E
:104B78006508701B9007FBE0F88E828F83E0900732
:104B8800FBF0E87030E06401702B1211FE8026758E
:104B980009188021C3EA9427EB9400501574026524
:104BA80008700F8E828F831257A8120640E9F50904
:104BB8008003750902A90974060254048E828F8342
:104BC800E0F8C394022274F4121A2DECFEEDFF757E
:104BD80008008A0A8B0B780A121C8400040E7F4C8A
:104BE800064C0B4C1B4C204C254C2A4C474C4C4C2F
:104BF800514C7F4C604C654C6A4C6F4C754C901A0C
:104C0800528067901A5312548F8E828F83E8F0A3D4
:104C1800E980789007E080529007E1804D9007E2A4
:104C28008048750A10750B00780A121C407CE37DD9
:104C380007EEFAEFFB12143874021219D38052905F
:104C480007F38026901A5680219007F51218AB8E2C
:104C5800828F831218B780399007F4800D901A5507
:104C68008008901A5780039007FBE0800412120412
:104C7800E98E828F838014C3EA9427EB9400500E48
:104C88001206468E828F83EAF0A3EBF08003750844
:104C980002A9088005740E1219D37F04021AFF7442
:104CA800F1121A2D74AB1219BD8C0C8D0D90844A1B
:104CB8007414121A2374061218D07414121A2312B8
:104CC80011B0E9F50A7464121A09E0F50BE9C39406
:104CD8000A4003024E2375F006E9A4F50974471249
:104CE8001A237A0E74202509F9121570E9700974CF
:104CF80053121A09E0FE80027E00901A52E0640204
:104D0800700575080180037508007408650B700448
:104D18007422800274212509FF7C1B7D00790074B0
:104D28001A121A1B121450741A121A237A1BEFF94A
:104D3800121570E970297434121A09E024F9C39421
:104D48000A501C7808121C44741B121A23EEA2E0A5
:104D5800E433F9AA0CAB0D1206E274011219D37CE4
:104D6800147D007900AA18AB19121450AC18AD19AB
:104D78007A1074242509F9121570E970327C1079BB
:104D8800FFAA18AB191214B0E970247410121A098A
:104D9800AC82AD837A0474252509F9121570AC1814
:104DA800AD19EEA2E0E433F9AA0CAB0D1206CA74F1
:104DB80035121A237A127470250AF9121570E970DF
:104DC800497435121A1B1211E67F00EF75F003A41F
:104DD800F8A9F07435121A09E58228F8E583125506
:104DE800B91257A2601D88828983A3A3E0F50875CC
:104DF80009007808121C40AA0CAB0D1209A674020F
:104E08001219D30FEFC3940640C1EEA2E1500C90E3
:104E180007DFE0F9AA0CAB0D1209AC7404650B703E
:104E280028901A52E0640270207A009007F3E0603C
:104E3800027A019007E0E06004780480027800E8D4
:104E48004AF9AA0CAB0D120796790074551219D3BA
:104E58007F07021AFF74F7121A2D1207C0E9704F64
:104E68009007FCE06401701512120A9007FCE4F048
:104E78007C0AFDF97AFD7B07121450802A75080018
:104E8800A80874FD28FEE43407FF8E828F83E0644F
:104E980001700BA9081212108E828F83E4F00508A6
:104EA800E508C3940A40D979501215761211FE020A
:104EB80058E974F1121A2D74F01219BD8A0C8B0D71
:104EC8008C088D097E0AE9600C14600914603A1494
:104ED8006075024FA01211F8E9FEC3940A4003025C
:104EE8004FA0E50845097003024FA0750A06750B27
:104EF80000780A121C40AC0CAD0DAA08AB091214BC
:104F08003874021219D3024FA07F00750A06750B78
:104F180000780A121C40AC0CAD0DEF75F00EA4F829
:104F2800A9F0745928FA740739FB12144A7402124A
:104F380019D3E970090FEFC3940A505C80CDEFFED6
:104F4800C3940A505380427F00AC18AD197A10758B
:104F5800F006EFA42423F9121570E9701C7C10796F
:104F6800FFAA18AB191214B0E9700EAC0CAD0DAA5B
:104F780018AB191206A6E960090FEFC3940A501876
:104F880080C7EFFEC3940A500FE50845096009AAD7
:104F980008AB09EEF91211F2EEF97410024E5574CD
:104FA800F4121A2DE9FF7E1574FF6A700374FF6B03
:104FB8007028750800EFFC7A027B00A9081211D44A
:104FC800E960027E000508E508C3940A40E7EF603F
:104FD800507A227B12120BE08047120BB08A088BA2
:104FE80009EA450960397C007D00EA2405FAE435C0
:104FF80009FB850882850983A3A3A3A3E0F91211FD
:10500800B0E9F9C3940A500BEFFC7A027B00121145
:10501800D47E00EF600BAA08AB0912122280027E30
:1050280014EEF9024CA274F2121A2D8C088D097E26
:1050380015740E121A09E0F50AA3E0F50B74FF6A5D
:10504800700374FF6B701D7F00AC0AAD0BAA08AB30
:1050580009EFF91211DAE960027E000FEFC3940A32
:10506800503D80E5120BB08A828B83E582458360D0
:105078002C7C007D00E5822405FAE43583FBA3A39C
:10508800A3A3E0F91211B0E9F9C3940A5011AC0ACC
:10509800AD0BAA08AB091211DA7E0080027E14EE6D
:1050A800F9025581C082C0839007F9EAF0A3EBF0BA
:1050B8009007DFE0FC7D007A267B0012064090070F
:1050C800DFE0F9120910025C8874F0121A2D74FFDF
:1050D8001219BDE9851882851983F0EAFEEBFF7580
:1050E8000800E0703D8E088F097808121C40741380
:1050F800121A09780C121875908495780812187588
:10510800780C7908121736AA08AB09AC0AAD0B124D
:1051180006DC74021219D3E9F50860097901EEFA80
:10512800EFFB1206D6A908740102540474F0121A8F
:105138002D74EC1219BDEAFEEBFF8E828F83A385D6
:10514800820C85830DEE2405F50EE43FF50FEE2461
:1051580009F50AE43FF50BEE2403F508E43FF509E9
:105168008E828F83A3A3E024FA70030253FA24FDEE
:10517800700302531C14700302520A14601024FDB9
:1051880070030252FF147003025353025400125F5B
:10519800F46047E0F5838882E0F50EA3E0F50FE5BB
:1051A8000E450F60351258B2E0F50C780C121C440D
:1051B800EE240BF582E43FF583E0F9850A82850B3E
:1051C800831257A80A0A0AAB09850E82850F831233
:1051D8001A2B74011219D3025400850A82850B8395
:1051E800121C579007F51218931206DC7402121954
:1051F800D3E970030254007901850A82850B830282
:1052080053CA750A00850C82850D83E0600302523B
:10521800C5850E82850F83E0A2E040030252C59047
:105228000807125FF760030252C57C0E7D00790003
:10523800AA18AB191214501258B2125C53EA4B60F8
:1052480010750A06750B00780A121C40EA241080B3
:105258001B125C4D120BB0EA4B7003025400750A26
:1052680006750B00780A121C40EA2405FCE43BFD95
:105278007402121A1B12143874021219D3850E8282
:10528800850F83E0A2E25004D2F08002C2F0A2F0BF
:10529800E433F8740C121A09E048F0EEFCEFFDAAAA
:1052A80018AB191211ECE970117A027B009007DF34
:1052B800E0F912148C7900025402750A15125FF491
:1052C8007003025400125C05E0FEA3E0FFEE4F708D
:1052D80003025400850C82850D83E0FC7901125489
:1052E8000C121A2BE50A7003025400FC7903125CB5
:1052F8004D125C110253F5125FF470030254001250
:10530800541C7003025400850C82850D83E0FC79DF
:10531800020253F27C007D00EE2404FAE43FFB8590
:105328000882850983E0F91211B0E9F8C3940A40AC
:1053380003025400EE240AFCE43FFD7A0475F006EB
:10534800E8A42425F912156A025400125C4D90074E
:10535800F4E06007901A55E0F9806A901A52E070FC
:105368000479058060120BB08A0C8B0DA80CA90D6E
:10537800E8497003025400E82404F50CE439F50DFB
:105388008E828F83A3A3A3A3A3A3A3E0A2E0503A92
:10539800850C82850D83E0FE6030850A82850B834B
:1053A800A3E054027024740E121A23E82405FAE4C8
:1053B80039FBEEF91211B0E970107903850882857E
:1053C8000983125C531206D6802EAC0EAD0F850CE5
:1053D80082850D83E0F9125C4D12122E125FF46083
:1053E8001712541C60127C00790012540C121A2BEC
:1053F8008006125C4D1211AA790174141219D37F18
:1054080008021AFF850882850983E0FAA3E0FB8E6B
:10541800828F8322125C1FF9E8FEE9FFEE4F2274A7
:10542800F4121A2D74F21219BDEAFE8C0975F006F1
:10543800E9125BF8121570E970487C0679FFAA1822
:10544800AB191214B0E9703A740C121A0912548F7D
:10545800E8F50BE5096005EE420B8004EEF4520B0B
:10546800AA0BE86A7001E96015740C121A09EAF0CF
:10547800A3E4F0AC18AD197A0EA90812156A7901DF
:1054880080027900024C9DE0F8A3E0F92274F21240
:105498001A2D74E01219BD89098A0C8B0DECFEEDEA
:1054A800FF7412121A237A0E75F006E9A42420F963
:1054B800121570E9600302557A7C0679FF7412129E
:1054C8001A1B1214B0E9600302557A74702509F5A5
:1054D80008AC18AD197A12F9121570E96003025573
:1054E80076AA18AB191211E6E50C450D701D7C1251
:1054F8007900AA18AB191214B0E970727C127D00F9
:105508007900AA18AB191214508051AC18AD19AA19
:105518000CAB0D1211E08A0A8B0BA80AA90BE849FB
:105528007022EE4F604CAC18AD197A007B00121156
:10553800E0EAF8EBF9EA4B603988828983E50CF0F8
:10554800A3E50DF01255F5FAEE6A7001EF601FEE53
:10555800F04F700888828983E4F0A3F0AA18AB1989
:105568001211E6AC18AD197A12A90812156A790158
:105578008002790074201219D37F06021AFF74F78B
:10558800121A2D7E00EE75F003A4F8A9F0EC28F8A5
:10559800ED1255B9E06A7003A3E06B7006E8FAE90A
:1055A800FB800B0EEEC3940640DB7A007B000258AA
:1055B800E939F9888289832274F7121A2D7C00EC64
:1055C80075F003A4F8A9F0EA28F8EB1255B9E0F44D
:1055D800FEA3E0F4FF88828983EEF0A3EFF0125572
:1055E800F5F4F00CECC3940640D50258E9E824021F
:1055F800F582E439F583E02274F4121A2D74EE1260
:1056080019BDEAFEEBFF8C0A8D0B900807125FF7B5
:105618007050EE4F603FEC450B603A1211F8E9907C
:105628001A58F0C3940A403A7508007C0679FFE5D9
:105638000875F00EA4FAABF074532AFA74073BFB12
:105648001214B0E970160508E508C3940A40DC9006
:105658001A58740AF079017412024C9FE508901ADE
:1056680058F0901A58E0C3940A50EA75F006E0A47E
:10567800F8900807125C53EA4B7063EEFCEFFD7A72
:105688000E742028F912156A7C127D0079FFAA1879
:10569800AB19121450AC18AD197A12901A58E024AC
:1056A80070F912156A75080E7509007808121C4001
:1056B800EEFCEFFD901A58E075F00EA4F8A9F0740E
:1056C8005328FA740739FB12143874021219D3904C
:1056D8000807E50AF0A3E50BF0790002565F1257B8
:1056E8008A240612579C60197A1B742128F912150E
:1056F8006A1257932406F582E438F583E4F0A38010
:10570800D712578A240A12579C60107A1B742228D1
:10571800F912156A125793240A80DB12578A240C4F
:1057280012579C60107A10742328F912156A1257C0
:1057380093240C80C112578A240812579C60347A2B
:1057480010742428F912156A1257932408F582E474
:1057580038F583E02410FCA3E03400FD7A0475F0EA
:1057680006901A58E0A42425F912156A12579324B2
:105778000880839007FBE0600312123A1212280295
:10578800565D900807E0F9A3E0C922900807E0F801
:10579800A3E0C822F582E439F5831257A8EC4D221C
:1057A800E0FCA3E0FD2274F4121A2D74F21219BD64
:1057B800EAFEEBFFE9C3940A5004EE4F7004790245
:1057C8008034AC18AD197A0E75F006E9A42420F9D6
:1057D800121570E9F508701C750A06750B00780A31
:1057E800121C407402121A23EEFAEFFB12143874DA
:1057F800021219D3A908024C9D74F4121A2DEAFE5C
:10580800EBFF750800750A06750B00780A121C4034
:10581800EEFCEFFDE50875F00EA4F8A9F074532826
:10582800FA740739FB12144A74021219D3E9600496
:10583800A908800B0508E508C3940A40C8790A023C
:105848004CA274F7121A2D750800E50875F00EA41D
:10585800F8A9F0745328FE740739FFEEFCEFFD7ABF
:105868000E75F006E508A42420F9121570E96023E6
:105878007C067D0079FFEEFAEFFB1214507C067D62
:105888000079FFEE2CFAE43FFB1214501258B2E4F0
:10589800F0A3F00508E508C3940A40AE9007FBE0C2
:1058A800600312123A1212288037EE240CF582E4B3
:1058B8003FF5832274F7121A2D7E007F007C06794B
:1058C800FFEF75F00EA4FAABF074532AFA74073B95
:1058D800FB1214B0E970010E0FEFC3940A40DEEE1C
:1058E800F97F01021AFF74F7121A2D7E00EEF912E1
:1058F8001210E9F90EEEC3940A5003E960EF80E153
:1059080074F3121A2D74C51219BDE9FF901A58E0E4
:105918006F701B7A017B009007DFE0F91214927A0E
:10592800027B009007DFE0F9121492121246901AD7
:1059380059E06F70127A047B009007DFE0F91214C7
:1059480092901A59740AF075F006EFA4FE74202E8E
:10595800F508741B121A237A0EA908121570E9604B
:1059680003025A237C0679FF741B121A1B1214B007
:10597800E96003025A237C0E7D0079FF741B121A1A
:105988001B1214507C1B7D0079FFAA18AB19121446
:10599800507C127D0079FF7429121A1B121450745E
:1059A8001B121A237A0EA90812156AE9F508AC1811
:1059B800AD197A1B74212EF912156AE9F50CAC1889
:1059C800AD197A1B74222EF912156AE9F50BAC1879
:1059D800AD197A1074232EF912156AE9F509AC1875
:1059E800AD197A1074242EF912156AE9F50AAC1863
:1059F800AD197A0474252EF912156AE9FE74291274
:105A08001A237A1274702FF912156AE9F8E50C4511
:105A18000B4509450A4E4842088003750800A90845
:105A2800743B1219D37F05021AFF74F7121A2DE975
:105A38009007DFF01211FE7A5A7B1A1207F002580B
:105A4800E974F2121A2D74F21219BDEAFEEBFF5432
:105A5800807003025B0E9007DFE0F91214748A0865
:105A68008B09EA45097003025B067801EA2405F50B
:105A78000CE43509F50DEA2404F50AE43509F50BBB
:105A88008A828B83E02450603C14600624E1605FC6
:105A98008062850A82850B83E0705C8A828B83A38F
:105AA800A3A3A3A3A3A3121C57850C82850D83125D
:105AB80057A88A828B83A3A3125C531211BC740269
:105AC8001219D38032850A82850B83E0641E700E1A
:105AD80079008A828B83A3A3125C531211B6850ABC
:105AE80082850B83E0F9AA0CAB0D12090A80081213
:105AF80011CEE9F8E86007AA08AB09121462EEFAB9
:105B0800EF6480025BECEE54026016EE6402FE7CE9
:105B1800007D007A007B001211ECE9704B7A02805C
