:020000040000FA
:06000000020107022323A8
:03001B0002279623
:03002B0002277534
:030033000227574A
:03005300022396EF
:03006B0002273138
:030073000227FB66
:1000830002218FE5C754F84401F5C7790122000026
:100093000080FB120086B900030200F1E4792178A5
:1000A30008B800028004F709D8FCE479297802B87B
:1000B30000028004F709D8FCE490028178EB790A06
:1000C3008002F0A3D8FCD9FA7A6B7B0C90013778C5
:1000D300B979048015E493A3AD82AE838A828B83BE
:1000E300F0A3AA82AB838D828E83D8E9D9E7758288
:1000F300B67583BD740312011975829175830074FB
:100103000012011975D00075813F751881751902A8
:10011300759F00020096C09FF59FE473D09F22D085
:1001230083D082C09FE493C0E0740193C0E0740263
:1001330093F59F22FF0000B4000028002800283018
:1001430075A000A000A000A00000080008E001F0D6
:10015300001000100010001000100010005000509C
:1001630000500010001000D0070000000000000F36
:100173000001000500307507001000010081FF0039
:10018300000000FFED060B07F306FF020202080260
:100193005000A0000000E803020084010000E48393
:1001A30002F683010000C20C020C84010000B302BA
:1001B30002F683010000C30C022E84010000C90271
:1001C30002F683010000C40C020E84010000CB027E
:1001D30002F683010000C50C020A84080000CC0269
:1001E30002F683010000C60C020684010000C70C5E
:1001F300FF0100FF20020084010000458302F68313
:100203000100002B0D02FC83000000000002F483B8
:100213000300001903A50CA50CA50CA50CA50CA5A2
:100223000CA50CA50CA50CA50CA50CA50CA50C27C1
:100233000F3F0F210FFFFF110199010F12640401FA
:10024300020084010000EA8302F683010000730DBB
:1002530002FA83010000740D02F4830300007107A6
:1002630002F283010000750D020202020202020281
:1002730002010D0000001001020084010000E1836F
:1002830002F6830100009F0D02308401000077070E
:1002930002F683010000A00D0210840100003883E0
:1002A30002F683010000A10D0212840100001C83E9
:1002B30002F683010000A20D02148401000094825F
:1002C30002F683010000A30D021684010000A6823A
:1002D30002F683010000A40D021884010000B88215
:1002E30002F683010000A50D022C84010000CA82DE
:1002F30002F683010000A60D02FE830100002A839B
:1003030002F683010000A70D023284010000A80D4C
:1003130001E803053F100A1509484944204B657954
:10032300626F6172642026204D6F7573650201054B
:100333000319C103050212180F1860EA00000189AE
:100343001D13231300000165130000E60202192A9E
:100353000406011201011202011203010E0002122E
:100363000E120A0003020084010000E78302F883EF
:10037300010000860B02F683010000830E02228433
:10038300400000B98302F683010000870E02268431
:10039300800000880B02F683010000880E022A8485
:1003A300C00000890E02F683010000840E0224843B
:1003B300400000008002F083010000850E02F683F6
:1003C3000100008A0E022884400000890B02F48396
:1003D3008100008A0B02F2830100008B0E02F68378
:1003E3000100008D0E022884400000900B02F4836C
:1003F300810000910B02F2830100008E0E02F6834E
:10040300010000900E022884400000970B02F48341
:10041300810000980B02F283010000910E02F68323
:10042300010000930E022884C000009E0B02F28399
:10043300010000940E02F683010000960E021C8454
:100443004000009F0B02F483810000A00B02F6839F
:10045300010000970E022084C00000A60B02F68361
:10046300010000980E021E84400000A70B02F483D3
:10047300810000A80B02F683010000990E02288474
:10048300C00000AE0B02F2830100009A0EFF0001D0
:1004930030750302010600000000000000000000A8
:1004A3000000000000000000000000000000000049
:1004B3000000FFFF0600800CE80304100200840123
:1004C3000000ED8302F683010000F10F02388480FF
:1004D3000000600C02F683010000F20F023A840070
:1004E3000000640C02F483810000650C12012215E4
:1004F3007E001201222C7E001201225D7E00120179
:1005030022987E00120122C27E00120122EC7E009C
:10051300120122037F001201221A7F0012012231ED
:100523007F001201225A7F001201226D7F00120107
:1005330022837F00120122967F00120122BD7F00D9
:1005430012012210BE0212012214BF021201224C18
:10055300BF021201226FBF021201227ABF021201EF
:10056300229DBF02120122ACC00212012281C102EC
:10057300120122FCC10212012284C202120122BF13
:10058300C202120122F6C20212012284C302120124
:10059300225DC402120122BDC402120122C8C40298
:1005A30012012247C5021201224AC5021201224D3D
:1005B300C502120122DCC502120122DFC5021201AB
:1005C300220FC60212012239C60212012227C702D4
:1005D300120122D9C70212012215F2021201223D91
:1005E300F2021201226BF202120122A2F2021201A2
:1005F3002200F3021201224BF30212012296F302AC
:10060300120122D6F3021201221CF4021201224A21
:10061300F40212012207F50212012211F50212015E
:10062300221EF50212012251F5021201221DF602C9
:1006330012012229F60212012241F6021201224B73
:10064300F60212012287B90312012295B90312019E
:1006530022ADB903120122C5B90312012299BC01CB
:1006630012012245BD01120122C0BD01120122E186
:10067300BE011201221DBF01120122C6BF011201D8
:1006830022ADC00112012211C20112012268C2016E
:10069300120122E9C201120122D9C3011201222649
:1006A300C401120122ACC401120122DEC4011201F1
:1006B30022F2C60112012234C70112012252C701DC
:1006C300120122D5C701120122A9C8011201227108
:1006D300C9011201225DE00212012230E10212017E
:1006E30022D9E1021201222CE202120122DCE202EF
:1006F30012012268E30212012254E402120122834E
:10070300E40212012296E502120122DEE502120141
:1007130022B3E602120122EFE6021201220BE702E4
:1007230012012264BC03120122A09003120122B61B
:100733009003120122DC9003120122F891031201AB
:10074300220292031201223793031201222F9403F0
:10075300120122EEEC021201221EEE0212012251BC
:10076300EE021201229BEE0212012262F00212013A
:1007730022266E00120122906E00120122EF6F00FA
:10078300120122FF6F001201222C7000120122833A
:1007930070001201222C7100120122337200120127
:1007A30022FD72001201225D7400120122A0740066
:1007B300120122457500120122927500120122B81E
:1007C3007500120122C67700120122CB77001201B5
:1007D30022D079001201221D7A00120122907A00A0
:1007E300120122C37A00120122657B001201220E3C
:1007F3007C00120122467C00120122497C00120176
:1008030022917C00120122D17C00120122287D005A
:1008130012012242A0031201225AA003120122A2B2
:10082300A003120122B8A003120122FFA0031201A8
:100833002213A203120122A0A203120122EBA2039C
:10084300120122642800120122702800120122AB37
:100853002800120122F02800120122B029001201FF
:1008630022362A00120122622A001201229B2A0048
:10087300120122D92C00120122BD2E00120122A343
:100883003000120122E63100120122343400120139
:1008930022463500120122913600120122A13700AF
:1008A300120122BE3700120122F937001201221B66
:1008B30038001201227E38001201223F3D0012014E
:1008C30022D43D00120122253E001201224C3E009B
:1008D3001201229E3E00120122BC3E00120122168A
:1008E3003F0012012215400012012299400012011B
:1008F300225EFB0212012268FB02120122ABFB0201
:10090300120122C6FB0212012256FC021201227EB0
:10091300FC02120122BBFC02120122F2FC021201B0
:10092300221BFD0212012290FD02120122A5FD02EB
:10093300120122BAFD02120122EBFD02120122FF73
:10094300FD0212012224FE021201225EFE021201A6
:10095300228AFE021201220DFF0212012256FF0219
:1009630012012280FF02120122ABFF021201227F39
:10097300B503120122E99A02120122179B02120106
:1009830022659C02120122459D02120122649D02EE
:10099300120122E19D02120122249E021201227AF7
:1009A3009F021201223BA002120122C2A2021201E3
:1009B3002263A30212012259A40212012256A502A4
:1009C300120122B0A6021201223BA702120122F257
:1009D300B2031201225BB303120122AFB30312016C
:1009E30022D6B30312012207B403120122008003AB
:1009F3001201226D8003120122B48003120122CC62
:100A03008103120122C88203120122AB8303120164
:100A1300224AC8021201228CC8021201225EC902B4
:100A230012012237CA0212012231CB021201221310
:100A3300CC021201227CCC0212012232CD0212011D
:100A430022A6CD0212012212CE021201223BCE02B5
:100A5300120122B5CE021201224ECF02120122B39D
:100A6300CF02120122C8CF021201220ED0021201BC
:100A73002227D0021201228CD0021201228FD0022F
:100A8300120122809703120122A89703120122E682
:100A93009703120122A498031201220B9903120156
:100AA300222799031201224F99031201227F9903EE
:100AB3001201228E99031201220B9A031201223191
:100AC3009A0312012261AD011201223FAF0112010B
:100AD3002271B101120122ADB101120122DAB10179
:100AE300120122C4B2011201220FB3011201225AD0
:100AF300B3011201226CB301120122ACB301120142
:100B030022E1B3011201222FB4011201225EB401CA
:100B130012012281B401120122CEB4011201225327
:100B2300B5011201226DB701120122ACB901120104
:100B330022EDB9011201228FBB01120122D0BB01A8
:100B430012012243BC01120122D48D02120122D2CE
:100B53008E021201226B95021201228C970212015E
:100B630022579902120122BF9A0212012200410068
:100B7300120122AF4100120122F541001201223578
:100B83004300120122CB4400120122454500120109
:100B930022604500120122DB450012012235470085
:100BA3001201229548001201229B4900120122FCE6
:100BB3004A00120122154B00120122734B0012014D
:100BC30022614C00120122944C00120122044D00B8
:100BD3001201227E4D00120122C84D001201229201
:100BE3004E00120122674F001201224650001201EB
:100BF30022D150001201223F5100120122B35100B1
:100C0300120122DE51001201229D52001201220222
:100C130054001201221F54001201223E54001201FB
:100C2300222F55001201225455001201227E550035
:100C3300120122F95500120122535600120122BC5F
:100C430057001201226A5800120122AB5800120108
:100C5300220080021201224E80021201225A8002D7
:100C63001201223881021201226981021201229AA1
:100C730081021201221A82021201225282021201FD
:100C830022A48202120122E18202120122FE8402C4
:100C93001201222487021201220F8902120122F972
:100CA3008A02120122FB7F001201224E99011201D6
:100CB300227E990112012257A001120122DCA10117
:100CC300120122D9A701120122C1A801120122FE99
:100CD300A80112012221A90112012252A901120124
:100CE300225BA90112012265A90112012253AA0163
:100CF30012012249AB011201223F84011201223E5B
:100D030088011201224488011201227F8F011201FE
:100D1300229894011201223994031201223395037C
:100D2300120122A79503120122E59503120122590C
:100D33009603120122D29603120122DB96031201BB
:100D430022E79603120122FC96031201223A97032B
:100D53001201225097031201226D84031201227A99
:100D63008403120122948403120122D38403120107
:100D7300221185031201227685031201228B85033A
:100D8300120122968503120122A38503120122BABE
:100D93008503120122C88503120122D385031201A0
:100DA30022DF8503120122EE8503120122F9850356
:100DB3001201221C8603120122C38603120122D3CD
:100DC3008603120122ED86031201220A8703120110
:100DD300222687031201224B87031201225687031F
:100DE3001201226B87031201227F8703120122E083
:100DF3008703120122E68703120122EC8703120103
:100E030022F287031201220A88031201223D88037A
:100E1300120122FBD9011201227FDA011201222ED3
:100E2300DB011201228DDC01120122AEDE0112016F
:100E3300229ADF01120122CFDF01120122F1DF0129
:100E4300120122A0E00112012298E201120122C143
:100E5300E20112012253E30112012285E30112018F
:100E63002292E301120122E9E3011201220FE401BC
:100E73001201227CE6011201227FE701120122D72F
:100E8300E7011201228ACB0112012294CC01120143
:100E9300227BCD0112012285CD01120122A7CD01B2
:100EA300120122B3CD011201224CCF011201227B88
:100EB300CF0112012297D001120122F0D0011201B9
:100EC3002256D20112012235D30112012291D301FC
:100ED300120122FED30112012239D4011201227818
:100EE300D40112012231D7011201224BD701120181
:100EF30022D7D701120122E5D7011201223ED801E0
:100F03001201224CD801120122BFD801120122235F
:100F1300D9011201226DD901120122BCA7021201CB
:100F230022DEA70212012204AA0212012219AD0233
:100F330012012231AE02120122E4AE02120122C6D4
:100F4300AF02120122AFAC03120122D4AC0312018F
:100F53002246AD03120122E3D802120122ECD80289
:100F6300120122F5D802120122CCD9021201227DEC
:100F7300DB02120122B3DB02120122EDDB021201BA
:100F83002223DC021201225DDC0212012291DC0227
:100F9300120122BDDC0212012206DD0212012240EF
:100FA300DD0212012289DD02120122E1DD021201BA
:100FB3002216DE0212012271DE02120122ABDE02D0
:100FC300120122FCDE0212012232DF021201226C24
:100FD300DF021201229ADF02120122BDDF02120197
:100FE300221FBB031201224BBB03120122A6BB0328
:100FF300120122B0BB03120122C0BB031201224D16
:10100300B40312012277B403120122E5B4031201DF
:10101300225AB50312012280E7021201228AE70253
:10102300120122C8E70212012211E8021201224B27
:10103300E802120122A5E802120122C6E802120107
:1010430022CFE80212012220E90212012249E90219
:1010530012012253E902120122BFE9021201224DB9
:10106300EA021201229BEA02120122D1EA021201D0
:101073002258EB0212012298EB02120122D0EB025A
:10108300120122E2EB0212012201EC021201220AF6
:10109300EC02120122C4EC021201229CB7031201DA
:1010A30022B0AA03120122E6AA031201221CAB03F7
:1010B30012012275AC03120122E8BC03120122FEC5
:1010C300BC0312012208BD03120122BA88031201D4
:1010D30022D38803120122778903120122B78903DD
:1010E300120122D08903120122048A031201225120
:1010F3008A03120122858A03120122C78A0312017D
:1011030022CB8C0312012252BD0312012296B80393
:10111300120122BFB803120122E8B8031201220010
:10112300B90312012242B9031201225E9D03120187
:1011330022879D03120122F79D03120122159E03AC
:10114300120122D88C03120122088D031201221BE3
:101153008D031201224A8D03120122C88D0312014D
:1011630022E78D031201228C8E031201221E8F03AC
:10117300120122A38F031201226990031201227923
:101183009A031201229E9A0312012209BE0312013D
:1011930022DB5800120122355B001201220E5C0093
:1011A300120122BD5D00120122AF5E001201223442
:1011B3005F00120122B25F00120122D75F00120109
:1011C300223F6000120122636300120122DD6300EB
:1011D300120122CC6400120122066500120122468C
:1011E30065001201220067001201225367001201F9
:1011F300229C67001201220A68001201223C680047
:10120300120122546800120122656900120122753D
:101213006900120122A56A00120122C76A001201A5
:1012230022FD6A00120122A26C00120122E16C006D
:10123300120122016E001201225EBA031201226F13
:10124300BA0312012214BB03120122AEFF011201E1
:1012530022EDFF0112012250BE03120122CABB0379
:10126300120122DABB03120122F2BB031201225A3A
:10127300BC0312012298B6031201221DB703120107
:101283002283B7031201227AB103120122A3B1030D
:101293001201220EB2031201225FB203120122B81D
:1012A300B203120122D2F602120122E9F60212015E
:1012B3002262F7021201223BF802120122F9FA021A
:1012C300120122B8A5031201222EA603120122C580
:1012D300A6031201225CA70312012274A7031201C1
:1012E3002288A703120122E5A703120122FDA70307
:1012F3001201220BA8031201220AF6011201226233
:10130300F60112012284F601120122B4F601120140
:1013130022B7F9011201222CFA0112012281FA01EA
:101323001201228CFB011201228FFB0112012259AF
:10133300FD01120122EAB2021201224AB302120192
:10134300224CB4021201226EB40212012281B402B1
:1013530012012216B502120122EDB6021201220178
:10136300B9021201220EBA0212012273BA02120149
:1013730022CEBA021201222FBB0212012270BB023B
:1013830012012273BB02120122C2BB02120122CE3E
:10139300BC021201226CBD02120122B8BD0212016D
:1013A30022DDBD0212012215A303120122DFA403D1
:1013B3001201224CA503120122F3AF0312012248AA
:1013C300B003120122B6B00312012226B1031201A7
:1013D3002245A8031201226FA80312012244A90384
:1013E30012012238AA03120122B3D0021201227081
:1013F300D102120122ABD102120122D3D102120176
:101403002235D20212012281D202120122DAD20241
:101413001201226BD3021201226DD4021201222A7D
:10142300D602120122ACD60212012211D7021201F6
:101433002228D70212012238D80212012276D802BA
:1014430012012225E801120122AFEB01120122371A
:10145300ED011201228EED01120122ADED01120107
:10146300222BEE01120122C9EF01120122ADF0017C
:1014730012012297F40112012267F501120122548D
:10148300AE0312012284AE031201229CAE031201A9
:1014930022EBAE03120122F0AE03120122BCAF0312
:1014A300120122CF7F00120122D3FF02E0667010E7
:1014B30008A3E066700A08A3E066700408A3E06668
:1014C30022C008C3E096F50808A3E096420808A3E3
:1014D300E096420808A3E0964208A2D265D033E51D
:1014E300087001D3D00822C3E7960809E7960809D4
:1014F300E7960809E79622C3E09608A3E09608A3B7
:10150300E09608A3E09622C008C3E096F50808A376
:10151300E096420808A3E096420808A3E09645082F
:101523007001D3D00822080808EAC0E0EBC0E086C7
:10153300F0E7A4FA180986F0E7A42AFA180986F056
:10154300E7A42AFA180986F0E7A42AFA1986F0E72D
:10155300A4FBE5F02AFA190886F0E7A42BFBE5F0D3
:101563003AFA190886F0E7A42BFBE5F03AFA1818C3
:101573000986F0E7A4C5F02BFBE43AFA1908E7C59E
:10158300F0C6A426F6E5F03BFBE43AFA1886F0E74A
:10159300A4F6E5F00826F6E43B08F6E43A08F6D0AC
:1015A300E0FBD0E0FA22E4CFC0E0E4CEC0E0E4CD3B
:1015B300C0E0E4CCC0E075F020E626F608E633F69A
:1015C30008E633F608E633F6181818EC33FCED3367
:1015D300FDEE33FEEF33FFC3EC9709ED9709EE976A
:1015E30009EF97191919400FFFEC97FC09ED97FDC7
:1015F30009EE97FE191906D5F0BFECF709EDF709C7
:10160300EEF709EFF7191919D0E0FCD0E0FDD0E0AF
:10161300FED0E0FF22E4C396F608E496F608E496CB
:10162300F608E496F6226016080808C6C313C6181F
:10163300C613C618C613C618C613C6D5E0EA227069
:1016430009080808226016181818C6C333C608C646
:1016530033C608C633C608C633C6D5E0EA22E62732
:10166300F60809E637F60809E637F60809E637F615
:1016730022E026F608A3E036F608A3E036F608A330
:10168300E036F622E026F008A3E036F008A3E036C1
:10169300F008A3E036F022C3E697F60809E697F6CA
:1016A3000809E697F60809E697F622C3E096F008DC
:1016B300A3E096F008A3E096F008A3E096F022E6F4
:1016C30057F60809E657F60809E657F60809E657F4
:1016D300F622E056F608A3E056F608A3E056F6080D
:1016E300A3E056F622E056F008A3E056F008A3E084
:1016F30056F008A3E056F022E0F608A3E0F608A3AC
:10170300E0F608A3E0F622E6F008A3E6F008A3E675
:10171300F008A3E6F022E0FAA3E0FBA3E0FCA3E0D9
:10172300FD22EAF0A3EBF0A3ECF0A3EDF022E0F846
:10173300A3E0F9A3E0FAA3E0FB22E8F0A3E9F0A316
:10174300EAF0A3EBF022CAC0E0E6F0A308DAFAD08D
:10175300E0FA22CAC0E0E0A3C582CCC582C583CD2E
:10176300C583F0A3C582CCC582C583CDC583DAE624
:10177300D0E0CA22C3E498F8E499F91217B8802696
:10178300C3E49AFAE49BFBE920E7E91217B8E4986B
:10179300F8E499F922C3E498F8E499F91217B8E444
:1017A30098F8E499F9C3E49AFAE49BFB22EB20E767
:1017B300CFE920E7E0B90010BB0008E88AF084F81D
:1017C300AAF022E4FBC8FA22EB70227B10C833C8CC
:1017D300C933C9335007C39AC3DBF280069A500159
:1017E3002ADBEAC833F4C8C933F4C9FA2275F0080E
:1017F300E4C833C8C933C933C99AC99B5004C92A39
:10180300C93BD5F0ECFBC833F4C8E4C9FA22600D38
:1018130008C6A2E713C618C613C6D5E0F322600CA8
:1018230008C6C313C618C613C6D5E0F42270042233
:10183300600D18C6C333C608C633C6D5E0F41822F4
:10184300251810AF08F518400C15198008F5184035
:10185300021519D2AF2200C0D0251810AF08F51811
:10186300500C05198008F51850020519D2AFD0D0D5
:10187300222518F58210AF08F518400C15198008B9
:10188300F51840021519D2AF851983222518F58260
:10189300E43519F583222518F8E43519F9222518BA
:1018A300FAE43519FB222518FCE43519FD22E4730B
:1018B3002518C582C0E0E51934FFC583C0E0E518EB
:1018C300C3958224F810AF08858319858218800890
:1018D300858319858218D2AFCEF0A3E520F0A378D3
:1018E30008E608F0A3DEFAEFF0A3E58124FAF8E6B0
:1018F30008F0A3E608F0A3E608F0A30808E608F05A
:10190300A3E608F0A315811581D0E0FED0E0F81519
:101913008115811581E8C0E0EEC0E0222518C5825B
:10192300C0E0E51934FFC583C0E0E518C395822400
:10193300F910AF0885831985821880088583198576
:101943008218D2AFCEF0A3E520F0A37808E608F022
:10195300A3DEFAEFF0A3E58124FBF8E608F0A3E6A3
:1019630008F0A30808E608F0A3E608F0A31581151C
:1019730081D0E0FED0E0F815811581E8C0E0EEC02B
:10198300E022851983851882E0A3FEE0A3F5207881
:1019930008E0A3F608DFFAE0A3FFE0A3C0E0E0A3BA
:1019A300C0E0E0A3C0E0E0A3C0E0E0A3C0E010AF6C
:1019B300088582188583198008858218858319D242
:1019C300AFD083D08202011F851983851882E0A3DB
:1019D300FEE0A3F5207808E0A3F608DFFAE0A3FF12
:1019E300E0A3C0E0E0A3C0E0E0A3C0E0E0A3C0E068
:1019F30010AF08858218858319800885821885832E
:101A030019D2AFD083D08222C0D02518C582C0E0BE
:101A1300E51934FFC583C0E0E518C3958224F310AC
:101A2300AF088583198582188008858319858218F4
:101A3300D2AFC8F0A3E9F0A3EAF0A3EBF0A37908CF
:101A4300E709F0A3D8FAECF0A3EDF0A3EEF0A3EFCF
:101A5300F0A3D0E0F0A3D0E0F0A3D0E0F0A3E52022
:101A6300F0A3E5F0F0A322851983851882E0C0E096
:101A7300A3E0F9A3E0FAA3E0FBA37808E0F608A348
:101A8300DFFAE0FCA3E0FDA3E0FEA3E0FFA3E0C0D8
:101A9300E0A3E0C0E0A3E0F5D0A3E0F520A3E0A33A
:101AA300F5F010AF0885831985821880088583199E
:101AB300858218D2AFD082D083D0E0F8D0E03274E0
:101AC300048006740280027401C0E0F404121874E6
:101AD300D0E0121749227404800474028000CCC041
:101AE300E0EDC0E0E518C39CCCAD1950011D10AF6B
:101AF300068C188D1980068C188D19D2AF121756C3
:101B0300D0E0FDD0E0FC22D083D082E9C0E0E493B2
:101B1300A3C386F0C5F095F0F908E493A386F0C556
:101B2300F095F0700BE493A3C3994005E904800298
:101B3300A3E475F002A42582F582E5F03583F583ED
:101B4300D0E0F9E493A3C0E0E493C0E022D083D0D3
:101B530082ECC0E0EDC0E0E493A3FCE493A3FDEDCD
:101B63004C600D121B9CEC24FFFCED34FFFD80EF59
:101B7300E493A3FCE493A3FDED4C600D121BDBEC9B
:101B830024FFFCED34FFFD80EFD0E0FDD0E0FCE46A
:101B930093A3C0E0E493C0E022C0E0C3E4939608BB
:101BA3007401939618400FE49366700808740193C8
:101BB300661870007019A3A3C3E493960874019385
:101BC3009618A3A3400DD0E0D0E0D0E0021B8CA375
:101BD300A3A3A3A3A3D0E022C0E0C0F088F0E493C2
:101BE3006670080874019366187000A8F0A3A370C8
:101BF3000BD0F0D0E0D0E0D0E0021B8CA3A3D0F058
:031C0300D0E0220C
:101C080074F512191FEAFEEBFFEE2434F8EF3400E6
:101C1800F988088909EE2435F582EF3400F583E068
:101C2800F8EE2437F582EF3400F583E0F50AEC8509
:101C38000AF0A4FCAAF0850AF0EDA42AFDE82CF825
:101C4800E43DF97A257B001217B8EA8508828509F0
:101C580083F0F8740758F97401B900028004C3339B
:101C6800D9FCFAE8131313541FF8EE28F8EF3400E0
:101C7800F9E8245DF582E93400F583E05A6008EE5E
:101C88002434F582EF802CEE2434F582EF3400F50D
:101C980083E0C0E0EE2436F582EF3400F583E0F50A
:101CA800F0D0E084A8F0EE28F8EF3400F9E8243802
:101CB800F582E93400F583E0F97F040219CB74F565
:101CC80012191FEAFEEBFFEE2434F582EF3400F51B
:101CD80083E0C0E0EE2435F582EF3400F583D0E0F0
:101CE800F08E828F83A3A3A3A3A3A3A3C082C083E0
:101CF8008E828F83A3A3A3A3A3E0F8A3E0F9D083E4
:101D0800D082E0C398F508A3E099F509EE247FF5A1
:101D180082EF3400F583E064017069EE2480F58277
:101D2800EF3400F583E0F8A3E0F98E828F83A3A354
:101D3800A3A3A3A3A3E0FCA3E0FD8E828F83A3A3A8
:101D4800A3A3A3E0FAA3E0FBC3EA9CEB9D5010C356
:101D5800EC98ED99402EC3EA98EB995027800EC372
:101D6800EA98EB994007C3EC98ED9940177CDC7D25
:101D780004EEFAEFFB120C03EE247FF582EF340039
:101D8800F583E4F0EE2434F8EF3400F9E8FCE9FDDB
:101D9800EE2435F582EF3400F583E0F8EE2437F5CC
:101DA80082EF3400F583E0F50AE508850AF0A4F52A
:101DB80008AAF0850AF0E509A42AF509E82508F833
:101DC800E43509F97A257B001217B8EA8C828D83ED
:101DD800F0F8740758F97401B900028004C333D9C4
:101DE800FCFAE8131313541FF8EE28F8EF3400F93F
:101DF800E8245DF582E93400F583E05A6008EE24B2
:101E080034F582EF802CEE2434F582EF3400F5832C
:101E1800E0C0E0EE2436F582EF3400F583E0F5F01B
:101E2800D0E084A8F0EE28F8EF3400F9E82438F57B
:101E380082E93400F583E0F912271D021CC1C08233
:101E4800C083851882851983E0F8A3E0F9C3EA9C6A
:101E5800EB9D5010C3EC98ED99401BC3EA98EB99A1
:101E68005014800EC3EA98EB994007C3EC98ED999B
:101E78004004790180027900D083D08222EAC39C91
:101E8800FAEB9DFB2274EF12191F9003A2E064087D
:101E98006005E06407702A9061C8E060249003D070
:101EA800E0F4601DE0F875F003A4C8AAF02AF974FC
:101EB800D228FE740339FF8E828F83A3A3A3E07018
:101EC80003021FBD906060E0C0E0EE2468F582EF79
:101ED8003400F583D0E0F0750C45750D05750800E4
:101EE800750900E5D914F50AE5D95403F50E60170C
:101EF8007403650E605CE50A6010EE2467F582EFF6
:101F08003400F583E07003021FA2900540E06401ED
:101F1800602AEE2482F582EF3400F583E0600478CD
:101F28000480027800850A08E508C398FA95E0FB62
:101F3800120AD78A088B09EA45097005120DF5803F
:101F480074EE2482F582EF3400F583E070048A0C85
:101F58008B0DE50A6012850C82850D83F50BE5D99A
:101F6800F0A3150BE50B70F6EE2482F582EF340032
:101F7800F583E0604474FC250AF50A780C121AC649
:101F8800AC0AA90EEEFAEFFB120C9F740212185954
:101F9800E97026AA08AB091213BF793D8E828F8398
:101FA800A3A3A3A3E0FA7B001209ABEEFAEFFB129E
:101FB8000C1B120CB1790080747403650E60568591
:101FC8000A107511007810121AC6AC0CAD0DAA08CB
:101FD800AB09120C7B7402121859EE2468F582EFD3
:101FE8003400F583E064807004747F8001E0F50CB0
:101FF800780C121ACAE50EF50C780C121ACAA90A3E
:10200800AC08AD099003D0E0FA7B0012096F7402A6
:1020180012185980139003A2E06408600BAC0CAD51
:102028000DEEFAEFFB120D0B120E0179017F0A0279
:1020380019CB74F512191F74FC121843EAFEEBFF52
:102048008908A2AFE433F509C2AF806AEE2463F8C9
:10205800EF3400F97A007B00A2AFE433F50AC2AF8F
:1020680088828983E0FCA3E0FDEC4D603A88828990
:1020780083E0FAA3E0FB8A828B83E0FCA3E0FD887F
:10208800828983ECF0A3EDF08A828B83E4F0A3F0DD
:1020980088828983E0FCA3E0FDEC4D700A88828980
:1020A80083A3A3E4F0A3F0E50AA2E092AF1213BF62
:1020B8009004E3E004F0EE2463F582EF3400F58346
:1020C800E0F8A3E0F9E849603DEE2463F582EF34D7
:1020D80000F583E02402FAA3E03400FBEA2402F5C9
:1020E8000AEB3400F50B780A121AC68A828B83E051
:1020F800FCA3E0F9EEFAEFFB120C3F740212185938
:10210800E970030220549004E3E060639004E4E083
:10211800F89004E3E0C398500C740265087050907E
:1021280004E5E0604A8E828F83A3A3A3A3E0851809
:1021380082851983F0A3E4F09004E3E0F8740212B6
:10214800188FE8F0A3E4F09004E3E0F89004E2E0EC
:1021580028F0740212188FAC82AD83851882851915
:1021680083AA82AB83790112097B9004E3E4F0E54A
:1021780009A2E092AF7404121859021CC1000000B1
:102188008521878522C622C0E0C0D0E8C0E0E9C02A
:10219800E0EAC0E0EBC0E0ECC0E0EDC0E0EEC0E09B
:1021A800C008C009C00AC00BC082C083C0F0A2AF7B
:1021B800E433FEC2AF759B00906182E0A2E050124A
:1021C800E591A2E0500C7591FE740165217003122F
:1021D8001E8DE0A2E55051E591A2E5504B7591DFC7
:1021E8009003A2E064076005E06408702374016549
:1021F80021703579019003D0E0FA75F003A4CAA8DC
:10220800F028FB74D22AFA74033BFB12203A801898
:10221800E0640D70139003C4E004F064287002E4D5
:10222800F07A00E0F9120E07906182E0A2E640031E
:102238000222D6E591A2E640030222D67591BF900C
:1022480003A2E064057008120D35120D41800312D7
:102258000D3B752100120D95E99003A3F07900124A
:102268000D89120B797A017B009003A1E0F9121015
:1022780071907803E064427055900544E014F07062
:102288004DC2AF12228E00782AD0E0F618D0E0F6C0
:10229800E59F540770057509FF800375097FC4C061
:1022A800E07829E6F50808E65509F509740B780879
:1022B800121821D0E02508F8906270E0A2E740F8F3
:1022C800E8C333906272F0906270E0D2E0F09061FF
:1022D80081E0A2E35009E5E9A2E3500375E9F7A319
:1022E800E0A2E75009E591A2E7500375917FEEA2BD
:1022F800E092AFD0F0D083D082D00BD00AD009D0F2
:1023080008D0E0FED0E0FDD0E0FCD0E0FBD0E0FA61
:10231800D0E0F9D0E0F8D0D0D0E032C0E0C0D0C0F2
:1023280082C083906183E0A2E05009E5BFA2E0503B
:102338000375BFFEE0A2E15009E5BFA2E1500375B5
:10234800BFFDE0A2E25009E5BFA2E2500375BFFB62
:10235800E0A2E35009E5BFA2E3500375BFF7E0A28E
:10236800E45009E5BFA2E4500375BFEFE0A2E550D1
:1023780009E5BFA2E5500375BFDFE0A2E65009E515
:10238800BFA2E6500375BFBFD083D0828088C0E06B
:10239800C0D0E8C0E0E9C0E0EAC0E0EBC0E0ECC0D3
:1023A800E0EDC0E0C0F0E5A7A2E6500FE5A1A2E687
:1023B800500953A7BF75A1BF1223FBE5A7A2E5509B
:1023C8000CE5A1A2E5500653A7DF75A1DFE5A7A29A
:1023D800E15009E5A1A2E1500375A1FDE5A7A2E23C
:1023E800500CE5A1A2E2500653A7FB75A1FBD0F063
:1023F80002230C74F812191F7521019003A2E064DE
:10240800067015120CCF8A828B83A3A3A3A3A3A360
:10241800E0FAA3E0FB120D23A2AFE433FED2AF90A3
:1024280003A8E0640170187A207B009003A1E0F90A
:102438001210EF7A207B009003A1E0F91210779038
:102448006182E0D2E6F0900541E0602185C62280F5
:10245800169003A7E064017008E5C654F84405F532
:10246800C653BEFC1221887401652160E4EEA2E027
:1024780092AF7F010219CB008E238F248582288595
:102488008327851882851983E0CEA3E0CF8528822B
:10249800852783EBC9EAC8EDCBECCA75F010C3E811
:1024A80033C8E933C9EA33CAEB33CBC3EA9EF5260E
:1024B800EB9FF525B35004AB25AA26EC33CCED33BE
:1024C800CDD5F0DAAE23AF242274ED12191F8A0895
:1024D8008B098C0A8D0B741312188F780C1216FB4B
:1024E8007808790C1214EA7510017511C875120074
:1024F80075130050127808790C12169A781079081A
:102508001214EA50168010780C790812169A78106E
:10251800790C1214EA40047901800279007F0C02D8
:1025280019CB74ED12191F8A088B098C0A8D0B744C
:102538001312188F780C1216FB780C79081214EA0B
:1025480040117808790C12169AAA08AB09AC0AADA2
:102558000B80227510007511007512007513017833
:1025680010790C12169A78107908121661AA10AB15
:1025780011AC12AD1380A68A828B837508FF75098A
:10258800FF750AFF750B0078081216E87F04021918
:10259800CB74F512191F8C828D8378081216FB8A6A
:1025A800828B8378081216AEEA2404F8EB3400F91B
:1025B8008C828D83A3A3A3A3E0FCA3E0FD8882897A
:1025C80083C3E09CF0A3E09DF088828983C3E094F4
:1025D80020A3E0944E40268A828B837508FF7509F4
:1025E800FF750AFF750BFF78081216878A828B839E
:1025F800A3A3A3A3E02420F0A3E0344EF002257F98
:1026080074F512191FE9FE9004F7E0FAA3E0FBEE57
:10261800C333F8E433F974EC28F582748239F5830E
:10262800E02AF508A3E03BF5097808121AC67A40B3
:102638007B427C0F7D0012248074021218598A088C
:102648008B098C0A8D0B74107808121629AA08AB0E
:10265800097F040219CB74F112191F8A0C8B0D8C97
:102668000E8D0F740F12188FE0FAA3E0FB7411128D
:10267800188FE0F508A3E0F5097808121AC6EA24CD
:1026880001F508EB3400F509E4F50AF50B780C7947
:1026980008121529750871750902780C7908121540
:1026A80029AA0CAB0DAC0EAD0F12248074021218BF
:1026B800598B09EA450960047A0180027A00EC2AFC
:1026C800FCED3400FD741312188FE0F8A3E0F9E86C
:1026D800FEE9FFECF8EDF97A717B021217B8880869
:1026E80089098E828F83780812170AECF8EDF97A37
:1026F800717B021217B88A088B09740578081218BA
:10270800308E828F83A3A3A3A3E508F0A3E509F085
:102718007F080219CBC082C083E9906000F0D083A3
:10272800D08222C2AF02000022C0E074F2121A0B5B
:10273800A2AFE433FED2AFE589A2E1500312129FA3
:10274800758900C2C5EEA2E092AF7F01021A6AC085
:10275800E074F2121A0BA2AFE433FED2AFE58BA2FB
:10276800E0500312129F758B00C2E880D8C0E0C009
:10277800D0E8C0E0E9C0E0E5A8D2AFC2C7A2E7A2AE
:10278800E792AFD0E0F9D0E0F8D0D0D0E032C0E0A6
:10279800C0D0E8C0E0E9C0E0EAC0E0C082C083A2DF
:1027A800AFE433FAD2AFE5F9C0E0900910E0F8746D
:1027B8008F28F582E43408F583D0E0F090090FE023
:1027C800F8A3E0687006E595900912F0900910E00A
:1027D80004F0C394804002E4F0A3E4F0EAA2E0929B
:1027E800AFD083D082D0E0FAD0E0F9D0E0F8D0D0F2
:1027F800D0E032C0E0C0D0E8C0E0E9C0E0C008C026
:1028080009C082C083A2AFE433F9D2AF900993E044
:10281800F8A3E0687008539AF7A374018025C2EA08
:10282800900993E0F50874012508F074132508F55C
:1028380082E43409F583E0F5F9900993E0C39480C4
:102848004002E4F0E9A2E092AFD083D082D009D070
:0328580008809560
:10285C00FFFFFFFFFFFFFFFFC082C083E9900D2A3F
:10286C00F0022A8E74F71218B3E99002E1F07C1989
:10287C007D037AFF7BFF1208CD9002E274FFF0A378
:10288C00F0A3E4F0A3F0790512085B9002E1E0F903
:10289C0012077D7AE57B08120A897F01021985747B
:1028AC00F41218B38A088B09EB548060309002E163
:1028BC00E0F91210598A0A8B0BAE0AAF0BEE4F607F
:1028CC00138E828F83E064B0700312086DEEFAEF02
:1028DC00FB121047AA08E5096480FB80047A007B90
:1028EC0000022A5D74F21218B374FC121843EAFE4B
:1028FC00EBFFEE4F6038740212188FEEF0A3EF125C
:10290C002CC2ECF0A3ED122CC2AA82AB8312077777
:10291C00E9F5087073741212188F123876E50A45AF
:10292C000B60658E828F8312299EEE4F70057508A1
:10293C000280557A067B001210AD8A0C8B0DA80C08
:10294C00A90DE8497005750813803D88828983E4D8
:10295C001229A8A3A3EEF0A3EF123D0FE50AF0A3F2
:10296C00E50BF09002E7122A309002E76017E0FCCA
:10297C00A3E08003EAFCEBFD8C828D83122A30707D
:10298C00F38C828D8312379BA90874041218590298
:10299C003F11A3A3A3A3E0FEA3E0FF22F0A3F088C2
:1029AC008289832274F21218B3890AE975F017A48C
:1029BC00FEAFF09002E6E4F09002E4122A30600AD6
:1029CC001210B39002E4E4F0A3F0EEFAEFFB121055
:1029DC00AD8A088B09EA4509602FEEFCEFFD790002
:1029EC001210359002E4E508F0A3E509F07B0080B5
:1029FC0008122A1AE4F0A3F00BEBC3950A40F2E597
:102A0C000A9002E6F0790080027913023F11EB750F
:102A1C00F017A4F8A9F09002E4E028FAA3E0398AB0
:102A2C0082F58322123531EA4B2274F41218B379F1
:102A3C0000EAA2E0501B75087A7509837808121A0F
:102A4C00C67C047D007A2C7B0D120855740212187A
:102A5C00597F04021985C082C0839002E7122A951F
:102A6C00601C88828983A3A3E06A7003A3E06B884F
:102A7C0082898370E8A3A3A3A312352D80047A0066
:102A8C007B00D083D08202011F123FE4E8492274FC
:102A9C00EE1218B374FC121843EAFEEBFF85188291
:102AAC00851983E4F0A3F0EE240212377FEE24059F
:102ABC00122CB0EE2404F50EEF123095E024FE60DB
:102ACC003924FC604624FE605224FE605E24FE70B5
:102ADC0003022BB524FE7003022C2D24FE7003027E
:102AEC002C3C24FE7003022C4B24FC7003022C5A49
:102AFC0024FE7003022C69022CA69003007417F0BC
:102B0C00A3E4122CCA1204F5022CA685188285198E
:102B1C0083AC82AD83120873022C768518828519DA
:102B2C0083AC82AD83120879022C76850C08850D56
:102B3C0009740212188FAC82AD83850882850983D3
:102B4C0012352D12079B8A0C8B0DAC0CAD0DEC4D78
:102B5C006042E4F50CF50D780C121AC6750C007574
:102B6C000D03780C121AC6750C01750D03780C1236
:102B7C001AC6740812188F121ADD7916123527121C
:102B8C0008B57408121859E9F50C700B123523129C
:102B9C00050D800F750C01850882850983122CB8F0
:102BAC0012379B850C08022C79740212188FAC8298
:102BBC00AD83850C82850D8312352D12079B8A10EF
:102BCC008B11AC10AD11EC4D6043850C82850D83DF
:102BDC00A3A3121ADD7510007511037810121AC612
:102BEC007510017511037810121AC6740812188F1B
:102BFC00121ADD79161235271208B57408121859F5
:102C0C00E9F509700B123523120513800F750901B4
:102C1C00850C82850D83122CB812379B8509088090
:102C2C004C851882851983AC82AD8312087F803A5B
:102C3C00851882851983AC82AD83120885802B851B
:102C4C001882851983AC82AD8312088B801C851881
:102C5C0082851983AC82AD83120891800D85188210
:102C6C00851983AC82AD83120897E9F508E50860F5
:102C7C00298E828F83A3E06414601F850E82850FDA
:102C8C0083E0900300122CC2123FE0900301123734
:102C9C009BE508A3122CCA1204EFEEFAEFFB120804
:102CAC0019023687F50CEF3400F50D22123FE4853E
:102CBC00188285198322F085188285198322F07C6D
:102CCC00007D03850A82850B831235312274EE1246
:102CDC0018B374FC1218438A0A8B0B8C0E8D0FEAF6
:102CEC002405F508EB3400F5097C157D0079007A94
:102CFC00007B03121035E5082402F50CE509122CB3
:102D0C00B3851882851983858210858311781012FA
:102D1C001AC6850882850983A3A3A3A31231DD12E9
:102D2C001AC6E5082405F510E5093400F5117810EC
:102D3C00121AC6850C82850D8312353712079574CD
:102D4C00061218598A108B11AE10AF11E50A240225
:102D5C00F50AE50B123782EE4F7003022E9F801797
:102D6C00740212188F12352D88828983EAF0A3EB36
:102D7C00F0900300E004F0900300E0C394054003DE
:102D8C00022E9FE4F510F5117810121AC67510E991
:102D9C007511027810121AC67510EA7511027810A6
:102DAC00121AC6740612188F121ADD7910EEFCEF87
:102DBC00FD1235271208B57408121859E9705E8592
:102DCC000882850983A3A3A3A3A3A3A3E0F890027D
:102DDC00E9E06870481231DD121AC67CEA7D02E522
:102DEC00082408FAE5093400FB12102F740212189B
:102DFC0059E960298E828F83A3A3A3A312352D904A
:102E0C000300E0F5107402781012183074012510CC
:102E1C00F58274033511F583EAF0A3EBF07402121A
:102E2C00188F8582108583117810121AC6740212BD
:102E3C00188F121ADD850C82850D83123FF512074F
:102E4C00A174041218598A108B11AE10AF11900393
:102E5C0000E0F5107511007402781012183074002F
:102E6C002510F874033511F988828983A3122A304E
:102E7C007003022D63E82403F8E93400F9EE4F6087
:102E8C0003022D6C8882898374FFF0A3F0900300F9
:102E9C00E004F0900300E0600A123523120501797A
:102EAC0000800B850882850983123792790A0236D5
:102EBC008774EA1218B374FE1218438C128D13EA3D
:102ECC002405F50CEB123FFF1229A27508007509B9
:102EDC0000EA2402F510EB3400F5118518828519EF
:102EEC008385820A85830B780A121AC6850C828523
:102EFC000D83A3A3A3A312309F121AC6E50C2405BD
:102F0C00F50AE50D123782780A121AC6850C8285ED
:102F1C000D83123FF312079574061218598A0A8B07
:102F2C000BEA450B7003023050EA2404F50EEB1249
:102F3C0030951229A28A828B83A3A3A3E0F9851072
:102F4C008285118312352D120783E9F5096003027E
:102F5C003050E4F514F5157814121AC67514E97589
:102F6C0015027814121AC67514EA75150278141223
:102F7C001AC6740612188F121ADD7913AC0AAD0B2F
:102F8C0085108285118312352D1208B5740812181C
:102F9C0059E9F50960030230509002E9E0F8E508C0
:102FAC007009E02402900301F08017900301E0FC0B
:102FBC00E82402FAE43400FBEA6C7001EB600302D3
:102FCC003054850882AA821231D494141231CC5018
:102FDC0073850E82850F83E0C0E074022A12308C58
:102FEC00D0E0F00508850E82850F83A3E0C0E08554
:102FFC00080A7402250A12308CD0E0F00508900201
:10300C00E912309F121AC67CEA7D0285080A740206
:10301C00250AFA74033400FB12101D74021218599D
:10302C009002E9E02508F50874FF6E700374FF6FD9
:10303C006012EE24010EEF3400FFE508C394145027
:10304C0003022EE7E50860131234188510828511EF
:10305C008312352D12050779008014E5097003756C
:10306C00090A851282851383EEF0A3EFF0A9097487
:10307C00021218597F0E02198585080C7402250C52
:10308C00F58274033400F583223400F50F850E822B
:10309C00F58322123D222274EE1218B374FE12181C
:1030AC00438C0E8D0FEA2405F50CEB122CB3750B2B
:1030BC0000900300E4F0F50AEA2402F508EB340072
:1030CC00F5098049900300E0FA9002E9E0F812312A
:1030DC00D494171231CC400D900300E0F87416C351
:1030EC00989002E9F01231DD121AC67CEA7D027466
:1030FC00012AFA74033400FB12101D7402121859C1
:10310C009002E9E0F8900300E028F0050AE50C24B1
:10311C0016F582E50D123090E0F8E50AC3984003ED
:10312C000231B5900300E0C39416507DE50AC33319
:10313C00F8E433F9E50C28FEE50D39FF8518828596
:10314C001983AC82AD838E828F8312352D12079B2F
:10315C008A108B11AC10AD11EC4D7005750B018004
:10316C0043E4F510F5117810121AC67510E97511B3
:10317C00027810121AC67510EA7511027810121A1C
:10318C00C6740612188F121ADD7916850882850905
:10319C008312352D1208B57408121859E9F50B7005
:1031AC00030230D012378E80107C007D038508829C
:1031BC0085098312352D120519A90B740202368963
:1031CC00E99400C365D03322EA28F8E43400F9E826
:1031DC0022E0F51075110078102274EA1218B374FD
:1031EC00FC1218438A0C8B0D8C128D13EA2405F5F6
:1031FC000AEB123782750800750900E50A2402F5FE
:10320C0010E50B3400F511740212188F85820E85AF
:10321C00830F780E121AC6850A82850B83A3A3A38B
:10322C00A3123CCE121AC6E50A2405F50EE50B34A2
:10323C0000F50F780E121AC685108285118312378D
:10324C008812352712079574061218598A0E8B0F9F
:10325C00AE0EAF0FE50C2402F50EE50D3400F50FA4
:10326C0080408882898374FFF0050812308574FFD2
:10327C00F005089002E9E0F50C750D00780C121AB7
:10328C00C67CEA7D0285080C7402250CFA740334A2
:10329C0000FB12101D74021218599002E9E0250867
:1032AC00F508EE4F60718E828F83A3A3A3E0F9859E
:1032BC000E82850F8312352D120783E9F509EE2452
:1032CC0004122CB0E97044E4F514F5157814121AB4
:1032DC00C67514E97515027814121AC67514EA75B8
:1032EC0015027814121AC6740812188F121ADD7986
:1032FC0011EEFCEFFD850E82850F8312352D120821
:10330C00B57408121859E9F5096027850C82850DEA
:10331C008312340E12379BE50870030233F4123417
:10332C0018850E82850F8312352D12051F79000228
:10333C003409850882AA82EA9002E97009E0240423
:10334C00900301F08022E0F8900301E0F514E824EA
:10335C0004FCE43400FDEC65147001ED70C0123116
:10336C00D494121231CC50B6850C82850D83E0C0FA
:10337C00E074022A12308CD0E0F00508850C8285AE
:10338C000D83A3E0C0E0123085D0E012342A858290
:10339C000C85830D780C121AC6740412188F121A2D
:1033AC00DD851082851183123FF51207A17404127A
:1033BC0018598A0C8B0DAE0CAF0D85080C740225B8
:1033CC000CF874033400F9EE4F700302326E85185A
:1033DC0082851983E08882898312342AA3E0C0E0B5
:1033EC00123085D0E002327CE509700375090A853C
:1033FC000A82850B8312340E12379BA909740402BE
:10340C00307D123FE485128285138322900301E004
:10341C00F5F0E50884900300F07C007D0322F005B4
:10342C00088518828519832274EC1218B374FE1265
:10343C0018438A088B098C0E8D0FEA2405FEEB3499
:10344C0000FF851882851983AC82AD838E828F83B1
:10345C0012352D12079B8A0A8B0BEE2418122CB0F6
:10346C00EA450B70030234FE123670503285188216
:10347C0085198312352D1208A98A108B11EA451172
:10348C00606B7912AC0AAD0B850882850983123505
:10349C002D8510828511831218B1E9F50A7058E454
:1034AC00F50AF50B780A121AC68E828F83A3A3E055
:1034BC00F50A780A121AC6EE240312377F780A121C
:1034CC001AC68E828F831235371208BB74061218F7
:1034DC0059E9F50A7021850C82850D83E0701F85F2
:1034EC00088285098312352D1205258011750A0E67
:1034FC008009750A018004E50A600312378E850C79
:10350C0082850D83E0600479008002A90A7402129E
:10351C0018597F0C0219857C007D03850A82850B66
:10352C008312353122E0FAA3E0FB22E0FCA3E0FD9C
:10353C008508828509831235312274EE1218B37412
:10354C00FE1218438A088B098C0C8D0DEA2405FE9B
:10355C00EB3400FF750E00851882851983AC82ADA3
:10356C00838E828F8312352D12079B8A0A8B0BEA6E
:10357C00450B700302365C12367050358518828507
:10358C00198312352D1208A98A0E8B0FEA450F608C
:10359C005E7912AC0AAD0B85088285098312352D34
:1035AC00850E82850F831218B1E9F50E6003023681
:1035BC005F850882850983123876AA0AFB12089D5A
:1035CC008A108B11A810A911E849701E7AFF7BFF95
:1035DC0012089D8A108B11A810A911E849606C88FB
:1035EC00828983E50AF0A3E50BF0750A0080077564
:1035FC000E0E805F050A9002E6E0FAE50AC39A50C7
:10360C004AE50A75F017A4FAABF088828983A3A364
:10361C00E02AFAA3E03BFB8A828B83123788EC4DBD
:10362C0070D2750A17750B00780A121AC6EEFCEFE9
:10363C00FD12101D7402121859EEFCEFFD85088264
:10364C0085098312352D12052B8014750E09800304
:10365C00750E01123FDC850C82850D8312379BA9F8
:10366C000E0231C7E5082402F508E5093400F50916
:10367C008A828B83A3A3A3E0A2E5227404121859B7
:10368C007F0A02198574EC1218B38C108D11EA2480
:10369C0005F50CEB122CB3750F00EA2402F50AEBBE
:1036AC00123782850A82F58312352D12089D8A08FD
:1036BC008B09EA45097003023774750E0080718519
:1036CC000C82850D83E06401704F8E828F83A3A3DF
:1036DC00121ADD8E828F83A3A3A3A3E0F5127513B8
:1036EC00007812121AC6EE2405F512EF3400F51309
:1036FC007812121AC61235271208BB740612185902
:10370C00E9F50F6014850C82850D83E4F0123FDC23
:10371C0085108285118312379B7C177D007900EE12
:10372C00FAEFFB1210358E828F83E4F0A3F0050EB6
:10373C009002E6E0F8E50EC398501EE50E75F01702
:10374C00A4F8A9F0850882850983A3A31240091265
:10375C003788EC4D60030236CB850882850983746B
:10376C00FFF0A3F0E50F7006123527120531A90FF3
:10377C0002351EF50AEF3400F50B22A3E0FCA3E0A2
:10378C00FD228E828F83123FE4850E82850F83E8A3
:10379C00F0A3E9F022C082C0839002E2E06A7003D9
:1037AC00A3E06B70067AE27B0280047A007B000255
:1037BC002A8EC082C08378008C828D83E06A70036D
:1037CC00A3E06B7010E875F003A4F8A9F0EC28FAEC
:1037DC00ED39FB8015088C828D83A3A3A3E06A705E
:1037EC0003A3E06B60DF7A007B00022A8E74F61272
:1037FC0018B31208678A828B83E582458370067A38
:10380C00007B008007A3A3A3A312352D023E8D7469
:10381C00F21218B3E9FE740E12188F123876741067
:10382C0012188F123CEE8C828D83E064027036A3EA
:10383C00123FEAF50CA3E0F9A80C7402687003744B
:10384C0029697021750C02750D00780C121AC67856
:10385C0008121AC6780A121AC6EEF91208DF740694
:10386C0012185980027901023F11E0F50AA3E0F524
:10387C000B2274E81218B374FB121843E9851882F2
:10388C00851983F08A168B17ECFEEDFF751000740A
:10389C001D12188F123FE0741D12188F12379B8E59
:1038AC00828F83A3A3A3E0A2E4502D741D12188F62
:1038BC0012352D1208A98A828B83E5824583700309
:1038CC00023CBF790AEEFCEFFDAA16AB171218B139
:1038DC00E9F5106003023CC2741F12188F123CEE03
:1038EC00742112188F123876742312188FE0F50E8B
:1038FC00A3E0F50F8E828F83E064026003023C6DBF
:10390C00A3123FE0850882850983A38582128583F3
:10391C0013EE2406122CB088828983E0FAA3E0F916
:10392C00EA2400F514E439F5157814121B50010043
:10393C0000280128623907000228273A0328943905
:10394C0000295E3B0129893B02292A3B03295E3B66
:10395C000429083C6D3CE50E450F6003023C68856C
:10396C000C82850D83123CE3FAE9FB8A828B83E09F
:10397C00850A82850B83123D19121AC68A828B83A3
:10398C00A3E0FCA3E0023BF2E50E450F6003023C12
:10399C0068850A82850B837401F0123CF6850882D7
:1039AC00850983F07C007D008E828F83A3A3A3A363
:1039BC00E02401FAA3E03400FB12079BEA4B6041C0
:1039CC008A828B83E02402F8850A82850B83E028A7
:1039DC00F0EA2404F8EB3400F988828983E085123C
:1039EC0082851383123D2B123D19121AC68A828BC3
:1039FC0083123787E5082403FAE5093400FB023B00
:103A0C00F7850A82850B83E02404F07C047D007921
:103A1C0000AA12AB13121035023CC2E50E450F6022
:103A2C0003023C68123CF6FEA3E0FF850A82850B7C
:103A3C00837404F0EE850882850983F0EF85128289
:103A4C00851383F0740312188FAC82AD83EEFAEFFA
:103A5C00FB12079B8A0C8B0DEA450D7003023B0B86
:103A6C008A828B83A3A312299E740112188F8582DC
:103A7C000E85830F780E121AC6740512188F121A3F
:103A8C00DD7CFF7DFF1207A174041218598B0FEA1D
:103A9C00450F7033850C82850D83123CCE121AC6ED
:103AAC00850C82850D83A3121ADD7C027D007A3C85
:103ABC007B841205CD7404121859E9700A74011232
:103ACC00188F74FFF0A3F08E828F83E0640270393C
:103ADC00750C02750D00780C121AC68E828F83122B
:103AEC003787E5082404FAE5093400FB12101D742D
:103AFC0002121859850A82850B83E024028009740E
:103B0C000112188FEEF0A3EFF0740112188F123C13
:103B1C00DFF0740112188FA3123CD7023C62E50E41
:103B2C00450F6003023C68850C82850D8312378833
:103B3C00AA16AB171208D3850A82850B837402F080
:103B4C00EA850882850983F0851282851383EB024E
:103B5C003C65E50E450F6003023C68123CF6F8A389
:103B6C00E0F9850A82850B837402F0E8850882856A
:103B7C000983F0E9851282851383023C65850C82EA
:103B8C00850D8312352D121017EAFC8C82A882C386
:103B9C00950EE4950F405FE8650E7002E50F70041A
:103BAC007C008022851882851983E0FAE50E2AFABA
:103BBC00E50F3400FBC3EA98EB94005003E080055A
:103BCC00E50ECCC39CFCEC850A82850B83F08C0A39
:103BDC00750B00780A121AC6850C82850D83E025B8
:103BEC000EFCA3E0350FFDAA08AB0912101D7402E0
:103BFC00121859023CC2751007023CC2E50E450F63
:103C0C00705A850C82850D83123FE0850A82850BE4
:103C1C008374071229AA123CD71229AAA3E0851291
:103C2C0082851383F0E82402FAE93400FB8A828B44
:103C3C0083123CD7123D06123CDFA3123D0F123CFF
:103C4C00E8F0E82405F8E93400F988828983123C0D
:103C5C00E8A3123D2BA3A3A3A3F0805A75100B80ED
:103C6C0055741D12188F12352D1208678A828B839A
:103C7C00E5824583603D123FE0880C890DE8450DD7
:103C8C006031780E121AC6780A121AC67808121AFF
:103C9C00C6740612188FE0F9EEFCEFFDAA16AB17EE
:103CAC00850C82850D831218B17406121859E9F52A
:103CBC0010800375100EA91074051218597F10028C
:103CCC001985E0F50E750F00780E22E085088285C7
:103CDC00098322123D3522123FE4E822123D35A31E
:103CEC00A322E0F508A3E0F50922850C82850D835B
:103CFC00E0F8A3E0F5838882E022A3A3F08A828B0C
:103D0C0083A322F088828983A3A3A3A322F08A82AF
:103D1C008B83123D2222E0F50A750B00780A22F003
:103D2C0088828983A3123D3522E085088285098328
:103D3C00A3A32274EE1218B374FE1218438A0A8BD2
:103D4C000BECFAEDFB741412188FE0F510A3E0F5F0
:103D5C0011741612188FE0FE741812188FE0F50EFD
:103D6C00A3E0F50F851882851983AC82AD83120709
:103D7C009B8A0C8B0DEA450D604985188285198349
:103D8C0012352D1208678A828B83E5824583602F5A
:103D9C00A3A3123CEEE50845096024780E121AC65E
:103DAC007810121AC6EEF9AC0CAD0DAA0AAB0B8545
:103DBC0008828509831218B1740412185980067987
:103DCC000E800279010231C774F61218B374FE1218
:103DDC001843740C12188F123CE3851882851983D2
:103DEC00F0740112188FE9F0E4F508F5097808125F
:103DFC001AC67508027808121AC6740412188F8530
:103E0C0082088583097808121AC61208BB74061238
:103E1C0018597402121859806874F71218B3EAFE14
:103E2C00EBFF89087C197D031208D3EA5402600B5E
:103E3C00A908EEFAEFFB12078F800279010228A67F
:103E4C0074F61218B374FF6A700374FF6B70168CDF
:103E5C00828D83123E92E4F08C828D83A3A3A312F5
:103E6C003E92A380181208A38A088B09A808A909F6
:103E7C00E849600D8882898374FF1229A8A3A3E402
:103E8C00F07F0202198574FFF0A3F08C828D83A35E
:103E9C00A32274F61218B31208A38A828B83E582CC
:103EAC0045836006A3A3E0FA80027A007B0080D1F0
:103EBC0074F21218B38A088B09ECFEEDFF740E1223
:103ECC00188FE0F50A1208A38A0C8B0DA80CA90D0B
:103EDC00E8497026EEFCEFFD7AFF7BFF1208A38AFF
:103EEC000C8B0DA80CA90DE849700479118016886B
:103EFC00828983E508F0A3E509F088828983A3A36E
:103F0C00E50AF079007F0602198574EE1218B3EAFF
:103F1C00FEEBFF8C088D09890C741412188F123F5C
:103F2C00E0741612188F12352D750D00E8496003D8
:103F3C00023FD47402650C6003023FCF7412121856
:103F4C008F123FEAFCA3E0F9EC2400F50EE439F5FE
:103F5C000FEAF4F8EBF4F9EC58F8E50F59F9E849E5
:103F6C00705CE5082406F8ED3400F9880A890B88A2
:103F7C0082F583123FF51208D38A108B11E50E657A
:103F8C00107004E50F65116042780E121AC6850A8E
:103F9C0082850B83123FF51208D97402121859E965
:103FAC00F50D7027780E121AC6850882850983A331
:103FBC00A3123FF31208EB7402121859800D750D01
:103FCC00808008750D0D8003750D0BA90D02368CC4
:103FDC008E828F83123FE422E0F8A3E0F922123F95
:103FEC00E488828983E022A3A3E0FCA3E0FDEEFA3F
:103FFC00EFFB223400F50D850C82F58322E028FEC0
:10400C00A3E039FF8E828F832274F21218B3EAFE7A
:10401C00EBFF890B7401650B600E7402650B706A03
:10402C007901120AA7E97062EEFAEFFB12089D8A79
:10403C00088B09EA45096047750A00800B7C177DDF
:10404C00007900121035050A9002E6E0F8E50AC383
:10405C00985021E50A75F017A4F8A9F08508828517
:10406C000983A3A3E028FAA3E039FB8A828B83128D
:10407C002A9570C985088285098374FFF0A3F07CAA
:10408C00197D03EEFAEFFB1208CD023F1174F21208
:10409C0018B38A088B09ECFEEDFF740E12188F1200
:1040AC003876900D2AE0F4603D7A097B00121041BD
:1040BC00EA4B60328A828B8374B1F0A3E4123D0820
:1040CC00A3123D06A3E508F0A3E5091240F5EEF0B6
:1040DC00A3EF1240F5A3A3E50AF0A3E50BF0900DB6
:1040EC002AE0F912104D023F11F08A828B83A3A3B0
:1040FC00A3A3A322C082C0839061907404F0A37424
:10410C0048F0A37402F09061807440F09061BC742C
:10411C0003F09061877419F0906265741BF09062E3
:10412C0049E0C3941390619C400A7409F090606656
:10413C0074018007740DF0906066E4F090619A74DD
:10414C0033F0A37455F09061A0743AF090053FE001
:10415C0064017009C2919003A6746780059003A650
:10416C007461F0902862E493906186F090285CE48E
:10417C0093F46027E493540FF8906185E068601223
:10418C00E5C654804449F5C6E59E547F644970F8F1
:10419C00E8F053C680E59E547F70FA7905120DE95C
:1041AC0002432EC082C083E5A8F853A87E9061819B
:1041BC00E4F0A3F0A3F0C2BA539AFEC289759B0037
:1041CC00C2C275E90075910075BF0075A91175B96A
:1041DC0005906181F0A374C0F0A3E4F0D2BA439AC5
:1041EC000174805842A802432EC082C08374F81216
:1041FC0018439003A4E0F8A3E0F9E84970030243E4
:10420C00239003A4E0544060237908851882851913
:10421C0083AA82AB83120C5D851882851983AA82CE
:10422C00AB831209579003A4E054BFF0E0548060B4
:10423C0010790C7A657B05120C5D9003A4E0547F19
:10424C00F0E0A2E0503190619A7433F0A37455F011
:10425C009061A0743AF090053FE064017009C2913E
:10426C009003A6746780059003A67461F012095D33
:10427C009003A4E054FEF0E05402603190619A7413
:10428C003FF0A3745AF09061A0747FF090053FE06A
:10429C0064017009D2919003A6747180059003A6F5
:1042AC00746AF012095D9003A4E054FDF0E054042C
:1042BC006013902860E493906186F0120963900378
:1042CC00A4E054FBF0E054086013902861E4939050
:1042DC006186F01209639003A4E054F7F0E05410E7
:1042EC006013902862E493906186F0120963900346
:1042FC00A4E054EFF0E05420600A1209639003A488
:10430C00E054DFF0A3E05401600D120B8512096933
:10431C009003A5E054FEF0740812185902432EF0D5
:10432C00A3F0D083D08202011F74EC1218B374F482
:10433C00121843851882851983AC82AD83758383EB
:10434C007582C5740412175690286093F4600302AA
:10435C0044C1907808E0C3940250030244A1740451
:10436C0012188FAC82AD8375838375824E740812DC
:10437C0017568518828519838582128583137404D8
:10438C0012188FAC82AD83750EFF750FFF7FFF7E09
:10439C0000750C48750D78801574086E7003024416
:1043AC003574096E7003024435740A6E607B850C9B
:1043BC0082850D8378081216FB8C828D83A909E502
:1043CC000AC9F8881074187808121629E5104508DF
:1043DC00F8C3E098A3E099850C82850D83780812C8
:1043EC0016FB40188C828D8374187808121629E5F8
:1043FC00104508F8E0C398F8A3E0801C74187808FE
:10440C00121629E5104508FAE9FB8C828D83E0F839
:10441C00A3E0F9EAC398F8EB99F9C3E8950EE9958E
:10442C000F5006880E890FEEFF0EE50C2404F50CD8
:10443C00E50D3400F50DEEC3941350030243A5743F
:10444C00FF650E700474FF650F60238F087402788B
:10445C000812183074482508F58274783509F583EC
:10446C0078081216FB851282851383E508F0EC247C
:10447C0002FCED3400FD851282851383A385821224
:10448C00858313740C12188FE5826C7003E5836DB1
:10449C0060030243937508017509007808121AC667
:1044AC00740212188FAC82AD837A187B0A12127BBD
:1044BC007402121859740C1218597F0C021985C009
:1044CC0082C0839061AE7468F0A3746AF090624508
:1044DC0074FBF0A304F053F4FD43FE0290053F740B
:1044EC0001F09061A0E0643A90619A70237433F00B
:1044FC00A37455F09061A0743AF0740164017009D2
:10450C00C2919003A6746780289003A674618021E1
:10451C00743FF0A3745AF09061A0747FF07401643E
:10452C00017009D2919003A6747180059003A67452
:10453C006A02432D7F08021985C082C0839004F162
:10454C00E06401700A9004F6E06004790C80027952
:10455C000002432EC082C08375E1F19004F4E06048
:10456C005B14600914605F14605714705E120B9733
:10457C009004EAE0F97AEB7B04120D6B7AD67BBEE1
:10458C007C897D8E120DA17A557B557C557D001250
:10459C000D779004F5E0F9120D837901120DDD9081
:1045AC0004E8E0F8A3E0C82416F582E83400F583AB
:1045BC0074AFF0A3740BF0790002432E120B9D80A4
:1045CC00AF120BA380AA120BA980A5791280EA74F2
:1045DC00F01218B375D90D9004D5E0A2E0E43313B2
:1045EC0013F89004EAE0C4333354C0484401F5D9BD
:1045FC0078E8790488828983A3A3A3E0F5D988821B
:10460C008983A3A882A983E864EE7003E96404702B
:10461C00E378D5790488828983A3E0F5D9888289E7
:10462C0083A3A882A983E864DB7003E9640470E5C2
:10463C0075E1959004D5E0F97AD67B04120D719052
:10464C000D4C7449F0A3740BF0A374A5F0A3740C77
:10465C00F0A374A5F0A3740CF0A374A5F0A3740CD0
:10466C00F0A3744FF0A3740BF0A374A5F0A3740C17
:10467C00F0A37467F0A3740BF0900D5A74A5F0A31B
:10468C00740CF0A374A5F0A3740CF0A374A5F0A3A0
:10469C00740CF0A374A5F0A3740CF0A374A5F0A390
:1046AC00740CF0A374A5F0A3740CF09004F4E06403
:1046BC00019004E87012E0F8A3E0F5838882A3A3CC
:1046CC007508007509088010E0F8A3E0F58388826E
:1046DC00A3A3750804750900750A00750B0078080A
:1046EC00121674750CFF750DFF750EFF750F0078A3
:1046FC0008790C1216C29004E8E0F8A3E0C8240E66
:10470C00F582E83400F583780812170A9004E8E083
:10471C00F8A3E0C82414F582E83400F5837413F090
:10472C009003A27402F002454074F71218B390047F
:10473C00FAE02407F5D99004EAE0C4333354C0F509
:10474C00D978E8790488828983A3A3A3E0F5D98872
:10475C00828983A3A882A983E864EE7003E96404C8
:10476C0070E39004FAE0601F78E87904FAE8241307
:10477C00F582E93400F583E0F5D988828983A3A812
:10478C0082A9831AEA70E690051AE02407F5D990FD
:10479C0004EAE0C4333354C04404F5D978E879040E
:1047AC0088828983A3A3A3E0F5D988828983A3A8EF
:1047BC0082A983E864EE7003E9640470E390051A3F
:1047CC00E0601F78E87904FAE82433F582E93400D4
:1047DC00F583E0F5D988828983A3A882A9831AEA94
:1047EC0070E675E195900D4C7455F0A3740BF0A325
:1047FC0074A5F0A3740CF0A374A5F0A3740CF0A32F
:10480C0074A5F0A3740CF0A3744FF0A3740BF0A375
:10481C0074A5F0A3740CF0A37467F0A3740BF09060
:10482C000D5A74A5F0A3740CF0A374A5F0A3740C2A
:10483C00F0A374A5F0A3740CF0A374A5F0A3740CEE
:10484C00F0A374A5F0A3740CF0A374A5F0A3740CDE
:10485C00F09004E8E0F8A3E0C8240EF582E83400F8
:10486C00F58374FFF0A3F0A3F0A3F09004E8E0F854
:10487C00A3E0C82414F582E83400F5837412F09098
:10488C0003A27401F0FF02198574F71218B3900497
:10489C00FAE02407F5D99004EAE0C4333354C04459
:1048AC0002F5D978E8790488828983A3A3A3E0F57B
:1048BC00D988828983A3A882A983E864EE7003E96E
:1048CC00640470E39004FAE0601F78E87904FAE875
:1048DC002413F582E93400F583E0F5D988828983C5
:1048EC00A3A882A9831AEA70E675E195900D4C7421
:1048FC0061F0A3740BF0A37461F0A3740BF0A374B8
:10490C0061F0A3740BF0A37461F0A3740BF0A374A7
:10491C0061F0A3740BF0A37461F0A3740BF0A37497
:10492C0067F0A3740BF0900D5A74A5F0A3740CF0FF
:10493C00A374A5F0A3740CF0A374A5F0A3740CF0ED
:10494C00A374A5F0A3740CF0A374A5F0A3740CF0DD
:10495C00A374A5F0A3740CF09004E8E0F8A3E0C8ED
:10496C00240EF582E83400F58374FFF0A3F0A3F075
:10497C00A3F09004E8E0F8A3E0C82414F582E8342E
:10498C0000F5837414F09003A27404F0024C5C7470
:10499C00F71218B39004FAE02407F5D99004EAE072
:1049AC00C4333354C04406F5D978E8790488828935
:1049BC0083A3A3A3E0F5D988828983A3A882A983C2
:1049CC00E864EE7003E9640470E39004FAE0601F9D
:1049DC0078E87904FAE82413F582E93400F583E0E9
:1049EC00F5D988828983A3A882A9831AEA70E690F4
:1049FC00051AE02407F5D99004EAE0C4333354C017
:104A0C004404F5D978E8790488828983A3A3A3E0C8
:104A1C00F5D988828983A3A882A983E864EE700300
:104A2C00E9640470E390051AE0601F78E87904FAF1
:104A3C00E82433F582E93400F583E0F5D9888289DE
:104A4C0083A3A882A9831AEA70E675E195900D4CB0
:104A5C00745BF0A3740BF0A374A5F0A3740CF0A317
:104A6C0074A5F0A3740CF0A374A5F0A3740CF0A3BC
:104A7C0074A5F0A3740CF0A374A5F0A3740CF0A3AC
:104A8C007467F0A3740BF0900D5A74A5F0A3740C1A
:104A9C00F0A374A5F0A3740CF0A374A5F0A3740C8C
:104AAC00F0A374A5F0A3740CF0A374A5F0A3740C7C
:104ABC00F0A374A5F0A3740CF09004E8E0F8A3E064
:104ACC00C8240EF582E83400F58374FFF0A3F0A33C
:104ADC00F0A3F09004E8E0F8A3E0C82414F582E811
:104AEC003400F5837415F09003A27403F0024C5C4F
:104AFC00C082C0839004E8E0F8A3E0C82406F582E5
:104B0C00E83400F583E402432B74F71218B39003D6
:104B1C00D0E0F875F003A4C8AAF02AF974D228F8EA
:104B2C00740339F9E82405FAE93400FB8A828B8393
:104B3C00E0FCA3E0FD88828983A3A3A3A3A3A3A382
:104B4C00A3A3ECF0A3EDF088828983A3A3A3A3A372
:104B5C00A3A3E024FFF8A3E034FFF98A828B83E857
:104B6C00F0A3E9F0024C5C74F71218B3EAFEEBFF09
:104B7C009061D0E06003024C5075D90E75D9037565
:104B8C00D904EE248BF582EF3400F583E5822408FA
:104B9C00F8E5833400F9E0F5D9A3E865827003E900
:104BAC00658370F2EE2483F582EF3400F583E582A1
:104BBC002404F8E5833400F9E0F5D9A3E8658270A4
:104BCC0003E9658370F275E1957908EE248BFAEFB1
:104BDC003400FB120C517904EE2483FAEF3400FB01
:104BEC00120C517C00EEF8EFF9ECFAC3E49AFA954A
:104BFC00E0FBEE2AFAEF3BFBEA248AF582EB340069
:104C0C00F583E0C0E0E824AAF582E93400F583D00E
:104C1C00E0F00C88828983A3A882A983ECC3940852
:104C2C0040C7EE246FF582EF3400F583E0F8A3E083
:104C3C00F9EE2471F582EF3400F583E8F0A3E9F086
:104C4C007901800279008008F0EEA2E092AF790041
:104C5C007F01021985C082C08375D90275D903758D
:104C6C00D90575E195EA246FF582EB3400F583E004
:104C7C00F8A3E0F9EA2471F582EB3400F583E8F04F
:104C8C00A3E9F0790102432E74F61218B3EAFEEB95
:104C9C00FF9005457406F0750845750905780812EE
:104CAC001AC67C017903120C99740212185975D921
:104CBC000675D903758245758305E0F5D9A3E582A0
:104CCC00644A7004E583640570F075E1959003A265
:104CDC00E06408701EEE246FF582EF3400F583E07B
:104CEC00F8A3E0F9EE2471F582EF3400F583E8F0D7
:104CFC00A3E9F07901024F6274F61218B3EAFEEBE5
:104D0C00FF9061D0E070667801900545740BF090CF
:104D1C0003A2E06407701975084575090578081237
:104D2C001AC67C017903120C997402121859780571
:104D3C00740128F5D975D903758245758305E8FA90
:104D4C00E0F5D9A31AEA70F875E195EE246FF582B7
:104D5C00EF3400F583E0F8A3E0F9EE2471F582EF6F
:104D6C003400F583E8F0A3E9F079018002790002C0
:104D7C004F6274F71218B3EAFEEBFF75D90375D9BD
:104D8C000375D90DEE24DDF582EF3400F583E0F5E3
:104D9C00D975E1957904120DA7EE246FF582EF34E5
:104DAC0000F583E0F8A3E0F9EE2471F582EF34000E
:104DBC00F583E8F0A3E9F07901024C5C74F6121863
:104DCC00B3EAFEEBFF9061D0E0F87480C398FAEE82
:104DDC002482F582EF3400F583E0600478048002CD
:104DEC007800E8240BF8EAC3985003024E8D7D0935
:104DFC00900545EDF0EE24E2F8EF3400F97A467BAD
:104E0C00057C0888828983E08A828B83F08882897A
:104E1C0083A3A882A9838A828B83A3AA82AB831CD7
:104E2C00EC70E0EE2482F582EF3400F583E0601D37
:104E3C007508457509057808121AC67C097903EEC0
:104E4C00FAEFFB120C9974021218597D0D74012D96
:104E5C00F5D975D9037582457583058D08E0F5D9AB
:104E6C00A31508E50870F675E1957904120DA7EE07
:104E7C00241DF582EF3400F583E4F0A3F079018072
:104E8C00027900024F6274F61218B3EAFEEBFF903F
:104E9C0061D0E0F87480C398FAEE2482F582EF3486
:104EAC0000F583E06004780480027800E82408F8B8
:104EBC00EAC3985003024F607806900545740CF0D5
:104ECC009003BFE0900546F09003C0E0900547F0DA
:104EDC009003C1E0900548F09003C2E0900549F0C2
:104EEC009003C3E090054AF0EE2482F582EF340083
:104EFC00F583E0601B7508457509057808121AC61C
:104F0C007C067903EEFA120C997402121859780A7D
:104F1C00740128F5D975D903758245758305880800
:104F2C00E0F5D9A31508E50870F675E1957904123A
:104F3C000DA7EE246FF582EF3400F583E0F8A3E0C3
:104F4C00F9EE2471F582EF3400F583E8F0A3E9F073
:104F5C007901800279007F0202198574F61218B368
:104F6C00EAFEEBFF9061D0E0F87480C398FAEE246F
:104F7C0082F582EF3400F583E060047804800278D7
:104F8C0000E82404F8EAC3985003025041780290D8
:104F9C000545E8F0EE24F4F582EF3400F583E0905B
:104FAC000546F0EE2482F582EF3400F583E0601BB9
:104FBC007508457509057808121AC67C027903EE46
:104FCC00FA120C9974021218597806740128F5D942
:104FDC0075D9037582457583058808E0F5D9A31545
:104FEC0008E50870F675E195EE2473F582EF340050
:104FFC00F583E4F0EE247FF582EF3400F583E4F0E2
:10500C00EE241DF582EF3400F583E4F0A3F079046F
:10501C00120DA7EE240DF582EF3400F583E0F8A312
:10502C00E0F9EE2471F582EF3400F583E8F0A3E9A2
:10503C00F0790180027900024F6274F61218B39075
:10504C0061D0E0F87480C398FCEA2482F582EB34DA
:10505C0000F583E06004780480027800E82404F80A
:10506C00ECC398405B79029005457407F0EA24F58F
:10507C00F582EB3400F583E0900546F0EA2482F5E6
:10508C0082EB3400F583E0601875084575090578E6
:10509C0008121AC67C0209120C997402121859795A
:1050AC0006740129F5D975D903758245758305E90F
:1050BC00F8E0F5D9A318E870F875E195790180024C
:1050CC007900024F6274F51218B3E9FCA2AFE43315
:1050DC00F50AC2AF7D0080010DEA246EF582EB3437
:1050EC0000F583E0F8EDC398501A8D08EA2508F80E
:1050FC00EB3400F9E8246AF582E93400F583E06CBE
:10510C0070D68024EA246EF8EB3400F9E0FEEA2E27
:10511C00FAEB3400FBEA246AF582EB3400F583ECFD
:10512C00F088828983E004F0E50AA2E092AF7F0365
:10513C0002198574F61218B3A2AFE433FDC2AFEABC
:10514C00246EF582EB3400F583E014F07C006036BD
:10515C008C08EA2508F8EB3400F9E8246BF582E9B1
:10516C003400F583E0C0E0E8246AF582E93400F508
:10517C0083D0E0F00CEA246EF582EB3400F583E08A
:10518C00F8ECC39840CAEA246DF582EB3400F58341
:10519C0074FFF0EA2469F582EB3400F583E4F0ED5A
:1051AC00A2E092AF024F62C082C083E5A8F8C2AF02
:1051BC00EA246AF582EB3400F583E9F0EA2469F518
:1051CC0082EB3400F583E4F0E8A2E7A2E792AF02A9
:1051DC00432E74F31218B3EAFEEBFFECFAEDFB8AE4
:1051EC00828B83A3A3A3A3E0541FF0EE2436F58295
:1051FC00EF3400F583E4F0F50AEEFCEFFD8A828BC8
:10520C0083E0C0E0EC245DF582ED3400F583D0E062
:10521C00F0750B00E50A33333354F8F50C8A828BA6
:10522C0083E0F508750900E50B7808121811E508FC
:10523C00A2E0502FEE2436F8EF3400F988828983EF
:10524C00E0F508EE2508F508EF3400F509E508242B
:10525C0038F582E5093400F583E50CF08882898302
:10526C00E004F0050B050CE50BC3940840AF050AF0
:10527C008A828B83A3AA82AB838C828D83A3AC821C
:10528C00AD83E50AC3940550030252097F05021948
:10529C008574F71218B39003CEE0640170030253C7
:1052AC00FB7A009003D4E060030253FB7401F0A37B
:1052BC00E4F0A3F090043404F0900439F09003D798
:1052CC00E4F0A3F0A3F0A3F09003E104F090040742
:1052DC00E4F09003EAF0A3F0A3F0A3F0A3F0A3F0A2
:1052EC00A3F0900451F0900445F090043A7480F0CF
:1052FC00A3E4F0900440F09004BCF0A3F0A3F0A35E
:10530C00F0A3F0A3F0A3F0A3F09004C5F090045424
:10531C00F09004A4F0A3F0A3F0A3F0A3F0A3F0A3E7
:10532C00F0A3F0A3F0A3F09004B0F09004B2F090CE
:10533C0004AEF09004C8F0A3F0A3F0A3F0A3F0A384
:10534C00F0A3F0A3F078CE7903E8246EF582E9346B
:10535C0000F58374FFF00A88828983A3A882A9834D
:10536C00EAC3940440E37ACE7B0378DC7904888228
:10537C008983E0C0E0EA2461F582EB3400F583D048
:10538C00E0F088828983A3A882A9838A828B83A375
:10539C00AA82AB83E864E17003E9640470D07ACE2E
:1053AC007B0378B5790388828983A3E0C0E0EA2483
:1053BC00E6F582EB3400F583D0E0F088828983A394
:1053CC00A882A9838A828B83A3AA82AB83E864BD5B
:1053DC007003E9640370CF9003CEE004F0640170B5
:1053EC00089003D6E09003D0F07AD27B0380047A45
:1053FC00007B00024C5CC082C0839003D5E4F0902B
:10540C0003D4F09003CEF0A3F0A374FFF075E1F198
:10541C0002432EC082C083780079009003D5E060EF
:10542C000478D2790388828983A3A3A3A3E0F90229
:10543C00432E74F61218B3EAFEEBFFEE2463F582EA
:10544C00EF3400F583E0F8A3E0F9E8497003025467
:10545C00E3EE2463F8EF3400F97A007B00A2AFE4AA
:10546C0033F508C2AF88828983E0FCA3E0FDEC4DE4
:10547C00603A88828983E0FAA3E0FB8A828B83E01E
:10548C00FCA3E0FD88828983ECF0A3EDF08A828B8B
:10549C0083E4F0A3F088828983E0FCA3E0FDEC4D6B
:1054AC00700A88828983A3A3E4F0A3F0E508A2E044
:1054BC0092AF1213BF9004E2E004F09004E3E00416
:1054CC00F0EE2463F582EF3400F583E0F8A3E0F905
:1054DC00E849600302545D8E828F83A3A3A3E0602E
:1054EC000F8E828F83A3A3A3E4F09003CFE014F07C
:1054FC009003CEE014F070069003D074FFF08E820F
:10550C008F83A3A3E4F09004E1E0700D9003CFE04F
:10551C00640170057900120D89EEFAEFFB120CC9CB
:10552C00024F6274F71218B3EAFEEBFF8E828F8380
:10553C00A3A3A3A3E0FA7B001209ABEEFAEFFB12D4
:10554C000C1B120CB1024C5CC082C08378B5790381
:10555C0088828983A3E4F088828983A3A882A983A3
:10556C00E864BD7003E9640370E69003B67401024D
:10557C00432D74F61218B3EAFEEBFFEC2403F8ED9E
:10558C003400F988088909EC2407F8ED3400F9E8AF
:10559C00FCE9FD8C828D83E0F8A3E0F98508828517
:1055AC000983E0FAA3E0FB1217B8EE240DF582EFA5
:1055BC003400F583E8F0A3E9F08C828D83E0F8A346
:1055CC00E0F9850882850983E0FAA3E0FB1217B89D
:1055DC008B09EA45096013EE240DF582EF3400F5D2
:1055EC0083E02401F0A3E03400F0024F6274F61261
:1055FC0018B3EAFEEBFFEE242EF582EF3400F583B0
:10560C00E0FCA3E0FD780079FAECFAEDFB1217B898
:10561C00EE246FF582EF3400F583E8F0A3E9F0781F
:10562C000079FAECFAEDFB1217B88B09EA45096020
:10563C0013EE246FF582EF3400F583E02401F0A320
:10564C00E03400F0024F6274EC1218B3EAFEEBFF88
:10565C00741412188F78081216FB120D4D8A0C8BCD
:10566C000D8C0E8D0F7510027511007512007513CF
:10567C0000780C79101216617510FF7511FF7512F8
:10568C00FF780C79101216C2780C121AC28E828F07
:10569C0083E0F8A3E0F5838882A3A31217191224E0
:1056AC00D17404121859E960030257B78E828F83A4
:1056BC00E02402F8A3E03400F9E8FAE9FB8A828BD3
:1056CC008378081216878A828B837508FF7509FF09
:1056DC00750AFF750B0078081216E8EE240BF5829C
:1056EC00EF3400F583C082C0838E828F83A3A3A383
:1056FC00A3A3E02401F8A3E03400F9D083D082E026
:10570C00687003A3E069700579010257B98E828F26
:10571C0083A3A3A3A3A3A3A3E02401F0A3E03400D9
:10572C00F0EE2473F582EF3400F583E064017036FB
:10573C00EE2474F582EF3400F583E0F8A3E0F98EE3
:10574C00828F83A3A3A3A3A3A3A3E0687003A3E006
:10575C00697013EE2474F582EF3400F583E02401B4
:10576C00F0A3E03400F0EE247FF582EF3400F583F3
:10577C00E064017036EE2480F582EF3400F583E0AE
:10578C00F8A3E0F98E828F83A3A3A3A3A3A3A3E022
:10579C00687003A3E0697013EE2480F582EF340087
:1057AC00F583E02401F0A3E03400F079000244C654
:1057BC0074F61218B3E9FEECFFEA2462F582EB34BE
:1057CC0000F583E0640160030258659061D0E0F558
:1057DC0008EA2482F582EB3400F583E06004780457
:1057EC00800278007480C39508FC95E0FDEF28F8E2
:1057FC00E43400F9E82402F8E93400F9EC98ED9966
:10580C00A2D265D033404E740A12188FE0F508A36B
:10581C00E0F509EA2482F582EB3400F583E06015AB
:10582C007808121AC6EFFCEEF9120C9974021218D1
:10583C005974042FFF74012FF5D98ED9EF600F85A1
:10584C000882850983F8E0F5D9A318E870F875E1AA
:10585C0095790080067907800279FF024F6274F710
:10586C001218B3A2AFE433FEC2AF8A828B83E0F886
:10587C00A3E0F9E8498A828B83600AA3A3E0F8A32A
:10588C00E0F5838882ECF0A3EDF08A828B83A3A3EE
:10589C00ECF0A3EDF08C828D83E4F0A3024C5474F5
:1058AC00F71218B3E96021F88C828D83E08A828B21
:1058BC0083F08C828D83A3AC82AD838A828B83A38D
:1058CC00AA82AB8318E870E0ECFAEDFB024C5C7436
:1058DC00F01218B374FA1218438908ECFEEDFF7538
:1058EC0009008A0A8B0B780A121B0A000410035B4E
:1058FC001E593C5956596E598C59A459C759DF59E0
:10590C00F3591D5A9A5AAB5AC25ADD5A035B035BC0
:10591C00335A740165086003025AFE8E828F83E04D
:10592C00F8C394034003025AFEE8900E47025ADA79
:10593C00740265086003025AFE8E828F831263D74D
:10594C00900E48E8F0A3E9025ADA74016508600386
:10595C00025AFE125B2B4003025AFEE890078002AB
:10596C005ADA740165086003025AFE8E828F83E056
:10597C00F8C394054003025AFEE8900781025ADAF4
:10598C00740165086003025AFE125B2B4003025A35
:10599C00FEE8900782025ADA741065086003025A16
:1059AC00FE750A10750B00780A121AC67A837B07EB
:1059BC0012101D7402121859025B247401650860E0
:1059CC0003025AFE125B2B4003025AFEE890079327
:1059DC00025ADA740165086003025AFE8E828F83C4
:1059EC00E0900E4B025ADA740465086003025AFE0A
:1059FC008E828F83780C1216FB9083C1780C121553
:105A0C000A5003025AFE900795780C12170A025B93
:105A1C0024E96003025AFE12073BE970051211FDDE
:105A2C0080569008288063740765086003025AFE4C
:105A3C00750A06750B00780A121AC68E828F83A31C
:105A4C00AC82AD8374021218A112102374021218C6
:105A5C00597C007D00AA18AB198E828F83E0F91255
:105A6C0011A3E9F50AC3940A4003025B2112073B18
:105A7C00E9700CA90A121203795012143D806E744D
:105A8C0029250AF582E43408F583740180407401F9
:105A9C006508705E125B2B5059E8900794802F7448
:105AAC00016508704D8E828F83E0F8C3940A5042D2
:105ABC00E8900E4A80187401650870368E828F83C8
:105ACC00E0F874F928C3940A5028E8900E4CF08042
:105ADC004774016508701B900827E0F88E828F834D
:105AEC00E0900827F0E87030E06401702B1211F19F
:105AFC0080267509188021C3EA9427EB9400501571
:105B0C0074026508700F8E828F831266FA1205D9A3
:105B1C00E9F5098003750902A90974060260378E3C
