:020000040000FA
:060000000201070223F5D6
:03001B0002286355
:03002B0002283D6B
:0300330002281F81
:0300530002246B19
:03006B000229184F
:030073000228C997
:03007B0002293C1B
:1000830002224BE5C754F84401F5C7790122000069
:100093000080FB120086B900030200F1E4792178A5
:1000A30008B800028004F709D8FCE479297802B87B
:1000B30000028004F709D8FCE490028178E4791601
:1000C3008002F0A3D8FCD9FA7A647B1890013778C0
:1000D300D179048015E493A3AD82AE838A828B83A6
:1000E300F0A3AA82AB838D828E83D8E9D9E7758288
:1000F300AA75837F74001201197582917583007448
:100103000012011975D00075813F751881751902A8
:10011300759F00020096C09FF59FE473D09F22D085
:1001230083D082C09FE493C0E0740193C0E0740263
:1001330093F59F22110199010F12640400AD270169
:100143001131040102358501000018850261850122
:1001530000006918025F850100006A18022D8503FB
:1001630000008A02021B850100007218022B850120
:1001730000006B18FF0000B400002800280028309E
:1001830075A000A000A000A00000080008E001F096
:10019300001000100010001000100010005000505C
:1001A30000500010001000D0070000000000000FF6
:1001B3000001000500307507001000010081FF00F9
:1001C300000000FFFFFF5F077D076507A107FF0230
:1001D300020208025000A0000000E8030235850176
:1001E30000001285026185010000FF1802298501C4
:1001F3000000CA020261850100000019022785017F
:100203000000E00202618501000001190225850159
:100213000000E20202618501000002190223850841
:100223000000E30202618501000003190221850138
:1002330000000419FF0100FF200235850100000FB3
:10024300850261850100006819021F850000000016
:1002530000022D85030000110317000D0E0D0E0D76
:100263000E0D0E0D0E0D0E0D0E0D0E0D0E0D0E0DB3
:100273000E0D0E0D0EB310C510AD100202020202D8
:1002830002020202010D0000001001023585010087
:10029300000C85026185010000AB19023B8501005A
:1002A300004B07026185010000AC19023D85010086
:1002B300000684026185010000AD19025185010029
:1002C30000CF83026185010000AE1902538501004E
:1002D300000A83026185010000AF19025585010000
:1002E30000F882026185010000B019025785010000
:1002F300001C83026185010000B1190259850100C8
:10030300002E83026185010000B219025B850100A2
:1003130000DD83026185010000B319025D850100E0
:1003230000B41901E8030577100A0A3312015313C5
:1003330000001509484944204B6579626F61726476
:100343002026204D6F7573650201050319C103054E
:100353000212180F1860EA00000189C513CB1300BD
:1003630000E60202192A0406011201011202011217
:1003730003010E0002120E120A000302358501006A
:100383000015850231850100006C0B0261850100B7
:1003930000921A02478540000091840261850100A2
:1003A30000961A024B858000006E0B0261850100E6
:1003B30000971A024F85C00000981A026185010058
:1003C30000931A0249854000000080021D85010048
:1003D30000941A026185010000991A024D854000BC
:1003E300006F0B022D85810000700B021B8501003D
:1003F300009A1A0261850100009C1A024D85400093
:1004030000720B022D85810000730B021B85010016
:10041300009D1A0261850100009F1A024D8540006C
:1004230000750B022D85810000760B021B850100F0
:1004330000A01A026185010000A21A024D85C000C6
:1004430000780B021B85010000A31A0261850100DD
:1004530000A51A024185400000790B022D85810019
:10046300007A0B026185010000A61A024585C000CF
:10047300007C0B026185010000A71A02438540003E
:10048300007D0B022D858100007E0B02618501003A
:1004930000A81A024D85C00000800B021B850100D5
:1004A30000A91AFFFFFF00013075030201060000D7
:1004B3000000000000000000000000000000000039
:1004C30000000000000000000000FFFF0600800C99
:1004D300E8030410023585010000098502618501E6
:1004E3000000021C0265858000005D180261850121
:1004F3000000031C0267850000006118022D85813E
:1005030000006218120122459503120122A19503EE
:10051300120122B49503120122E695031201225E11
:1005230096031201227F96031201222497031201DC
:1005330022BA970312012278980312012223A103FE
:1005430012012236A10312012267A103120122A183
:10055300A103120122FAA10312012241A2031201F3
:100563002289A203120122B8A203120122E7A203E5
:100573001201221EA30312012265A3031201227E8C
:10058300A303120122D3A303120122ECA30312013A
:10059300223AA40312012274A40312012224CC02DE
:1005A30012012227CD0212012260CD021201228301
:1005B300CD0212012295CD02120122D3CD021201E6
:1005C300224FCE0212012217CF0212012239CF028B
:1005D300120122D0CF0212012222D0021201225391
:1005E300D00212012260D002120122CAD0021201EB
:1005F3002221D10212012224D1021201225DD10251
:1006030012012260D1021201226AD102120122BE1A
:10061300D102120122FFD10212012232D2021201AF
:10062300226FD20212012271D30212012215D402C7
:100633001201227ED402120122BCD40212012242F0
:1006430099031201226A9903120122979903120155
:1006530022CF99031201222D9A03120122799A03C0
:10066300120122E09A03120122209B031201225D50
:100673009B031201228B9B03120122359C0312015F
:10068300223F9C031201224C9C031201227F9C03F4
:100693001201228B9C03120122A39C03120122AD9F
:1006A3009C0312012217CA0312012225CA03120155
:1006B300223DCA0312012254CA0312012222AA01B3
:1006C300120122CCAA01120122DFAB011201225B2B
:1006D300AC0112012279AD01120122B5AD01120163
:1006E3002250AE0112012234AF0112012200B001E7
:1006F3001201228EB101120122FFB101120122B9AE
:10070300B201120122ABB301120122EBB3011201B8
:10071300229FB401120122D1B401120122C7B601F2
:1007230012012209B70112012227B7011201228DFA
:10073300B7011201225CB80112012220B901120192
:10074300223FBB01120122F5DC02120122DFDD028E
:100753001201228ADE02120122DBDE021201228B47
:10076300DF02120122FCDF02120122E1E002120188
:100773002215E1021201220EE2021201224BE202D1
:1007830012012227E30212012266E30212012282EE
:10079300E302120122B6B8031201223AB90312018D
:1007A3002265B9031201227FBA031201223B9D0382
:1007B300120122519D031201226F9D031201228017
:1007C3009E031201228A9E03120122B59F03120186
:1007D30022ACA00312012219A103120122E3E302B6
:1007E30012012219E50212012293E502120122C32A
:1007F300E502120122D6E5021201222DE6021201C0
:100803002242E8021201226C8501120122F88501BD
:100813001201225C8701120122688701120122A3BF
:1008230087011201221288011201221B8901120180
:1008330022248A01120122EB8A01120122488C012F
:10084300120122668C01120122838C0112012230D3
:100853008D01120122AD8D01120122D58D011201EC
:10086300229F9001120122A49001120122BD920144
:100873001201220B93011201227B9301120122B96F
:10088300930112012295940112012255950112013F
:1008930022A19501120122A49501120122E89501DA
:1008A3001201223096011201226F96011201229148
:1008B3009601120122C59601120122289701120105
:1008C300227CEF021201228AEF02120122DDEF02E3
:1008D300120122FCEF0212012241F00212012285D1
:1008E300F10212012220F20212012264F202120129
:1008F300228EF202120122FDF20212012243F302BE
:10090300120122BAF3021201226BF40212012268CD
:100913002900120122782900120122192A0012014A
:1009230022752A00120122322B001201224E2C00C2
:10093300120122802C00120122AF2C001201225C32
:100943002E00120122D33000120122433300120180
:10095300223534001201222E3500120122353700D0
:10096300120122293A00120122583B001201225C93
:100973003D001201226C3E00120122FB3F001201D6
:1009830022EC40001201223A4100120122A9410047
:10099300120122CD41001201221E4200120122BF88
:1009A3004600120122C04700120122214800120111
:1009B300224C48001201221249001201223F9103E6
:1009C3001201224991031201228E9103120122A2E4
:1009D30091031201223292031201226B920312013C
:1009E30022A69203120122CF920312012223930320
:1009F3001201223893031201225A93031201226F28
:100A03009303120122839303120122989303120189
:100A130022D29303120122FE93031201228594032F
:100A2300120122C89403120122F294031201221D1F
:100A3300950312012215C60312012288AE02120188
:100A4300226BAF02120122E6AF0212012221B00291
:100A530012012272B10212012200B2021201229289
:100A6300B40212012244B50212012250B60212014D
:100A730022C3B7021201221CB8021201228C840382
:100A8300120122CF84031201225385031201222A69
:100A9300880312012244B603120122F6B60312019F
:100AA30022F2B70312012231B8031201228BB803D9
:100AB30012012265BE03120122C8BE031201226580
:100AC300BF031201229ABF03120122CABF031201FC
:100AD3002205C00312012225C0031201227DF40264
:100AE30012012209F502120122C8F502120122E0C5
:100AF300F602120122FAF8021201222674001201F0
:100B0300224B7400120122187500120122EC7500A9
:100B13001201225976001201229976001201223520
:100B23007700120122697800120122447900120130
:100B330022A379001201222F7A001201229D7A004A
:100B4300120122297B001201226F7B00120122E194
:100B53007B00120122737C00120122147D0012011A
:100B630022347D001201227C7D00120122C57D000A
:100B7300120122E17D00120122077E00120122816F
:100B83007E001201228F7E001201221E7F001201BD
:100B930022877F0012012231F902120122B6F902E3
:100BA300120122F8F902120122DCFA02120122498F
:100BB300FB021201228DFB02120122D1FB02120160
:100BC30022FEFB0212012226FC021201225EFC021B
:100BD3001201229CFC02120122C3FC021201223DDB
:100BE300FD0212012287FD021201224CBB011201F8
:100BF30022EBBC0112012223BF0112012277BF01A4
:100C0300120122A2BF011201227EC001120122AEF3
:100C1300C001120122DDC001120122F0C001120144
:100C23002231C1011201225EC101120122ACC101B4
:100C3300120122E8C1011201222DC2011201227AFE
:100C4300C201120122F4C20112012235C5011201AF
:100C5300221FC7011201225BC701120122EAC80148
:100C63001201222FC901120122A2C901120122F786
:100C7300C9011201225BCA011201227ACB011201BE
:100C8300228BCB0112012285C202120122FEC20273
:100C9300120122B8C802120122C3C9021201226C36
:100CA300CB02120122FACB021201221360001201BD
:100CB30022946000120122C160001201220A610025
:100CC3001201220B6200120122646200120122E06F
:100CD30063001201226264001201227D640012018A
:100CE30022EE6400120122AB65001201226E66003F
:100CF300120122FC6600120122B36700120122C610
:100D030067001201225F6800120122F668001201D7
:100D1300221D6900120122866900120122D0690096
:100D23001201221E6A00120122C36A00120122610B
:100D33006B00120122EE6B001201225F6C001201A4
:100D430022A66C00120122FE6C00120122306D00FB
:100D5300120122EA6D00120122F16E001201223A01
:100D63006F00120122576F00120122766F001201E9
:100D730022A9700012012260710012012285710004
:100D83001201229A71001201220A72001201224BEF
:100D930072001201226F7300120122F0730012011C
:100DA30022C5B80212012210B9021201221CB90293
:100DB300120122F0B90212012207BA0212012244DF
:100DC300BA0212012275BA02120122ADBA0212014D
:100DD3002203BB0212012219BB0212012255BB02DC
:100DE30012012268BB021201228FBB02120122C32D
:100DF300BB02120122E9BC0212012233BE0212011C
:100E0300222FBF021201224CC002120122FD7F00D9
:100E1300120122AECB01120122E9CB011201223BC6
:100E2300CF0112012297D00112012256D1011201E2
:100E330022BDD401120122A7D501120122F3D5014B
:100E43001201220DD6011201224AD60112012255A6
:100E5300D60112012294D6011201229DD60112015C
:100E63002247D7011201221ED80112012272D80192
:100E7300120122CFD80112012241D901120122000D
:100E830098011201225F9B01120122659B0112014D
:100E93002296A2011201229DA6011201224DA8034E
:100EA3001201222AA9031201226EA903120122A808
:100EB300A90312012240AA03120122AFAA031201BD
:100EC30022B8AA03120122C4AA03120122DEAA0332
:100ED30012012208AB0312012238AB03120122DCF8
:100EE3008803120122E988031201220389031201F4
:100EF30022368903120122748903120122D989033C
:100F0300120122EE8903120122F98903120122063A
:100F13008A031201221D8A031201222B8A03120162
:100F230022368A03120122428A03120122518A03C2
:100F33001201225C8A031201227F8A0312012223F7
:100F43008B03120122338B031201224D8B031201F7
:100F5300226A8B03120122858B03120122AA8B03BF
:100F6300120122B58B03120122CA8B03120122DE66
:100F73008B031201223F8C03120122458C031201C1
:100F8300224B8C03120122518C03120122698C0320
:100F93001201229C8C031201220580021201229C61
:100FA30080021201223481021201222482021201E0
:100FB300225B82021201226E8202120122DC820271
:100FC3001201227784021201229E8402120122401E
:100FD3008502120122758502120122868502120101
:100FE30022FF850212012220860212012238860284
:100FF300120122908702120122998902120122E929
:101003008B02120122EC8C021201223B8D0212018F
:101013002290DA011201228DDB0112012278DC0118
:1010230012012282DC01120122A4DC01120122B08E
:10103300DC0112012202DE0112012231DE01120162
:101043002261DF01120122A3DF01120122CFE0019D
:10105300120122A5E101120122F7E1011201225638
:10106300E2011201228DE201120122C8E201120102
:101073002263E6011201227CE601120122FEE6014F
:101083001201220CE70112012261E7011201226F12
:10109300E701120122DCE7011201224EE8011201ED
:1010A3002294E801120122DB9802120122FD980228
:1010B300120122E79A021201228C9E02120122CF10
:1010C3009F02120122A9A00212012233C0031201BE
:1010D3002258C003120122C9C0031201226FF70173
:1010E30012012278F70112012281F701120122B2C3
:1010F300F801120122D1FA0112012207FB011201A8
:101103002241FB0112012277FB01120122B1FB01F3
:10111300120122E5FB0112012211FC011201225AE4
:10112300FC0112012294FC01120122DCFC011201D8
:101133002232FD0112012267FD01120122C2FD01CB
:10114300120122FCFD011201224DFE011201228334
:10115300FE01120122BDFE01120122EBFE0112016A
:10116300220EFF01120122A0CB03120122CCCB03DA
:1011730012012227CC0312012231CC031201224196
:10118300CC0312012257AE031201227EAE031201D9
:1011930022A4CD031201227E4900120122DC4B005E
:1011A300120122B44C001201226D4E00120122CA18
:1011B3004E00120122B74F001201223E50001201CD
:1011C30022BC5000120122E15000120122445100BE
:1011D3001201222E54001201229F54001201229068
:1011E3005500120122C855001201220B56001201AC
:1011F30022B657001201220B580012012258580040
:10120300120122CA5800120122F158001201220BC6
:101213005900120122355A001201224C5A001201C0
:10122300223A5C00120122605C00120122965C00EB
:10123300120122FE5D001201227E5E00120122BD18
:101243005E00120122EE5F00120122AEBA03120108
:10125300220BBB03120122CEBB03120122EDBB03FF
:1012630012012243BC03120122E4CA03120122F534
:10127300CA0312012295CB031201225BCD03120193
:10128300229ACD0312012250CE031201224BCC032A
:101293001201225BCC0312012273CC03120122DB65
:1012A300CC0312012229C703120122ADC703120185
:1012B3002213C80312012270C30312012299C3032C
:1012C30012012206C40312012259C403120122B2DD
:1012D300C4031201220080031201221780031201AA
:1012E30022908003120122698103120122278403C1
:1012F30012012243B103120122B9B1031201224D9B
:10130300B203120122E3B203120122FBB203120160
:10131300220FB3031201226CB30312012284B3031D
:1013230012012292B303120122888D02120122D7E5
:101333008D02120122018F02120122238F02120158
:1013430022368F02120122C68F02120122AB9102B2
:10135300120122C39302120122BE9402120122221D
:101363009502120122859502120122C695021201ED
:1013730022C99502120122129602120122659602D7
:10138300120122039702120122B397021201225182
:1013930098021201228A9802120122A898021201CD
:1013A30022EBA30212012243A40212012261A4022E
:1013B30012012292A40212012281A702120122FD2C
:1013C300A70212012252A8021201225FA9021201EE
:1013D3002262A90212012235AB021201224FAE0290
:1013E30012012274AE02120122DCA4031201226D47
:1013F300A703120122E1A703120122EDC403120184
:10140300220DC5031201227CC503120122F4C50378
:1014130012012226C9031201224FC90312012278A5
:10142300C90312012290C903120122D2C903120176
:101433002209EA0212012213EA0212012253EA02EA
:101443001201229CEA02120122D6EA021201223080
:10145300EB021201224FEB0212012258EB0212019E
:1014630022A9EB02120122D2EB02120122E7EB02C4
:1014730012012258EC02120122E6EC021201222E82
:10148300ED0212012256ED02120122D3ED021201E6
:101493002216EE0212012251EE0212012263EE0223
:1014A30012012282EE021201228BEE02120122505D
:1014B300EF02120122E9C1031201223EC20312010B
:1014C30022ACC2031201221CC30312012266AB0326
:1014D30012012290AB0312012285AC03120122AA4E
:1014E300AC031201222CAD031201222CC8031201FA
:1014F300229CFF01120122C7FD02120122FDFD02FF
:1015030012012236FE021201228FFF02120122E58E
:10151300CC03120122FBCC0312012205CD031201DD
:1015230022E2D4021201229FD502120122DAD5024D
:1015330012012202D60212012264D602120122B043
:10154300D60212012214D7021201228ED7021201EF
:101553002290D80212012243DA02120122C5DA02D2
:101563001201222ADB0212012241DB021201224A6A
:10157300DC0212012288DC021201221E8D031201F9
:1015830022378D03120122DB8D031201221B8E03EE
:10159300120122348E03120122678E03120122B438
:1015A3008E03120122E88E031201222A8F031201F5
:1015B300223291031201221DE90112012202ED01DF
:1015C30012012294EE01120122EBEE011201220A12
:1015D300EF0112012288EF0112012228F101120109
:1015E300220CF201120122F8F501120122CCF601BC
:1015F300120122C7B303120122F0B3031201225EC8
:10160300B4031201227CB4031201228EBC03120123
:1016130022E8BC03120122FBBC0312012294BD0386
:1016230012012299BD03120122ECCD03120122C93A
:10163300FF0212012232CE03E066701008A3E066B7
:10164300700A08A3E066700408A3E06622C008C31A
:10165300E096F50808A3E096420808A3E09642083E
:1016630008A3E0964208A2D265D033E5087001D3FF
:10167300D00822C3E7960809E7960809E796080900
:10168300E79622C3E09608A3E09608A3E09608A392
:10169300E09622C008C3E096F50808A3E096420846
:1016A30008A3E096420808A3E09645087001D3D04A
:1016B3000822080808EAC0E0EBC0E086F0E7A4FAD5
:1016C300180986F0E7A42AFA180986F0E7A42AFA8B
:1016D300180986F0E7A42AFA1986F0E7A4FBE5F0D7
:1016E3002AFA190886F0E7A42BFBE5F03AFA190861
:1016F30086F0E7A42BFBE5F03AFA18180986F0E721
:10170300A4C5F02BFBE43AFA1908E7C5F0C6A426F2
:10171300F6E5F03BFBE43AFA1886F0E7A4F6E5F0C9
:101723000826F6E43B08F6E43A08F6D0E0FBD0E0FE
:10173300FA22E4CFC0E0E4CEC0E0E4CDC0E0E4CCE4
:10174300C0E075F020E626F608E633F608E633F641
:1017530008E633F6181818EC33FCED33FDEE33FED0
:10176300EF33FFC3EC9709ED9709EE9709EF97194C
:101773001919400FFFEC97FC09ED97FD09EE97FE51
:10178300191906D5F0BFECF709EDF709EEF709EFE4
:10179300F7191919D0E0FCD0E0FDD0E0FED0E0FF4E
:1017A30022E4C396F608E496F608E496F608E4966F
:1017B300F6226016080808C6C313C618C613C6184F
:1017C300C613C618C613C6D5E0EA2270090808086E
:1017D300226016181818C6C333C608C633C608C60F
:1017E30033C608C633C6D5E0EA22E627F60809E67B
:1017F30037F60809E637F60809E637F622E026F653
:1018030008A3E036F608A3E036F608A3E036F6228E
:10181300E026F008A3E036F008A3E036F008A3E0E2
:1018230036F022C3E697F60809E697F60809E69725
:10183300F60809E697F622C3E096F008A3E096F0CF
:1018430008A3E096F008A3E096F022E056F608A37A
:10185300E056F608A3E056F608A3E056F622E05653
:10186300F008A3E056F008A3E056F008A3E056F012
:1018730022E0F608A3E0F608A3E0F608A3E0F622C8
:10188300E6F008A3E6F008A3E6F008A3E6F022E0FA
:10189300FAA3E0FBA3E0FCA3E0FD22EAF0A3EBF054
:1018A300A3ECF0A3EDF022E0F8A3E0F9A3E0FAA3A0
:1018B300E0FB22E8F0A3E9F0A3EAF0A3EBF022CAED
:1018C300C0E0E6F0A308DAFAD0E0FA22CAC0E0E00A
:1018D300A3C582CCC582C583CDC583F0A3C582CC05
:1018E300C582C583CDC583DAE6D0E0CA22C3E498B6
:1018F300F8E499F91219318026C3E49AFAE49BFBC0
:10190300E920E7E9121931E498F8E499F922C3E4EC
:1019130098F8E499F9121931E498F8E499F9C3E4D1
:101923009AFAE49BFB22EB20E7CFE920E7E0B9003A
:1019330010BB0008E88AF084F8AAF022E4FBC8FA96
:1019430022EB70227B10C833C8C933C9335007C395
:101953009AC3DBF280069A50012ADBEAC833F4C843
:10196300C933F4C9FA2275F008E4C833C8C933C9C6
:1019730033C99AC99B5004C92AC93BD5F0ECFBC8AB
:1019830033F4C8E4C9FA22600D08C6A2E713C618E7
:10199300C613C6D5E0F322600C08C6C313C618C627
:1019A30013C6D5E0F422700422600D18C6C333C6F3
:1019B30008C633C6D5E0F41822251810AF08F51869
:1019C300400C15198008F51840021519D2AF2200F2
:1019D300C0D0251810AF08F518500C05198008F56C
:1019E3001850020519D2AFD0D0222518F58210AFB6
:1019F30008F518400C15198008F51840021519D27E
:101A0300AF851983222518F582E43519F58322253C
:101A130018F8E43519F9222518FAE43519FB2225BB
:101A230018FCE43519FD22E4732518C582C0E0E5EE
:101A33001934FFC583C0E0E518C3958224F810AFBD
:101A4300088583198582188008858319858218D2B1
:101A5300AFCEF0A3E520F0A37808E608F0A3DEFA02
:101A6300EFF0A3E58124FAF8E608F0A3E608F0A373
:101A7300E608F0A30808E608F0A3E608F0A315813A
:101A83001581D0E0FED0E0F8158115811581E8C0FD
:101A9300E0EEC0E0222518C582C0E0E51934FFC599
:101AA30083C0E0E518C3958224F910AF0885831934
:101AB3008582188008858319858218D2AFCEF0A35A
:101AC300E520F0A37808E608F0A3DEFAEFF0A3E53B
:101AD3008124FBF8E608F0A3E608F0A30808E6086B
:101AE300F0A3E608F0A315811581D0E0FED0E0F85D
:101AF30015811581E8C0E0EEC0E0228519838518C1
:101B030082E0A3FEE0A3F5207808E0A3F608DFFA5D
:101B1300E0A3FFE0A3C0E0E0A3C0E0E0A3C0E0E0F7
:101B2300A3C0E0E0A3C0E010AF0885821885831945
:101B33008008858218858319D2AFD083D0820201B1
:101B43001F851983851882E0A3FEE0A3F52078089A
:101B5300E0A3F608DFFAE0A3FFE0A3C0E0E0A3C040
:101B6300E0E0A3C0E0E0A3C0E010AF0885821885E1
:101B730083198008858218858319D2AFD083D082D8
:101B830022C0D02518C582C0E0E51934FFC583C043
:101B9300E0E518C3958224F310AF08858319858285
:101BA300188008858319858218D2AFC8F0A3E9F09D
:101BB300A3EAF0A3EBF0A37908E709F0A3D8FAECC2
:101BC300F0A3EDF0A3EEF0A3EFF0A3D0E0F0A3D0E9
:101BD300E0F0A3D0E0F0A3E520F0A3E5F0F0A3222A
:101BE300851983851882E0C0E0A3E0F9A3E0FAA396
:101BF300E0FBA37808E0F608A3DFFAE0FCA3E0FD2E
:101C0300A3E0FEA3E0FFA3E0C0E0A3E0C0E0A3E005
:101C1300F5D0A3E0F520A3E0A3F5F010AF0885838A
:101C2300198582188008858319858218D2AFD082DE
:101C3300D083D0E0F8D0E0327404800674028002CE
:101C43007401C0E0F4041219EDD0E01218C222743A
:101C530004800474028000CCC0E0EDC0E0E518C34A
:101C63009CCCAD1950011D10AF068C188D19800640
:101C73008C188D19D2AF1218CFD0E0FDD0E0FC2222
:101C8300D083D082E9C0E0E493A3C386F0C5F09586
:101C9300F0F908E493A386F0C5F095F0700BE49394
:101CA300A3C3994005E9048002A3E475F002A425C7
:101CB30082F582E5F03583F583D0E0F9E493A3C0A0
:101CC300E0E493C0E022D083D082ECC0E0EDC0E03A
:101CD300E493A3FCE493A3FDED4C600D121D15ECFE
:101CE30024FFFCED34FFFD80EFE493A3FCE493A316
:101CF300FDED4C600D121D54EC24FFFCED34FFFD93
:101D030080EFD0E0FDD0E0FCE493A3C0E0E493C017
:101D1300E022C0E0C3E49396087401939618400F41
:101D2300E49366700808740193661870007019A331
:101D3300A3C3E49396087401939618A3A3400DD00C
:101D4300E0D0E0D0E0021D05A3A3A3A3A3A3D0E0AA
:101D530022C0E0C0F088F0E4936670080874019331
:101D630066187000A8F0A3A3700BD0F0D0E0D0E009
:0C1D7300D0E0021D05A3A3D0F0D0E022B8
:101D800074F6121A98EAFEEBFF8C088D09EE2434E3
:101D9000F8E43FF9E8FCE9FDEE2435122093FAEE71
:101DA0002437122093F88508F0A4C885F00A850925
:101DB000F0A4250AF9EA28F8E439F97A257B00121B
:101DC0001931EA8C828D83F0FA131313541FF8EE45
:101DD00028F8E43FF9E8245DF582E439F583E0C0B2
:101DE000E074075AF8D0E0B800028004C313D8FCAE
:101DF000A2E0EE50082434F582E43F801824361225
:101E00002093F5F0EA84A8F0EE28F8E43FF9E824FE
:101E100038F582E439F583E0F97F03021B4474F757
:101E2000121A98EAFEEBFFEE2434122093C0E0EE83
:101E30002435F582E43FF583D0E0F08E828F83A3D2
:101E4000A3A3A3A3A3A3C082C0838E828F83A3A3D3
:101E5000A3A3A3E0F8A3E0F9D083D082E0C398F570
:101E600008A3E099F509EE247F1220936401703EE7
:101E7000EE2480F582E43FF583C082C0838E828F9A
:101E800083A3A3A3A3A3E0240108A3E03400F9D013
:101E900083D082E0687003A3E06970127CBC7D048B
:101EA000120D4DEE247FF582E43FF583E4F0AC089B
:101EB000AD09EEFAEFFB121D80E9F91227EB7F0264
:101EC000021B44C082C083851882851983E0F8A371
:101ED000E0F9C3EA9CEB9D5010C3EC98ED99401BD0
:101EE000C3EA98EB995014800EC3EA98EB99400727
:101EF000C3EC98ED994004790180027900D083D039
:101F00008222EAC39CFAEB9DFB2274EF121A98908E
:101F10000381E064086005E06407702A9061C8E00E
:101F200060249003AFE0F4601DE0F875F00BA4C8E6
:101F3000AAF02AF974B128FE740339FF8E828F83C8
:101F4000A3A3A3E07003022018906060E0C0E0EE5D
:101F50002468F582E43FF583D0E0F0750C2C750D14
:101F600005750800750900E5D914F50AE5D954038B
:101F7000F50E60127403650E6043E50A600AEE24F4
:101F80006712209370028075900527E06401601F3E
:101F900012209060047A0480027A00E50AC39AFA5B
:101FA00095E0FB120BFD8A088B09EA4509700512C2
:101FB0000F7B806412209070048A0C8B0DE50A6000
:101FC00012850C82850D83F50BE5D9F0A3150BE581
:101FD0000B70F6122090604474FC250AF50A780C08
:101FE000121C3FAC0AA90EEEFAEFFB120E077402A8
:101FF0001219D2E97026AA08AB091214BB793D8EDA
:10200000828F83A3A3A3A3E0FA7B00120A5FEEFAF8
:10201000EFFB120D71120E197900806F7403650EBB
:102020006051850A107511007810121C3FAC0CAD80
:102030000DAA08AB09120DCB74021219D2EE246856
:1020400012209364807004747F8001E0F50C780C9A
:10205000121C43E50EF50C780C121C43A90AAC08BF
:10206000AD099003AFE0FA7B00120A357402121931
:10207000D28013900381E06408600BAC0CAD0DEED0
:10208000FAEFFB120E91120F8779017F0A021B44AF
:10209000EE2483F582E43FF583E02274F2121A986D
:1020A00074FC1219BCEAFEEBFF8909A2AFE433F518
:1020B00008C2AF022165E0601B780C121C3FAC0B1C
:1020C000A90EEEFAEFFB120E0174021219D274047B
:1020D000250BF50B7401250BF5D9850ED9E50B60A1
:1020E00018F50A850C82850D83E0F5D9A385820C4D
:1020F00085830D150AE50A70EA75E195EE2463F80B
:10210000E43FF97A007B00A2AFE433F50BC2AF885D
:10211000828983E0FCA3E0FDEC4D603A88828983EC
:10212000E0FAA3E0FB8A828B83E0FCA3E0FD8882D7
:102130008983ECF0A3EDF08A828B83E4F0A3F0882E
:10214000828983E0FCA3E0FDEC4D700A88828983DC
:10215000A3A3E4F0A3F0E50BA2E092AF1214BB90AE
:1021600004C3E004F0EE2463122093F8A3E0F9E83E
:10217000496064EE24631220932402F8A3E0340043
:10218000F988828983E5822402F50CE43583F50D14
:10219000E0F50BA3E0F50EEE2462122093640170CB
:1021A000369061D0E0F812209060047C0480027CBC
:1021B000007480C398FA95E0FBE50B2CF8E434003A
:1021C000F9E82402F8500109C3EA98EB99A2D26514
:1021D000D03340030220B69004C3E0604D9004C4A5
:1021E000E0F89004C3E0C398500C74026509703A9B
:1021F0009004C5E060348E828F83A3A3A3A3E085FF
:10220000188285198312223A7402121A08E81222DF
:102210003A9004C2E028F07402121A22AA18AB19EC
:102220007901120A899004C3E4F0E508A2E092AFB4
:1022300074041219D27F07021B44F0A3E4F0900447
:10224000C3E0F8228521878522C622C0E074EB1204
:102250001B84A2AFE433F508C2AF759B0090618286
:10226000E0A2E05030E591A2E0502A7591FE7401A1
:10227000652170211223DE120ED31223CC121C52C0
:1022800012259574041219D2E964017005790112BE
:102290000F0F121F0A906182E0A2E5505DE591A246
:1022A000E550577591DF900381E064076005E064B5
:1022B00008702F1223DE74016521703E120ED312B6
:1022C00023CC121C5212259574041219D2E9640110
:1022D00070057901120F0F7901EEFAEFFB12209BC6
:1022E0008018E0640D70139003A3E004F06428707C
:1022F00002E4F07A00E0F9120F8D906182E0A2E62C
:1023000040030223A1E591A2E640030223A17591B7
:10231000BF900381E064057008120EBB120EC780E7
:1023200003120EC1752100120F1BE9900382F07990
:1023300000120F0F120CBD7A017B00900380E0F9B0
:1023400012148B907803E06442705690052BE014D1
:10235000F0704EC2AF12235800782AD0E0F618D0A1
:10236000E0F6E59F5407F87005750DFF8003750DC5
:102370007FC4C0E07829E6F50A08E6550DF50B7430
:102380000B780A12199AD0E0250AF8906270E0A240
:10239000E740F8E8C333906272F0906270E0D2E0F8
:1023A000F0906181E0A2E35009E5E9A2E3500375F2
:1023B000E9F7A3E0A2E75009E591A2E75003759180
:1023C0007FE508A2E092AF7F08021BE38E828F8335
:1023D000E0F8A3E0C82416F582E438F583229003E0
:1023E000AFE0F875F00BA4C8AAF02AF974B128FE82
:1023F000740339FF22C0E0C0D0C082C083906183E3
:10240000E0A2E05009E5BFA2E0500375BFFEE0A2E4
:10241000E15009E5BFA2E1500375BFFDE0A2E25023
:1024200009E5BFA2E2500375BFFBE0A2E35009E556
:10243000BFA2E3500375BFF7E0A2E45009E5BFA2D5
:10244000E4500375BFEFE0A2E55009E5BFA2E550F7
:102450000375BFDFE0A2E65009E5BFA2E6500375B1
:10246000BFBFD083D082D0D0D0E032C0E074F212AF
:102470001B84E5A7A2E6500FE5A1A2E6500953A7E9
:10248000BF75A1BF1224BFE5A7A2E5500CE5A1A22C
:10249000E5500653A7DF75A1DFE5A7A2E15009E5E6
:1024A000A1A2E1500375A1FDE5A7A2E2500CE5A1B0
:1024B000A2E2500653A7FB75A1FB7F01021BE37448
:1024C000F7121A98752101900381E06406701512C5
:1024D0000E3D8A828B83A3A3A3A3A3A3E0FAA3E068
:1024E000FB120EA9A2AFE433FED2AF900387E064E3
:1024F0000170187A207B00900380E0F912159F7A12
:10250000207B00900380E0F9121491906182E0D268
:10251000E6F0900528E0602185C6228016900386AB
:10252000E064017008E5C654F84405F5C653BEFCE6
:102530001222447401652160E4EEA2E092AF7F02B2
:10254000021B44008E238F248582288583278518CB
:1025500082851983E0CEA3E0CF852882852783EB8F
:10256000C9EAC8EDCBECCA75F010C3E833C8E9334B
:10257000C9EA33CAEB33CBC3EA9EF526EB9FF525B8
:10258000B35004AB25AA26EC33CCED33CDD5F0DA2D
:10259000AE23AF242274F1121A988A088B098C0A90
:1025A0008D0B9084B1780812184E740F121A0878A7
:1025B0000C1218749084B1780C12184E7808790CAB
:1025C00012167690850150107808790C121826782A
:1025D000081216964014800E780C79081218267886
:1025E0000C12169650047901800279007F08021BB4
:1025F0004474ED121A988A088B098C0A8D0B90840A
:10260000B1780812184E7413121A08780C12187444
:102610009084B1780C12184E780C79081216764016
:10262000117808790C121826AA08AB09AC0AAD0B70
:102630008022751000751100751200751301781055
:10264000790C121826781079081217EDAA10AB1120
:10265000AC12AD137F0C021B449084B178081218A1
:10266000748A828B8378081218617F04021B447479
:10267000F5121A988C828D8378081218748A828BCE
:1026800083780812183A1226C7C3E09CF0A3E09D95
:102690001226B940229084F178081218748A828B2D
:1026A0008378081218138A828B83A3A3A3A3E02440
:1026B00020F0A3E0344EF080A0F088828983C3E04C
:1026C0009420A3E0944E22EA2404F8E43BF98C829F
:1026D0008D83A3A3A3A3E0FCA3E0FD8882898322CA
:1026E00074F5121A98E9FE9004DEE0FAA3E0FBEE1E
:1026F00029F8E433F9749228F582748339F583E07C
:102700002AF508A3E03BF5097808121C3F90849D48
:1027100012189212254474021219D28A088B098C5D
:102720000A8D0B741078081217B5AA08AB097F043C
:10273000021B4474F1121A988A0C8B0D8C0E8D0FAB
:102740007411121A08121C567411121A08E024018E
:10275000F508A3E03400F509E4F50AF50B780C79E7
:10276000081216B59084FD7808121874780C790850
:102770001216B5AA0CAB0DAC0EAD0F1225447402A7
:102780001219D28B09EA450960047A0180027A00A5
:10279000EC2AFCE43DFD7413121A08E0F8A3E0F9FA
:1027A000E8FEE9FFECF8EDF97A717B021219318845
:1027B000088909E4F50AF50B8E828F8378081218D0
:1027C00083ECF8EDF97A717B021219318A088B09D2
:1027D000740578081219A98E828F83A3A3A3A3E599
:1027E00008F0A3E509F07F08021B44C082C083E91A
:1027F000906000F0D083D08222C0E074F2121B847B
:10280000A2AFE433FED2AFE589A2E150031212CFAA
:10281000758900C2C5EEA2E092AF7F01021BE3C042
:10282000E074F2121B84A2AFE433FED2AFE58BA2B8
:10283000E050031212CF758B00C2E880D8C0E0C010
:10284000D0E8C0E0E9C0E0A9A8D2AFC2C7E9A2E7DA
:10285000E433F8E9A2E792AFD0E0F9D0E0F8D0D0C5
:10286000D0E032C0E0C0D0E8C0E0E9C0E0EAC0E0BB
:10287000C082C083A2AFE433FAD2AFA8F9E8C0E0C7
:102880009008E4E0F8746328F582E43408F583D016
:10289000E0F09008E3E0F8A3E0687006E5959008A2
:1028A000E6F09008E4E004F0C394804002E4F0A372
:1028B000E4F0EAA2E092AFD083D082D0E0FAD0E098
:1028C000F9D0E0F8D0D0D0E032C0E0C0D0E8C0E02D
:1028D000E9C0E0EAC0E0C082C083A2AFE433FAD22C
:1028E000AF900967E0F8A3E0687008539AF7A37403
:1028F000018022C2EA900967E0F8740128F074E7C9
:1029000028F582E43408F583E0F5F9900967E0C31F
:1029100094804002E4F0809AC0E074F2121B84A21A
:10292000AFE433FED2AF758900C2C5A28240031264
:1029300013E3EEA2E092AF7F01021BE3C0E074F26A
:10294000121B84A2AFE433FED2AF758A00C2EBA2A1
:0E2950009750031213E380DAC2AF0200002298
:10296000FFFFFFFFFFFFFFFFC082C083E9901967F1
:10297000F0D083D08202011F74F6121A2CE9900263
:10298000F3F0900353E0F50875090074027808121B
:1029900019A9AA08AB091215039002F412332B905F
:1029A00002F4123718606F900353E075F003A4FA35
:1029B000ABF012150390031112332B900311123751
:1029C00018700B9002F41236E91215098048900332
:1029D0001112467D7AFF7BFF12124B7A0080198A12
:1029E00008750900740278081219A912412574FFAC
:1029F000122B2BE4F0A3F00A900353E0F8EAC398FB
:102A000040DD79051209279002F3E0F91208137AE4
:102A1000B17B09120B9D0241C874F4121A2C8A086A
:102A20008B09EB548060479002F3E0F91214738A2B
:102A30000A8B0BAE0AAF0BEE4F602A8E828F83E0BB
:102A400064B0701A120939E960148E828F83A3A3CF
:102A5000A3A3E0F9EE2405FAE43FFB120909EEFA1C
:102A6000EFFB121461AA08E5096480FB80047A0078
:102A70007B00022C7B74F2121A2C74FB1219BCEA34
:102A8000FEEBFFEE4F60457403121A08EEF0A3EF61
:102A9000F0851882851983ECF0A3EDF07402121A08
:102AA00008E9F0AA18AB1912080DE9F50870757459
:102AB00013121A08E0F50AA3E0F50BE50A450B60CE
:102AC000638E828F831230B4EE4F700575080280DA
:102AD000537A067B001215038A0C8B0DA80CA90DE6
:102AE000E8497005750813803B88828983E4122BBE
:102AF0002BEEF0A3EF122C47E50AF0A3E50BF090C4
:102B000002F7122C409002F76017E0FCA3E080036C
:102B1000EAFCEBFD8C828D83122C4070F38C828D4D
:102B200083123D40A90874050248FDF0A312465FD8
:102B3000A32274F2121A2C8908890C750D007403F3
:102B4000780C1219A9850C0A850D0B9002F6F090ED
:102B500002F4123B4B122C3E602E121509790080B4
:102B60001D890C750D007402780C1219A99002F4DD
:102B7000123FE48882F583A3A3E4F0A3F009900355
:102B800053E0F8E9C39840D9900353E0FA850AF07E
:102B9000A4CAA8F0850BF0A428FB1215038A0C8B9D
:102BA0000DAE0CAF0DEE4F7003022C34900353E0CA
:102BB000FC850AF0A4CCA8F0850BF0A428FD7900D0
:102BC00012144F7C0080318D0C750D007403780C4D
:102BD0001219A98A828B83122C3988828983E4F0A6
:102BE000122C46A3A3F0A3F00DEDC3950840D8EE38
:102BF000250AFEEF350BFF0C900353E0F8ECC39869
:102C000050288C0C750D007402780C1219A99002D2
:102C1000F4122C39E82402500109FAE9FB8A828B6C
:102C200083EEF0A3EFF07D0080BFE5089002F6F0A0
:102C3000790080027913024900123FE8F922A3A328
:102C40001236EDEA4B22A312465FA3A3A32274F42B
:102C5000121A2C7900EAA2E0501F75084C750984FD
:102C60007808121C3F79107C047D007A697B191268
:102C7000092174021219D2E9F980007F04021AFEB8
:102C8000C082C0839002F7123718601C8882898343
:102C9000A3A3E06A7003A3E06B8882898370E8A332
:102CA000A3A3A31236E980047A007B000229717481
:102CB000F2121A2C74FD1219BCEAFEEBFF85188281
:102CC000851983E4F0A3F07402121A087401F0125B
:102CD00037157014120AD71215039002FA12332B0B
:102CE0001237157003022E4112342BEE2404F50A1C
:102CF000E43FF50B850A82F583E024FE603C24FC6A
:102D0000607424FE607E24FE7003022D9124FE7008
:102D100003022D9E24FE7003022DAB24FE700302DD
:102D20002DB824FE7003022DC524FC7003022DE68D
:102D300024FE7003022DFE022E3A120AD79002FCE6
:102D4000EAF0A3EB122E4D120549E96003022E3A78
:102D50009002FC121C568E828F83A3A3A3A3A312FE
:102D6000467D8508828509831236E91208F17402CE
:102D70001219D2022E3AAC18AD19EEFAEFFB120975
:102D80003F022E09AC18AD19EEFAEFFB120945808F
:102D900078AC18AD19EEFAEFFB12094B806BAC184A
:102DA000AD19EEFAEFFB120951805EAC18AD19EEC9
:102DB000FAEFFB1209578051AC18AD19EEFAEFFB90
:102DC00012095D80447402121A12880C890D780C65
:102DD000121C3F7402121A22EEFAEFFB12096374FE
:102DE000021219D28023AC18AD19EEFAEFFB1209CA
:102DF00069E9F870167402121A08E4F0803CAC1805
:102E0000AD19EEFAEFFB12096FE9F8E8602C8E823B
:102E10008F83A3E064146022850A82850B83E0908F
:102E200002FCF08518828519831236E99002FD12A2
:102E3000332BE8A3122E4D120543EEFAEFFB1208D6
:102E4000C77402121A08E0F974030248FDF07CFC12
:102E50007D028508828509831236ED2274E8121AF4
:102E60002C74FA1219BC7404121A08ECF0A3EDF0D9
:102E70008A128B13EA2405F50EE43513F50FEA24C4
:102E800002F510E43513F511851082F5831236E949
:102E90001206398A0A8B0B7508007C037D007900C5
:102EA0007AFC7B0212144FE50E2402F516E4350F6E
:102EB000F5177402121A12880C890D780C121C3F37
:102EC000850E82850F83A3A3A3A3E0F50C750D00E7
:102ED000780C121C3FE50E2405F50CE4350FF50DBA
:102EE000780C121C3F8516828517831239F0120860
:102EF0002B74061219D28A0C8B0DE50C450D70034C
:102F000002307D8020851882851983E0888289833C
:102F1000F00508851882851983A3E0C0E01230BE51
:102F2000D0E0F00508E50A24FBFAE50B34FFFBC30B
:102F3000E5089AE49B400302307D7E007F00851205
:102F400082851383A3A3A3A3E0F5097809121C4388
:102F5000E4F514F5157814121C3F7514F975150273
:102F60007814121C3F9002FA121C567409121A08A7
:102F7000121C56E50A24F9F9AC0CAD0D85108285BA
:102F800011831236E912099974091219D2E9600302
:102F900002301E850E82850F83A3A3A3A3A3A3A340
:102FA000E0F89002F9E0687075E0F5148E15781479
:102FB000121C3F12467A850E82850F83A3A3A3A31A
:102FC000A3A3A3A31236E912144974021219D2E979
:102FD000604C9002FD123718703BE4F5147814121F
:102FE0001C3F7CFF7DFF7907851082851183123697
:102FF000E912090374021219D212371E7017850ED6
:1030000082850F831248177404121A081240D812CE
:103010003A210230B1850C82850D831230B4A81894
:10302000A919881489157814121C3F7404121A08FF
:10303000121C5685168285178312332112083774A5
:10304000041219D28A0C8B0DEE4F7003022EFA1265
:1030500030BEEE1230C91239D7EF1230C9F8A3E0F2
:103060003400F9E50C450D6003022F058882898341
:1030700074FFF005081230BE74FFF00508E5086023
:103080001A1313543F123331120555E960099002A7
:10309000FD1236E91214BB79008016850E82850F69
:1030A000831248177404121A081240D8123D40794E
:1030B0000A0239AAA3A3A3A3E0FEA3E0FF22A80863
:1030C0009002FDE0281239D722F00508089002FD91
:1030D000E0282274E8121A2C74FA1219BC74021235
:1030E0001A0812332B7404121A08ECF0A3EDF074D2
:1030F00002121A08E024051239C0E0F50CA3E0F52D
:103100000D7402121A08E02402F510A3E03400F551
:1031100011851082F5831236E9120639750800759B
:103120000900EA24FCFEEB34FFFF8008050CE50CE7
:103130007002050DA808C3EE98EF94005003023208
:10314000DDA818A919880E890F780E121C3F851466
:1031500082851583A3A3A3A3124681121C3FE51405
:103160002405F50EE43515F50F780E121C3F851475
:103170008285158312331F12082B74061219D28A06
:103180000E8B0FEA450F70030232DDEA2404F516B8
:10319000E4350FF517851682F583E0F50CA3E0F50D
:1031A0000D85188285198312467D8A828B83A3A39D
:1031B000A3E0F98510828511831236E9120819E916
:1031C000F50960030232DD7402121A081239E7F5BC
:1031D000097809121C43E4F512F5137812121C3F0A
:1031E0007512F97513027812121C3F9002FA121C24
:1031F000567407121A08121C56EEF9AC0EAD0F8564
:1032000010828511831236E912099974091219D2B4
:10321000E9F50960030232DDE508703FE4F50EF5DB
:103220000F780E121C3F7CFF7DFF79098510828587
:1032300011831236E912090374021219D2123A0DDF
:10324000700D7404121A081233147911023311909C
:1032500002F9E024029002FDF080149002FDE0FAF1
:103260009002F9E0790024025001096A497072A8BD
:10327000089002F9E0FAE82AFAE43400FBEE9AEF4B
:103280009B405A851682851783E0C0E09002FE12AB
:1032900030C3D0E0F00508851682851783A3E0C00F
:1032A000E0089002FE1230C3D0E0F005089002F969
:1032B000124681121C3F12467AA8081239B4121421
:1032C0003774021219D29002F9E02508F50874FF4C
:1032D000650C700474FF650D600302312CE5086015
:1032E0001F9002FDE0F5F0E5088412333112055B12
:1032F000E960099002FE1236E91214BB79008011D0
:10330000E509700375090A7404121A08123314A926
:10331000090239AA123B4FE50CF0A3E50DF022A3F8
:10332000A312490CAA0CAB0D22A3A3EAF0A3EBF065
:10333000229002FCF07CFC7D0285108285118312B4
:1033400036ED2274EC121A2C74FC1219BC123E5089
:103350007402121A221236E31208318A0C8B0DEA1B
:10336000450D700302341B12342BA818A9198810BC
:1033700089117810121C3F7CFF7DFF790B85088234
:103380008509831236E912090374021219D2123523
:1033900021700C850A82850B83123A1E0234288E16
:1033A000828F83A3A3A3A3E0F5127812121C43E437
:1033B000F512F5137812121C3F7512FC7513027882
:1033C00012121C3F7810121C3F7409121A08121CAA
:1033D000567409121A08E0F9AC0CAD0D8508828507
:1033E00009831236E912099974091219D2E9FE709B
:1033F000157CFC7D028508828509831236E9120559
:1034000061E97009802074166E70027E009002FDE2
:103410001236E91214BBEE7004800B7E01850A821D
:10342000850B83123D3DEEF9023D52EE2402F50874
:10343000E43FF5092274EC121A2C74FC1219BCEA50
:10344000FEEBFF8C0E8D0FEE2405F508E43FF50929
:103450007402121A228508828509831236E912083D
:10346000318A0C8B0DEA450D7003023511EE2402F2
:10347000F50AE43FF50BA818A919881089117810EE
:10348000121C3F7CFF7DFF790D1236E31209037495
:10349000021219D2123521700B8508828509831218
:1034A0003A1E807A8E828F83A3A3A3A3E0F51278BD
:1034B00012121C43850882850983A3A3121C56752A
:1034C00012FC7513027812121C3F7810121C3F7404
:1034D00009121A08121C567409121A08E0F9123659
:1034E000DF12099974091219D2E9FE700F7CFC7D74
:1034F000021236E3120567E97009802074166E70B7
:10350000027E009002FD1236E91214BBEE700480B8
:103510000B7E01850882850983123D3DEEF9023D4F
:1035200052123728F510A3E0F511EA45112274E88C
:10353000121A2C74FE1219BC8A168B178C148D1556
:10354000EA2405F50CE43517F50DEA2402F50EE43E
:103550003517F50F850E82F5831236E91206398A82
:10356000088B09750B007C037D0079007AFC7B02D7
:1035700012144F750A00E50814F5100424FFF5082D
:10358000E50934FFF50980549002FCE0FA9002F955
:10359000E0F8EA28F8E43400F9E50898E5099950DC
:1035A0000D9002FCE0F8E510C3989002F9F0E0F508
:1035B000127513007812121C3F12467A9002FDE039
:1035C0002AFAA3E03400FB12143774021219D290C5
:1035D00002F9E0F89002FCE028F0050A850C8285EB
:1035E0000D83A3A3123FF440030236C49002FCE013
:1035F000C39508E4950940030236C4AE0AEE2EFED8
:10360000E433FF123703AC18AD19124695E439FBC9
:103610001208318A128B13AC12AD13EC4D701B756E
:103620000B011236F3123D419002FD122C40600353
:103630001214BBA90B74020239AC8516828517835C
:10364000A3A3A3A3E0F50B780B121C43E4F512F53A
:10365000137812121C3F7512F97513027812121C9E
:103660003F9002FA121C567407121A08121C56A92F
:1036700010850E82850F831236E91209997409129A
:1036800019D2E9F50B709B9002FD12371860030206
:103690003588E4F512F5137812121C3F7CFF7DFF8C
:1036A000790F850E82850F831236E91209037402A1
:1036B0001219D212371E60030235881236F3123AFD
:1036C000220236357CFC7D02850E82850F83123600
:1036D000E912056DE960030236287900023635AC3F
:1036E0000CAD0D850A82850B831236ED22E0FAA31C
:1036F000E0FB22123703E0FAA3E0F9EA85148285A1
:10370000158322850C82850D83E02EF8A3E03FF916
:1037100088828983229002FA12481BE849221237D4
:1037200028F8A3E0F9E849229002FDEAF0A3EBF0C3
:103730009002FDE02274E8121A2C74FA1219BC747B
:1037400004121A0812332B8C168D177404121A08DF
:10375000E02405F50EA3E03400F50F7404121A08F6
:10376000E024021239C01236E91206398A0A8B0B9C
:103770007F007E00A818A919880889097808121CFA
:103780003F850E82850F83A3A3A3A3E0F5088E09CE
:103790007808121C3FE50E2405F508E4350FF509FD
:1037A0007808121C3F850E82850F83A3A31239F07F
:1037B00012082B74061219D28A0C8B0D802912392B
:1037C000E1F00F1239E1F00F9002F9123D2C121CBA
:1037D0003F12467AEFF81239B412143774021219F4
:1037E000D29002F9E02FFFE50C450D70030238700E
:1037F000851882851983123E62A3A3A3E0F985147C
:10380000828515831236E9120819E9FEE50C2404B5
:10381000F510E4350DF511EE70507404121A08120B
:1038200039E7F5087808121C43E4F508F50978082B
:10383000121C3F7508F97509027808121C3F9002A6
:10384000FA121C567407121A08121C56E50A24FABA
:10385000F9AC0CAD0D8514828515831236E9120979
:103860009974091219D2E9FE60391239FD123D40EE
:10387000EF70030239979002FDE0F5F0EF849002BB
:10388000FCF07CFC7D028514828515831236E912DA
:103890000573E960099002FE1236E91214BB790043
:1038A0000239AA8F08EF703BE4F512F51378121273
:1038B0001C3F7CFF7DFF79118514828515831236AC
:1038C000E912090374021219D2123A0D7009123961
:1038D000FD123A210239AA9002F9E024049002FD77
:1038E000F080359002F9E0F89002FDE0FAE8240457
:1038F000FCE43400FDEC6A4D6003023876E50A24EE
:10390000FAFAE50B34FFFBE50828F8E43400F9EA9D
:1039100098EB995003023876851082851183E0C0B8
:10392000E09002FEE02FF8A3E034008882F583D017
:10393000E0F00F851082851183A3E0C0E01239CE3C
:10394000D0E0F00F7402121A128808890978081260
:103950001C3F7402121A08121C56850E82850F83B2
:1039600012331F12083774041219D28A0C8B0DEA15
:10397000450D70030237BE7402121A08E0C0E0124F
:1039800039CED0E0F00F7402121A08A3E0C0E012A2
:1039900039CED0E00237C6EE70027E0A850E8285EF
:1039A0000F83123A03123D40EEF974061219D27FCA
:1039B00010021AFE9002FEE028FAA3E03400FB2277
:1039C000F514A3E03400F515851482F5832212392D
:1039D000D2229002FEE02FFAA3E034008A82F5831F
:1039E000221239D274FF22123B4FA3A3A3A3E022D9
:1039F00012490C850E82850F831236ED22851082C6
:103A000085118312481B851682851783229002FE3A
:103A1000EAF0A3EBF09002FE12481BE84922123DA7
:103A200046E8F0A3E9F079112274EA121A2C74FE28
:103A30001219BC8A088B098C128D13EA2405FEE446
:103A40003509FFAC18AD198E828F831236E9120842
:103A5000318A0C8B0DEE2406F50EE43FF50FEA4596
:103A60000D7003023B21E5082402F50AE43509F54F
:103A70000B8A828B83A3A3A3E0A2E550288518823A
:103A80008519831236E912098D8A108B11EA4511C6
:103A9000602079121236DF851082851183121A2A6E
:103AA000E9F50C707F850E82850F83E060097952FD
:103AB0008011750C0E806D850882850983A3A3A3F0
:103AC000A3E0F9E4F508F5097808121C3F8E828F0F
:103AD00083A3A3E0F5087808121C3F8E828F83A38E
:103AE000A3A3121C568E828F8312467D1236E312D8
:103AF000099F74061219D2E9F50C7011850E8285A2
:103B00000F83E0702D1236E3120579802574166557
:103B10000C7011750C007418121A08123B4BE480DB
:103B200010750C01124813851282851383E8F0A3E7
:103B3000E9F0850E82850F83E0600479008002A998
:103B40000C74021219D27F0E021AFE123B4F22E0B1
:103B5000F8A3E0F58388822274EC121A2C74F71211
:103B600019BC8A0A8B0B8C108D11EA2405FEE435F2
:103B70000BFF750C00AC18AD198E828F831236E9DD
:103B80001208318A088B09EA45097003023D17E5DE
:103B90000A2402F50A5002050B8A828B83A3A3A391
:103BA000E0A2E5502F8518828519831236E91209A3
:103BB0008D8A0C8B0DEA450D604F7912AC08AD096A
:103BC0001236E3850C82850D83121A2AE9F50C6002
:103BD00003023D1A850A82850B83E0F508A3E0F510
:103BE00009AA08FB120981EA4B70197AFF7BFF12C0
:103BF0000981EA4B7003023D0D8A828B83E508F050
:103C0000A3E509F07508008008750C0E023D1A0541
:103C1000089002F6E0F8E508C3984003023D0D85E0
:103C2000080E750F007403780E1219A98A828B830F
:103C3000A3A3E0250EF8A3E0350F1240E170D08E6B
:103C4000828F83123D3512332B8E828F83A3A31272
:103C50003D35123329EE2404F508E43FF5098508C3
:103C600082F583E088828983A3A3A3A3F0A3E4F071
:103C7000EE2405F50EE43FF50F850E82F583123D27
:103C800035A3A3A3A3123329751207751300781265
:103C9000121C3FEEFCEFFD7404121A1A1214377452
:103CA000021219D2E4F5127812121C3F850882859F
:103CB0000983E0FC7D0079171236E31209037402D0
:103CC0001219D27407121A0812332B7407121A0829
:103CD000E0FA4B603D850882850983123D2C121C59
:103CE0003F850E82850F8312467D121437740212AF
:103CF00019D27402121A221236E312057FE96026E5
:103D00007407121A081236E91214BB8019750C09CF
:103D10008008750C118003750C0112481385108200
:103D2000851183123D40A90C74098028E0F50875BF
:103D300009007808221236ED8882898322123D46D6
:103D4000E8F0A3E9F022E0F8A3E0F9850E82850F00
:103D5000832274041219D27F0C021AFE74EC121A18
:103D60002C123E50751000EE2402F50CE43FF50DC8
:103D7000850C82F5831236E91209818A088B09EADB
:103D800045097003023E34850A82850B83E0640195
:103D90006003023E29AC08AD09AA0AAB0B120975F3
:103DA000E9606E8508828509831230B6EE2406F537
:103DB0000AE43FF50B8E828F83A3A3121C568E82DA
:103DC0008F83A3A3A3A3121C56850A82850B83129B
:103DD0001C5679188E828F83123E621236E91209C0
:103DE0009F74061219D2E9F8741668700B850A825E
:103DF000850B83E4F0A38014E860128E828F831217
:103E000036E9850E82850F83EAF0A3EBF0881080F7
:103E100018780E121C3FAC08AD09EEFAEFFB120940
:103E20007B74021219D2E9F510AA08AB09120987AE
:103E3000E510700E850C82850D831236E91205851A
:103E40008009741665107003751000A910023D57A3
:103E5000EAFEEBFF8C0E8D0FEE2405F50AE43FF52C
:103E60000B2212490C850C82850D832274EA121AEA
:103E70002C7508007509007E007F00750A00EC248F
:103E800002F510E43DF5118035EC65087003ED6531
:103E9000096003023F2188828983A3A3E06A70033B
:103EA000A3E06B707C88828983A3A3A3A312481725
:103EB000EE28FEEF39FFEA28FAEB39FB050A123F3C
:103EC000F1503A850A0C750D007403780C1219A98B
:103ED000851082851183123FE41240E1601FE508DE
:103EE000450970A58C088D09888289831230B488B1
:103EF000828983A3A3E02EFAA3E03F80BEE50AC334
:103F000094025003023FDF750800750900EE4F6010
:103F100010EEFAEFFB1214B58A0E8B0FEA450F7004
:103F2000057900023FE1750B00023FB4850B0C756B
:103F30000D007403780C1219A9851082851183E095
:103F4000250CF50CA3E0350DF50DE50C2406F51454
:103F5000E4350DF515851482F5831240E66042E5DF
:103F60000C2404F512E4350DF513851282F5831245
:103F70001C56E50E2508FAE50F3509FB12143774B7
:103F8000021219D2851282851383E02508F508A351
:103F9000E03509F5098514828515831236E9121476
:103FA000BBE50B600D7C087D007900AA0CAB0D12FF
:103FB000144F050BE50BC3950A5003023F2C8510E7
:103FC0008285118312481788828983A3A3A3A3A3A0
:103FD000A3E50EF0A3E50F122C47EEF0A3EFF07966
:103FE00001023B46123FE822E0250CF8A3E0350D24
:103FF000229002F6E0F8E50AC3982274F0121A2C17
:104000008A0E8B0F8C0A8D0B750D00750C0080507D
:104010007916EE2406F508E43FF5098E828F83A316
:10402000A3121C568E828F83A3A3A3A3121C5685B2
:104030000882850983121C56850E82850F83A3A3EF
:104040001236E912099F74061219D2E9F50D741699
:10405000650D706C850882850983E4F0A3F0050C7A
:104060009002F6E0F8E50CC3985066AA0C8A087531
:104070000900740378081219A9850A82850B83A3A5
:10408000A3124130E8FEE9FF8E828F831240E66082
:1040900040EA2401F508E43400F5099002F6E065F1
:1040A000087002E509601488828983A3A3A3A3A3EF
:1040B000A3A3A3123718600302401079180240121C
:1040C000E9609B1248137410121A081240D8123D6E
:1040D00040A90D7F08021AFEE0FAA3E0F5838A8268
:1040E00022F98882898312490CEC4D2274F6121A47
:1040F0002C7C0080010C900353E0F8ECC398501E18
:104100008C08750900740278081219A9124125E07B
:104110006A7003A3E06B70DDE8FAE9FB80047A00C3
:104120007B000241C89002F41241308882898322C8
:10413000E02508F8A3E03509F92274F2121A2C8A56
:10414000088B09750A0080278E828F83A3A3A3A3FF
:10415000122C3E60031214BB7C087D007900EEFA3D
:10416000EFFB12144F8E828F83E4F0A3F0050A1246
:104170003FF15027850A0C750D007403780C121955
:10418000A9850882850983A3A3E0250CFEA3E03559
:104190000DFF8E828F8312371870AD8508828509D6
:1041A0008374FFF0A3F002490074F6121A2C12096E
:1041B000338A828B83E582458370067A007B008098
:1041C00007A3A3A3A31236E97F02021AFE74F41216
:1041D0001A2C89088C828D83E06402703C1247B6E9
:1041E000FEA3E0F9EEF8740268700374296970297F
:1041F000750A02750B00780A121C3F7410121A0817
:10420000121C567410121A08121C56A908121251C8
:1042100074061219D2E9F980027901022C7B74E844
:10422000121A2C74FB1219BCE9851882851983F0C7
:104230008A168B17ECFEEDFF7510008E828F83A31C
:10424000A3A3E0A2E4502D741D121A081236E9123D
:10425000098D8A828B83E5824583700302465579F6
:104260000AEEFCEFFDAA16AB17121A2AE9F5106048
:1042700003024658741F121A08E0F508A3E0F50976
:104280007421121A08E0F50AA3E0F50B7423121A40
:1042900008E0F50EA3E0F50F8E828F83E0640260E4
:1042A000030245F6A3124817850882850983A38572
:1042B0008212858313EE2406F50CE43FF50D888207
:1042C0008983124695F514E439F5157814121CC942
:1042D000010000280128F84207000228BD430328F6
:1042E0002B430029EC44012917450229B84403292E
:1042F000EC4404299045F645E50E450F6003024560
:10430000F1850C82850D83124817E8FAE9FB8A8251
:104310008B83E0850A82850B831246A0121C3F8A9C
:10432000828B83A3E0FCA3E002457AE50E450F6093
:10433000030245F1850A82850B837401F012468AD7
:10434000850882850983F07C007D008E828F83A39F
:10435000A3A3A3E02401FAA3E03400FB120831EA8E
:104360004B60408A828B83E02402F8850A82850BA9
:1043700083E028F0EA2404F8E43BF988828983E0AA
:104380008512828513831246AE1246A0121C3F8A04
:10439000828B83A312467DE5082403FAE43509FBEA
:1043A00002457F850A82850B83E02404F07C047D2E
:1043B000007900AA12AB1312144F024658E50E45BD
:1043C0000F60030245F112468AFEA3E0FF850A82D0
:1043D000850B837404F0EE850882850983F0EF85F0
:1043E0001282851383F07403121A22EEFAEFFB1285
:1043F00008318A0C8B0DEA450D700302449B8A82BA
:104400008B83A3A31230B47401121A12880E890F81
:10441000780E121C3F7405121A08121C567CFF7D80
:10442000FF12083774041219D28B0FEA450F70334C
:10443000850C82850D83124681121C3F850C828576
:104440000D83A3121C567C027D007A337B851206F5
:104450002774041219D2E9700A7401121A0874FF41
:10446000F0A3F08E828F83E064027039750C0275C0
:104470000D00780C121C3F8E828F83A312467DE5BF
:10448000082404FAE43509FB12143774021219D215
:10449000850A82850B83E0240280097401121A08C0
:1044A000EEF0A3EFF07401121A0812466F740112B5
:1044B0001A081246660245EBE50E450F60030245F9
:1044C000F1850C82850D83124905AA16AB171212CD
:1044D00057850A82850B837402F0850882850983DB
:1044E000EAF0851282851383EB0245EEE50E450F57
:1044F00060030245F112468AF8A3E0F9850A828535
:104500000B837402F0E8850882850983F0E985123F
:10451000828513830245EE850C82850D831236E970
:10452000121431EAFAF8C3950EE4950F405CE86581
:104530000E450F70047A008021851882851983E06A
:10454000FCE50E2CFCE4350FFDC3EC98ED94005017
:1045500003E08005E50ECAC39AFAEA850A82850B54
:1045600083F08A0A750B00780A121C3F850C82853D
:104570000D83E0250EFCA3E0350FFDAA08AB091260
:10458000143774021219D2024658751007024658A1
:10459000E50E450F705B850C82850D8312481785EB
:1045A0000A82850B837407F088828983124667121A
:1045B000465FE0851282851383F0E82402FAE4392D
:1045C000FB8A828B8312466F8A828B83124666A394
:1045D000A3122C46124674F0E82405F8500109880D
:1045E000828983124674A31246AEA3A3A3A3F080CC
:1045F0006775100B8062741D121A081236E91209D1
:10460000338A828B83E5824583604A124817880C7F
:10461000890DE8450D603E7425121A08E0F5107802
:1046200010121C43780E121C3F780A121C3F7808A7
:10463000121C3F7407121A08E0F9EEFCEFFDAA16EF
:10464000AB17850C82850D83121A2A74071219D2B2
:10465000E9F510800375100EA91074050239ACF04D
:1046600088828983A322A3E0850882850983221298
:1046700046B5F0221246B5A3A3229002FA12490CC5
:1046800022E0F50E750F00780E22850C82850D83D1
:10469000123B4FE022E0FAA3E0F8E4C8F9EA28224E
:1046A000F08A828B83E0F50A750B00780A221246A5
:1046B0005F1246B522E0850882850983A3A3227490
:1046C000EE121A2C74FE1219BC8A088B09ECFEED4E
:1046D000FF890AAC18AD19EEFAEFFB1208318A0C0B
:1046E0008B0DEA450D70030247A785188285198353
:1046F0001236E91209338A828B83E582458370037F
:104700000247A2A3A3124817880E890FE8450F702D
:10471000030247A27414121A08E0F510A3E0F51181
:10472000E50AF50B780B121C437419121A08121CB7
:10473000567810121C3F741B121A08E0F9AC0CAD2D
:104740000DAA08AB09850E82850F83121A2A7405FB
:104750001219D2E9F50B705274FE650A604C850C93
:1047600082850D83E0640270411247B6FAA3E0F936
:10477000EAF87402687003742969702E85108285C6
:104780001183124695F50CE439F50D780C121C3F97
:10479000EEFCEFFDAA08AB091209B774021219D298
:1047A0008008750B0E8003750B01A90B740212199A
:1047B000D27F0A021AFEA312481B88828983E02254
:1047C00074F6121A2C74FE1219BC740C121A081208
:1047D0004817E8851882851983F07401121A08E9D0
:1047E000F0E4F508F5097808121C3F75080278080E
:1047F000121C3F7404121A12880889097808121CC6
:104800003F79FE12099F74061219D274021219D24E
:104810000241C88E828F8312481B22E0F8A3E0F980
:104820002274F7121A2CEAFEEBFF8908900311128A
:10483000467D121257EA5402600BA908EEFAEFFB0C
:10484000120825800279017F01021AFE74F2121A01
:104850002C74FE1219BCEAFEEBFF890A7401650A8A
:1048600060147402650A60030248FB7901120BBBF5
:10487000E960030248FBEEFAEFFB120981EA4B60A4
:1048800003120987A818A919880889097808121C31
:104890003F7508027509007808121C3F75082D75D0
:1048A00009857808121C3F7CFF7DFF7A017B00128E
:1048B000082B74061219D28038850882850983A3D3
:1048C000A3A3A3A3A3124905EEFAEFFB12124BE434
:1048D000F50CF50D780C121C3F7402121A08121C0C
:1048E000567CFF7DFFAA08AB091208377404121921
:1048F000D28A088B09E508450970BE74021219D2E4
:104900007F06021AFE123B4F12490C22E0FCA3E084
:10491000FD2274F4121A2C8A088B09ECFEEDFF902C
:104920001967E0F4604B7A097B0012145BEA4B6074
:10493000408A828B8374B1F0A3E4124974F08A82B6
:104940008B83A3A3E508F0A3E509124974A3EEF055
:10495000A3EFF0740C121A081248178A828B83A3F3
:10496000A3A3A3A3A3A3123D40901967E0F91214D7
:1049700067022C7BF08A828B83A3A3A3A32274F00B
:10498000121A2C74FA1219BC8908ECFEEDFF750995
:10499000008A0A8B0B780A121C83000410A54BC1F5
:1049A00049DF49FA49124A304A484A6B4A834A97D2
:1049B0004AC14A3C4B4D4B644B7F4BA54BA54BD753
:1049C0004A740165086003024BA08E828F83E0F871
:1049D000C394034003024BA0E8901A53024B7C742B
:1049E0000265086003024BA08E828F83125C2BF954
:1049F000901A54E8F0A3E9024B7C74016508600347
:104A0000024BA0124BD24003024BA0E89007540285
:104A10004B7C740165086003024BA08E828F83E09B
:104A2000F8C394054003024BA0E8900755024B7C65
:104A3000740165086003024BA0124BD24003024B85
:104A4000A0E8900756024B7C741065086003024B87
:104A5000A0750A10750B00780A121C3F7A577B0765
:104A600012143774021219D2024BC6740165086021
:104A700003024BA0124BD24003024BA0E890076701
:104A8000024B7C740165086003024BA08E828F8309
:104A9000E0901A57024B7C740465086003024BA037
:104AA0008E828F83780C12187490849D780C121665
:104AB000965003024BA0900769780C121883024BA2
:104AC000C6E96003024BA01207BFE9700512120984
:104AD00080559007FC8061740765086003024BA055
:104AE000750A06750B00780A121C3F8E828F83A30D
:104AF000AC82AD837402121A1A12143D7402121998
:104B0000D27C007D00AA18AB198E828F83E0F91247
:104B100011AFE9FEC3940A4003024BC31207BFE979
:104B2000700CEEF912120F7950121575806D74FD2C
:104B30002EF582E43407F583740180407401650822
:104B4000705E124BD25059E8900768802F7401654F
:104B500008704D8E828F83E0F8C3940A5042E8902B
:104B60001A5680187401650870368E828F83E0F8BB
:104B700074F928C3940A5028E8901A58F0804774B2
:104B8000016508701B9007FBE0F88E828F83E09030
:104B900007FBF0E87030E06401702B1211FD8026F5
:104BA0007509188021C3EA9427EB9400501574020C
:104BB0006508700F8E828F831257B012063FE9F599
:104BC000098003750902A90974061219D27F080227
:104BD0001AFE8E828F83E0F8C394022274F4121AB4
:104BE0002CECFEEDFF7508008A0A8B0B780A121C6C
:104BF0008300040E8E4C144C194C2A4C2F4C344C10
:104C0000394C564C5B4C604C8E4C6F4C744C794C10
:104C10007E4C844C901A538068901A54125C2BF985
:104C20008E828F83E8F0A3E98078900754805290B9
:104C30000755804D9007568048750A10750B00780F
:104C40000A121C3F7C577D07EEFAEFFB12143774F3
:104C5000021219D280529007678026901A5780213D
:104C60009007691218AA8E828F831218B680399025
:104C70000768800D901A568008901A588003900794
:104C8000FBE08004121203E98E828F838014C3EA52
:104C90009427EB9400500E1206458E828F83EAF023
:104CA000A3EBF08003750802A90880031219D27FD4
:104CB00004021AFE74F1121A2C74AB1219BC8C0C7B
:104CC0008D0D90843A7414121A2274061218CF743F
:104CD00014121A221211AFE9F50A7464121A08E0CC
:104CE000F50BE9C3940A4003024E3375F006E9A4BC
:104CF000F5097447121A227A0E74202509F9121543
:104D00006FE970097453121A08E0FE80027E009069
:104D10001A53E06402700575080180037508007479
:104D200008650B70047422800274212509FF7C1B26
:104D30007D007900741A121A1A12144F741A121A7A
:104D4000227A1BEFF912156FE970297434121A08D0
:104D5000E024F9C3940A501C7808121C43741B12F7
:104D60001A22EEA2E0E433F9AA0CAB0D1206E174AC
:104D7000011219D27C147D007900AA18AB19121403
:104D80004FAC18AD197A1074242509F912156FE982
:104D900070327C1079FFAA18AB191214AFE9702495
:104DA0007410121A08AC82AD837A0474252509F9AF
:104DB00012156FAC18AD19EEA2E0E433F9AA0CABF2
:104DC0000D1206C97435121A227A127470250AF966
:104DD00012156FE9704C7435121A1A1211E57F0022
:104DE000EF75F003A4F8A9F07435121A08E58228CB
:104DF000F8E58339F9888289831257AA601D888271
:104E00008983A3A3E0F5087509007808121C3FAA5E
:104E10000CAB0D1209A574021219D20FEFC3940640
:104E200040BEEEA2E1500C900753E0F9AA0CAB0D86
:104E30001209AB7404650B7028901A53E064027079
:104E4000207800900767E060027801900754E060E6
:104E5000057404488001E8FEEEF9AA0CAB0D1207B8
:104E600095790074551219D27F07021AFE74F71251
:104E70001A2C1207BFE9704F9007FCE0640170150F
:104E80001212099007FCE4F07C0AFDF97AFD7B0719
:104E900012144F802A750800A80874FD28FEE43417
:104EA00007FF8E828F83E06401700BA90812120F36
:104EB0008E828F83E4F00508E508C3940A40D9790F
:104EC000501215751211FD0258EC74F1121A2C745F
:104ED000F01219BC8A0C8B0D8C088D097E0AE960D2
:104EE0000C14600914603A146075024FB01211F787
:104EF000E9FEC3940A4003024FB0E5084509700378
:104F0000024FB0750A06750B00780A121C3FAC0CF4
:104F1000AD0DAA08AB0912143774021219D2024F50
:104F2000B07F00750A06750B00780A121C3FAC0CA6
:104F3000AD0DEF75F00EA4F8A9F0747528FA74079A
:104F400039FB12144974021219D2E970090FEFC328
:104F5000940A505C80CDEFFEC3940A505380427F88
:104F600000AC18AD197A1075F006EFA42423F912DD
:104F7000156FE9701C7C1079FFAA18AB191214AFD9
:104F8000E9700EAC0CAD0DAA18AB191206A5E960BC
:104F9000090FEFC3940A501880C7EFFEC3940A505C
:104FA0000FE50845096009AA08AB09EEF91211F1ED
:104FB000EEF97410024E6574F4121A2CE9FF7E1596
:104FC00074FF6A700374FF6B7028750800EFFC7A39
:104FD000027B00A9081211D3E960027E000508E5F2
:104FE00008C3940A40E7EF60507A217B12120BDF6E
:104FF0008047120BAF8A088B09EA450960397C00AB
:105000007D00EA2405FAE43509FB850882850983D9
:10501000A3A3A3A3E0F91211AFE9F9C3940A500BBB
:10502000EFFC7A027B001211D37E00EF600BAA081E
:10503000AB0912122180027E14EEF9024CAF74F219
:10504000121A2C8C088D097E15740E121A08E0F5C0
:105050000AA3E0F50B74FF6A700374FF6B701D7F89
:1050600000AC0AAD0BAA08AB09EFF91211D9E9603F
:10507000027E000FEFC3940A503D80E5120BAF8A09
:10508000828B83E5824583602C7C007D00E5822451
:1050900005FAE43583FBA3A3A3A3E0F91211AFE95A
:1050A000F9C3940A5011AC0AAD0BAA08AB0912114E
:1050B000D97E0080027E14EEF902558BC082C08337
:1050C00090076DEAF0A3EBF0900753E0FC7D007AC7
:1050D000267B0012063F900753E0F912090F025C8D
:1050E0008F74F0121A2C74FF1219BCE9851882858E
:1050F0001983F0EAFEEBFF750800E0703D8E088F23
:10510000097808121C3F7413121A08780C121874CC
:1051100090849D7808121874780C7908121735AAB3
:1051200008AB09AC0AAD0B1206DB74021219D2E906
:10513000F50860097901EEFAEFFB1206D5A90874AB
:1051400001024BCA74F0121A2C74EC1219BCEAFE5C
:10515000EBFF8E828F83A385820C85830DEE240561
:10516000F50EE43FF50FEE2409F50AE43FF50BEEEA
:105170002403F508E43FF5098E828F83A3A3E0247E
:10518000FA700302540824FD700302532A147003BA
:1051900002521A14601024FD700302530D147003A0
:1051A00002536102540E125FE46047E0F583888287
:1051B000E0F50EA3E0F50FE50E450F60351258C07F
:1051C000E0F50C780C121C43EE240BF582E43FF55D
:1051D00083E0F9850A82850B831257B00A0A0AAB6D
:1051E00009850E82850F83121A2A74011219D202C0
:1051F000540E850A82850B83121C5690076912187B
:10520000921206DB74021219D2E9700302540E796D
:1052100001850A82850B830253D8750A00850C82AA
:10522000850D83E060030252D4850E82850F83E0F2
:10523000A2E040030252D4900807125FE760030225
:1052400052D47C0E7D007900AA18AB1912144F12AB
:1052500058C012549A4B6010750A06750B00780AF4
:10526000121C3FEA2410801B125C50120BAFEA4B59
:10527000700302540E750A06750B00780A121C3F63
:10528000EA2405FCE43BFD7402121A1A1214377466
:10529000021219D2850E82850F83E0A2E25004D259
:1052A000F08002C2F0A2F0E433F8740C121A08E0A5
:1052B00048F0EEFCEFFDAA18AB191211EBE97011E2
:1052C0007A027B00900753E0F912148B79000254A4
:1052D00010750A15125FE4700302540E125C09FE89
:1052E000A3E0FFEE4F700302540E850C82850D8300
:1052F000E0FC7901125415121A2AE50A70030254CF
:105300000EFC7903125C50125C12025403125FE42B
:10531000700302540E125423700302540E850C8243
:10532000850D83E0FC79020254007C007D00EE24B0
:1053300004FAE43FFB850882850983E0F91211AF86
:10534000E9F8C3940A400302540EEE240AFCE43F39
:10535000FD7A0475F006E8A42425F91215690254B3
:105360000E125C50900768E06007901A56E0F980D2
:105370006A901A53E0700479058060120BAF8A0CB2
:105380008B0DA80CA90DE849700302540EE8240403
:10539000F50CE439F50D8E828F83A3A3A3A3A3A3F9
:1053A000A3E0A2E0503A850C82850D83E0FE6030D8
:1053B000850A82850B83A3E054027024740E121AAE
:1053C00022E82405FAE439FBEEF91211AFE9701076
:1053D0007903850882850983125C561206D5802ED2
:1053E000AC0EAD0F850C82850D83E0F9125C501276
:1053F000122D125FE4601712542360127C007900B2
:10540000125415121A2A8006125C501211A9790141
:105410007414024BCA850882850983125C5A8E82F5
:105420008F8322125C20F9E8FEE9FFEE4F2274F52B
:10543000121A2C74F21219BCEAFE8C0975F006E9F6
:10544000125BFC12156FE970457C0679FFAA18AB58
:10545000191214AFE97037740C121A0812549AF822
:10546000E5096005EEC8488004EEF4C858F8EA681B
:105470007001EB6015740C121A08E8F0A3E4F0ACAC
:1054800018AD197A0EA90812156979018002790000
:10549000740E1219D27F03021AFE125C5AEA2274A9
:1054A000F2121A2C74E01219BC89098A0C8B0DECCB
:1054B000FEEDFF7412121A227A0E75F006E9A4248A
:1054C00020F912156FE960030255847C0679FF7498
:1054D00012121A1A1214AFE960030255847470256F
:1054E00009F508AC18AD197A12F912156FE96003C5
:1054F000025580AA18AB191211E5E50C450D701D77
:105500007C127900AA18AB191214AFE970727C12E0
:105510007D007900AA18AB1912144F8051AC18AD58
:1055200019AA0CAB0D1211DF8A0A8B0BA80AA90B62
:10553000E8497022EE4F604CAC18AD197A007B0040
:105540001211DFEAF8EBF9EA4B603988828983E5CA
:105550000CF0A3E50DF0125600FAEE6A7001EF6050
:105560001FEEF04F700888828983E4F0A3F0AA1838
:10557000AB191211E5AC18AD197A12A90812156908
:1055800079018002790074201219D27F06021AFE76
:1055900074F7121A2CEAFEEBFF750800E50875F0A7
:1055A00003A4F8A9F0EC28FAED39FB8A828B83E09A
:1055B0006E7003A3E06F600D0508E508C394064014
:1055C000DB7A007B000258EC74F7121A2C7C00EC9A
:1055D00075F003A4F8A9F0EA28F8EB39F988828974
:1055E00083E0F4FEA3E0F4FF88828983EEF0A3EF6A
:1055F000F0125600F4F00CECC3940640D20258ECC2
:10560000E82402F582E439F583E02274F4121A2CBE
:1056100074EE1219BCEAFEEBFF8C0A8D0B900807A2
:10562000125FE7704FEE4F700302578CEC450B7022
:105630000302578C1211F7E9901A59F0C3940A40EB
:10564000337508007C0679FFE50875F00EA4FAAB07
:10565000F0746F2AFA74073BFB1214AFE96003027F
:1056600056E60508E508C3940A40D975090AE50914
:10567000901A59F0901A59E0C3940A400302578CCB
:1056800075F006E0A4F890080712549A4B705CEE8F
:10569000FCEFFD7A0E742028F91215697C127D004A
:1056A00079FFAA18AB1912144FAC18AD197A1290E1
:1056B0001A59E02470F912156975080E75090078F9
:1056C00008121C3FEEFCEFFD901A59E012584812E8
:1056D000143774021219D2900807E50AF0A3E50BFB
:1056E000F0790002578E85080980831257932406AB
:1056F0001257A460197A1B742128F91215691257E0
:105700009C2406F582E438F583E4F0A380D2125796
:1057100093240A1257A460107A1B742228F91215D8
:105720006912579C240A80DB125793240C1257A449
:1057300060107A10742328F912156912579C240CF2
:1057400080C112579324081257A460347A1074242D
:1057500028F912156912579C2408F582E438F5835C
:10576000E02410FCA3E03400FD7A0475F006901AE2
:1057700059E0A42425F912156912579C2408808346
:105780009007FBE06003121239121227790174129C
:10579000024CAC900807E0F9A3E0C9229008071278
:1057A0005C2BC822F582E439F5831257B0EC4D2208
:1057B000E0FCA3E0FD2274F4121A2C74F21219BC5E
:1057C000EAFEEBFFE9C3940A5004EE4F700479023D
:1057D0008034AC18AD197A0E75F006E9A42420F9CE
:1057E00012156FE9F508701C750A06750B00780A2A
:1057F000121C3F7402121A22EEFAEFFB12143774D5
:10580000021219D2A908740E024CAC74F4121A2CAC
:10581000EAFEEBFF750800750A06750B00780A12A0
:105820001C3FEEFCEFFDE5081258481214497402C3
:105830001219D2E96004A908800B0508E508C39491
:105840000A40D4790A024CAF75F00EA4F8A9F0749E
:105850006F28FA740739FB2274F7121A2C750800A6
:10586000E50875F00EA4F8A9F0746F28FE740739E6
:10587000FFEEFCEFFD7A0E75F006E508A42420F992
:1058800012156FE960237C067D0079FFEEFAEFFBCD
:1058900012144F7C067D0079FFEE2CFAE43FFB12D8
:1058A000144F1258C0E4F0A3F00508E508C3940AA9
:1058B00040AE9007FBE06003121239121227802CD1
:1058C000EE240CF582E43FF5832274F7121A2C7E45
:1058D000007F007C06EF12584874FFF91214AFE9FC
:1058E00070010E0FEFC3940A40E9EEF97F01021A2E
:1058F000FE74F7121A2C7E00EEF912120FE9F90E5F
:10590000EEC3940A5003E960EF80E174F3121A2C9D
:1059100074C51219BCE9FF901A59E06F701B7A0127
:105920007B00900753E0F91214917A027B009007F4
:1059300053E0F9121491121245901A5AE06F701246
:105940007A047B00900753E0F9121491901A5A746C
:105950000AF075F006EFA4FE74202EF508741B12F1
:105960001A227A0EA90812156FE96003025A267CE2
:105970000679FF741B121A1A1214AFE96003025A57
:10598000267C0E7D0079FF741B121A1A12144F7CAC
:105990001B7D0079FFAA18AB1912144F7C127D00F1
:1059A00079FF7429121A1A12144F741B121A227AD0
:1059B0000EA908121569E9F508AC18AD197A1B741F
:1059C000212EF9121569E9F50CAC18AD197A1B7482
:1059D000222EF9121569E9F50BAC18AD197A10747D
:1059E000232EF9121569E9F509AC18AD197A10746E
:1059F000242EF9121569E9F50AAC18AD197A047468
:105A0000252EF9121569E9FE7429121A227A1274E8
:105A1000702FF9121569E9F8E50C450B4509450A9F
:105A20004E4842088003750800A908743B1219D239
:105A30007F05021AFE74F7121A2CE9900753F01230
:105A400011FD7A5B7B1A1207EF0258EC74F2121AFE
:105A50002C74F21219BCEAFEEBFF54807003025B57
:105A600011900753E0F91214738A088B09EA45096B
:105A70007003025B097801EA2405F50CE43509F5A9
:105A80000DEA2404F50AE43509F50B8A828B83E0DC
:105A90002450603C14600624E1605F8062850A82C5
:105AA000850B83E0705C8A828B83A3A3A3A3A3A34B
:105AB000A3121C56850C82850D831257B08A828BE7
:105AC00083A3A3125C561211BB74021219D2803246
:105AD000850A82850B83E0641E700E79008A828BB2
:105AE00083A3A3125C561211B5850A82850B83E04D
:105AF000F9AA0CAB0D12090980081211CDE9F8E8DA
:105B00006007AA08AB09121461EEFAEF6480025B29
:105B1000F0EE54026016EE6402FE7C007D007A0016
:105B20007B001211EBE9704C7A02804AEEA2E05041
