:020000040000FA
:060000000201070222B319
:03001B0002272693
:03002B00022705A4
:030033000226E7BB
:030053000223265F
:03006B000226C1A9
:0300730002278BD6
:1000830002211FE5C754F84401F5C7790122000096
:100093000080FB120086B900030200F1E4792178A5
:1000A30008B800028004F709D8FCE479297802B87B
:1000B30000028004F709D8FCE490028178E379090F
:1000C3008002F0A3D8FCD9FA7A637B0B90013778CE
:1000D300B879048015E493A3AD82AE838A828B83BF
:1000E300F0A3AA82AB838D828E83D8E9D9E7758288
:1000F300A475837F7400120119758291758300744E
:100103000012011975D00075813F751881751902A8
:10011300759F00020096C09FF59FE473D09F22D085
:1001230083D082C09FE493C0E0740193C0E0740263
:1001330093F59F22FF0000B4000028002800283018
:1001430075A000A000A000A00000080008E001F0D6
:10015300001000100010001000100010005000509C
:1001630000500010001000D0070000000000000F36
:100173000001000500307507001000010081FF0039
:10018300000000FFEC060A07F206FF020202080263
:100193005000A0000000E80302A48201000099823D
:1001A30002AA82010000BA0B02AE82010000B30270
:1001B30002AA82010000BB0B02E682010000C90211
:1001C30002AA82010000BC0B02B282010000CB0232
:1001D30002AA82010000BD0B02B482080000CC0217
:1001E30002AA82010000BE0B02B682010000BF0B0F
:1001F300FF0100FF2002A482010000968202AA826E
:10020300010000230C02B882000000000002AC824F
:100213000300001903A40CA40CA40CA40CA40CA4A8
:100223000CA40CA40CA40CA40CA40CA40CA40C26C9
:100233000F3E0F200FFFFF110199010F12640401FC
:1002430002A4820100009F8202AA820100006B0CBB
:1002530002BC820100006C0C02AC82030000710737
:1002630002E2820100006D0C02020202020202029B
:1002730002010D000000100102A48201000093821C
:1002830002AA82010000970C02EE820100007707A8
:1002930002AA82010000980C02E48201000012828B
:1002A30002AA82010000990C02E082010000F6819B
:1002B30002AA820100009A0C02DE820100009081F2
:1002C30002AA820100009B0C02CA82010000B481D1
:1002D30002AA820100009C0C02C882010000A281D4
:1002E30002AA820100009D0C02C6820100007E81E9
:1002F30002AA820100009E0C02C482010000048253
:1003030002AA820100009F0C02C282010000A00C1D
:1003130001E803053F100A1509484944204B657954
:10032300626F6172642026204D6F7573650201054B
:100333000319C103050212180F1860EA000001E651
:1003430012EC120000012E130000E60202192A0427
:1003530006011201011202011203010E0002120E24
:10036300120A000302A4820100009C8202A88201F7
:1003730000007E0A02AA820100007A0D02D48240A4
:100383000000608202AA820100007E0D02D88280F2
:100393000000800A02AA820100007F0D02DC82C0F5
:1003A3000000800D02AA820100007B0D02D682406C
:1003B3000000008002BA820100007C0D02AA8201C3
:1003C3000000810D02DA82400000810A02AC8281C2
:1003D3000000820A02E282010000820D02AA820169
:1003E3000000840D02DA82400000880A02AC828198
:1003F3000000890A02E282010000850D02AA82013F
:100403000000870D02DA824000008F0A02AC82816D
:100413000000900A02E282010000880D02AA820114
:1004230000008A0D02DA82C00000960A02E282010D
:1004330000008B0D02AA820100008D0D02CE8240C6
:100443000000970A02AC82810000980A02AA820186
:1004530000008E0D02D282C000009E0A02AA820111
:1004630000008F0D02D0824000009F0A02AC8281FF
:100473000000A00A02AA82010000900D02DA82C0E5
:100483000000A60A02E282010000910DFF00013084
:1004930075030201060000000000000000000000D8
:1004A3000000000000000000000000000000000049
:1004B30000FFFF0600800CE803041002A482010081
:1004C30000908202AA82010000E80E02EA82800004
:1004D30000580B02AA82010000E90E02EC82000020
:1004E300005C0B02AC828100005D0B120122B5A2FD
:1004F30003120122CCA203120122FDA20312012244
:1005030038A30312012262A3031201228CA3031254
:100513000122A3A303120122BAA303120122D1A32E
:1005230003120122FAA3031201220DA403120122D2
:1005330023A40312012236A4031201225DA4031291
:100543000122E2B202120122E6B3021201221EB418
:100553000212012241B4021201224CB402120122FE
:100563006FB4021201227EB50212012253B60212A7
:100573000122CEB60212012256B70212012291B70E
:1005830002120122C8B70212012256B80212012236
:100593002FB9021201228FB9021201229AB9021253
:1005A300012219BA021201221CBA021201221FBA35
:1005B30002120122AEBA02120122B1BA02120122C0
:1005C300E1BA021201220BBB02120122F9BB021291
:1005D3000122ABBC0212012275EC021201229DEC36
:1005E30002120122CBEC0212012202ED02120122BD
:1005F30060ED02120122ABED02120122F6ED0212AE
:10060300012236EE021201227CEE02120122AAEE30
:100613000212012267EF0212012271EF021201227C
:100623007EEF02120122B1EF021201227DF00212CB
:10063300012289F002120122A1F002120122ABF081
:1006430002120122ECAF03120122FAAF03120122BC
:1006530012B0031201222AB0031201224ABB011273
:100663000122F6BB0112012271BC0112012292BDCB
:1006730001120122CEBD0112012277BE0112012215
:100683005EBF01120122C2C00112012219C101126F
:1006930001229AC1011201228AC201120122D7C288
:1006A300011201225DC3011201228FC30112012233
:1006B300A3C501120122E5C50112012203C60112DD
:1006C300012286C6011201225AC70112012222C841
:1006D300011201222FD50212012202D60212012297
:1006E300ABD602120122FED602120122AED70212AB
:1006F30001223AD80212012226D90212012255D927
:100703000212012268DA02120122B0DA0212012275
:1007130085DB02120122C1DB02120122DDDB0212A0
:100723000122C9B203120122338C03120122498C24
:10073300031201226F8C031201228B8D03120122FB
:10074300958D03120122CA8E03120122C28F031256
:1007530001224EE7021201227EE802120122B1E8D1
:1007630002120122FBE802120122C2EA0212012252
:10077300B66D00120122206E001201227F6F00125B
:1007830001228F6F00120122BC6F0012012213702D
:1007930000120122BC7000120122C3710012012257
:1007A3008D7200120122ED730012012230740012C7
:1007B3000122D5740012012222750012012248750C
:1007C300001201225677001201225B7700120122E8
:1007D300607900120122AD7900120122207A001201
:1007E3000122537A00120122F57A001201229E7B24
:1007F30000120122D67B00120122D97B00120122B2
:10080300217C00120122617C00120122B87C0012BB
:100813000122F1980312012209990312012251992D
:1008230003120122679903120122AE9903120122D6
:10083300C29A031201224F9B031201229A9B0312B5
:100843000122F427001201220028001201223B2872
:1008530000120122802800120122402900120122E5
:10086300C62900120122F229001201222B2A0012AA
:100873000122692C001201224D2E00120122333075
:1008830000120122763100120122C4330012012228
:10089300D634001201222136001201223137001210
:1008A30001224E3700120122893700120122AB3791
:1008B300001201220E3800120122CF3C0012012245
:1008C300643D00120122B53D00120122DC3D0012FD
:1008D30001222E3E001201224C3E00120122A63EAE
:1008E30000120122A53F0012012229400012012219
:1008F300BEF502120122C8F5021201220BF6021202
:10090300012226F602120122B6F602120122DEF6B7
:10091300021201221BF70212012252F702120122D4
:100923007BF702120122F0F70212012205F80212EC
:1009330001221AF8021201224BF8021201225FF877
:100943000212012284F802120122BEF802120122CD
:10095300EAF8021201226DF902120122B6F902121B
:100963000122E0F9021201220BFA02120122E4AB86
:1009730003120122E99A02120122179B0212012299
:10098300659C02120122459D02120122649D0212FE
:100993000122E19D02120122249E021201227A9F6A
:1009A300021201223BA002120122C2A20212012260
:1009B30063A30212012259A40212012256A50212B4
:1009C3000122B0A6021201223BA702120122A0FEBD
:1009D3000212012209FF021201225DFF021201220B
:1009E30084FF02120122B5FF0212012233FA02121E
:1009F3000122A0FA02120122E7FA02120122FFFBEE
:100A030002120122FBFC02120122DEFD021201226C
:100A13001CBD021201225EBD0212012230BE02126F
:100A2300012209BF0212012203C002120122E5C002
:100A3300021201224EC10212012204C20212012239
:100A430078C202120122E4C2021201220DC3021271
:100A5300012287C30212012220C40212012285C48B
:100A6300021201229AC402120122E0C402120122DC
:100A7300F9C4021201225EC50212012261C50212EB
:100A830001221393031201223B9303120122799350
:100A9300031201223794031201229E9403120122AE
:100AA300BA9403120122E294031201221295031253
:100AB30001222195031201229E9503120122C4955E
:100AC3000312012212AC01120122F0AD0112012224
:100AD30022B0011201225EB0011201228BB0011279
:100AE300012275B101120122C0B1011201220BB220
:100AF300011201221DB2011201225DB20112012273
:100B030092B201120122E0B2011201220FB30112CB
:100B1300012232B3011201227FB30112012204B474
:100B2300011201221EB6011201225DB80112012237
:100B33009EB80112012240BA0112012281BA0112A8
:100B43000122F4BA01120122D48D02120122D28EA3
:100B5300021201226B95021201228C9702120122CA
:100B6300579902120122BF9A0212012290400012E9
:100B730001223F4100120122854100120122C54298
:100B8300001201225B4400120122D544001201220B
:100B9300F044001201226B4500120122C5460012E7
:100BA30001222548001201222B49001201228C4AFE
:100BB30000120122A54A00120122034B0012012256
:100BC300F14B00120122244C00120122944C00121A
:100BD30001220E4D00120122584D00120122224E15
:100BE30000120122F74E00120122D64F00120122F9
:100BF300615000120122CF50001201224351001212
:100C030001226E51001201222D5200120122925331
:100C130000120122AF5300120122CE53001201220F
:100C2300BF5400120122E454001201220E55001297
:100C33000122895500120122E355001201224C576B
:100C430000120122FA57001201223B58001201221E
:100C53000080021201224E80021201225A800212E7
:100C630001223881021201226981021201229A8132
:100C7300021201221A82021201225282021201225C
:100C8300A48202120122E18202120122FE840212D4
:100C930001222487021201220F8902120122F98AFA
:100CA30002120122F77F00120122FF970112012293
:100CB3002F9801120122089F011201228DA0011217
:100CC30001228AA60112012272A701120122AFA7F3
:100CD30001120122D2A70112012203A8011201224B
:100CE3000CA80112012216A80112012204A9011263
:100CF3000122FAA901120122F08201120122EF86D8
:100D030001120122F58601120122308E0112012205
:100D1300499301120122CC8F03120122C6900312C0
:100D230001223A9103120122789103120122EC91DC
:100D3300031201226592031201226E920312012211
:100D43007A92031201228F9203120122CD9203128F
:100D53000122E392031201220080031201220D807B
:100D6300031201222780031201226680031201224B
:100D7300A480031201220981031201221E8103129E
:100D830001222981031201223681031201224D819E
:100D9300031201225B8103120122668103120122E5
:100DA3007281031201228181031201228C810312B9
:100DB3000122AF81031201225682031201226682AD
:100DC300031201228082031201229D820312012257
:100DD300B98203120122DE8203120122E982031285
:100DE3000122FE8203120122128303120122738362
:100DF300031201227983031201227F83031201224A
:100E03008583031201229D8303120122D0830312DF
:100E13000122ACD80112012230D901120122DFD9FB
:100E2300011201223EDB011201225FDD01120122C8
:100E33004BDE0112012280DE01120122A2DE011229
:100E4300012251DF0112012249E10112012272E163
:100E53000112012204E20112012236E201120122EF
:100E630043E2011201229AE201120122C0E20112BD
:100E730001222DE50112012230E60112012288E64A
:100E8300011201223BCA0112012245CB01120122A8
:100E93002CCC0112012236CC0112012258CC0112B2
:100EA300012264CC01120122FDCD011201222CCEBC
:100EB3000112012248CF01120122A1CF0112012206
:100EC30007D101120122E6D10112012242D20112FD
:100ED3000122AFD201120122EAD20112012229D347
:100EE30001120122E2D501120122FCD501120122D5
:100EF30088D60112012296D601120122EFD60112E1
:100F03000122FDD60112012270D701120122D4D78A
:100F1300011201221ED801120122BBF40112012287
:100F2300DDF40112012203F70112012218FA011262
:100F3300012230FB01120122E3FB01120122C5FC55
:100F4300011201226FA40312012294A403120122AD
:100F530006A503120122B5CD02120122BECD021253
:100F63000122C7CD021201229ECE021201224FD0CE
:100F73000212012285D002120122BFD002120122E5
:100F8300F5D0021201222FD10212012263D10212E3
:100F930001228FD102120122D8D10212012212D2D0
:100FA300021201225BD202120122B3D202120122E7
:100FB300E8D20212012243D3021201227DD302128C
:100FC3000122CED30212012204D4021201223ED402
:100FD300021201226CD4021201228FD402120122C6
:100FE30084B103120122B0B1031201220BB2031226
:100FF300012215B20312012225B203120122B2AA61
:1010030003120122DCAA031201224AAB03120122BA
:10101300BFAB03120122E0E102120122EAE1021254
:10102300012228E20212012271E202120122ABE242
:101033000212012205E30212012226E30212012217
:101043002FE30212012280E302120122A9E302121A
:101053000122B3E3021201221FE402120122ADE4D2
:1010630002120122FBE40212012231E502120122E3
:10107300B8E502120122F8E50212012230E602125B
:10108300012242E60212012261E6021201226AE60D
:101093000212012224E70212012201AE03120122ED
:1010A300A57D00120122DB7D00120122117E0012B8
:1010B30001226A7F001201224DB30312012263B39E
:1010C300031201226DB3031201224D840312012284
:1010D3006684031201220A85031201224A85031240
:1010E3000122638503120122978503120122E485FD
:1010F300031201221886031201225A8603120122C7
:101103005E8803120122B7B303120122FBAE03125E
:10111300012224AF031201224DAF0312012265AF56
:1011230003120122A7AF031201226B8803120122CB
:101133009B8803120122AE8803120122DD88031269
:1011430001225B89031201227A89031201221F8A79
:1011530003120122B18A03120122368B03120122E8
:10116300FC8B031201220C96031201223196031207
:10117300012264B4031201226B5800120122C55AE2
:10118300001201229E5B001201224D5D001201221A
:101193003F5E00120122C45E00120122425F001270
:1011A3000122675F00120122CF5F00120122F36266
:1011B300001201226D63001201225C6400120122FD
:1011C300966400120122D664001201229066001276
:1011D3000122E366001201222C67001201229A67A2
:1011E30000120122CC6700120122E46700120122DF
:1011F300F56800120122056900120122356A001206
:101203000122576A001201228D6A00120122326CF8
:1012130000120122716C00120122916D0012012251
:10122300C3B003120122D4B00312012279B1031215
:1012330001221BB4031201225AB403120122E9FF53
:10124300011201222FB2031201223FB20312012223
:1012530057B203120122BFB203120122FDAC0312E3
:10126300012282AD03120122E8AD031201223AA941
:101273000312012263A903120122CEA90312012240
:101283001FAA0312012278AA0312012232F10212C9
:10129300012249F102120122C2F1021201229BF240
:1012A3000212012259F502120122D2A003120122D5
:1012B3004DA103120122E4A103120122FCA1031296
:1012C300012210A2031201226DA2031201227BA2AA
:1012D3000312012252DC0212012257DE0212012202
:1012E30038DF021201228CDF021201226BE00212AC
:1012F30001226EE002120122F2E002120122BCA7D7
:10130300021201221CA8021201221EA902120122AA
:1013130040A90212012253A902120122E8A90212D2
:101323000122BFAB02120122D3AD02120122E0AEB1
:101333000212012245AF02120122A0AF02120122C2
:1013430001B00212012242B00212012245B0021280
:10135300012294B002120122A0B1021201223EB274
:10136300021201228AB202120122AFB20212012238
:10137300C49B031201228E9D03120122FB9D0312C3
:101383000122B3A70312012208A80312012276A89F
:1013930003120122E6A803120122679E031201220F
:1013A300919E03120122669F031201225AA0031287
:1013B300012285C50212012242C6021201227DC604
:1013C30002120122A5C60212012207C7021201223C
:1013D30053C702120122ACC7021201223DC80212F6
:1013E30001223FC902120122FCCA021201227ECB52
:1013F30002120122E3CB02120122FACB02120122D2
:101403000ACD0212012248CD02120122D6E60112B0
:10141300012260EA01120122E8EB011201223FECF2
:10142300011201225EEC01120122DCEC0112012205
:101433007AEE011201225EEF0112012248F301123A
:10144300012218F40112012214A60312012244A658
:10145300031201225CA603120122ABA6031201228E
:10146300B0A6031201227CA703120122ABB403121C
:101473000122D7B403E066701008A3E066700A087F
:10148300A3E066700408A3E06622C3E7960809E7B1
:10149300960809E7960809E79622C3E09608A3E0B1
:1014A3009608A3E09608A3E09622C008C3E096F549
:1014B3000808A3E096420808A3E096420808A3E0C0
:1014C3009645087001D3D00822080808EAC0E0EB6B
:1014D300C0E086F0E7A4FA180986F0E7A42AFA1810
:1014E3000986F0E7A42AFA180986F0E7A42AFA196C
:1014F30086F0E7A4FBE5F02AFA190886F0E7A42BA7
:10150300FBE5F03AFA190886F0E7A42BFBE5F03A7D
:10151300FA18180986F0E7A4C5F02BFBE43AFA1988
:1015230008E7C5F0C6A426F6E5F03BFBE43AFA1853
:1015330086F0E7A4F6E5F00826F6E43B08F6E43A7D
:1015430008F6D0E0FBD0E0FA22E4CFC0E0E4CEC05E
:10155300E0E4CDC0E0E4CCC0E075F020E626F60878
:10156300E633F608E633F608E633F6181818EC33D4
:10157300FCED33FDEE33FEEF33FFC3EC9709ED973C
:1015830009EE9709EF97191919400FFFEC97FC091A
:10159300ED97FD09EE97FE191906D5F0BFECF70993
:1015A300EDF709EEF709EFF7191919D0E0FCD0E0D0
:1015B300FDD0E0FED0E0FF226016080808C6C31382
:1015C300C618C613C618C613C618C613C6D5E0EA8E
:1015D300227009080808226016181818C6C333C6F3
:1015E30008C633C608C633C608C633C6D5E0EA22E2
:1015F300E627F60809E637F60809E637F60809E6A6
:1016030037F622E026F608A3E036F608A3E036F61E
:1016130008A3E036F622E026F008A3E036F008A39C
:10162300E036F008A3E036F022C3E697F60809E6B1
:1016330097F60809E697F60809E697F622C3E096B7
:10164300F008A3E096F008A3E096F008A3E096F074
:1016530022E657F60809E657F60809E657F6080999
:10166300E657F622E056F608A3E056F608A3E0563E
:10167300F608A3E056F622E056F008A3E056F00879
:10168300A3E056F008A3E056F022E0F608A3E0F644
:1016930008A3E0F608A3E0F622E6F008A3E6F008C4
:1016A300A3E6F008A3E6F022E0FAA3E0FBA3E0FC44
:1016B300A3E0FD22EAF0A3EBF0A3ECF0A3EDF0220C
:1016C300E0F8A3E0F9A3E0FAA3E0FB22E8F0A3E942
:1016D300F0A3EAF0A3EBF022CAC0E0E6F0A308DA35
:1016E300FAD0E0FA22CAC0E0E0A3C582CCC582C525
:1016F30083CDC583F0A3C582CCC582C583CDC58305
:10170300DAE6D0E0CA22C3E498F8E499F912174A5A
:101713008026C3E49AFAE49BFBE920E7E912174A1F
:10172300E498F8E499F922C3E498F8E499F91217D4
:101733004AE498F8E499F9C3E49AFAE49BFB22EBB0
:1017430020E7CFE920E7E0B90010BB0008E88AF002
:1017530084F8AAF022E4FBC8FA22EB70227B10C8BB
:1017630033C8C933C9335007C39AC3DBF280069A1F
:1017730050012ADBEAC833F4C8C933F4C9FA227525
:10178300F008E4C833C8C933C933C99AC99B5004A4
:10179300C92AC93BD5F0ECFBC833F4C8E4C9FA2223
:1017A300600D08C6A2E713C618C613C6D5E0F32218
:1017B300600C08C6C313C618C613C6D5E0F422705E
:1017C3000422600D18C6C333C608C633C6D5E0F479
:1017D3001822251810AF08F518400C15198008F5C4
:1017E3001840021519D2AF2200C0D0251810AF0837
:1017F300F518500C05198008F51850020519D2AFD9
:10180300D0D0222518F58210AF08F518400C151911
:101813008008F51840021519D2AF851983222518BF
:10182300F582E43519F583222518F8E43519F922F0
:101833002518FAE43519FB222518FCE43519FD2295
:10184300E4732518C582C0E0E51934FFC583C0E001
:10185300E518C3958224F810AF088583198582188B
:101863008008858319858218D2AFCEF0A3E520F0D6
:10187300A37808E608F0A3DEFAEFF0A3E58124FAE3
:10188300F8E608F0A3E608F0A3E608F0A30808E6E4
:1018930008F0A3E608F0A315811581D0E0FED0E09F
:1018A300F8158115811581E8C0E0EEC0E022251806
:1018B300C582C0E0E51934FFC583C0E0E518C395D0
:1018C3008224F910AF0885831985821880088583DF
:1018D30019858218D2AFCEF0A3E520F0A37808E6ED
:1018E30008F0A3DEFAEFF0A3E58124FBF8E608F0A5
:1018F300A3E608F0A30808E608F0A3E608F0A3159A
:10190300811581D0E0FED0E0F815811581E8C0E0B3
:10191300EEC0E022851983851882E0A3FEE0A3F5DB
:10192300207808E0A3F608DFFAE0A3FFE0A3C0E015
:10193300E0A3C0E0E0A3C0E0E0A3C0E0E0A3C0E018
:1019430010AF0885821885831980088582188583DE
:1019530019D2AFD083D08202011F851983851882E3
:10196300E0A3FEE0A3F5207808E0A3F608DFFAE0A1
:10197300A3FFE0A3C0E0E0A3C0E0E0A3C0E0E0A3D6
:10198300C0E010AF08858218858319800885821806
:10199300858319D2AFD083D08222C0D02518C582C7
:1019A300C0E0E51934FFC583C0E0E518C395822480
:1019B300F310AF08858319858218800885831985FC
:1019C3008218D2AFC8F0A3E9F0A3EAF0A3EBF0A327
:1019D3007908E709F0A3D8FAECF0A3EDF0A3EEF051
:1019E300A3EFF0A3D0E0F0A3D0E0F0A3D0E0F0A306
:1019F300E520F0A3E5F0F0A322851983851882E0A2
:101A0300C0E0A3E0F9A3E0FAA3E0FBA37808E0F6C3
:101A130008A3DFFAE0FCA3E0FDA3E0FEA3E0FFA33D
:101A2300E0C0E0A3E0C0E0A3E0F5D0A3E0F520A38D
:101A3300E0A3F5F010AF0885831985821880088527
:101A43008319858218D2AFD082D083D0E0F8D0E05A
:101A53003274048006740280027401C0E0F404123C
:101A63001806D0E01216DB2274048004740280008E
:101A7300CCC0E0EDC0E0E518C39CCCAD1950011D0E
:101A830010AF068C188D1980068C188D19D2AF12E1
:101A930016E8D0E0FDD0E0FC22D083D082E9C0E09C
:101AA300E493A3C386F0C5F095F0F908E493A38605
:101AB300F0C5F095F0700BE493A3C3994005E904D6
:101AC3008002A3E475F002A42582F582E5F0358354
:101AD300F583D0E0F9E493A3C0E0E493C0E022D01F
:101AE30083D082ECC0E0EDC0E0E493A3FCE493A3D5
:101AF300FDED4C600D121B2EEC24FFFCED34FFFDBD
:101B030080EFE493A3FCE493A3FDED4C600D121B63
:101B13006DEC24FFFCED34FFFD80EFD0E0FDD0E061
:101B2300FCE493A3C0E0E493C0E022C0E0C3E493E9
:101B330096087401939618400FE49366700808742E
:101B43000193661870007019A3A3C3E493960874F5
:101B530001939618A3A3400DD0E0D0E0D0E0021B80
:101B63001EA3A3A3A3A3A3D0E022C0E0C0F088F0E8
:101B7300E4936670080874019366187000A8F0A3D4
:101B8300A3700BD0F0D0E0D0E0D0E0021B1EA3A3E3
:101B9300D0F0D0E02274F51218B1EAFEEBFFEE2488
:101BA30034F8EF3400F988088909EE2435F582EF1B
:101BB3003400F583E0F8EE2437F582EF3400F58343
:101BC300E0F50AEC850AF0A4FCAAF0850AF0EDA47E
:101BD3002AFDE82CF8E43DF97A257B0012174AEA3E
:101BE300850882850983F0F8740758F97401B900F0
:101BF300028004C333D9FCFAE8131313541FF8EE1D
:101C030028F8EF3400F9E8245DF582E93400F58320
:101C1300E05A6008EE2434F582EF802CEE2434F58C
:101C230082EF3400F583E0C0E0EE2436F582EF3432
:101C330000F583E0F5F0D0E084A8F0EE28F8EF3467
:101C430000F9E82438F582E93400F583E0F97F04EC
:101C530002195D74F51218B1EAFEEBFFEE2434F5B8
:101C630082EF3400F583E0C0E0EE2435F582EF34F3
:101C730000F583D0E0F08E828F83A3A3A3A3A3A355
:101C8300A3C082C0838E828F83A3A3A3A3A3E0F800
:101C9300A3E0F9D083D082E0C398F508A3E099F5D7
:101CA30009EE247FF582EF3400F583E06401706967
:101CB300EE2480F582EF3400F583E0F8A3E0F98E9B
:101CC300828F83A3A3A3A3A3A3A3E0FCA3E0FD8E1E
:101CD300828F83A3A3A3A3A3E0FAA3E0FBC3EA9C9D
:101CE300EB9D5010C3EC98ED99402EC3EA98EB9905
:101CF3005027800EC3EA98EB994007C3EC98ED99FF
:101D030040177CDC7D04EEFAEFFB120C02EE247F1D
:101D1300F582EF3400F583E4F0EE2434F8EF340079
:101D2300F9E8FCE9FDEE2435F582EF3400F583E0B4
:101D3300F8EE2437F582EF3400F583E0F50AE50881
:101D4300850AF0A4F508AAF0850AF0E509A42AF5A6
:101D530009E82508F8E43509F97A257B0012174AC2
:101D6300EA8C828D83F0F8740758F97401B9000284
:101D73008004C333D9FCFAE8131313541FF8EE2875
:101D8300F8EF3400F9E8245DF582E93400F583E0E7
:101D93005A6008EE2434F582EF802CEE2434F58269
:101DA300EF3400F583E0C0E0EE2436F582EF340033
:101DB300F583E0F5F0D0E084A8F0EE28F8EF3400E6
:101DC300F9E82438F582E93400F583E0F91226AD09
:101DD300021C51C082C083851882851983E0F8A351
:101DE300E0F9C3EA9CEB9D5010C3EC98ED99401BBE
:101DF300C3EA98EB995014800EC3EA98EB99400715
:101E0300C3EC98ED994004790180027900D083D026
:101E13008222EAC39CFAEB9DFB2274EF1218B19065
:101E230003A2E064086005E06407702A9061C8E0DB
:101E330060249003D0E0F4601DE0F875F003A4C8BB
:101E4300AAF02AF974D228FE740339FF8E828F8395
:101E5300A3A3A3E07003021F4D906060E0C0E0EE17
:101E63002468F582EF3400F583D0E0F0750C4575F6
:101E73000D05750800750900E5D914F50AE5D9546F
:101E830003F50E60177403650E605CE50A6010EEDF
:101E93002467F582EF3400F583E07003021F32906C
:101EA3000540E06401602AEE2482F582EF3400F5F8
:101EB30083E06004780480027800850A08E508C39B
:101EC30098FA95E0FB120AD68A088B09EA4509704D
:101ED30005120DF48074EE2482F582EF3400F5834D
:101EE300E070048A0C8B0DE50A6012850C82850D67
:101EF30083F50BE5D9F0A3150BE50B70F6EE248201
:101F0300F582EF3400F583E0604474FC250AF50A9A
:101F1300780C121A58AC0AA90EEEFAEFFB120C9EBB
:101F230074021217EBE97026AA08AB091213887919
:101F33003D8E828F83A3A3A3A3E0FA7B001209AA99
:101F4300EEFAEFFB120C1A120CB0790080747403D2
:101F5300650E6056850A107511007810121A58AC78
:101F63000CAD0DAA08AB09120C7A74021217EBEE32
:101F73002468F582EF3400F583E064807004747F95
:101F83008001E0F50C780C121A5CE50EF50C780C68
:101F9300121A5CA90AAC08AD099003D0E0FA7B00E1
:101FA30012096E74021217EB80139003A2E0640807
:101FB300600BAC0CAD0DEEFAEFFB120D0A120E0026
:101FC30079017F0A02195D74F51218B174FC1217B6
:101FD300D5EAFEEBFF8908A2AFE433F509C2AF806F
:101FE3006AEE2463F8EF3400F97A007B00A2AFE4D1
:101FF30033F50AC2AF88828983E0FCA3E0FDEC4D90
:10200300603A88828983E0FAA3E0FB8A828B83E0CB
:10201300FCA3E0FD88828983ECF0A3EDF08A828B38
:1020230083E4F0A3F088828983E0FCA3E0FDEC4D18
:10203300700A88828983A3A3E4F0A3F0E50AA2E0EF
:1020430092AF1213889004E3E004F0EE2463F58268
:10205300EF3400F583E0F8A3E0F9E849603DEE24AE
:1020630063F582EF3400F583E02402FAA3E0340041
:10207300FBEA2402F50AEB3400F50B780A121A582E
:102083008A828B83E0FCA3E0F9EEFAEFFB120C3EAD
:1020930074021217EBE97003021FE49004E3E0609B
:1020A300639004E4E0F89004E3E0C398500C7402F6
:1020B300650870509004E5E0604A8E828F83A3A385
:1020C300A3A3E0851882851983F0A3E4F09004E3C9
:1020D300E0F87402121821E8F0A3E4F09004E3E0BE
:1020E300F89004E2E028F07402121821AC82AD8368
:1020F300851882851983AA82AB83790112097A90A4
:1021030004E3E4F0E509A2E092AF74041217EB02D2
:102113001C510000008521878522C622C0E0C0D063
:10212300E8C0E0E9C0E0EAC0E0EBC0E0ECC0E0ED0D
:10213300C0E0EEC0E0C008C009C00AC00BC082C046
:1021430083C0F0A2AFE433FEC2AF759B00906182FF
:10215300E0A2E05012E591A2E0500C7591FE7401EB
:1021630065217003121E1DE0A2E55051E591A2E521
:10217300504B7591DF9003A2E064076005E06408AB
:10218300702374016521703579019003D0E0FA75ED
:10219300F003A4CAA8F028FB74D22AFA74033BFB09
:1021A300121FCA8018E0640D70139003C4E004F09A
:1021B30064287002E4F07A00E0F9120E069061825E
:1021C300E0A2E64003022266E591A2E64003022272
:1021D300667591BF9003A2E064057008120D341276
:1021E3000D408003120D3A752100120D94E99003FE
:1021F300A3F07900120D88120B787A017B0090030B
:10220300A1E0F9121070907803E0644270559005D4
:1022130044E014F0704DC2AF12221E00782AD0E0C1
:10222300F618D0E0F6E59F540770057509FF8003A3
:1022330075097FC4C0E07829E6F50808E65509F575
:1022430009740B78081217B3D0E02508F890627070
:10225300E0A2E740F8E8C333906272F0906270E066
:10226300D2E0F0906181E0A2E35009E5E9A2E350F6
:102273000375E9F7A3E0A2E75009E591A2E750034C
:1022830075917FEEA2E092AFD0F0D083D082D00BD5
:10229300D00AD009D008D0E0FED0E0FDD0E0FCD0D9
:1022A300E0FBD0E0FAD0E0F9D0E0F8D0D0D0E032D3
:1022B300C0E0C0D0C082C083906183E0A2E0500937
:1022C300E5BFA2E0500375BFFEE0A2E15009E5BF00
:1022D300A2E1500375BFFDE0A2E25009E5BFA2E20F
:1022E300500375BFFBE0A2E35009E5BFA2E350032F
:1022F30075BFF7E0A2E45009E5BFA2E4500375BF40
:10230300EFE0A2E55009E5BFA2E5500375BFDFE0AA
:10231300A2E65009E5BFA2E6500375BFBFD083D044
:10232300828088C0E0C0D0E8C0E0E9C0E0EAC0E055
:10233300EBC0E0ECC0E0EDC0E0C0F0E5A7A2E650E2
:102343000FE5A1A2E6500953A7BF75A1BF12238BC6
:10235300E5A7A2E5500CE5A1A2E5500653A7DF755A
:10236300A1DFE5A7A2E15009E5A1A2E1500375A110
:10237300FDE5A7A2E2500CE5A1A2E2500653A7FB9C
:1023830075A1FBD0F002229C74F81218B1752101DB
:102393009003A2E064067015120CCE8A828B83A38D
:1023A300A3A3A3A3A3E0FAA3E0FB120D22A2AFE42D
:1023B30033FED2AF9003A8E0640170187A207B004B
:1023C3009003A1E0F91210EE7A207B009003A1E0C4
:1023D300F9121076906182E0D2E6F0900541E06058
:1023E3002185C62280169003A7E064017008E5C624
:1023F30054F84405F5C653BEFC1221187401652137
:1024030060E4EEA2E092AF7F0102195D008E238F9C
:1024130024858228858327851882851983E0CEA3A6
:10242300E0CF852882852783EBC9EAC8EDCBECCAC8
:1024330075F010C3E833C8E933C9EA33CAEB33CBC9
:10244300C3EA9EF526EB9FF525B35004AB25AA26D8
:10245300EC33CCED33CDD5F0DAAE23AF242274EDDB
:102463001218B18A088B098C0A8D0B741312182168
:10247300780C12168D7808790C12148D751001756D
:1024830011C875120075130050127808790C1216D2
:102493002C7810790812148D50168010780C790856
:1024A30012162C7810790C12148D400479018002D5
:1024B30079007F0C02195D74ED1218B18A088B093B
:1024C3008C0A8D0B7413121821780C12168D780C4C
:1024D300790812148D40117808790C12162CAA0869
:1024E300AB09AC0AAD0B8022751000751100751293
:1024F300007513017810790C12162C7810790812D4
:1025030015F3AA10AB11AC12AD1380A68A828B838C
:102513007508FF7509FF750AFF750B007808121619
:102523007A7F0402195D74F51218B18C828D837859
:102533000812168D8A828B837808121640EA2404C7
:10254300F8EB3400F98C828D83A3A3A3A3E0FCA34F
:10255300E0FD88828983C3E09CF0A3E09DF088823C
:102563008983C3E09420A3E0944E40268A828B8320
:102573007508FF7509FF750AFF750BFF78081216BA
:10258300198A828B83A3A3A3A3E02420F0A3E034BE
:102593004EF002250F74F51218B1E9FE9004F7E02E
:1025A300FAA3E0FBEEC333F8E433F974E628F582CB
:1025B300748139F583E02AF508A3E03BF50978082F
:1025C300121A587A407B427C0F7D00122410740249
:1025D3001217EB8A088B098C0A8D0B74107808127A
:1025E30015BBAA08AB097F0402195D74F11218B177
:1025F3008A0C8B0D8C0E8D0F740F121821E0FAA329
:10260300E0FB7411121821E0F508A3E0F50978083E
:10261300121A58EA2401F508EB3400F509E4F50A27
:10262300F50B780C79081214CC75087175090278CA
:102633000C79081214CCAA0CAB0DAC0EAD0F1224FE
:102643001074021217EB8B09EA450960047A0180C2
:10265300027A00EC2AFCED3400FD7413121821E019
:10266300F8A3E0F9E8FEE9FFECF8EDF97A717B02F3
:1026730012174A880889098E828F83780812169C5C
:10268300ECF8EDF97A717B0212174A8A088B097408
:102693000578081217C28E828F83A3A3A3A3E5082C
:1026A300F0A3E509F07F0802195DC082C083E990B9
:1026B3006000F0D083D08222C2AF02000022C0E0CB
:1026C30074F212199DA2AFE433FED2AFE589A2E101
:1026D3005003121286758900C2C5EEA2E092AF7F45
:1026E300010219FCC0E074F212199DA2AFE433FE9B
:1026F300D2AFE58BA2E05003121286758B00C2E8BD
:1027030080D8C0E0C0D0E8C0E0E9C0E0E5A8D2AF1F
:10271300C2C7A2E7A2E792AFD0E0F9D0E0F8D0D0E9
:10272300D0E032C0E0C0D0E8C0E0E9C0E0EAC0E0F9
:10273300C082C083A2AFE433FAD2AFE5F9C0E09020
:102743000910E0F8748F28F582E43408F583D0E0AB
:10275300F090090FE0F8A3E0687006E59590091280
:10276300F0900910E004F0C394804002E4F0A3E485
:10277300F0EAA2E092AFD083D082D0E0FAD0E0F9C1
:10278300D0E0F8D0D0D0E032C0E0C0D0E8C0E0E97B
:10279300C0E0C008C009C082C083A2AFE433F9D24D
:1027A300AF900993E0F8A3E0687008539AF7A37415
:1027B300018025C2EA900993E0F50874012508F029
:1027C30074132508F582E43409F583E0F5F99009DB
:1027D30093E0C394804002E4F0E9A2E092AFD08397
:0827E300D082D009D0088095D6
:1027EC00FFFFFFFFFFFFFFFFC082C083E9900C22B9
:1027FC00F0022A1E74F7121845E99002E1F07C19D8
:10280C007D037AFF7BFF1208CC9002E274FFF0A3E9
:10281C00F0A3E4F0A3F0790512085A9002E1E0F974
:10282C0012077C7AE47B08120A887F01021917745C
:10283C00F41218458A088B09EB548060309002E141
:10284C00E0F91210588A0A8B0BAE0AAF0BEE4F60F0
:10285C00138E828F83E064B0700312086CEEFAEF73
:10286C00FB121046AA08E5096480FB80047A007B01
:10287C00000229ED74F212184574FC1217D5EAFE09
:10288C00EBFFEE4F60387402121821EEF0A3EF123A
:10289C002C52ECF0A3ED122C52AA82AB83120776C9
:1028AC00E9F50870737412121821123806E50A45FE
:1028BC000B60658E828F8312292EEE4F7005750882
:1028CC000280557A067B001210AC8A0C8B0DA80C7A
:1028DC00A90DE8497005750813803D88828983E449
:1028EC00122938A3A3EEF0A3EF123C9FE50AF0A344
:1028FC00E50BF09002E71229C09002E76017E0FCAC
:10290C00A3E08003EAFCEBFD8C828D831229C0705E
:10291C00F38C828D8312372BA90874041217EB02E7
:10292C003EA1A3A3A3A3E0FEA3E0FF22F0A3F088A3
:10293C008289832274F2121845890AE975F017A46A
:10294C00FEAFF09002E6E4F09002E41229C0600AB7
:10295C001210B29002E4E4F0A3F0EEFAEFFB1210C6
:10296C00AC8A088B09EA4509602FEEFCEFFD790073
:10297C001210349002E4E508F0A3E509F07B008026
:10298C00081229AAE4F0A3F00BEBC3950A40F2E578
:10299C000A9002E6F0790080027913023EA1EB75F1
:1029AC00F017A4F8A9F09002E4E028FAA3E0398A21
:1029BC0082F583221234C1EA4B2274F41218457941
:1029CC0000EAA2E0501B75083A7509827808121AC1
:1029DC00587C047D007A247B0C1208547402121764
:1029EC00EB7F04021917C082C0839002E7122A25DC
:1029FC00601C88828983A3A3E06A7003A3E06B88C0
:102A0C0082898370E8A3A3A3A31234BD80047A0047
:102A1C007B00D083D08202011F123F74E8492274DC
:102A2C00EE12184574FC1217D5EAFEEBFF851882DE
:102A3C00851983E4F0A3F0EE240212370FEE24057F
:102A4C00122C40EE2404F50EEF123025E024FE602B
:102A5C003924FC604624FE605224FE605E24FE7025
:102A6C0003022B4524FE7003022BBD24FE700302CF
:102A7C002BCC24FE7003022BDB24FC7003022BEA0C
:102A8C0024FE7003022BF9022C369003007417F00D
:102A9C00A3E4122C5A1204F4022C368518828519E0
:102AAC0083AC82AD83120872022C068518828519BC
:102ABC0083AC82AD83120878022C06850C08850D38
:102ACC00097402121821AC82AD83850882850983B2
:102ADC001234BD12079A8A0C8B0DAC0CAD0DEC4D5B
:102AEC006042E4F50CF50D780C121A58750C007553
:102AFC000D03780C121A58750C01750D03780C1215
:102B0C001A587408121821121A6F79161234B71247
:102B1C0008B474081217EBE9F50C700B1234B312ED
:102B2C00050C800F750C01850882850983122C48D1
:102B3C0012372B850C08022C097402121821AC8256
:102B4C00AD83850C82850D831234BD12079A8A10D1
:102B5C008B11AC10AD11EC4D6043850C82850D834F
:102B6C00A3A3121A6F7510007511037810121A585E
:102B7C007510017511037810121A58740812182167
:102B8C00121A6F79161234B71208B474081217EBB4
:102B9C00E9F509700B1234B3120512800F75090197
:102BAC00850C82850D83122C4812372B85090880E1
:102BBC004C851882851983AC82AD8312087E803ACD
:102BCC00851882851983AC82AD83120884802B858D
:102BDC001882851983AC82AD8312088A801C8518F3
:102BEC0082851983AC82AD83120890800D85188282
:102BFC00851983AC82AD83120896E9F508E5086067
:102C0C00298E828F83A3E06414601F850E82850F4A
:102C1C0083E0900300122C52123F70900301123784
:102C2C002BE508A3122C5A1204EEEEFAEFFB120855
:102C3C0018023617F50CEF3400F50D22123F74858F
:102C4C00188285198322F085188285198322F07CDD
:102C5C00007D03850A82850B831234C12274EE1227
:102C6C00184574FC1217D58A0A8B0B8C0E8D0FEA43
:102C7C002405F508EB3400F5097C157D0079007A04
:102C8C00007B03121034E5082402F50CE509122C24
:102C9C0043851882851983858210858311781012DB
:102CAC001A58850882850983A3A3A3A312316D1238
:102CBC001A58E5082405F510E5093400F5117810CB
:102CCC00121A58850C82850D831234C7120794741E
:102CDC00061217EB8A108B11AE10AF11E50A240205
:102CEC00F50AE50B123712EE4F7003022E2F8017E8
:102CFC0074021218211234BD88828983EAF0A3EB86
:102D0C00F0900300E004F0900300E0C3940540034E
:102D1C00022E2FE4F510F5117810121A587510E9DF
:102D2C007511027810121A587510EA751102781084
:102D3C00121A587406121821121A6F7910EEFCEF41
:102D4C00FD1234B71208B474081217EBE9705E85E3
:102D5C000882850983A3A3A3A3A3A3A3E0F89002ED
:102D6C00E9E068704812316D121A587CEA7D02E570
:102D7C00082408FAE5093400FB12102E740212170D
:102D8C00EBE960298E828F83A3A3A3A31234BD9099
:102D9C000300E0F510740278101217C274012510AC
:102DAC00F58274033511F583EAF0A3EBF07402128B
:102DBC0018218582108583117810121A587402120A
:102DCC001821121A6F850C82850D83123F8512070C
:102DDC00A074041217EB8A108B11AE10AF11900374
:102DEC0000E0F510751100740278101217C274000F
:102DFC002510F874033511F988828983A31229C030
:102E0C007003022CF3E82403F8E93400F9EE4F6068
:102E1C0003022CFC8882898374FFF0A3F0900300DA
:102E2C00E004F0900300E0600A1234B3120500795C
:102E3C0000800B850882850983123722790A0236B5
:102E4C001774EA12184574FE1217D58C128D13EAFA
:102E5C002405F50CEB123F8F122932750800750909
:102E6C0000EA2402F510EB3400F51185188285195F
:102E7C008385820A85830B780A121A58850C828501
:102E8C000D83A3A3A3A312302F121A58E50C24050B
:102E9C00F50AE50D123712780A121A58850C82853C
:102EAC000D83123F8312079474061217EB8A0A8B58
:102EBC000BEA450B7003022FE0EA2404F50EEB122B
:102ECC0030251229328A828B83A3A3A3E0F98510C3
:102EDC00828511831234BD120782E9F50960030261
:102EEC002FE0E4F514F5157814121A587514E975D9
:102EFC0015027814121A587514EA75150278141202
:102F0C001A587406121821121A6F7913AC0AAD0BE9
:102F1C008510828511831234BD1208B474081217FF
:102F2C00EBE9F5096003022FE09002E9E0F8E5080F
:102F3C007009E02402900301F08017900301E0FC7B
:102F4C00E82402FAE43400FBEA6C7001EB60030243
:102F5C002FE4850882AA82123164941412315C50D9
:102F6C0073850E82850F83E0C0E074022A12301C38
:102F7C00D0E0F00508850E82850F83A3E0C0E085C4
:102F8C00080A7402250A12301CD0E0F005089002E1
:102F9C00E912302F121A587CEA7D0285080A740255
:102FAC00250AFA74033400FB12101C74021217EB7E
:102FBC009002E9E02508F50874FF6E700374FF6F4A
:102FCC006012EE24010EEF3400FFE508C394145098
:102FDC0003022E77E50860131233A8851082851141
:102FEC00831234BD12050679008014E5097003754F
:102FFC00090A851282851383EEF0A3EFF0A90974F8
:10300C00021217EB7F0E02191785080C7402250C9F
:10301C00F58274033400F583223400F50F850E829B
:10302C00F58322123CB22274EE12184574FE12176C
:10303C00D58C0E8D0FEA2405F50CEB122C43750B79
:10304C0000900300E4F0F50AEA2402F508EB3400E2
:10305C00F5098049900300E0FA9002E9E0F812319A
:10306C0064941712315C400D900300E0F87416C3A1
:10307C00989002E9F012316D121A587CEA7D0274B4
:10308C00012AFA74033400FB12101C74021217EBA1
:10309C009002E9E0F8900300E028F0050AE50C2422
:1030AC0016F582E50D123020E0F8E50AC3984003CE
:1030BC00023145900300E0C39416507DE50AC333FA
:1030CC00F8E433F9E50C28FEE50D39FF8518828507
:1030DC001983AC82AD838E828F831234BD12079A12
:1030EC008A108B11AC10AD11EC4D7005750B018075
:1030FC0043E4F510F5117810121A587510E9751192
:10310C00027810121A587510EA7511027810121AFA
:10311C00587406121821121A6F79168508828509BF
:10312C00831234BD1208B474081217EBE9F50B7056
:10313C000302306012371E80107C007D03850882EC
:10314C008509831234BD120518A90B7402023619B5
:10315C00E99400C365D03322EA28F8E43400F9E896
:10316C0022E0F51075110078102274EA12184574DB
:10317C00FC1217D58A0C8B0D8C128D13EA2405F5D5
:10318C000AEB123712750800750900E50A2402F5DE
:10319C0010E50B3400F511740212182185820E858E
:1031AC00830F780E121A58850A82850B83A3A3A36A
:1031BC00A3123C5E121A58E50A2405F50EE50B34F1
:1031CC0000F50F780E121A5885108285118312376C
:1031DC00181234B712079474061217EB8A0E8B0F61
:1031EC00AE0EAF0FE50C2402F50EE50D3400F50F15
:1031FC0080408882898374FFF0050812301574FFB3
:10320C00F005089002E9E0F50C750D00780C121A27
:10321C00587CEA7D0285080C7402250CFA74033480
:10322C0000FB12101C74021217EB9002E9E0250847
:10323C00F508EE4F60718E828F83A3A3A3E0F9850E
:10324C000E82850F831234BD120782E9F509EE2434
:10325C0004122C40E97044E4F514F5157814121A94
:10326C00587514E97515027814121A587514EA7504
:10327C0015027814121A587408121821121A6F7940
:10328C0011EEFCEFFD850E82850F831234BD120802
:10329C00B474081217EBE9F5096027850C82850DCB
:1032AC008312339E12372BE50870030233841233DA
:1032BC00A8850E82850F831234BD12051E7900027B
:1032CC003399850882AA82EA9002E97009E0240405
:1032DC00900301F08022E0F8900301E0F514E8245B
:1032EC0004FCE43400FDEC65147001ED70C0123187
:1032FC0064941212315C50B6850C82850D83E0C04B
:10330C00E074022A12301CD0E0F00508850C82858E
:10331C000D83A3E0C0E0123015D0E01233BA8582E1
:10332C000C85830D780C121A587404121821121A79
:10333C006F851082851183123F851207A0740412C9
:10334C0017EB8A0C8B0DAE0CAF0D85080C74022597
:10335C000CF874033400F9EE4F70030231FE85183B
:10336C0082851983E0888289831233BAA3E0C0E096
:10337C00123015D0E002320CE509700375090A858C
:10338C000A82850B8312339E12372BA9097404020F
:10339C00300D123F7485128285138322900301E055
:1033AC00F5F0E50884900300F07C007D0322F00525
:1033BC00088518828519832274EC12184574FE1244
:1033CC0017D58A088B098C0E8D0FEA2405FEEB3479
:1033DC0000FF851882851983AC82AD838E828F8322
:1033EC001234BD12079A8A0A8B0BEE2418122C4049
:1033FC00EA450B700302348E123600503285188267
:10340C008519831234BD1208A88A108B11EA451154
:10341C00606B7912AC0AAD0B850882850983123476
:10342C00BD851082851183121843E9F50A7058E4A2
:10343C00F50AF50B780A121A588E828F83A3A3E033
:10344C00F50A780A121A58EE240312370F780A126A
:10345C001A588E828F831234C71208BA7406121748
:10346C00EBE9F50A7021850C82850D83E0701F85D0
:10347C0008828509831234BD1205248011750A0E49
:10348C008009750A018004E50A600312371E850C59
:10349C0082850D83E0600479008002A90A7402120F
:1034AC0017EB7F0C0219177C007D03850A82850BB4
:1034BC00831234C122E0FAA3E0FB22E0FCA3E0FD7E
:1034CC008508828509831234C12274EE1218457462
:1034DC00FE1217D58A088B098C0C8D0DEA2405FE7B
:1034EC00EB3400FF750E00851882851983AC82AD14
:1034FC00838E828F831234BD12079A8A0A8B0BEA51
:10350C00450B70030235EC12360050358518828558
:10351C0019831234BD1208A88A0E8B0FEA450F606E
:10352C005E7912AC0AAD0B8508828509831234BD15
:10353C00850E82850F83121843E9F50E6003023560
:10354C00EF850882850983123806AA0AFB12089CAB
:10355C008A108B11A810A911E849701E7AFF7BFF05
:10356C0012089C8A108B11A810A911E849606C886C
:10357C00828983E50AF0A3E50BF0750A00800775D4
:10358C000E0E805F050A9002E6E0FAE50AC39A5037
:10359C004AE50A75F017A4FAABF088828983A3A3D5
:1035AC00E02AFAA3E03BFB8A828B83123718EC4D9E
:1035BC0070D2750A17750B00780A121A58EEFCEFC8
:1035CC00FD12101C74021217EBEEFCEFFD85088245
:1035DC008509831234BD12052A8014750E098003E7
:1035EC00750E01123F6C850C82850D8312372BA949
:1035FC000E023157E5082402F508E5093400F509F7
:10360C008A828B83A3A3A3E0A2E52274041217EB96
:10361C007F0A02191774EC1218458C108D11EA24CC
:10362C0005F50CEB122C43750F00EA2402F50AEB9E
:10363C00123712850A82F5831234BD12089C8A084F
:10364C008B09EA45097003023704750E00807185F9
:10365C000C82850D83E06401704F8E828F83A3A34F
:10366C00121A6F8E828F83A3A3A3A3E0F512751396
:10367C00007812121A58EE2405F512EF3400F513E7
:10368C007812121A581234B71208BA74061217EBC1
:10369C00E9F50F6014850C82850D83E4F0123F6C04
:1036AC0085108285118312372B7C177D007900EEF3
:1036BC00FAEFFB1210348E828F83E4F0A3F0050E28
:1036CC009002E6E0F8E50EC398501EE50E75F01773
:1036DC00A4F8A9F0850882850983A3A3123F991247
:1036EC003718EC4D600302365B85088285098374BC
:1036FC00FFF0A3F0E50F70061234B7120530A90FD6
:10370C000234AEF50AEF3400F50B22A3E0FCA3E083
:10371C00FD228E828F83123F74850E82850F83E883
:10372C00F0A3E9F022C082C0839002E2E06A700349
:10373C00A3E06B70067AE27B0280047A007B0002C5
:10374C002A1EC082C08378008C828D83E06A70034D
:10375C00A3E06B7010E875F003A4F8A9F0EC28FA5C
:10376C00ED39FB8015088C828D83A3A3A3E06A70CE
:10377C0003A3E06B60DF7A007B00022A1E74F61252
:10378C0018451208668A828B83E582458370067A17
:10379C00007B008007A3A3A3A31234BD023E1D74BB
:1037AC00F2121845E9FE740E121821123806741024
:1037BC00121821123C7E8C828D83E064027036A339
:1037CC00123F7AF50CA3E0F9A80C7402687003742C
:1037DC0029697021750C02750D00780C121A587835
:1037EC0008121A58780A121A58EEF91208DE7406E2
:1037FC001217EB80027901023EA1E0F50AA3E0F575
:10380C000B2274E812184574FB1217D5E98518823F
:10381C00851983F08A168B17ECFEEDFF751000747A
:10382C001D121821123F70741D12182112372B8E85
:10383C00828F83A3A3A3E0A2E4502D741D12182140
:10384C001234BD1208A88A828B83E58245837003EB
:10385C00023C4F790AEEFCEFFDAA16AB1712184387
:10386C00E9F5106003023C52741F121821123C7EC1
:10387C0074211218211238067423121821E0F50E47
:10388C00A3E0F50F8E828F83E064026003023BFDA0
:10389C00A3123F70850882850983A38582128583D4
:1038AC0013EE2406122C4088828983E0FAA3E0F9F7
:1038BC00EA2400F514E439F5157814121AE2010023
:1038CC0000280128F23807000228B73903282439C8
:1038DC000029EE3A0129193B0229BA3A0329EE3A9A
:1038EC000429983BFD3BE50E450F6003023BF88530
:1038FC000C82850D83123C73FAE9FB8A828B83E080
:10390C00850A82850B83123CA9121A588A828B83F2
:10391C00A3E0FCA3E0023B82E50E450F6003023BF3
:10392C00F8850A82850B837401F0123C8685088227
:10393C00850983F07C007D008E828F83A3A3A3A3D3
:10394C00E02401FAA3E03400FB12079AEA4B604131
:10395C008A828B83E02402F8850A82850B83E02817
:10396C00F0EA2404F8EB3400F988828983E08512AC
:10397C0082851383123CBB123CA9121A588A828B83
:10398C0083123717E5082403FAE5093400FB023BE0
:10399C0087850A82850B83E02404F07C047D007902
:1039AC0000AA12AB13121034023C52E50E450F6004
:1039BC0003023BF8123C86FEA3E0FF850A82850BCE
:1039CC00837404F0EE850882850983F0EF851282FA
:1039DC00851383F07403121821AC82AD83EEFAEFD9
:1039EC00FB12079A8A0C8B0DEA450D7003023A9B69
:1039FC008A828B83A3A312292E740112182185822B
:103A0C000E85830F780E121A587405121821121A8B
:103A1C006F7CFF7DFF1207A074041217EB8B0FEA6B
:103A2C00450F7033850C82850D83123C5E121A583B
:103A3C00850C82850D83A3121A6F7C027D007AA6F9
:103A4C007B821205CC74041217EBE9700A74011214
:103A5C00182174FFF0A3F08E828F83E0640270391A
:103A6C00750C02750D00780C121A588E828F831209
:103A7C003717E5082404FAE5093400FB12101C740E
:103A8C00021217EB850A82850B83E02402800974ED
:103A9C0001121821EEF0A3EFF07401121821123C60
:103AAC006FF07401121821A3123C67023BF2E50E71
:103ABC00450F6003023BF8850C82850D8312371885
:103ACC00AA16AB171208D2850A82850B837402F0F2
:103ADC00EA850882850983F0851282851383EB02BF
:103AEC003BF5E50E450F6003023BF8123C86F8A34C
:103AFC00E0F9850A82850B837402F0E885088285DB
:103B0C000983F0E9851282851383023BF5850C82CB
:103B1C00850D831234BD121016EAFC8C82A882C368
:103B2C00950EE4950F405FE8650E7002E50F70048A
:103B3C007C008022851882851983E0FAE50E2AFA2A
:103B4C00E50F3400FBC3EA98EB94005003E08005CA
:103B5C00E50ECCC39CFCEC850A82850B83F08C0AA9
:103B6C00750B00780A121A58850C82850D83E02596
:103B7C000EFCA3E0350FFDAA08AB0912101C740251
:103B8C001217EB023C52751007023C52E50E450F22
:103B9C00705A850C82850D83123F70850A82850BC5
:103BAC0083740712293A123C6712293AA3E0851252
:103BBC0082851383F0E82402FAE93400FB8A828BB5
:103BCC0083123C67123C96123C6FA3123C9F123C32
:103BDC0078F0E82405F8E93400F988828983123CEE
:103BEC0078A3123CBBA3A3A3A3F0805A75100B803F
:103BFC0055741D1218211234BD1208668A828B83EB
:103C0C00E5824583603D123F70880C890DE8450DB7
:103C1C006031780E121A58780A121A587808121A4B
:103C2C00587406121821E0F9EEFCEFFDAA16AB173A
:103C3C00850C82850D8312184374061217EBE9F577
:103C4C0010800375100EA91074051217EB7F10026B
:103C5C001917E0F50E750F00780E22E085088285A5
:103C6C00098322123CC522123F74E822123CC5A3E0
:103C7C00A322E0F508A3E0F50922850C82850D83CB
:103C8C00E0F8A3E0F5838882E022A3A3F08A828B7C
:103C9C0083A322F088828983A3A3A3A322F08A8220
:103CAC008B83123CB222E0F50A750B00780A22F0E5
:103CBC0088828983A3123CC522E08508828509830A
:103CCC00A3A32274EE12184574FE1217D58A0A8B20
:103CDC000BECFAEDFB7414121821E0F510A3E0F5CF
:103CEC00117416121821E0FE7418121821E0F50E4A
:103CFC00A3E0F50F851882851983AC82AD8312077A
:103D0C009A8A0C8B0DEA450D6049851882851983BA
:103D1C001234BD1208668A828B83E5824583602F3C
:103D2C00A3A3123C7EE50845096024780E121A58AC
:103D3C007810121A58EEF9AC0CAD0DAA0AAB0B8523
:103D4C00088285098312184374041217EB800679D4
:103D5C000E8002790102315774F612184574FE1266
:103D6C0017D5740C121821123C738518828519838F
:103D7C00F07401121821E9F0E4F508F5097808123D
:103D8C001A587508027808121A58740412182185EA
:103D9C0082088583097808121A581208BA74061218
:103DAC0017EB74021217EB806874F7121845EAFED1
:103DBC00EBFF89087C197D031208D2EA5402600BD0
:103DCC00A908EEFAEFFB12078E8002790102283661
:103DDC0074F612184574FF6A700374FF6B70168CBE
:103DEC00828D83123E22E4F08C828D83A3A3A312D6
:103DFC003E22A380181208A28A088B09A808A909D8
:103E0C00E849600D8882898374FF122938A3A3E4E2
:103E1C00F07F0202191774FFF0A3F08C828D83A33C
:103E2C00A32274F61218451208A28A828B83E582AB
:103E3C0045836006A3A3E0FA80027A007B0080D160
:103E4C0074F21218458A088B09ECFEEDFF740E1201
:103E5C001821E0F50A1208A28A0C8B0DA80CA90DEA
:103E6C00E8497026EEFCEFFD7AFF7BFF1208A28A70
:103E7C000C8B0DA80CA90DE84970047911801688DB
:103E8C00828983E508F0A3E509F088828983A3A3DE
:103E9C00E50AF079007F0602191774EE121845EA4C
:103EAC00FEEBFF8C088D09890C7414121821123F3B
:103EBC007074161218211234BD750D00E849600398
:103ECC00023F647402650C6003023F5F74121218A7
:103EDC0021123F7AFCA3E0F9EC2400F50EE439F54D
:103EEC000FEAF4F8EBF4F9EC58F8E50F59F9E84956
:103EFC00705CE5082406F8ED3400F9880A890B8813
:103F0C0082F583123F851208D28A108B11E50E655B
:103F1C00107004E50F65116042780E121A58850A6C
:103F2C0082850B83123F851208D874021217EBE9B5
:103F3C00F50D7027780E121A58850882850983A30F
:103F4C00A3123F831208EA74021217EB800D750D51
:103F5C00808008750D0D8003750D0BA90D02361CA4
:103F6C008E828F83123F7422E0F8A3E0F922123F75
:103F7C007488828983E022A3A3E0FCA3E0FDEEFA1F
:103F8C00EFFB223400F50D850C82F58322E028FE30
:103F9C00A3E039FF8E828F832274F2121845EAFE59
:103FAC00EBFF890B7401650B600E7402650B706A74
:103FBC007901120AA6E97062EEFAEFFB12089C8AEC
:103FCC00088B09EA45096047750A00800B7C177D50
:103FDC00007900121034050A9002E6E0F8E50AC3F5
:103FEC00985021E50A75F017A4F8A9F08508828588
:103FFC000983A3A3E028FAA3E039FB8A828B8312FE
:10400C002A2570C985088285098374FFF0A3F07C8A
:10401C00197D03EEFAEFFB1208CC023EA174F212EA
:10402C0018458A088B09ECFEEDFF740E121821124C
:10403C003806900C22E0F4603D7A097B00121040A7
:10404C00EA4B60328A828B8374B1F0A3E4123C9801
:10405C00A3123C96A3E508F0A3E509124085EEF007
:10406C00A3EF124085A3A3E50AF0A3E50BF0900C97
:10407C0022E0F912104C023EA1F08A828B83A3A39A
:10408C00A3A3A322C082C0839061907404F0A37494
:10409C0048F0A37402F09061807440F09061BC749D
:1040AC0003F09061877419F0906265741BF0906254
:1040BC0049E0C3941390619C400A7409F0906066C7
:1040CC0074018007740DF0906066E4F090619A744E
:1040DC0033F0A37455F09061A0743AF090053FE072
:1040EC0064017009C2919003A6746780059003A6C1
:1040FC007461F09027F2E493906186F09027ECE4E1
:10410C0093F46027E493540FF8906185E068601293
:10411C00E5C654804449F5C6E59E547F644970F861
:10412C00E8F053C680E59E547F70FA7905120DE8CD
:10413C000242BEC082C083E5A8F853A87E9061817C
:10414C00E4F0A3F0A3F0C2BA539AFEC289759B00A7
:10415C00C2C275E90075910075BF0075A91175B9DA
:10416C0005906181F0A374C0F0A3E4F0D2BA439A35
:10417C000174805842A80242BEC082C08374F812F7
:10418C0017D59003A4E0F8A3E0F9E84970030242C4
:10419C00B39003A4E05440602379088518828519F4
:1041AC0083AA82AB83120C5C851882851983AA8240
:1041BC00AB831209569003A4E054BFF0E054806026
:1041CC0010790C7A657B05120C5C9003A4E0547F8B
:1041DC00F0E0A2E0503190619A7433F0A37455F082
:1041EC009061A0743AF090053FE064017009C291AF
:1041FC009003A6746780059003A67461F012095CA5
:10420C009003A4E054FEF0E05402603190619A7483
:10421C003FF0A3745AF09061A0747FF090053FE0DA
:10422C0064017009D2919003A6747180059003A665
:10423C00746AF012095C9003A4E054FDF0E054049D
:10424C0060139027F0E493906186F012096290035A
:10425C00A4E054FBF0E0540860139027F1E4939031
:10426C006186F01209629003A4E054F7F0E0541058
:10427C0060139027F2E493906186F0120962900328
:10428C00A4E054EFF0E05420600A1209629003A4F9
:10429C00E054DFF0A3E05401600D120B84120968A6
:1042AC009003A5E054FEF074081217EB0242BEF026
:1042BC00A3F0D083D08202011F74EC12184574F461
:1042CC001217D5851882851983AC82AD83758382CC
:1042DC0075828874041216E89027F093F460030238
:1042EC004451907808E0C3940250030244317404A2
:1042FC00121821AC82AD8375838275821F740812EB
:10430C0016E88518828519838582128583137404B7
:10431C00121821AC82AD83750EFF750FFF7FFF7EE7
:10432C0000750C48750D78801574086E7003024387
:10433C00C574096E70030243C5740A6E607B850CEC
:10434C0082850D83780812168D8C828D83A909E5E0
:10435C000AC9F88810741878081215BBE5104508BE
:10436C00F8C3E098A3E099850C82850D8378081238
:10437C00168D40188C828D83741878081215BBE545
:10438C00104508F8E0C398F8A3E0801C741878086E
:10439C001215BBE5104508FAE9FB8C828D83E0F819
:1043AC00A3E0F9EAC398F8EB99F9C3E8950EE995FF
:1043BC000F5006880E890FEEFF0EE50C2404F50C49
:1043CC00E50D3400F50DEEC3941350030243357420
:1043DC00FF650E700474FF650F60238F08740278FC
:1043EC00081217C274482508F58274783509F583CC
:1043FC00780812168D851282851383E508F0EC245B
:10440C0002FCED3400FD851282851383A385821294
:10441C00858313740C121821E5826C7003E5836D8F
:10442C0060030243237508017509007808121A58B5
:10443C007402121821AC82AD837AFC7B09121262D1
:10444C0074021217EB740C1217EB7F0C021917C0C5
:10445C0082C0839061AE7468F0A3746AF090624578
:10446C0074FBF0A304F053F4FD43FE0290053F747B
:10447C0001F09061A0E0643A90619A70237433F07B
:10448C00A37455F09061A0743AF074016401700942
:10449C00C2919003A6746780289003A67461802152
:1044AC00743FF0A3745AF09061A0747FF0740164AF
:1044BC00017009D2919003A6747180059003A674C3
:1044CC006A0242BD7F08021917C082C0839004F1B2
:1044DC00E06401700A9004F6E06004790C800279C3
:1044EC00000242BEC082C08375E1F19004F4E0602A
:1044FC005B14600914605F14605714705E120B96A5
:10450C009004EAE0F97AEB7B04120D6A7AD67BBE52
:10451C007C897D8E120DA07A557B557C557D0012C1
:10452C000D769004F5E0F9120D827901120DDC90F4
:10453C0004E8E0F8A3E0C82416F582E83400F5831B
:10454C0074AEF0A3740BF079000242BE120B9C8087
:10455C00AF120BA280AA120BA880A5791280EA7464
:10456C00F012184575D90D9004D5E0A2E0E4331390
:10457C0013F89004EAE0C4333354C0484401F5D92D
:10458C0078E8790488828983A3A3A3E0F5D988828B
:10459C008983A3A882A983E864EE7003E96404709C
:1045AC00E378D5790488828983A3E0F5D988828958
:1045BC0083A3A882A983E864DB7003E9640470E533
:1045CC0075E1959004D5E0F97AD67B04120D7090C4
:1045DC000C447448F0A3740BF0A374A4F0A3740CF3
:1045EC00F0A374A4F0A3740CF0A374A4F0A3740C43
:1045FC00F0A3744EF0A3740BF0A374A4F0A3740C8A
:10460C00F0A37466F0A3740BF0900C5274A4F0A396
:10461C00740CF0A374A4F0A3740CF0A374A4F0A312
:10462C00740CF0A374A4F0A3740CF0A374A4F0A302
:10463C00740CF0A374A4F0A3740CF09004F4E06474
:10464C00019004E87012E0F8A3E0F5838882A3A33C
:10465C007508007509088010E0F8A3E0F5838882DE
:10466C00A3A3750804750900750A00750B0078087A
:10467C00121606750CFF750DFF750EFF750F007881
:10468C0008790C1216549004E8E0F8A3E0C8240E44
:10469C00F582E83400F583780812169C9004E8E063
:1046AC00F8A3E0C82414F582E83400F5837413F001
:1046BC009003A27402F00244D074F71218459004CF
:1046CC00FAE02407F5D99004EAE0C4333354C0F57A
:1046DC00D978E8790488828983A3A3A3E0F5D988E3
:1046EC00828983A3A882A983E864EE7003E9640439
:1046FC0070E39004FAE0601F78E87904FAE8241378
:10470C00F582E93400F583E0F5D988828983A3A882
:10471C0082A9831AEA70E690051AE02407F5D9906D
:10472C0004EAE0C4333354C04404F5D978E879047E
:10473C0088828983A3A3A3E0F5D988828983A3A85F
:10474C0082A983E864EE7003E9640470E390051AAF
:10475C00E0601F78E87904FAE82433F582E9340044
:10476C00F583E0F5D988828983A3A882A9831AEA04
:10477C0070E675E195900C447454F0A3740BF0A39F
:10478C0074A4F0A3740CF0A374A4F0A3740CF0A3A1
:10479C0074A4F0A3740CF0A3744EF0A3740BF0A3E8
:1047AC0074A4F0A3740CF0A37466F0A3740BF090D3
:1047BC000C5274A4F0A3740CF0A374A4F0A3740CA6
:1047CC00F0A374A4F0A3740CF0A374A4F0A3740C61
:1047DC00F0A374A4F0A3740CF0A374A4F0A3740C51
:1047EC00F09004E8E0F8A3E0C8240EF582E8340069
:1047FC00F58374FFF0A3F0A3F0A3F09004E8E0F8C5
:10480C00A3E0C82414F582E83400F5837412F09008
:10481C0003A27401F0FF02191774F71218459004E3
:10482C00FAE02407F5D99004EAE0C4333354C044C9
:10483C0002F5D978E8790488828983A3A3A3E0F5EB
:10484C00D988828983A3A882A983E864EE7003E9DE
:10485C00640470E39004FAE0601F78E87904FAE8E5
:10486C002413F582E93400F583E0F5D98882898335
:10487C00A3A882A9831AEA70E675E195900C44749A
:10488C0060F0A3740BF0A37460F0A3740BF0A3742A
:10489C0060F0A3740BF0A37460F0A3740BF0A3741A
:1048AC0060F0A3740BF0A37460F0A3740BF0A3740A
:1048BC0066F0A3740BF0900C5274A4F0A3740CF07B
:1048CC00A374A4F0A3740CF0A374A4F0A3740CF060
:1048DC00A374A4F0A3740CF0A374A4F0A3740CF050
:1048EC00A374A4F0A3740CF09004E8E0F8A3E0C85F
:1048FC00240EF582E83400F58374FFF0A3F0A3F0E6
:10490C00A3F09004E8E0F8A3E0C82414F582E8349E
:10491C0000F5837414F09003A27404F0024BEC7451
:10492C00F71218459004FAE02407F5D99004EAE050
:10493C00C4333354C04406F5D978E87904888289A5
:10494C0083A3A3A3E0F5D988828983A3A882A98332
:10495C00E864EE7003E9640470E39004FAE0601F0D
:10496C0078E87904FAE82413F582E93400F583E059
:10497C00F5D988828983A3A882A9831AEA70E69064
:10498C00051AE02407F5D99004EAE0C4333354C087
:10499C004404F5D978E8790488828983A3A3A3E039
:1049AC00F5D988828983A3A882A983E864EE700371
:1049BC00E9640470E390051AE0601F78E87904FA62
:1049CC00E82433F582E93400F583E0F5D98882894F
:1049DC0083A3A882A9831AEA70E675E195900C442A
:1049EC00745AF0A3740BF0A374A4F0A3740CF0A38A
:1049FC0074A4F0A3740CF0A374A4F0A3740CF0A32F
:104A0C0074A4F0A3740CF0A374A4F0A3740CF0A31E
:104A1C007466F0A3740BF0900C5274A4F0A3740C95
:104A2C00F0A374A4F0A3740CF0A374A4F0A3740CFE
:104A3C00F0A374A4F0A3740CF0A374A4F0A3740CEE
:104A4C00F0A374A4F0A3740CF09004E8E0F8A3E0D5
:104A5C00C8240EF582E83400F58374FFF0A3F0A3AC
:104A6C00F0A3F09004E8E0F8A3E0C82414F582E881
:104A7C003400F5837415F09003A27403F0024BEC30
:104A8C00C082C0839004E8E0F8A3E0C82406F58255
:104A9C00E83400F583E40242BB74F7121845900326
:104AAC00D0E0F875F003A4C8AAF02AF974D228F85B
:104ABC00740339F9E82405FAE93400FB8A828B8304
:104ACC00E0FCA3E0FD88828983A3A3A3A3A3A3A3F3
:104ADC00A3A3ECF0A3EDF088828983A3A3A3A3A3E3
:104AEC00A3A3E024FFF8A3E034FFF98A828B83E8C8
:104AFC00F0A3E9F0024BEC74F7121845EAFEEBFF59
:104B0C009061D0E06003024BE075D90E75D9037546
:104B1C00D904EE248BF582EF3400F583E58224086A
:104B2C00F8E5833400F9E0F5D9A3E865827003E970
:104B3C00658370F2EE2483F582EF3400F583E58211
:104B4C002404F8E5833400F9E0F5D9A3E865827014
:104B5C0003E9658370F275E1957908EE248BFAEF21
:104B6C003400FB120C507904EE2483FAEF3400FB72
:104B7C00120C507C00EEF8EFF9ECFAC3E49AFA95BB
:104B8C00E0FBEE2AFAEF3BFBEA248AF582EB3400D9
:104B9C00F583E0C0E0E824AAF582E93400F583D07F
:104BAC00E0F00C88828983A3A882A983ECC39408C3
:104BBC0040C7EE246FF582EF3400F583E0F8A3E0F4
:104BCC00F9EE2471F582EF3400F583E8F0A3E9F0F7
:104BDC007901800279008008F0EEA2E092AF7900B2
:104BEC007F01021917C082C08375D90275D903756C
:104BFC00D90575E195EA246FF582EB3400F583E075
:104C0C00F8A3E0F9EA2471F582EB3400F583E8F0BF
:104C1C00A3E9F079010242BE74F6121845EAFEEBE4
:104C2C00FF9005457406F07508457509057808125E
:104C3C001A587C017903120C9874021217EB75D96F
:104C4C000675D903758245758305E0F5D9A3E58210
:104C5C00644A7004E583640570F075E1959003A2D5
:104C6C00E06408701EEE246FF582EF3400F583E0EB
:104C7C00F8A3E0F9EE2471F582EF3400F583E8F047
:104C8C00A3E9F07901024EF274F6121845EAFEEB34
:104C9C00FF9061D0E070667801900545740BF09040
:104CAC0003A2E064077019750845750905780812A8
:104CBC001A587C017903120C9874021217EB7805C0
:104CCC00740128F5D975D903758245758305E8FA01
:104CDC00E0F5D9A31AEA70F875E195EE246FF58228
:104CEC00EF3400F583E0F8A3E0F9EE2471F582EFE0
:104CFC003400F583E8F0A3E9F07901800279000231
:104D0C004EF274F7121845EAFEEBFF75D90375D90C
:104D1C000375D90DEE24DDF582EF3400F583E0F553
:104D2C00D975E1957904120DA6EE246FF582EF3456
:104D3C0000F583E0F8A3E0F9EE2471F582EF34007E
:104D4C00F583E8F0A3E9F07901024BEC74F6121844
:104D5C0045EAFEEBFF9061D0E0F87480C398FAEE60
:104D6C002482F582EF3400F583E06004780480023D
:104D7C007800E8240BF8EAC3985003024E1D7D0915
:104D8C00900545EDF0EE24E2F8EF3400F97A467B1D
:104D9C00057C0888828983E08A828B83F0888289EB
:104DAC0083A3A882A9838A828B83A3AA82AB831C48
:104DBC00EC70E0EE2482F582EF3400F583E0601DA8
:104DCC007508457509057808121A587C097903EE9F
:104DDC00FAEFFB120C9874021217EB7D0D74012D77
:104DEC00F5D975D9037582457583058D08E0F5D91C
:104DFC00A31508E50870F675E1957904120DA6EE79
:104E0C00241DF582EF3400F583E4F0A3F0790180E2
:104E1C00027900024EF274F6121845EAFEEBFF908E
:104E2C0061D0E0F87480C398FAEE2482F582EF34F6
:104E3C0000F583E06004780480027800E82408F828
:104E4C00EAC3985003024EF07806900545740CF0B6
:104E5C009003BFE0900546F09003C0E0900547F04A
:104E6C009003C1E0900548F09003C2E0900549F032
:104E7C009003C3E090054AF0EE2482F582EF3400F3
:104E8C00F583E0601B7508457509057808121A58FA
:104E9C007C067903EEFA120C9874021217EB780A5E
:104EAC00740128F5D975D903758245758305880871
:104EBC00E0F5D9A31508E50870F675E195790412AB
:104ECC000DA6EE246FF582EF3400F583E0F8A3E035
:104EDC00F9EE2471F582EF3400F583E8F0A3E9F0E4
:104EEC007901800279007F0202191774F6121845B5
:104EFC00EAFEEBFF9061D0E0F87480C398FAEE24E0
:104F0C0082F582EF3400F583E06004780480027847
:104F1C0000E82404F8EAC3985003024FD1780290B9
:104F2C000545E8F0EE24F4F582EF3400F583E090CB
:104F3C000546F0EE2482F582EF3400F583E0601B29
:104F4C007508457509057808121A587C027903EE24
:104F5C00FA120C9874021217EB7806740128F5D922
:104F6C0075D9037582457583058808E0F5D9A315B5
:104F7C0008E50870F675E195EE2473F582EF3400C0
:104F8C00F583E4F0EE247FF582EF3400F583E4F052
:104F9C00EE241DF582EF3400F583E4F0A3F07904E0
:104FAC00120DA6EE240DF582EF3400F583E0F8A384
:104FBC00E0F9EE2471F582EF3400F583E8F0A3E913
:104FCC00F0790180027900024EF274F612184590C5
:104FDC0061D0E0F87480C398FCEA2482F582EB344B
:104FEC0000F583E06004780480027800E82404F87B
:104FFC00ECC398405B79029005457407F0EA24F500
:10500C00F582EB3400F583E0900546F0EA2482F556
:10501C0082EB3400F583E060187508457509057856
:10502C0008121A587C0209120C9874021217EB79A8
:10503C0006740129F5D975D903758245758305E97F
:10504C00F8E0F5D9A318E870F875E19579018002BC
:10505C007900024EF274F5121845E9FCA2AFE43364
:10506C00F50AC2AF7D0080010DEA246EF582EB34A7
:10507C0000F583E0F8EDC398501A8D08EA2508F87E
:10508C00EB3400F9E8246AF582E93400F583E06C2E
:10509C0070D68024EA246EF8EB3400F9E0FEEA2E98
:1050AC00FAEB3400FBEA246AF582EB3400F583EC6E
:1050BC00F088828983E004F0E50AA2E092AF7F03D6
:1050CC0002191774F6121845A2AFE433FDC2AFEA09
:1050DC00246EF582EB3400F583E014F07C0060362E
:1050EC008C08EA2508F8EB3400F9E8246BF582E922
:1050FC003400F583E0C0E0E8246AF582E93400F579
:10510C0083D0E0F00CEA246EF582EB3400F583E0FA
:10511C00F8ECC39840CAEA246DF582EB3400F583B1
:10512C0074FFF0EA2469F582EB3400F583E4F0EDCA
:10513C00A2E092AF024EF2C082C083E5A8F8C2AFE3
:10514C00EA246AF582EB3400F583E9F0EA2469F588
:10515C0082EB3400F583E4F0E8A2E7A2E792AF0219
:10516C0042BE74F3121845EAFEEBFFECFAEDFB8A33
:10517C00828B83A3A3A3A3E0541FF0EE2436F58205
:10518C00EF3400F583E4F0F50AEEFCEFFD8A828B38
:10519C0083E0C0E0EC245DF582ED3400F583D0E0D3
:1051AC00F0750B00E50A33333354F8F50C8A828B17
:1051BC0083E0F508750900E50B78081217A3E508DC
:1051CC00A2E0502FEE2436F8EF3400F98882898360
:1051DC00E0F508EE2508F508EF3400F509E508249C
:1051EC0038F582E5093400F583E50CF08882898373
:1051FC00E004F0050B050CE50BC3940840AF050A61
:10520C008A828B83A3AA82AB838C828D83A3AC828C
:10521C00AD83E50AC3940550030251997F05021929
:10522C001774F71218459003CEE064017003025313
:10523C008B7A009003D4E0600302538B7401F0A3CB
:10524C00E4F0A3F090043404F0900439F09003D708
:10525C00E4F0A3F0A3F0A3F09003E104F0900407B2
:10526C00E4F09003EAF0A3F0A3F0A3F0A3F0A3F012
:10527C00A3F0900451F0900445F090043A7480F03F
:10528C00A3E4F0900440F09004BCF0A3F0A3F0A3CE
:10529C00F0A3F0A3F0A3F0A3F09004C5F090045495
:1052AC00F09004A4F0A3F0A3F0A3F0A3F0A3F0A358
:1052BC00F0A3F0A3F0A3F09004B0F09004B2F0903F
:1052CC0004AEF09004C8F0A3F0A3F0A3F0A3F0A3F5
:1052DC00F0A3F0A3F078CE7903E8246EF582E934DC
:1052EC0000F58374FFF00A88828983A3A882A983BE
:1052FC00EAC3940440E37ACE7B0378DC7904888299
:10530C008983E0C0E0EA2461F582EB3400F583D0B8
:10531C00E0F088828983A3A882A9838A828B83A3E5
:10532C00AA82AB83E864E17003E9640470D07ACE9E
:10533C007B0378B5790388828983A3E0C0E0EA24F3
:10534C00E6F582EB3400F583D0E0F088828983A304
:10535C00A882A9838A828B83A3AA82AB83E864BDCB
:10536C007003E9640370CF9003CEE004F064017025
:10537C00089003D6E09003D0F07AD27B0380047AB5
:10538C00007B00024BECC082C0839003D5E4F0900C
:10539C0003D4F09003CEF0A3F0A374FFF075E1F109
:1053AC000242BEC082C083780079009003D5E060D1
:1053BC000478D2790388828983A3A3A3A3E0F9029A
:1053CC0042BE74F6121845EAFEEBFFEE2463F5823A
:1053DC00EF3400F583E0F8A3E0F9E84970030254D8
:1053EC0073EE2463F8EF3400F97A007B00A2AFE48B
:1053FC0033F508C2AF88828983E0FCA3E0FDEC4D55
:10540C00603A88828983E0FAA3E0FB8A828B83E08E
:10541C00FCA3E0FD88828983ECF0A3EDF08A828BFB
:10542C0083E4F0A3F088828983E0FCA3E0FDEC4DDB
:10543C00700A88828983A3A3E4F0A3F0E508A2E0B4
:10544C0092AF1213889004E2E004F09004E3E004BD
:10545C00F0EE2463F582EF3400F583E0F8A3E0F975
:10546C00E84960030253ED8E828F83A3A3A3E0600F
:10547C000F8E828F83A3A3A3E4F09003CFE014F0EC
:10548C009003CEE014F070069003D074FFF08E827F
:10549C008F83A3A3E4F09004E1E0700D9003CFE0C0
:1054AC00640170057900120D88EEFAEFFB120CC83E
:1054BC00024EF274F7121845EAFEEBFF8E828F83D0
:1054CC00A3A3A3A3E0FA7B001209AAEEFAEFFB1246
:1054DC000C1A120CB0024BECC082C08378B5790365
:1054EC0088828983A3E4F088828983A3A882A98314
:1054FC00E864BD7003E9640370E69003B6740102BE
:10550C0042BD74F6121845EAFEEBFFEC2403F8EDED
:10551C003400F988088909EC2407F8ED3400F9E81F
:10552C00FCE9FD8C828D83E0F8A3E0F98508828587
:10553C000983E0FAA3E0FB12174AEE240DF582EF83
:10554C003400F583E8F0A3E9F08C828D83E0F8A3B6
:10555C00E0F9850882850983E0FAA3E0FB12174A7B
:10556C008B09EA45096013EE240DF582EF3400F542
:10557C0083E02401F0A3E03400F0024EF274F61242
:10558C001845EAFEEBFFEE242EF582EF3400F5838E
:10559C00E0FCA3E0FD780079FAECFAEDFB12174A77
:1055AC00EE246FF582EF3400F583E8F0A3E9F07890
:1055BC000079FAECFAEDFB12174A8B09EA450960FF
:1055CC0013EE246FF582EF3400F583E02401F0A391
:1055DC00E03400F0024EF274EC121845EAFEEBFFD8
:1055EC007414121821780812168D120D4C8A0C8B1B
:1055FC000D8C0E8D0F751002751100751200751340
:10560C0000780C79101215F37510FF7511FF7512D7
:10561C00FF780C7910121654780C121A548E828F53
:10562C0083E0F8A3E0F5838882A3A31216AB1224BF
:10563C006174041217EBE960030257478E828F8363
:10564C00E02402F8A3E03400F9E8FAE9FB8A828B43
:10565C008378081216198A828B837508FF7509FFE7
:10566C00750AFF750B00780812167AEE240BF5827A
:10567C00EF3400F583C082C0838E828F83A3A3A3F3
:10568C00A3A3E02401F8A3E03400F9D083D082E096
:10569C00687003A3E069700579010257498E828F07
:1056AC0083A3A3A3A3A3A3A3E02401F0A3E034004A
:1056BC00F0EE2473F582EF3400F583E0640170366C
:1056CC00EE2474F582EF3400F583E0F8A3E0F98E54
:1056DC00828F83A3A3A3A3A3A3A3E0687003A3E077
:1056EC00697013EE2474F582EF3400F583E0240125
:1056FC00F0A3E03400F0EE247FF582EF3400F58364
:10570C00E064017036EE2480F582EF3400F583E01E
:10571C00F8A3E0F98E828F83A3A3A3A3A3A3A3E092
:10572C00687003A3E0697013EE2480F582EF3400F7
:10573C00F583E02401F0A3E03400F0790002445634
:10574C0074F6121845E9FEECFFEA2462F582EB349C
:10575C0000F583E0640160030257F59061D0E0F539
:10576C0008EA2482F582EB3400F583E060047804C7
:10577C00800278007480C39508FC95E0FDEF28F852
:10578C00E43400F9E82402F8E93400F9EC98ED99D6
:10579C00A2D265D033404E740A121821E0F508A34A
:1057AC00E0F509EA2482F582EB3400F583E060151C
:1057BC007808121A58EFFCEEF9120C9874021217B2
:1057CC00EB74042FFF74012FF5D98ED9EF600F8580
:1057DC000882850983F8E0F5D9A318E870F875E11B
:1057EC0095790080067907800279FF024EF274F7F2
:1057FC00121845A2AFE433FEC2AF8A828B83E0F865
:10580C00A3E0F9E8498A828B83600AA3A3E0F8A39A
:10581C00E0F5838882ECF0A3EDF08A828B83A3A35E
:10582C00ECF0A3EDF08C828D83E4F0A3024BE474D6
:10583C00F7121845E96021F88C828D83E08A828BFF
:10584C0083F08C828D83A3AC82AD838A828B83A3FD
:10585C00AA82AB8318E870E0ECFAEDFB024BEC7417
:10586C00F012184574FA1217D58908ECFEEDFF7585
:10587C0009008A0A8B0B780A121A9C000410935A9E
:10588C00AE58CC58E658FE581C59345957596F59D4
:10589C008359AD592A5A3B5A525A6D5A935A935AB4
:1058AC00C359740165086003025A8E8E828F83E09F
:1058BC00F8C394034003025A8EE8900D3F025A6AD3
:1058CC00740265086003025A8E8E828F831263679E
:1058DC00900D40E8F0A3E9025A6A74016508600370
:1058EC00025A8E125ABB4003025A8EE8900780026D
:1058FC005A6A740165086003025A8E8E828F83E0A7
:10590C00F8C394054003025A8EE8900781025A6A44
:10591C00740165086003025A8E125ABB4003025A86
:10592C008EE8900782025A6A741065086003025A66
:10593C008E750A10750B00780A121A587A837B0739
:10594C0012101C74021217EB025AB4740165086031
:10595C0003025A8E125ABB4003025A8EE8900793E8
:10596C00025A6A740165086003025A8E8E828F8314
:10597C00E0900D43025A6A740465086003025A8E63
:10598C008E828F83780C12168D908284780C121470
:10599C00AD5003025A8E900795780C12169C025A41
:1059AC00B4E96003025A8E12073AE970051211E449
:1059BC0080569008288063740765086003025A8E2D
:1059CC00750A06750B00780A121A588E828F83A3FB
:1059DC00AC82AD83740212183312102274021217A7
:1059EC00EB7C007D00AA18AB198E828F83E0F91234
:1059FC00118AE9F50AC3940A4003025AB112073A14
:105A0C00E9700CA90A1211EA7950121406806E740E
:105A1C0029250AF582E43408F58374018040740169
:105A2C006508705E125ABB5059E8900794802F7429
:105A3C00016508704D8E828F83E0F8C3940A504242
:105A4C00E8900D4280187401650870368E828F8341
:105A5C00E0F874F928C3940A5028E8900D44F080BB
:105A6C004774016508701B900827E0F88E828F83BD
:105A7C00E0900827F0E87030E06401702B1211D828
:105A8C0080267509188021C3EA9427EB94005015E1
:105A9C0074026508700F8E828F8312668A1205D885
:105AAC00E9F5098003750902A9097406025FC78E1E
:105ABC00828F83E0F8C394022274F4121845ECFE32
:105ACC00EDFF7508008A0A8B0B780A121A9C0004E9
:105ADC000E765BFD5A025B125B175B1C5B215B3E17
:105AEC005B435B485B765B575B5C5B615B665B6CEB
:105AFC005B900D3F8067900D401263678E828F83A1
:105B0C00E8F0A3E980789007808052900781804D5F
:105B1C009007828048750A10750B00780A121A5883
