:020000040000FA
:0600000002011A02239721
:03001300022AEFCF
:03002B00022ACBDB
:03003B00022B5441
:0300530002240A7A
:03006B00022BB4B1
:03007B00022BDB7A
:10008300022203E5C754F84401F5C77901220000B1
:100093000080FB120086B90003020104E479217891
:1000A30008B800028004F709D8FCE479297802B87B
:1000B30000028004F709D8FCE4900281780B790BE5
:1000C3008002F0A3D8FCD9FA781A90014A7A01BACF
:1000D30000028007E493A3F608DAF97A8B7B0C908D
:1000E300014B78B979048015E493A3AD82AE838A7A
:1000F300828B83F0A3AA82AB838D828E83D8E9D9C6
:10010300E77582E67583C4740312012C75829175B9
:100113008300740012012C75D00075813F7518811E
:10012300751902759F00020096C09FF59FE473D076
:100133009F22D083D082C09FE493C0E0740193C018
:10014300E0740293F59F2201FF0000B40000280031
:100153002800283075A000A000A000A0000008001F
:1001630008E001F000100010001000100010001053
:100173000050005000500010001000D00700000095
:100183000000000F0001000500307507001000019A
:100193000081FF00000000FF01071F070707FF02A0
:1001A300020208025000A0000000E80302D7830106
:1001B3000000C28302D383010000E20C021A830110
:1001C3000000B30202D383010000E30C0213840195
:1001D3000000C90202D383010000E40C02F783018B
:1001E3000000CB0202D383010000E50C02E983087F
:1001F3000000CC0202D383010000E60C02E7830176
:100203000000E70CFF0100FF2002D783010000C8B4
:100213008302D3830100004B0D02E1830000000041
:100223000002D1830300001903BF0CBF0CBF0CBF36
:100233000CBF0CBF0CBF0CBF0CBF0CBF0CBF0CBF63
:100243000CBF0C530F6B0F4D0FFFFF110199010FE3
:100253001264040102D783010000C58302D3830122
:100263000000930D02E583010000940D02D1830386
:1002730000007107020F84010000950D02020202C3
:100283000202020202010D000000100102D78301E5
:100293000000BF8302D383010000BF0D02ED830181
:1002A3000000770702D383010000C00D02EF830132
:1002B30000000D8302D383010000C10D02F183010D
:1002C3000000FF8202D383010000C20D02F3830109
:1002D3000000698202D383010000C30D02F583018C
:1002E30000008D8202D383010000C40D02D9830173
:1002F30000007B8202D383010000C50D021184013B
:1003030000009F8202D383010000C60D020D840109
:100313000000F18202D383010000C70D020B8401A8
:100323000000C80D01E803053F100A1509484944B8
:10033300204B6579626F6172642026204D6F75735F
:10034300650201050319C103050212180F1860EABB
:10035300000001898B139113000001D9130000E6FB
:100363000202192A040601120101120201120301F9
:100373000E0002120E120A000302D783010000CE00
:1003830083021B84010000A60B02D383010000A398
:100393000E0201844000007F8302D383010000A783
:1003A3000E020584800000A80B02D383010000A87D
:1003B3000E020984C00000A90E02D383010000A429
:1003C3000E020384400000008002DD83010000A5CB
:1003D3000E02D383010000AA0E020784400000A985
:1003E3000B02D183810000AA0B020F84010000AB32
:1003F3000E02D383010000AD0E020784400000B05B
:100403000B02D183810000B10B020F84010000AE07
:100413000E02D383010000B00E020784400000B730
:100423000B02D183810000B80B020F84010000B1DD
:100433000E02D383010000B30E020784C00000BE86
:100443000B020F84010000B40E02D383010000B637
:100453000E02FB83400000BF0B02D183810000C06A
:100463000B02D383010000B70E02FF83C00000C656
:100473000B02D383010000B80E02FD83400000C7C6
:100483000B02D183810000C80B02D383010000B9A2
:100493000E020784C00000CE0B020F84010000BAD5
:1004A3000EFF00013075030201060000000000008A
:1004B3000000000000000000000000000000000039
:1004C300000000000000FFFF0600800CE80304109A
:1004D30002D783010000CB8302D3830100001110F4
:1004E300021784800000800C02D3830100001210E5
:1004F300021984000000840C02D183810000850C62
:100503001201353EB20312013555B203120135868D
:10051300B203120135C1B203120135EBB20312016A
:100523003515B3031201352CB30312013543B3035D
:100533001201355AB30312013583B3031201359601
:10054300B303120135ACB303120135BFB303120178
:1005530035E6B30312013510BE0212013514BF0292
:100563001201354CBF021201356FBF021201357AF9
:10057300BF021201359DBF02120135ACC002120148
:100583003581C102120135FCC10212013584C20258
:10059300120135BFC202120135F6C20212013584BF
:1005A300C3021201355DC402120135BDC40212013A
:1005B30035C8C40212013547C5021201354AC502C6
:1005C3001201354DC502120135DCC502120135DFBA
:1005D300C5021201350FC60212013539C6021201D6
:1005E3003527C702120135D9C70212013535F90281
:1005F3001201355DF9021201358BF902120135C280
:10060300F90212013520FA021201356BFA021201C6
:1006130035B6FA02120135F6FA021201353CFB0235
:100623001201356AFB0212013527FC021201353132
:10063300FC021201353EFC0212013571FC0212016B
:10064300353DFD0212013549FD0212013561FD02FE
:100653001201356BFD02120135A7C103120135B535
:10066300C103120135CDC103120135E5C1031201E6
:100673003567CC0112013513CD011201358ECD0141
:10068300120135AFCE01120135EBCE0112013594C3
:10069300CF011201357BD001120135DFD1011201E7
:1006A3003536D201120135B7D201120135A7D30174
:1006B300120135F4D3011201357AD401120135AC9C
:1006C300D401120135C0D60112013502D70112013E
:1006D3003520D701120135A3D70112013577D8018F
:1006E3001201353FD90112013581E202120135545D
:1006F300E302120135FDE30212013550E402120157
:100703003500E5021201358CE50212013578E60267
:10071300120135A7E602120135BAE70212013502CA
:10072300E802120135D7E80212013513E90212017A
:10073300352FE9021201356DFF011201354C990382
:10074300120135629903120135889903120135A408
:100753009A03120135AE9A03120135E39B0312018A
:1007630035DB9C0312013517EF0212013547F00206
:100773001201357AF002120135C4F0021201358BF1
:10078300F20212013540AD01120135AAAD01120189
:100793003509AF0112013519AF0112013546AF0119
:1007A3001201359DAF0112013546B0011201354DDD
:1007B300B10112013517B20112013577B3011201EC
:1007C30035BAB3011201355FB401120135ACB4017E
:1007D300120135D2B401120135E0B601120135E53B
:1007E300B601120135EAB80112013537B901120118
:1007F30035AAB901120135DDB9011201357FBA01FC
:1008030012013528BB0112013560BB0112013563AA
:10081300BB01120135ABBB01120135EBBB01120168
:100823003542BC01120135A7A503120135BFA5034B
:1008330012013507A6031201351DA6031201356403
:10084300A60312013578A70312013505A803120187
:100853003550A803120135002C001201350C2C0071
:10086300120135472C001201358C2C001201354C36
:100873002D00120135D22D00120135FE2D0012017B
:1008830035372E001201357530001201355932000B
:100893001201353F3400120135823500120135D083
:1008A3003700120135E238001201352D3A001201EA
:1008B300353D3B001201355A3B00120135953B0093
:1008C300120135B73B001201351A3C00120135DB2A
:1008D3004000120135704100120135C1410012017F
:1008E30035E841001201353A420012013558420001
:1008F300120135B24200120135B143001201353500
:1009030044001201358784031201359184031201D7
:1009130035D48403120135EF84031201357F850337
:10092300120135A78503120135E485031201351B36
:100933008603120135448603120135B98603120179
:1009430035CE8603120135E386031201351487037E
:100953001201352887031201354D870312013587AC
:100963008703120135B38703120135368803120159
:10097300357F8803120135A98803120135D4880312
:10098300120135B6BC03120135E99A02120135177B
:100993009B02120135659C02120135459D0212012D
:1009A30035649D02120135E19D02120135249E0238
:1009B3001201357A9F021201353BA002120135C2A2
:1009C300A20212013563A30212013559A4021201D6
:1009D3003556A502120135B0A6021201353BA70216
:1009E30012013529BA0312013592BA03120135E611
:1009F300BA031201350DBB031201353EBB031201CD
:100A030035FC8803120135698903120135B0890366
:100A1300120135C88A03120135C48B03120135A7AD
:100A23008C03120135E8D1021201352AD2021201D8
:100A330035FCD202120135D5D302120135CFD402CF
:100A4300120135B1D5021201351AD602120135D081
:100A5300D60212013544D702120135B0D702120172
:100A630035D9D70212013553D802120135ECD80219
:100A730012013551D90212013566D902120135AC82
:100A8300D902120135C5D9021201352ADA0212013F
:100A9300352DDA02120135E59C031201350D9D0354
:100AA3001201354B9D03120135099E031201357066
:100AB3009E031201358C9E03120135B49E0312016D
:100AC30035E49E03120135F39E03120135709F0333
:100AD300120135969F031201352FBD011201350D09
:100AE300BF011201353FC1011201357BC101120162
:100AF30035A8C10112013592C201120135DDC201CF
:100B030012013528C3011201353AC3011201357AA6
:100B1300C301120135AFC301120135FDC301120137
:100B2300352CC4011201354FC4011201359CC40197
:100B330012013521C5011201353BC7011201357A76
:100B4300C901120135BBC9011201355DCB01120187
:100B5300359ECB0112013511CC01120135D48D0222
:100B6300120135D28E021201356B95021201358CBA
:100B73009702120135579902120135BF9A021201E9
:100B8300359C44001201354B450012013578450070
:100B9300120135BE4500120135FE4600120135949F
:100BA30048001201350E490012013529490012018E
:100BB30035A44900120135FE4A001201355E4C008E
:100BC300120135644D00120135C54E00120135DEA8
:100BD3004E001201353C4F001201352A500012011C
:100BE300355D5000120135CD5000120135475100DB
:100BF3001201359151001201355B5200120135305B
:100C030053001201350F54001201359A540012019A
:100C1300350855001201357C5500120135A75500E2
:100C2300120135665600120135CB5700120135E823
:100C33005700120135075800120135F85800120108
:100C4300351D5900120135475900120135C25900AB
:100C53001201351C5A00120135855B001201353330
:100C63005C00120135745C00120135008002120130
:100C7300354E80021201355A800212013538810245
:100C83001201356981021201359A81021201351A66
:100C93008202120135528202120135A4820212012C
:100CA30035E18202120135FE8402120135248702E6
:100CB3001201350F8902120135F98A02120135F248
:100CC3007F001201352D99011201355D9901120141
:100CD3003536A001120135BBA101120135B8A701B8
:100CE300120135A0A801120135DDA801120135005A
:100CF300A90112013531A9011201353AA9011201E5
:100D03003544A90112013532AA0112013528AB017C
:100D13001201351E84011201351D8801120135238C
:100D230088011201355E8F0112013577940112019A
:100D330035B691031201354C9203120135629203C9
:100D4300120135D892031201354C93031201358AEF
:100D53009303120135FE93031201357794031201B5
:100D6300358094031201358C9403120135A1940349
:100D7300120135DF9403120135F594031201355442
:100D83009503120135698D03120135768D03120126
:100D930035908D03120135CF8D031201350D8E036E
:100DA300120135728E03120135878E0312013592BB
:100DB3008E031201359F8E03120135B68E03120185
:100DC30035C48E03120135CF8E03120135DB8E033A
:100DD300120135EA8E03120135F58E03120135181F
:100DE3008F03120135BF8F03120135CF8F03120119
:100DF30035E98F0312013506900312013522900362
:100E030012013547900312013552900312013567E1
:100E130090031201357B9003120135DC900312011C
:100E230035E29003120135E89003120135EE900389
:100E3300120135069103120135399103120135C9A7
:100E4300E9011201354DEA01120135FCEA011201F3
:100E5300355BEC011201357CEE0112013568EF01BF
:100E63001201359DEF01120135BFEF011201356EFD
:100E7300F00112013566F2011201358FF201120100
:100E83003521F30112013553F30112013560F301EA
:100E9300120135B7F301120135DDF3011201354AB1
:100EA300F6011201354DF701120135A5F7011201C3
:100EB3003558DB0112013562DC0112013549DD01D0
:100EC30012013553DD0112013575DD011201358142
:100ED300DD011201351ADF0112013549DF0112016B
:100EE3003565E001120135BEE00112013524E2014E
:100EF30012013503E3011201355FE301120135CC21
:100F0300E30112013507E40112013546E401120140
:100F130035FFE60112013519E701120135A5E70195
:100F2300120135B3E7011201350CE8011201351A3C
:100F3300E8011201358DE801120135F1E8011201D2
:100F4300353BE901120135BCA702120135DEA702C8
:100F530012013504AA0212013519AD02120135310D
:100F6300AE02120135E4AE02120135C6AF02120120
:100F730035F8B3031201351DB4031201358FB403E1
:100F8300120135F3F701120135FCF70112013505A2
:100F9300F801120135DCF8011201358DFA01120155
:100FA30035C3FA01120135FDFA0112013533FB0194
:100FB3001201356DFB01120135A1FB01120135CD83
:100FC300FB0112013516FC0112013550FC0112011F
:100FD3003599FC01120135F1FC0112013526FD01A1
:100FE30012013581FD01120135BBFD011201350CE2
:100FF300FE0112013542FE011201357CFE01120190
:1010030035AAFE01120135CDFE011201353FC3039E
:101013001201356BC303120135C6C303120135D068
:10102300C303120135E0C30312013584BB0312016C
:1010330035AEBB031201351CBC0312013591BC0351
:10104300120135A4E902120135AEE902120135ECB1
:10105300E90212013535EA021201356FEA02120183
:1010630035C9EA02120135EAEA02120135F3EA024E
:1010730012013544EB021201356DEB021201357793
:10108300EB02120135E3EB0212013571EC0212019E
:1010930035BFEC02120135F5EC021201357CED028D
:1010A300120135BCED02120135F4ED0212013506D1
:1010B300EE0212013525EE021201352EEE02120167
:1010C30035EDEE02120135D3BE03120135F2FD02F6
:1010D30012013528FE021201355EFE02120135B7F8
:1010E300FF02120135EAC30312013500C4031201E2
:1010F300350AC40312013554C403120135008003B9
:10110300120135198003120135BD8003120135FD2B
:1011130080031201351681031201354A810312013E
:1011230035978103120135CB81031201350D8203FB
:101133001201350D84031201357A840312013582BD
:10114300C403120135CDBF03120135F6BF031201EB
:10115300351FC00312013537C00312013579C003AF
:10116300120135C3A203120135ECA2031201355C4F
:10117300A3031201357AA3031201358495031201E7
:1011830035B49503120135C79503120135F695035E
:101193001201357496031201359396031201353803
:1011A3009703120135CA97031201354F98031201B1
:1011B30035159903120135DE9F0312013503A00390
:1011C30012013587C503120135A45C00120135FEF7
:1011D3005E00120135D75F001201358661001201EE
:1011E30035786200120135FD62001201357B630020
:1011F300120135A063001201350864001201352C79
:101203006700120135A667001201359568001201C7
:1012130035CF68001201350F6900120135C96A0024
:101223001201351C6B00120135656B00120135D3B9
:101233006B00120135056C001201351D6C001201A3
:10124300352E6D001201353E6D001201356E6E00B4
:10125300120135906E00120135C66E001201356B16
:101263007000120135AA7000120135CA7100120113
:10127300357EC2031201358FC20312013534C30315
:101283001201353EC5031201357DC503120135FA3E
:10129300C503120135BEC003120135CEC0031201CE
:1012A30035E6C0031201359AC103120135CFBD03E0
:1012B30012013554BE03120135BABE03120135C300
:1012C300B803120135ECB80312013552B903120108
:1012D3003572B903120135C3B9031201351CBA03C0
:1012E3001201351FBA031201353EF40212013555BE
:1012F300F402120135CEF402120135A7F5021201F0
:101303003565F802120135CAF80212013521F902D6
:10131300120135F87F0012013509B003120135942B
:10132300B103120135F5B1031201353BB2031201CA
:10133300351DAB0312013593AB031201352AAC0300
:10134300120135C1AC03120135D9AC03120135E9E1
:10135300AC0312013544AD0312013558AD0312013C
:101363003566AD031201354AC802120135A2C8021F
:10137300120135C4C802120135F4C802120135D76F
:10138300CB021201354CCC02120135A1CC02120161
:1013930035ACCD02120135AFCD0212013580CF023B
:1013A300120135D1D102120135EAB2021201354AD6
:1013B300B3021201354CB4021201356EB4021201AC
:1013C3003581B40212013516B502120135EDB602AC
:1013D30012013501B9021201350EBA021201357339
:1013E300BA02120135CEBA021201352FBB02120125
:1013F3003570BB0212013573BB02120135C2BB0249
:10140300120135CEBC021201356CBD02120135B892
:10141300BD02120135DDBD021201357AA8031201A6
:101423003544AA03120135B1AA031201353CB703AF
:1014330012013591B703120135FFB7031201356F5E
:10144300B8031201359EAD03120135C8AD03120175
:10145300359DAE0312013591AF0312013551DA0206
:101463001201350EDB0212013549DB02120135711F
:10147300DB02120135D3DB021201351FDC0212013C
:101483003578DC0212013509DD021201350BDE026B
:10149300120135C8DF021201354AE002120135AFED
:1014A300E002120135C6E002120135D6E102120153
:1014B3003514E202120135EF71001201357975001E
:1014C3001201350177001201355877001201357783
:1014D3007700120135F57700120135937900120177
:1014E30035777A00120135617E00120135317F00B4
:1014F3001201359DB503120135CDB503120135E552
:10150300B50312013534B60312013539B60312019E
:101513003505B703120135CEC503120135D47F005B
:10152300E066701008A3E066700A08A3E066700422
:1015330008A3E06622C008C3E096F50808A3E09676
:10154300420808A3E096420808A3E0964208A2D204
:1015530065D033E5087001D3D00822C3E7960809A4
:10156300E7960809E7960809E79622C3E09608A3D9
:10157300E09608A3E09608A3E09622C008C3E0968D
:10158300F50808A3E096420808A3E096420808A3DA
:10159300E09645087001D3D00822080808EAC0E0A5
:1015A300EBC0E086F0E7A4FA180986F0E7A42AFA6C
:1015B300180986F0E7A42AFA180986F0E7A42AFA9C
:1015C3001986F0E7A4FBE5F02AFA190886F0E7A4E8
:1015D3002BFBE5F03AFA190886F0E7A42BFBE5F0BC
:1015E3003AFA18180986F0E7A4C5F02BFBE43AFA97
:1015F3001908E7C5F0C6A426F6E5F03BFBE43AFA82
:101603001886F0E7A4F6E5F00826F6E43B08F6E4CE
:101613003A08F6D0E0FBD0E0FA22E4CFC0E0E4CE13
:10162300C0E0E4CDC0E0E4CCC0E075F020E626F6EF
:1016330008E633F608E633F608E633F6181818EC2E
:1016430033FCED33FDEE33FEEF33FFC3EC9709EDCF
:101653009709EE9709EF97191919400FFFEC97FCBB
:1016630009ED97FD09EE97FE191906D5F0BFECF7C2
:1016730009EDF709EEF709EFF7191919D0E0FCD0D6
:10168300E0FDD0E0FED0E0FF22E4C396F608E49646
:10169300F608E496F608E496F6226016080808C6EB
:1016A300C313C618C613C618C613C618C613C6D5A1
:1016B300E0EA227009080808226016181818C6C341
:1016C30033C608C633C608C633C608C633C6D5E014
:1016D300EA22E627F60809E637F60809E637F608A8
:1016E30009E637F622E026F608A3E036F608A3E07B
:1016F30036F608A3E036F622E026F008A3E036F03B
:1017030008A3E036F008A3E036F022C3E697F60814
:1017130009E697F60809E697F60809E697F622C35D
:10172300E096F008A3E096F008A3E096F008A3E0A3
:1017330096F022E657F60809E657F60809E657F643
:101743000809E657F622E056F608A3E056F608A382
:10175300E056F608A3E056F622E056F008A3E0565A
:10176300F008A3E056F008A3E056F022E0F608A341
:10177300E0F608A3E0F608A3E0F622E6F008A3E605
:10178300F008A3E6F008A3E6F022E0FAA3E0FBA347
:10179300E0FCA3E0FD22EAF0A3EBF0A3ECF0A3ED61
:1017A300F022E0F8A3E0F9A3E0FAA3E0FB22E8F0DB
:1017B300A3E9F0A3EAF0A3EBF022CAC0E0E6F0A3AA
:1017C30008DAFAD0E0FA22CAC0E0E0A3C582CCC5A9
:1017D30082C583CDC583F0A3C582CCC582C583CD25
:1017E300C583DAE6D0E0CA22C3E498F8E499F91293
:1017F300182C8026C3E49AFAE49BFBE920E7E9125C
:10180300182CE498F8E499F922C3E498F8E499F9D8
:1018130012182CE498F8E499F9C3E49AFAE49BFBD0
:1018230022EB20E7CFE920E7E0B90010BB0008E88E
:101833008AF084F8AAF022E4FBC8FA22EB70227B38
:1018430010C833C8C933C9335007C39AC3DBF28006
:10185300069A50012ADBEAC833F4C8C933F4C9FA3B
:101863002275F008E4C833C8C933C933C99AC99B80
:101873005004C92AC93BD5F0ECFBC833F4C8E4C90A
:10188300FA22600D08C6A2E713C618C613C6D5E030
:10189300F322600C08C6C313C618C613C6D5E0F4FA
:1018A30022700422600D18C6C333C608C633C6D5DA
:1018B300E0F41822251810AF08F518400C1519800C
:1018C30008F51840021519D2AF2200C0D025181010
:1018D300AF08F518500C05198008F51850020519C2
:1018E300D2AFD0D0222518F58210AF08F518400CDE
:1018F30015198008F51840021519D2AF85198322EE
:101903002518F582E43519F583222518F8E43519ED
:10191300F9222518FAE43519FB222518FCE43519B8
:10192300FD22E4732518C582C0E0E51934FFC583A1
:10193300C0E0E518C3958224F810AF0885831985A4
:1019430082188008858319858218D2AFCEF0A3E56B
:1019530020F0A37808E608F0A3DEFAEFF0A3E58110
:1019630024FAF8E608F0A3E608F0A3E608F0A308D3
:1019730008E608F0A3E608F0A315811581D0E0FE80
:10198300D0E0F8158115811581E8C0E0EEC0E022B2
:101993002518C582C0E0E51934FFC583C0E0E5180A
:1019A300C3958224F910AF088583198582188008AE
:1019B300858319858218D2AFCEF0A3E520F0A378F2
:1019C30008E608F0A3DEFAEFF0A3E58124FBF8E6CE
:1019D30008F0A3E608F0A30808E608F0A3E608F079
:1019E300A315811581D0E0FED0E0F815811581E8BB
:1019F300C0E0EEC0E022851983851882E0A3FEE0F3
:101A0300A3F5207808E0A3F608DFFAE0A3FFE0A33C
:101A1300C0E0E0A3C0E0E0A3C0E0E0A3C0E0E0A337
:101A2300C0E010AF08858218858319800885821865
:101A3300858319D2AFD083D0820201328519838581
:101A43001882E0A3FEE0A3F5207808E0A3F608DF00
:101A5300FAE0A3FFE0A3C0E0E0A3C0E0E0A3C0E09E
:101A6300E0A3C0E010AF088582188583198008853C
:101A73008218858319D2AFD083D08222C0D0251893
:101A8300C582C0E0E51934FFC583C0E0E518C395FE
:101A93008224F310AF088583198582188008858313
:101AA30019858218D2AFC8F0A3E9F0A3EAF0A3EB3B
:101AB300F0A37908E709F0A3D8FAECF0A3EDF0A3BB
:101AC300EEF0A3EFF0A3D0E0F0A3D0E0F0A3D0E0DA
:101AD300F0A3E520F0A3E5F0F0A322851983851890
:101AE30082E0C0E0A3E0F9A3E0FAA3E0FBA3780857
:101AF300E0F608A3DFFAE0FCA3E0FDA3E0FEA3E029
:101B0300FFA3E0C0E0A3E0C0E0A3E0F5D0A3E0F5CD
:101B130020A3E0A3F5F010AF088583198582188010
:101B230008858319858218D2AFD082D083D0E0F89C
:101B3300D0E03274048006740280027401C0E0F4C1
:101B4300041218E8D0E01217BD2274048004740252
:101B53008000CCC0E0EDC0E0E518C39CCCAD1950CB
:101B6300011D10AF068C188D1980068C188D19D2A3
:101B7300AF1217CAD0E0FDD0E0FC22D083D082E9B7
:101B8300C0E0E493A3C386F0C5F095F0F908E493AD
:101B9300A386F0C5F095F0700BE493A3C3994005B9
:101BA300E9048002A3E475F002A42582F582E5F03E
:101BB3003583F583D0E0F9E493A3C0E0E493C0E078
:101BC30022D083D082ECC0E0EDC0E0E493A3FCE438
:101BD30093A3FDED4C600D121C10EC24FFFCED34BF
:101BE300FFFD80EFE493A3FCE493A3FDED4C600DB4
:101BF300121C4FEC24FFFCED34FFFD80EFD0E0FD21
:101C0300D0E0FCE493A3C0E0E493C0E022C0E0C3CF
:101C1300E49396087401939618400FE49366700852
:101C230008740193661870007019A3A3C3E4939614
:101C3300087401939618A3A3400DD0E0D0E0D0E040
:101C4300021C00A3A3A3A3A3A3D0E022C0E0C0F07F
:101C530088F0E4936670080874019366187000A80E
:101C6300F0A3A3700BD0F0D0E0D0E0D0E0021C00D2
:071C7300A3A3D0F0D0E02292
:101C7C0074F5121993EAFEEBFFEE2434F8EF3400FE
:101C8C00F988088909EE2435F582EF3400F583E0F4
:101C9C00F8EE2437F582EF3400F583E0F50AEC8595
:101CAC000AF0A4FCAAF0850AF0EDA42AFDE82CF8B1
:101CBC00E43DF97A257B0012182CEA850882850907
:101CCC0083F0F8740758F97401B900028004C33327
:101CDC00D9FCFAE8131313541FF8EE28F8EF34006C
:101CEC00F9E8245DF582E93400F583E05A6008EEEA
:101CFC002434F582EF802CEE2434F582EF3400F599
:101D0C0083E0C0E0EE2436F582EF3400F583E0F595
:101D1C00F0D0E084A8F0EE28F8EF3400F9E824388D
:101D2C00F582E93400F583E0F97F04021A3F74F57B
:101D3C00121993EAFEEBFFEE2434F582EF3400F532
:101D4C0083E0C0E0EE2435F582EF3400F583D0E07B
:101D5C00F08E828F83A3A3A3A3A3A3A3C082C0836B
:101D6C008E828F83A3A3A3A3A3E0F8A3E0F9D0836F
:101D7C00D082E0C398F508A3E099F509EE247FF52D
:101D8C0082EF3400F583E064017069EE2480F58203
:101D9C00EF3400F583E0F8A3E0F98E828F83A3A3E0
:101DAC00A3A3A3A3A3E0FCA3E0FD8E828F83A3A334
:101DBC00A3A3A3E0FAA3E0FBC3EA9CEB9D5010C3E2
:101DCC00EC98ED99402EC3EA98EB995027800EC3FE
:101DDC00EA98EB994007C3EC98ED9940177CDC7DB1
:101DEC0004EEFAEFFB120C1DEE247FF582EF3400AB
:101DFC00F583E4F0EE2434F8EF3400F9E8FCE9FD67
:101E0C00EE2435F582EF3400F583E0F8EE2437F557
:101E1C0082EF3400F583E0F50AE508850AF0A4F5B5
:101E2C0008AAF0850AF0E509A42AF509E82508F8BE
:101E3C00E43509F97A257B0012182CEA8C828D8303
:101E4C00F0F8740758F97401B900028004C333D94F
:101E5C00FCFAE8131313541FF8EE28F8EF3400F9CA
:101E6C00E8245DF582E93400F583E05A6008EE243D
:101E7C0034F582EF802CEE2434F582EF3400F583B8
:101E8C00E0C0E0EE2436F582EF3400F583E0F5F0A7
:101E9C00D0E084A8F0EE28F8EF3400F9E82438F507
:101EAC0082E93400F583E0F9122AB7021D35C082AD
:101EBC00C083851882851983E0F8A3E0F9C3EA9CF6
:101ECC00EB9D5010C3EC98ED99401BC3EA98EB992D
:101EDC005014800EC3EA98EB994007C3EC98ED9927
:101EEC004004790180027900D083D08222EAC39C1D
:101EFC00FAEB9DFB2274EF1219939003A2E0640895
:101F0C006005E06407702A9061C8E060249003D0FB
:101F1C00E0F4601DE0F875F003A4C8AAF02AF97487
:101F2C00D228FE740339FF8E828F83A3A3A3E070A3
:101F3C0003022031906060E0C0E0EE2468F582EF8F
:101F4C003400F583D0E0F0750C45750D057508006F
:101F5C00750900E5D914F50AE5D95403F50E601797
:101F6C007403650E605CE50A6010EE2467F582EF81
:101F7C003400F583E07003022016900540E0640104
:101F8C00602AEE2482F582EF3400F583E060047859
:101F9C000480027800850A08E508C398FA95E0FBEE
:101FAC00120AEB8A088B09EA45097005120E21808A
:101FBC0074EE2482F582EF3400F583E070048A0C11
:101FCC008B0DE50A6012850C82850D83F50BE5D926
:101FDC00F0A3150BE50B70F6EE2482F582EF3400BE
:101FEC00F583E0604474FC250AF50A780C121B3A60
:101FFC00AC0AA90EEEFAEFFB120CB974021218CD52
:10200C00E97026AA08AB09121433793D8E828F83AE
:10201C00A3A3A3A3E0FA7B001209BFEEFAEFFB1215
:10202C000C35120CCB790080747403650E605685E8
:10203C000A107511007810121B3AAC0CAD0DAA08E1
:10204C00AB09120C9574021218CDEE2468F582EFD0
:10205C003400F583E064807004747F8001E0F50C3B
:10206C00780C121B3EE50EF50C780C121B3EA90ADF
:10207C00AC08AD099003D0E0FA7B0012098374021E
:10208C001218CD80139003A2E06408600BAC0CAD69
:10209C000DEEFAEFFB120D25120E2D79017F0A02BF
:1020AC001A3F74F512199374FC1218B7EAFEEBFF81
:1020BC008908A2AFE433F509C2AF806AEE2463F855
:1020CC00EF3400F97A007B00A2AFE433F50AC2AF1B
:1020DC0088828983E0FCA3E0FDEC4D603A8882891C
:1020EC0083E0FAA3E0FB8A828B83E0FCA3E0FD880B
:1020FC00828983ECF0A3EDF08A828B83E4F0A3F069
:10210C0088828983E0FCA3E0FDEC4D700A8882890B
:10211C0083A3A3E4F0A3F0E50AA2E092AF12143378
:10212C009004E3E004F0EE2463F582EF3400F583D1
:10213C00E0F8A3E0F9E849603DEE2463F582EF3462
:10214C0000F583E02402FAA3E03400FBEA2402F554
:10215C000AEB3400F50B780A121B3A8A828B83E067
:10216C00FCA3E0F9EEFAEFFB120C5974021218CD35
:10217C00E970030220C89004E3E060639004E4E09B
:10218C00F89004E3E0C398500C740265087050900A
:10219C0004E5E0604A8E828F83A3A3A3A3E0851895
:1021AC0082851983F0A3E4F09004E3E0F874021242
:1021BC001903E8F0A3E4F09004E3E0F89004E2E003
:1021CC0028F07402121903AC82AD8385188285192C
:1021DC0083AA82AB83790112098F9004E3E4F0E5C2
:1021EC0009A2E092AF74041218CD021D3500000054
:1021FC008521878522C622C0E0C0D0E8C0E0E9C0B6
:10220C00E0EAC0E0EBC0E0ECC0E0EDC0E0EEC0E026
:10221C00C008C009C00AC00BC082C083C0F0A2AF06
:10222C00E433FEC2AF759B00906182E0A2E05012D5
:10223C00E591A2E0500C7591FE74016521700312BA
:10224C001F01E0A2E55051E591A2E5504B7591DFDD
:10225C009003A2E064076005E064087023740165D4
:10226C0021703579019003D0E0FA75F003A4CAA867
:10227C00F028FB74D22AFA74033BFB1220AE8018B0
:10228C00E0640D70139003C4E004F064287002E461
:10229C00F07A00E0F9120E33906182E0A2E640037E
:1022AC0002234AE591A2E6400302234A7591BF90AE
:1022BC0003A2E064057008120D5B120D6780031217
:1022CC000D61752100120DC1E99003A3F079001284
:1022DC000DB5120B937A017B009003A1E0F912105B
:1022EC009D907803E064427055900544E014F070C2
:1022FC004DC2AF12230200782AD0E0F618D0E0F6D7
:10230C00E59F540770057509FF800375097FC4C0EC
:10231C00E07829E6F50808E65509F509740B780804
:10232C00121895D0E02508F8906270E0A2E740F80A
:10233C00E8C333906272F0906270E0D2E0F090618A
:10234C0081E0A2E35009E5E9A2E3500375E9F7A3A4
:10235C00E0A2E75009E591A2E7500375917FEEA248
:10236C00E092AFD0F0D083D082D00BD00AD009D07D
:10237C0008D0E0FED0E0FDD0E0FCD0E0FBD0E0FAED
:10238C00D0E0F9D0E0F8D0D0D0E032C0E0C0D0C07E
:10239C0082C083906183E0A2E05009E5BFA2E050C7
:1023AC000375BFFEE0A2E15009E5BFA2E150037541
:1023BC00BFFDE0A2E25009E5BFA2E2500375BFFBEE
:1023CC00E0A2E35009E5BFA2E3500375BFF7E0A21A
:1023DC00E45009E5BFA2E4500375BFEFE0A2E5505D
:1023EC0009E5BFA2E5500375BFDFE0A2E65009E5A1
:1023FC00BFA2E6500375BFBFD083D0828088C0E0F7
:10240C00C0D0E8C0E0E9C0E0EAC0E0EBC0E0ECC05E
:10241C00E0EDC0E0C0F0E5A7A2E6500FE5A1A2E612
:10242C00500953A7BF75A1BF12246FE5A7A2E550B1
:10243C000CE5A1A2E5500653A7DF75A1DFE5A7A225
:10244C00E15009E5A1A2E1500375A1FDE5A7A2E2C7
:10245C00500CE5A1A2E2500653A7FB75A1FBD0F0EE
:10246C0002238074F81219937521019003A2E06481
:10247C00067015120CE98A828B83A3A3A3A3A3A3D2
:10248C00E0FAA3E0FB120D49A2AFE433FED2AF9009
:10249C0003A8E0640170187A207B009003A1E0F996
:1024AC001211217A207B009003A1E0F91210A39065
:1024BC006182E0D2E6F0900541E0602185C6228081
:1024CC00169003A7E064017008E5C654F84405F5BE
:1024DC00C653BEFC1221FC7401652160E4EEA2E03F
:1024EC0092AF7F01021A3F008E238F2485822885AC
:1024FC008327851882851983E0CEA3E0CF852882B7
:10250C00852783EBC9EAC8EDCBECCA75F010C3E89C
:10251C0033C8E933C9EA33CAEB33CBC3EA9EF52699
:10252C00EB9FF525B35004AB25AA26EC33CCED3349
:10253C00CDD5F0DAAE23AF242274E912199374F8D6
:10254C001218B7851882851983ECF0A3EDF08A0870
:10255C008B099003A2E024F7C3940550067508017B
:10256C000226DC120CE98A0A8B0BAE0AAF0BEE4F7B
:10257C0070030226D9AC08AD097402121903AA82A1
:10258C00AB83120D798E828F83A3A3750CFF750D0F
:10259C00FF750EFF750F00780C1217497402121993
:1025AC00037510FF7511FF7512FF7513007810126B
:1025BC001749780C791012155E502A780C79101284
:1025CC00170E7508017509C8750A00750B00780897
:1025DC00790C12155E5052850C08850D09850E0A72
:1025EC00850F0B80507514017515C875160075177D
:1025FC000085100885110985120A85130B78087956
:10260C000C12170E7814790812155E401C75080010
:10261C00750900750A00750B017808791012170EF0
:10262C007808790C1216D5800C750801750900759F
:10263C000A00750B00740978081216B6750C19F59A
:10264C000DF50EF50F7808790C12161D8E828F83FE
:10265C00A3A3A3A3A3A3E0F8A3E0F97AD07B03126E
:10266C00182C880C890DE4F50EF50F7808790C12EE
:10267C0016D57406121903E0F8A3E0F97AD07B039F
:10268C0012182CE8FA8A0CE4F50D7808790C12155E
:10269C005E50077808790C12170E9003A2E06408BC
:1026AC00600AE064066005E06405702D750C0D7819
:1026BC000C790812155E4021750CF4750DFF750E22
:1026CC00FF750FFF7808790C1216D5800C75080071
:1026DC00750900750A00750B00851882851983E051
:1026EC00F8A3E0F5838882780812177E7408121814
:1026FC00CD7F10021A3F74F7121993120D8B9005AF
:10270C003FE064017010906245E4F0A3F053F4F3E1
:10271C0043FE0C5390F3120D37E5C654804449F533
:10272C00C6E59E547F644970F8906185740FF090F3
:10273C00053DE0F47002A3E0604E90053EE06008B9
:10274C0014601B14602E80407508017509009005FB
:10275C003DE078081218A4E508F45280802A750828
:10276C000175090090053DE078081218A4E508F4FD
:10277C005290801475080175090090053DE07808A9
:10278C001218A4E508F452A079007F02021A3F74D3
:10279C00F7121993E9FEEAFF74016E700C7A807BD4
:1027AC00009003A1E0F912109D902BF8E493F460D3
:1027BC0008E493F9120B87800953C680E59E547F79
:1027CC0070FA120D3D90053FE064017003120B9FEF
:1027DC0090053DE0F47002A3E0604B90053EE06094
:1027EC000814601A14602C803D750801750900905E
:1027FC00053DE078081218A4E50842808028750889
:10280C000175090090053DE078081218A4E508420E
:10281C0090801375080175090090053DE078081249
:10282C0018A4E50842A0120D8B120CE98A088B093A
:10283C00A808A909E8496015E5E170FCE82414F53D
:10284C0082E93400F583E0F46003E0F5E174016F94
:10285C00700A7A019003A1E0F91210F10227967424
:10286C00ED1219938A088B098C0A8D0B74131219AB
:10287C0003780C12176F7808790C12155E7510011D
:10288C007511C875120075130050127808790C1266
:10289C00170E7810790812155E50168010780C7986
:1028AC000812170E7810790C12155E40047901800D
:1028BC000279007F0C021A3F74ED1219938A088B6F
:1028CC00098C0A8D0B7413121903780C12176F787C
:1028DC000C790812155E40117808790C12170EAAA3
:1028EC0008AB09AC0AAD0B80227510007511007590
:1028FC0012007513017810790C12170E78107908E4
:10290C001216D5AA10AB11AC12AD1380A68A828B0D
:10291C00837508FF7509FF750AFF750B007808129F
:10292C00175C7F04021A3F74F51219938C828D8305
:10293C00780812176F8A828B837808121722EA2480
:10294C0004F8EB3400F98C828D83A3A3A3A3E0FCE1
:10295C00A3E0FD88828983C3E09CF0A3E09DF0880E
:10296C00828983C3E09420A3E0944E40268A828B14
:10297C00837508FF7509FF750AFF750BFF78081240
:10298C0016FB8A828B83A3A3A3A3E02420F0A3E0ED
:10299C00344EF002291974F5121993E9FE9004F7DC
:1029AC00E0FAA3E0FBEEC333F8E433F974E128F565
:1029BC0082748239F583E02AF508A3E03BF50978A7
:1029CC0008121B3A7A407B427C0F7D001224F4746F
:1029DC00021218CD8A088B098C0A8D0B741078089A
:1029EC0012169DAA08AB097F04021A3F74F1121942
:1029FC00938A0C8B0D8C0E8D0F740F121903E0FA49
:102A0C00A3E0FB7411121903E0F508A3E0F50978B3
:102A1C0008121B3AEA2401F508EB3400F509E4F539
:102A2C000AF50B780C790812159D75087175090259
:102A3C00780C790812159DAA0CAB0DAC0EAD0F12CB
:102A4C0024F474021218CD8B09EA450960047A014A
:102A5C0080027A00EC2AFCED3400FD741312190389
:102A6C00E0F8A3E0F9E8FEE9FFECF8EDF97A717B08
:102A7C000212182C880889098E828F837808121705
:102A8C007EECF8EDF97A717B0212182C8A088B090E
:102A9C00740578081218A48E828F83A3A3A3A3E5D0
:102AAC0008F0A3E509F07F08021A3FC082C083E951
:102ABC00906000F0D083D08222C2AF02000022C00E
:102ACC00E0C0D0E8C0E0E9C0E0E5A8D2AFC2C7756D
:102ADC001A00A2E7A2E792AFD0E0F9D0E0F8D0D08C
:102AEC00D0E032C0E0C0D0E8C0E0E9C0E0EAC0E02D
:102AFC00C082C083A2AFE433FAD2AFE5C1C0E0908C
:102B0C000913E0F8749228F582E43408F583D0E0D8
:102B1C00F0900912E0F8A3E0687006E595900915AD
:102B2C00F0900913E004F0C394804002E4F0A3E4B5
:102B3C00F0EAA2E092AFD083D082D0E0FAD0E0F9F4
:102B4C00D0E0F8D0D0D0E032C0E0C0D0E8C0E0E9AE
:102B5C00C0E0C008C009C082C083A2AFE433F9D280
:102B6C00AF900996E0F8A3E0687008539AFBA37441
:102B7C00018025C2E9900996E0F50874012508F05A
:102B8C0074162508F582E43409F583E0F5C1900943
:102B9C0096E0C394804002E4F0E9A2E092AFD083C7
:102BAC00D082D009D0088095C0E074F2121A7FA2AE
:102BBC00AFE433FED2AF758900C2C5A282400312C6
:102BCC0013A3751A00EEA2E092AF7F01021ADEC0C9
:102BDC00E074F2121A7FA2AFE433FED2AF758A0012
:0B2BEC00C2EBA29750031213A380D786
:102BF800FFFFFFFFFFFFFFFFC082C083E9900D4A80
:102C0800F0022E2A74F7121927E99002E1F07C19D4
:102C18007D037AFF7BFF1208E19002E274FFF0A3C4
:102C2800F0A3E4F0A3F0790512086F9002E1E0F94F
:102C38001207917AF97B08120A9D7F010219F9742B
:102C4800F41219278A088B09EB548060309002E14E
:102C5800E0F91210858A0A8B0BAE0AAF0BEE4F60B3
:102C6800138E828F83E064B07003120881EEFAEF4E
:102C7800FB121073AA08E5096480FB80047A007BC4
:102C880000022DF974F212192774FC1218B7EAFE23
:102C9800EBFFEE4F60387402121903EEF0A3EF1247
:102CA800305EECF0A3ED12305EAA82AB8312078B84
:102CB800E9F50870737412121903123C12E50A45FB
:102CC8000B60658E828F83122D3AEE4F7005750862
:102CD8000280557A067B001210D98A0C8B0DA80C3D
:102CE800A90DE8497005750813803D88828983E439
:102CF800122D44A3A3EEF0A3EF1240ABE50AF0A314
:102D0800E50BF09002E7122DCC9002E76017E0FC8B
:102D1800A3E08003EAFCEBFD8C828D83122DCC703E
:102D2800F38C828D83123B37A90874041218CD02E4
:102D380042ADA3A3A3A3E0FEA3E0FF22F0A3F08883
:102D48008289832274F2121927890AE975F017A477
:102D5800FEAFF09002E6E4F09002E4122DCC600A97
:102D68001210DF9002E4E4F0A3F0EEFAEFFB121089
:102D7800D98A088B09EA4509602FEEFCEFFD790036
:102D88001210619002E4E508F0A3E509F07B0080E9
:102D980008122DB6E4F0A3F00BEBC3950A40F2E558
:102DA8000A9002E6F07900800279130242ADEB75D1
:102DB800F017A4F8A9F09002E4E028FAA3E0398A11
:102DC80082F583221238CDEA4B2274F4121927793E
:102DD80000EAA2E0501B7508307509837808121BB9
:102DE8003A7C047D007A4C7B0D1208697402121833
:102DF800CD7F040219F9C082C0839002E7122E31F8
:102E0800601C88828983A3A3E06A7003A3E06B88AF
:102E180082898370E8A3A3A3A31238C980047A0027
:102E28007B00D083D082020132124380E8492274A9
:102E3800EE12192774FC1218B7EAFEEBFF85188208
:102E4800851983E4F0A3F0EE2402123B1BEE24055F
:102E580012304CEE2404F50EEF123431E024FE60FB
:102E68003924FC604624FE605224FE605E24FE7015
:102E780003022F5124FE7003022FC924FE7003029F
:102E88002FD824FE7003022FE724FC7003022FF6CC
:102E980024FE70030230050230429003007417F0DC
:102EA800A3E412306612050902304285188285199A
:102EB80083AC82AD83120887023012851882851987
:102EC80083AC82AD8312088D023012850C08850D03
:102ED800097402121903AC82AD83850882850983BF
:102EE8001238C91207AF8A0C8B0DAC0CAD0DEC4D26
:102EF8006042E4F50CF50D780C121B3A750C007560
:102F08000D03780C121B3A750C01750D03780C1221
:102F18001B3A7408121903121B5179161238C3127E
:102F280008C974081218CDE9F50C700B1238BF12D5
:102F38000521800F750C018508828509831230549C
:102F4800123B37850C080230157402121903AC8243
:102F5800AD83850C82850D831238C91207AF8A109C
:102F68008B11AC10AD11EC4D6043850C82850D833F
:102F7800A3A3121B517510007511037810121B3A88
:102F88007510017511037810121B3A740812190391
:102F9800121B5179161238C31208C974081218CDB9
:102FA800E9F509700B1238BF120527800F75090162
:102FB800850C82850D83123054123B3785090880B1
:102FC8004C851882851983AC82AD83120893803AA8
:102FD800851882851983AC82AD83120899802B8568
:102FE8001882851983AC82AD8312089F801C8518CE
:102FF80082851983AC82AD831208A5800D8518825D
:10300800851983AC82AD831208ABE9F508E5086041
:10301800298E828F83A3E06414601F850E82850F3A
:1030280083E090030012305E12437C900301123B50
:1030380037E508A3123066120503EEFAEFFB120813
:103048002D023A23F50CEF3400F50D22124380854A
:10305800188285198322F085188285198322F07CCD
:10306800007D03850A82850B831238CD2274EE1207
:10307800192774FC1218B78A0A8B0B8C0E8D0FEA6D
:103088002405F508EB3400F5097C157D0079007AF4
:10309800007B03121061E5082402F50CE5091230E3
:1030A8004F851882851983858210858311781012BF
:1030B8001B3A850882850983A3A3A3A31235791235
:1030C8001B3AE5082405F510E5093400F5117810D8
:1030D800121B3A850C82850D831238D31207A97406
:1030E800061218CD8A108B11AE10AF11E50A240212
:1030F800F50AE50B123B1EEE4F700302323B8017B8
:1031080074021219031238C988828983EAF0A3EB82
:10311800F0900300E004F0900300E0C3940540033E
:1031280002323BE4F510F5117810121B3A7510E9DC
:103138007511027810121B3A7510EA751102781091
:10314800121B3A7406121903121B517910EEFCEF88
:10315800FD1238C31208C974081218CDE9705E85CB
:103168000882850983A3A3A3A3A3A3A3E0F89002DD
:10317800E9E0687048123579121B3A7CEA7D02E56D
:10318800082408FAE5093400FB12105B74021218CF
:10319800CDE960298E828F83A3A3A3A31238C99097
:1031A8000300E0F510740278101218A474012510B9
:1031B800F58274033511F583EAF0A3EBF07402127B
:1031C80019038582108583117810121B3A74021234
:1031D8001903121B51850C82850D83124391120726
:1031E800B574041218CD8A108B11AE10AF1190036C
:1031F80000E0F510751100740278101218A474001C
:103208002510F874033511F988828983A3122DCC0F
:1032180070030230FFE82403F8E93400F9EE4F6048
:10322800030231088882898374FFF0A3F0900300B9
:10323800E004F0900300E0600A1238BF1205157927
:1032480000800B850882850983123B2E790A023A91
:103258002374EA12192774FE1218B78C128D13EA18
:103268002405F50CEB12439B122D3E7508007509D9
:1032780000EA2402F510EB3400F51185188285194F
:103288008385820A85830B780A121B3A850C82850E
:103298000D83A3A3A3A312343B121B3AE50C240508
:1032A800F50AE50D123B1E780A121B3A850C828539
:1032B8000D8312438F1207A974061218CD8A0A8B40
:1032C8000BEA450B70030233ECEA2404F50EEB120B
:1032D8003431122D3E8A828B83A3A3A3E0F9851093
:1032E800828511831238C9120797E9F5096003022C
:1032F80033ECE4F514F5157814121B3A7514E975D6
:1033080015027814121B3A7514EA7515027814120E
:103318001B3A7406121903121B517913AC0AAD0B30
:103328008510828511831238C91208C974081218C9
:10333800CDE9F50960030233EC9002E9E0F8E5080D
:103348007009E02402900301F08017900301E0FC6B
:10335800E82402FAE43400FBEA6C7001EB60030233
:1033680033F0850882AA8212357094141235685099
:1033780073850E82850F83E0C0E074022A12342818
:10338800D0E0F00508850E82850F83A3E0C0E085B4
:10339800080A7402250A123428D0E0F005089002C1
:1033A800E912343B121B3A7CEA7D0285080A740252
:1033B800250AFA74033400FB12104974021218CD5E
:1033C8009002E9E02508F50874FF6E700374FF6F3A
:1033D8006012EE24010EEF3400FFE508C394145088
:1033E80003023283E50860131237B4851082851111
:1033F800831238C912051B79008014E5097003751A
:10340800090A851282851383EEF0A3EFF0A90974E7
:10341800021218CD7F0E0219F985080C7402250CCA
:10342800F58274033400F583223400F50F850E828B
:10343800F583221240BE2274EE12192774FE121868
:10344800B78C0E8D0FEA2405F50CEB12304F750B77
:1034580000900300E4F0F50AEA2402F508EB3400D2
:10346800F5098049900300E0FA9002E9E0F8123586
:10347800709417123568400D900300E0F87416C375
:10348800989002E9F0123579121B3A7CEA7D0274B1
:10349800012AFA74033400FB12104974021218CD81
:1034A8009002E9E0F8900300E028F0050AE50C2412
:1034B80016F582E50D12342CE0F8E50AC3984003AE
:1034C800023551900300E0C39416507DE50AC333DA
:1034D800F8E433F9E50C28FEE50D39FF85188285F7
:1034E8001983AC82AD838E828F831238C91207AFDD
:1034F8008A108B11AC10AD11EC4D7005750B018065
:1035080043E4F510F5117810121B3A7510E975119E
:10351800027810121B3A7510EA7511027810121B06
:103528003A7406121903121B517916850882850907
:10353800831238C91208C974081218CDE9F50B703E
:103548000302346C123B2A80107C007D03850882BC
:103558008509831238C912052DA90B7402023A2570
:10356800E99400C365D03322EA28F8E43400F9E886
:1035780022E0F51075110078102274EA12192774E8
:10358800FC1218B78A0C8B0D8C128D13EA2405F5E2
:103598000AEB123B1E750800750900E50A2402F5BE
:1035A80010E50B3400F511740212190385820E859B
:1035B800830F780E121B3A850A82850B83A3A3A377
:1035C800A312406A121B3AE50A2405F50EE50B34EE
:1035D80000F50F780E121B3A851082851183123B75
:1035E800241238C31207A974061218CD8A0E8B0F3D
:1035F800AE0EAF0FE50C2402F50EE50D3400F50F05
:1036080080408882898374FFF0050812342174FF92
:10361800F005089002E9E0F50C750D00780C121B16
:103628003A7CEA7D0285080C7402250CFA7403348E
:1036380000FB12104974021218CD9002E9E0250827
:10364800F508EE4F60718E828F83A3A3A3E0F985FE
:103658000E82850F831238C9120797E9F509EE24FF
:103668000412304CE97044E4F514F5157814121B73
:103678003A7514E97515027814121B3A7514EA752F
:1036880015027814121B3A7408121903121B517987
:1036980011EEFCEFFD850E82850F831238C91208E2
:1036A800C974081218CDE9F5096027850C82850DC3
:1036B800831237AA123B37E5087003023790123796
:1036C800B4850E82850F831238C91205337900023A
:1036D80037A5850882AA82EA9002E97009E02404E5
:1036E800900301F08022E0F8900301E0F514E8244B
:1036F80004FCE43400FDEC65147001ED70C0123573
:1037080070941212356850B6850C82850D83E0C01E
:10371800E074022A123428D0E0F00508850C82856E
:103728000D83A3E0C0E0123421D0E01237C68582B1
:103738000C85830D780C121B3A7404121903121BA2
:10374800518510828511831243911207B5740412B2
:1037580018CD8A0C8B0DAE0CAF0D85080C740225A4
:103768000CF874033400F9EE4F700302360A85181A
:1037780082851983E0888289831237C6A3E0C0E076
:10378800123421D0E0023618E509700375090A855C
:103798000A82850B831237AA123B37A909740402DF
:1037A800341912438085128285138322900301E025
:1037B800F5F0E50884900300F07C007D0322F00515
:1037C800088518828519832274EC12192774FE1251
:1037D80018B78A088B098C0E8D0FEA2405FEEB3486
:1037E80000FF851882851983AC82AD838E828F8312
:1037F8001238C91207AF8A0A8B0BEE241812304C04
:10380800EA450B700302389A123A0C503285188236
:103818008519831238C91208BD8A108B11EA45111F
:10382800606B7912AC0AAD0B850882850983123862
:10383800C9851082851183121925E9F50A7058E4A3
:10384800F50AF50B780A121B3A8E828F83A3A3E040
:10385800F50A780A121B3AEE2403123B1B780A1267
:103868001B3A8E828F831238D31208CF740612182F
:10387800CDE9F50A7021850C82850D83E0701F85DE
:1038880008828509831238C91205398011750A0E14
:103898008009750A018004E50A6003123B2A850C39
:1038A80082850D83E0600479008002A90A740212FF
:1038B80018CD7F0C0219F97C007D03850A82850BDF
:1038C800831238CD22E0FAA3E0FB22E0FCA3E0FD5E
:1038D8008508828509831238CD2274EE121927745F
:1038E800FE1218B78A088B098C0C8D0DEA2405FE88
:1038F800EB3400FF750E00851882851983AC82AD04
:10390800838E828F831238C91207AF8A0A8B0BEA1B
:10391800450B70030239F8123A0C50358518828528
:1039280019831238C91208BD8A0E8B0FEA450F6039
:103938005E7912AC0AAD0B8508828509831238C9F5
:10394800850E82850F83121925E9F50E6003023969
:10395800FB850882850983123C12AA0AFB1208B16A
:103968008A108B11A810A911E849701E7AFF7BFFF5
:103978001208B18A108B11A810A911E849606C8847
:10398800828983E50AF0A3E50BF0750A00800775C4
:103998000E0E805F050A9002E6E0FAE50AC39A5027
:1039A8004AE50A75F017A4FAABF088828983A3A3C5
:1039B800E02AFAA3E03BFB8A828B83123B24EC4D7E
:1039C80070D2750A17750B00780A121B3AEEFCEFD5
:1039D800FD12104974021218CDEEFCEFFD85088225
:1039E8008509831238C912053F8014750E098003B2
:1039F800750E01124378850C82850D83123B37A919
:103A08000E023563E5082402F508E5093400F509D6
:103A18008A828B83A3A3A3E0A2E52274041218CDA3
:103A28007F0A0219F974EC1219278C108D11EA24F7
:103A380005F50CEB12304F750F00EA2402F50AEB7E
:103A4800123B1E850A82F5831238C91208B18A080A
:103A58008B09EA45097003023B10750E00807185D9
:103A68000C82850D83E06401704F8E828F83A3A33F
:103A7800121B518E828F83A3A3A3A3E0F5127513A3
:103A8800007812121B3AEE2405F512EF3400F513F4
:103A98007812121B3A1238C31208CF74061218CDC6
:103AA800E9F50F6014850C82850D83E4F0124378E4
:103AB800851082851183123B377C177D007900EED3
:103AC800FAEFFB1210618E828F83E4F0A3F0050EEB
:103AD8009002E6E0F8E50EC398501EE50E75F01763
:103AE800A4F8A9F0850882850983A3A31243A51227
:103AF8003B24EC4D6003023A67850882850983748C
:103B0800FFF0A3F0E50F70061238C3120545A90FA0
:103B18000238BAF50AEF3400F50B22A3E0FCA3E063
:103B2800FD228E828F83124380850E82850F83E863
:103B3800F0A3E9F022C082C0839002E2E06A700339
:103B4800A3E06B70067AE27B0280047A007B0002B5
:103B58002E2AC082C08378008C828D83E06A70032D
:103B6800A3E06B7010E875F003A4F8A9F0EC28FA4C
:103B7800ED39FB8015088C828D83A3A3A3E06A70BE
:103B880003A3E06B60DF7A007B00022E2A74F61232
:103B9800192712087B8A828B83E582458370067A0F
:103BA800007B008007A3A3A3A31238C9024229748B
:103BB800F2121927E9FE740E121903123C1274103E
:103BC80012190312408A8C828D83E064027036A336
:103BD800124386F50CA3E0F9A80C7402687003740C
:103BE80029697021750C02750D00780C121B3A7842
:103BF80008121B3A780A121B3AEEF91208F37406F7
:103C08001218CD800279010242ADE0F50AA3E0F571
:103C18000B2274E812192774FB1218B7E985188269
:103C2800851983F08A168B17ECFEEDFF751000746A
:103C38001D12190312437C741D121903123B378E8F
:103C4800828F83A3A3A3E0A2E4502D741D1219034D
:103C58001238C91208BD8A828B83E58245837003B6
:103C680002405B790AEEFCEFFDAA16AB1712192584
:103C7800E9F510600302405E741F12190312408AAE
:103C88007421121903123C127423121903E0F50E61
:103C9800A3E0F50F8E828F83E0640260030240097F
:103CA800A312437C850882850983A38582128583B4
:103CB80013EE240612304C88828983E0FAA3E0F9D7
:103CC800EA2400F514E439F5157814121BC4010030
:103CD80000280128FE3C07000228C33D0328303D88
:103CE8000029FA3E0129253F0229C63E0329FA3E4A
:103CF8000429A43F0940E50E450F600302400485EE
:103D08000C82850D8312407FFAE9FB8A828B83E05F
:103D1800850A82850B831240B5121B3A8A828B83EF
:103D2800A3E0FCA3E0023F8EE50E450F60030240CE
:103D380004850A82850B837401F0124092850882FB
:103D4800850983F07C007D008E828F83A3A3A3A3C3
:103D5800E02401FAA3E03400FB1207AFEA4B60410C
:103D68008A828B83E02402F8850A82850B83E02807
:103D7800F0EA2404F8EB3400F988828983E085129C
:103D8800828513831240C71240B5121B3A8A828B70
:103D980083123B23E5082403FAE5093400FB023FBC
:103DA80093850A82850B83E02404F07C047D0079E6
:103DB80000AA12AB1312106102405EE50E450F60B7
:103DC80003024004124092FEA3E0FF850A82850B9D
:103DD800837404F0EE850882850983F0EF851282EA
:103DE800851383F07403121903AC82AD83EEFAEFE6
:103DF800FB1207AF8A0C8B0DEA450D7003023EA734
:103E08008A828B83A3A3122D3A7401121903858227
:103E18000E85830F780E121B3A7405121903121BB4
:103E2800517CFF7DFF1207B574041218CD8B0FEA81
:103E3800450F7033850C82850D8312406A121B3A38
:103E4800850C82850D83A3121B517C027D007AD5D7
:103E58007B831205E174041218CDE9700A7401120B
:103E6800190374FFF0A3F08E828F83E06402703927
:103E7800750C02750D00780C121B3A8E828F831216
:103E88003B23E5082404FAE5093400FB12104974C1
:103E9800021218CD850A82850B83E02402800974FA
:103EA80001121903EEF0A3EFF07401121903124086
:103EB8007BF07401121903A3124073023FFEE50E52
:103EC800450F6003024004850C82850D83123B2454
:103ED800AA16AB171208E7850A82850B837402F0CD
:103EE800EA850882850983F0851282851383EB02AF
:103EF8004001E50E450F6003024004124092F8A30A
:103F0800E0F9850A82850B837402F0E885088285CA
:103F18000983F0E9851282851383024001850C82AA
:103F2800850D831238C9121043EAFC8C82A882C31B
:103F3800950EE4950F405FE8650E7002E50F70047A
:103F48007C008022851882851983E0FAE50E2AFA1A
:103F5800E50F3400FBC3EA98EB94005003E08005BA
:103F6800E50ECCC39CFCEC850A82850B83F08C0A99
:103F7800750B00780A121B3A850C82850D83E025A3
:103F88000EFCA3E0350FFDAA08AB09121049740214
:103F98001218CD02405E75100702405EE50E450F0F
:103FA800705A850C82850D8312437C850A82850BA5
:103FB800837407122D46124073122D46A3E0851212
:103FC80082851383F0E82402FAE93400FB8A828BA5
:103FD800831240731240A212407BA31240AB1240DE
:103FE80084F0E82405F8E93400F9888289831240CE
:103FF80084A31240C7A3A3A3A3F0805A75100B8013
:1040080055741D1219031238C912087B8A828B83D2
:10401800E5824583603D12437C880C890DE8450D97
:104028006031780E121B3A780A121B3A7808121B74
:104038003A7406121903E0F9EEFCEFFDAA16AB1765
:10404800850C82850D8312192574061218CDE9F5A1
:1040580010800375100EA91074051218CD7F100278
:1040680019F9E0F50E750F00780E22E085088285B3
:104078000983221240D122124380E8221240D1A3A0
:10408800A322E0F508A3E0F50922850C82850D83BB
:10409800E0F8A3E0F5838882E022A3A3F08A828B6C
:1040A80083A322F088828983A3A3A3A322F08A8210
:1040B8008B831240BE22E0F50A750B00780A22F0C5
:1040C80088828983A31240D122E0850882850983EA
:1040D800A3A32274EE12192774FE1218B78A0A8B4A
:1040E8000BECFAEDFB7414121903E0F510A3E0F5DC
:1040F800117416121903E0FE7418121903E0F50E74
:10410800A3E0F50F851882851983AC82AD83120769
:10411800AF8A0C8B0DEA450D604985188285198395
:104128001238C912087B8A828B83E5824583602F07
:10413800A3A312408AE50845096024780E121B3AA9
:104148007810121B3AEEF9AC0CAD0DAA0AAB0B8530
:10415800088285098312192574041218CD800679FE
:104168000E8002790102356374F612192774FE1263
:1041780018B7740C12190312407F851882851983A9
:10418800F07401121903E9F0E4F508F5097808124A
:104198001B3A7508027808121B3A74041219038531
:1041A80082088583097808121B3A1208CF74061210
:1041B80018CD74021218CD806874F7121927EAFE18
:1041C800EBFF89087C197D031208E7EA5402600BAB
:1041D800A908EEFAEFFB1207A380027901022C422C
:1041E80074F612192774FF6A700374FF6B70168CCB
:1041F800828D8312422EE4F08C828D83A3A3A312B6
:10420800422EA380181208B78A088B09A808A909A2
:10421800E849600D8882898374FF122D44A3A3E4C2
:10422800F07F020219F974FFF0A3F08C828D83A34A
:10423800A32274F61219271208B78A828B83E582A3
:1042480045836006A3A3E0FA80027A007B0080D150
:1042580074F21219278A088B09ECFEEDFF740E120E
:104268001903E0F50A1208B78A0C8B0DA80CA90DE2
:10427800E8497026EEFCEFFD7AFF7BFF1208B78A4B
:104288000C8B0DA80CA90DE84970047911801688CB
:10429800828983E508F0A3E509F088828983A3A3CE
:1042A800E50AF079007F060219F974EE121927EA77
:1042B800FEEBFF8C088D09890C7414121903124344
:1042C8007C74161219031238C9750D00E849600389
:1042D8000243707402650C600302436B7412121976
:1042E80003124386FCA3E0F9EC2400F50EE439F54B
:1042F8000FEAF4F8EBF4F9EC58F8E50F59F9E84946
:10430800705CE5082406F8ED3400F9880A890B8802
:1043180082F5831243911208E78A108B11E50E6526
:10432800107004E50F65116042780E121B3A850A79
:1043380082850B831243911208ED74021218CDE99D
:10434800F50D7027780E121B3A850882850983A31C
:10435800A312438F1208FF74021218CD800D750D39
:10436800808008750D0D8003750D0BA90D023A2884
:104378008E828F8312438022E0F8A3E0F922124351
:104388008088828983E022A3A3E0FCA3E0FDEEFA03
:10439800EFFB223400F50D850C82F58322E028FE20
:1043A800A3E039FF8E828F832274F2121927EAFE66
:1043B800EBFF890B7401650B600E7402650B706A64
:1043C8007901120ABBE97062EEFAEFFB1208B18AB2
:1043D800088B09EA45096047750A00800B7C177D40
:1043E800007900121061050A9002E6E0F8E50AC3B8
:1043F800985021E50A75F017A4F8A9F08508828578
:104408000983A3A3E028FAA3E039FB8A828B8312ED
:104418002E3170C985088285098374FFF0A3F07C6A
:10442800197D03EEFAEFFB1208E10242AD74F212B5
:1044380019278A088B09ECFEEDFF740E1219031276
:104448003C12900D4AE0F4603D7A097B0012106D31
:10445800EA4B60328A828B8374B1F0A3E41240A4E1
:10446800A31240A2A3E508F0A3E509124491EEF0D7
:10447800A3EF124491A3A3E50AF0A3E50BF0900D76
:104488004AE0F91210790242ADF08A828B83A3A325
:10449800A3A3A322C082C0839061907404F0A37484
:1044A80048F0A37402F09061807440F09061BC748D
:1044B80003F09061877419F0906265741BF0906244
:1044C80049E0C3941390619C400A7409F0906066B7
:1044D80074018007740DF0906066E4F090619A743E
:1044E80033F0A37455F09061A0743AF090053FE062
:1044F80064017009C2919003A6746780059003A6B1
:104508007461F0902BFEE493906186F0902BF8E4B0
:1045180093F46027E493540FF8906185E068601283
:10452800E5C654804449F5C6E59E547F644970F851
:10453800E8F053C680E59E547F70FA7905120E158F
:104548000246F7C082C083E9540FF9906185E0699B
:104558006012E5C654804449F5C6E59E547F644917
:1045680070F8E9F053C680E59E547F70FA0246F76A
:10457800C082C083E5A8F853A87E906181E4F0A3C7
:10458800F0A3F0C2BA539AFEC289759B00C2C275E5
:10459800E90075910075BF0075A91175B90590619D
:1045A80081F0A374C0F0A3E4F0D2BA439A017480F6
:1045B8005842A80246F7C082C08374F81218B79010
:1045C80003A4E0F8A3E0F9E84970030246EC90037D
:1045D800A4E0544060237908851882851983AA824B
:1045E800AB83120C77851882851983AA82AB831254
:1045F800096B9003A4E054BFF0E054806010790C7C
:104608007A657B05120C779003A4E0547FF0E0A252
:10461800E0503190619A7433F0A37455F09061A022
:10462800743AF090053FE064017009C2919003A6C6
:10463800746780059003A67461F01209719003A451
:10464800E054FEF0E05402603190619A743FF0A3A8
:10465800745AF09061A0747FF090053FE064017097
:1046680009D2919003A6747180059003A6746AF02C
:104678001209719003A4E054FDF0E0540460139013
:104688002BFCE493906186F01209779003A4E05420
:10469800FBF0E054086013902BFDE493906186F0E2
:1046A8001209779003A4E054F7F0E05410601390D7
:1046B8002BFEE493906186F01209779003A4E054EE
:1046C800EFF0E05420600A1209779003A4E054DF69
:1046D800F0A3E05401600D120B9F12097D9003A511
:1046E800E054FEF074081218CD0246F7F0A3F0D09B
:1046F80083D08202013274EC12192774F41218B7AD
:10470800851882851983AC82AD8375838375829BF6
:1047180074041217CA902BFC93F4600302488A9021
:104728007808E0C39402500302486A74041219031B
:10473800AC82AD8375838375822274081217CA858B
:1047480018828519838582128583137404121903CC
:10475800AC82AD83750EFF750FFF7FFF7E00750C71
:1047680048750D78801574086E70030247FE740949
:104778006E70030247FE740A6E607B850C82850D9D
:1047880083780812176F8C828D83A909E50AC9F806
:1047980088107418780812169DE5104508F8C3E0CB
:1047A80098A3E099850C82850D83780812176F40CD
:1047B800188C828D837418780812169DE5104508A8
:1047C800F8E0C398F8A3E0801C7418780812169DC6
:1047D800E5104508FAE9FB8C828D83E0F8A3E0F93F
:1047E800EAC398F8EB99F9C3E8950EE9950F5006D6
:1047F800880E890FEEFF0EE50C2404F50CE50D3448
:1048080000F50DEEC39413500302476E74FF650E56
:10481800700474FF650F60238F08740278081218FB
:10482800A474482508F58274783509F58378081248
:10483800176F851282851383E508F0EC2402FCEDDE
:104848003400FD851282851383A385821285831324
:10485800740C121903E5826C7003E5836D60030222
:10486800475C7508017509007808121B3A74021232
:104878001903AC82AD837AFF7B0A1212B374021259
:1048880018CD740C1218CD7F0C0219F9C082C083A0
:104898009061AE7468F0A3746AF090624574FBF09E
:1048A800A304F053F4FD43FE0290053F7401F09019
:1048B80061A0E0643A90619A70237433F0A3745550
:1048C800F09061A0743AF0740164017009C291908B
:1048D80003A6746780289003A674618021743FF052
:1048E800A3745AF09061A0747FF074016401700998
:1048F800D2919003A6747180059003A6746A02464B
:10490800F67F080219F9C082C0839004F1E06401BF
:10491800700A9004F6E06004790C8002790002467F
:10492800F7C082C08375E1F19004F4E0605B146025
:104938000914605F14605714705E120BB19004EA9A
:10494800E0F97AEB7B04120D977AD67BBE7C897DE1
:104958008E120DCD7A557B557C557D00120DA39096
:1049680004F5E0F9120DAF7901120E099004E8E0A0
:10497800F8A3E0C82416F582E83400F58374C9F07A
:10498800A3740BF079000246F7120BB780AF120B35
:10499800BD80AA120BC380A5791280EA74F012199F
:1049A8002775D90D9004D5E0A2E0E4331313F890ED
:1049B80004EAE0C4333354C0484401F5D978E879AF
:1049C8000488828983A3A3A3E0F5D988828983A375
:1049D800A882A983E864EE7003E9640470E378D5DB
:1049E800790488828983A3E0F5D988828983A3A87A
:1049F80082A983E864DB7003E9640470E575E195D6
:104A08009004D5E0F97AD67B04120D9D900D6C7454
:104A18005DF0A3740BF0A374BFF0A3740CF0A3743F
:104A2800BFF0A3740CF0A374BFF0A3740CF0A374CC
:104A380063F0A3740BF0A374BFF0A3740CF0A37419
:104A48007BF0A3740BF0900D7A74BFF0A3740CF094
:104A5800A374BFF0A3740CF0A374BFF0A3740CF09C
:104A6800A374BFF0A3740CF0A374BFF0A3740CF08C
:104A7800A374BFF0A3740CF09004F4E064019004F4
:104A8800E87012E0F8A3E0F5838882A3A375080014
:104A98007509088010E0F8A3E0F5838882A3A37560
:104AA8000804750900750A00750B0078081216E8E5
:104AB800750CFF750DFF750EFF750F007808790CE2
:104AC8001217369004E8E0F8A3E0C8240EF582E84F
:104AD8003400F583780812177E9004E8E0F8A3E024
:104AE800C82414F582E83400F5837413F09003A207
:104AF8007402F002490974F71219279004FAE024A5
:104B080007F5D99004EAE0C4333354C0F5D978E8FE
:104B1800790488828983A3A3A3E0F5D9888289834D
:104B2800A3A882A983E864EE7003E9640470E390A3
:104B380004FAE0601F78E87904FAE82413F582E9BA
:104B48003400F583E0F5D988828983A3A882A983F4
:104B58001AEA70E690051AE02407F5D99004EAE00D
:104B6800C4333354C04404F5D978E8790488828979
:104B780083A3A3A3E0F5D988828983A3A882A98304
:104B8800E864EE7003E9640470E390051AE0601FBE
:104B980078E87904FAE82433F582E93400F583E00B
:104BA800F5D988828983A3A882A9831AEA70E67551
:104BB800E195900D6C7469F0A3740BF0A374BFF0C9
:104BC800A3740CF0A374BFF0A3740CF0A374BFF02B
:104BD800A3740CF0A37463F0A3740BF0A374BFF078
:104BE800A3740CF0A3747BF0A3740BF0900D7A748B
:104BF800BFF0A3740CF0A374BFF0A3740CF0A374FB
:104C0800BFF0A3740CF0A374BFF0A3740CF0A374EA
:104C1800BFF0A3740CF0A374BFF0A3740CF090045D
:104C2800E8E0F8A3E0C8240EF582E83400F58374C0
:104C3800FFF0A3F0A3F0A3F09004E8E0F8A3E0C825
:104C48002414F582E83400F5837412F09003A274FA
:104C580001F0FF0219F974F71219279004FAE024F9
:104C680007F5D99004EAE0C4333354C04402F5D9B7
:104C780078E8790488828983A3A3A3E0F5D9888298
:104C88008983A3A882A983E864EE7003E9640470A9
:104C9800E39004FAE0601F78E87904FAE82413F551
:104CA80082E93400F583E0F5D988828983A3A88254
:104CB800A9831AEA70E675E195900D6C7475F0A3F6
:104CC800740BF0A37475F0A3740BF0A37475F0A3C0
:104CD800740BF0A37475F0A3740BF0A37475F0A3B0
:104CE800740BF0A37475F0A3740BF0A3747BF0A39A
:104CF800740BF0900D7A74BFF0A3740CF0A374BF1A
:104D0800F0A3740CF0A374BFF0A3740CF0A374BFE9
:104D1800F0A3740CF0A374BFF0A3740CF0A374BFD9
:104D2800F0A3740CF09004E8E0F8A3E0C8240EF5B2
:104D380082E83400F58374FFF0A3F0A3F0A3F090A9
:104D480004E8E0F8A3E0C82414F582E83400F58309
:104D58007414F09003A27404F002502574F7121929
:104D6800279004FAE02407F5D99004EAE0C4333325
:104D780054C04406F5D978E8790488828983A3A3C6
:104D8800A3E0F5D988828983A3A882A983E864EE81
:104D98007003E9640470E39004FAE0601F78E8792E
:104DA80004FAE82413F582E93400F583E0F5D9889C
:104DB800828983A3A882A9831AEA70E690051AE07B
:104DC8002407F5D99004EAE0C4333354C04404F509
:104DD800D978E8790488828983A3A3A3E0F5D988E0
:104DE800828983A3A882A983E864EE7003E9640436
:104DF80070E390051AE0601F78E87904FAE8243334
:104E0800F582E93400F583E0F5D988828983A3A87F
:104E180082A9831AEA70E675E195900D6C746FF0BB
:104E2800A3740BF0A374BFF0A3740CF0A374BFF0C9
:104E3800A3740CF0A374BFF0A3740CF0A374BFF0B8
:104E4800A3740CF0A374BFF0A3740CF0A3747BF0EC
:104E5800A3740BF0900D7A74BFF0A3740CF0A374D4
:104E6800BFF0A3740CF0A374BFF0A3740CF0A37488
:104E7800BFF0A3740CF0A374BFF0A3740CF0A37478
:104E8800BFF0A3740CF09004E8E0F8A3E0C8240E87
:104E9800F582E83400F58374FFF0A3F0A3F0A3F0E3
:104EA8009004E8E0F8A3E0C82414F582E83400F59B
:104EB800837415F09003A27403F0025025C082C0D9
:104EC800839004E8E0F8A3E0C82406F582E83400FB
:104ED800F583E40246F474F71219279003D0E0F83A
:104EE80075F003A4C8AAF02AF974D228F874033913
:104EF800F9E82405FAE93400FB8A828B83E0FCA3F5
:104F0800E0FD88828983A3A3A3A3A3A3A3A3A3ECFF
:104F1800F0A3EDF088828983A3A3A3A3A3A3A3E0AE
:104F280024FFF8A3E034FFF98A828B83E8F0A3E931
:104F3800F002502574F7121927EAFEEBFF9061D0B2
:104F4800E0600302501975D90E75D90375D904EEBE
:104F5800248BF582EF3400F583E5822408F8E58395
:104F68003400F9E0F5D9A3E865827003E965837038
:104F7800F2EE2483F582EF3400F583E5822404F809
:104F8800E5833400F9E0F5D9A3E865827003E965A3
:104F98008370F275E1957908EE248BFAEF3400FB03
:104FA800120C6B7904EE2483FAEF3400FB120C6BBD
:104FB8007C00EEF8EFF9ECFAC3E49AFA95E0FBEE20
:104FC8002AFAEF3BFBEA248AF582EB3400F583E00A
:104FD800C0E0E824AAF582E93400F583D0E0F00CBB
:104FE80088828983A3A882A983ECC3940840C7EE6A
:104FF800246FF582EF3400F583E0F8A3E0F9EE249E
:1050080071F582EF3400F583E8F0A3E9F0790180C7
:105018000279008008F0EEA2E092AF79007F0102E9
:1050280019F9C082C08375D90275D90375D9057578
:10503800E195EA246FF582EB3400F583E0F8A3E00C
:10504800F9EA2471F582EB3400F583E8F0A3E9F07E
:1050580079010246F774F6121927EAFEEBFF90056C
:10506800457406F07508457509057808121B3A7CE1
:10507800017903120CB374021218CD75D90675D9CB
:1050880003758245758305E0F5D9A3E582644A7006
:1050980004E583640570F075E1959003A2E0640867
:1050A800701EEE246FF582EF3400F583E0F8A3E07C
:1050B800F9EE2471F582EF3400F583E8F0A3E9F006
:1050C800790102532B74F6121927EAFEEBFF90615F
:1050D800D0E070667801900545740BF09003A2E06B
:1050E800640770197508457509057808121B3A7C1C
:1050F800017903120CB374021218CD7805740128D3
:10510800F5D975D903758245758305E8FAE0F5D9AF
:10511800A31AEA70F875E195EE246FF582EF340072
:10512800F583E0F8A3E0F9EE2471F582EF3400F599
:1051380083E8F0A3E9F079018002790002532B7427
:10514800F7121927EAFEEBFF75D90375D90375D94C
:105158000DEE24DDF582EF3400F583E0F5D975E135
:10516800957904120DD3EE246FF582EF3400F583A0
:10517800E0F8A3E0F9EE2471F582EF3400F583E856
:10518800F0A3E9F0790102502574F6121927EAFE16
:10519800EBFF9061D0E0F87480C398FAEE2482F5B2
:1051A80082EF3400F583E06004780480027800E838
:1051B800240BF8EAC39850030252567D099005451E
:1051C800EDF0EE24E2F8EF3400F97A467B057C082E
:1051D80088828983E08A828B83F088828983A3A866
:1051E80082A9838A828B83A3AA82AB831CEC70E09A
:1051F800EE2482F582EF3400F583E0601D750845E2
:105208007509057808121B3A7C097903EEFAEFFB59
:10521800120CB374021218CD7D0D74012DF5D975D9
:10522800D9037582457583058D08E0F5D9A315085E
:10523800E50870F675E1957904120DD3EE241DF595
:1052480082EF3400F583E4F0A3F07901800279005D
:1052580002532B74F6121927EAFEEBFF9061D0E097
:10526800F87480C398FAEE2482F582EF3400F5834F
:10527800E06004780480027800E82408F8EAC3981B
:1052880050030253297806900545740CF09003BF2B
:10529800E0900546F09003C0E0900547F09003C108
:1052A800E0900548F09003C2E0900549F09003C3F0
:1052B800E090054AF0EE2482F582EF3400F583E0B1
:1052C800601B7508457509057808121B3A7C067934
:1052D80003EEFA120CB374021218CD780A7401287E
:1052E800F5D975D9037582457583058808E0F5D920
:1052F800A31508E50870F675E1957904120DD3EE4B
:10530800246FF582EF3400F583E0F8A3E0F9EE248A
:1053180071F582EF3400F583E8F0A3E9F0790180B4
:105328000279007F020219F974F6121927EAFEEBD6
:10533800FF9061D0E0F87480C398FAEE2482F58279
:10534800EF3400F583E06004780480027800E824F4
:1053580004F8EAC398500302540A7802900545E815
:10536800F0EE24F4F582EF3400F583E0900546F082
:10537800EE2482F582EF3400F583E0601B75084562
:105388007509057808121B3A7C027903EEFA120CAB
:10539800B374021218CD7806740128F5D975D903AB
:1053A8007582457583058808E0F5D9A31508E508D1
:1053B80070F675E195EE2473F582EF3400F583E419
:1053C800F0EE247FF582EF3400F583E4F0EE241D3F
:1053D800F582EF3400F583E4F0A3F07904120DD3DD
:1053E800EE240DF582EF3400F583E0F8A3E0F9EE42
:1053F8002471F582EF3400F583E8F0A3E9F0790130
:105408008002790002532B74F61219279061D0E0BC
:10541800F87480C398FCEA2482F582EB3400F583A3
:10542800E06004780480027800E82404F8ECC3986B
:10543800405B79029005457407F0EA24F5F582EBA4
:105448003400F583E0900546F0EA2482F582EB34D7
:1054580000F583E060187508457509057808121B82
:105468003A7C0209120CB374021218CD7906740141
:1054780029F5D975D903758245758305E9F8E0F5ED
:10548800D9A318E870F875E19579018002790002CE
:10549800532B74F5121927E9FCA2AFE433F50AC2BD
:1054A800AF7D0080010DEA246EF582EB3400F583B0
:1054B800E0F8EDC398501A8D08EA2508F8EB340097
:1054C800F9E8246AF582E93400F583E06C70D68047
:1054D80024EA246EF8EB3400F9E0FEEA2EFAEB3405
:1054E80000FBEA246AF582EB3400F583ECF088824D
:1054F8008983E004F0E50AA2E092AF7F030219F97C
:1055080074F6121927A2AFE433FDC2AFEA246EF590
:1055180082EB3400F583E014F07C0060368C08EAF6
:105528002508F8EB3400F9E8246BF582E93400F536
:1055380083E0C0E0E8246AF582E93400F583D0E02E
:10554800F00CEA246EF582EB3400F583E0F8ECC346
:105558009840CAEA246DF582EB3400F58374FFF0B5
:10556800EA2469F582EB3400F583E4F0EDA2E092D9
:10557800AF02532BC082C083E5A8F8C2AFEA246A01
:10558800F582EB3400F583E9F0EA2469F582EB341F
:1055980000F583E4F0E8A2E7A2E792AF0246F774C9
:1055A800F3121927EAFEEBFFECFAEDFB8A828B83F4
:1055B800A3A3A3A3E0541FF0EE2436F582EF340032
:1055C800F583E4F0F50AEEFCEFFD8A828B83E0C0F8
:1055D800E0EC245DF582ED3400F583D0E0F0750B46
:1055E80000E50A33333354F8F50C8A828B83E0F5EF
:1055F80008750900E50B7808121885E508A2E0503F
:105608002FEE2436F8EF3400F988828983E0F50814
:10561800EE2508F508EF3400F509E5082438F58289
:10562800E5093400F583E50CF088828983E004F00D
:10563800050B050CE50BC3940840AF050A8A828B5D
:1056480083A3AA82AB838C828D83A3AC82AD83E5CE
:105658000AC3940550030255D27F050219F974F75D
:105668001219279003CEE0640170030257C47A0030
:105678009003D4E060030257C47401F0A3E4F0A3DC
:10568800F090043404F0900439F09003D7E4F0A3C8
:10569800F0A3F0A3F09003E104F0900407E4F09085
:1056A80003EAF0A3F0A3F0A3F0A3F0A3F0A3F09013
:1056B8000451F0900445F090043A7480F0A3E4F0AB
:1056C800900440F09004BCF0A3F0A3F0A3F0A3F082
:1056D800A3F0A3F0A3F09004C5F0900454F0900454
:1056E800A4F0A3F0A3F0A3F0A3F0A3F0A3F0A3F019
:1056F800A3F0A3F09004B0F09004B2F09004AEF0E0
:105708009004C8F0A3F0A3F0A3F0A3F0A3F0A3F0D3
:10571800A3F078CE7903E8246EF582E93400F583A6
:1057280074FFF00A88828983A3A882A983EAC394B4
:105738000440E37ACE7B0378DC790488828983E0AD
:10574800C0E0EA2461F582EB3400F583D0E0F0880C
:10575800828983A3A882A9838A828B83A3AA82AB26
:1057680083E864E17003E9640470D07ACE7B03783F
:10577800B5790388828983A3E0C0E0EA24E6F5824C
:10578800EB3400F583D0E0F088828983A3A882A94E
:10579800838A828B83A3AA82AB83E864BD7003E902
:1057A800640370CF9003CEE004F0640170089003A6
:1057B800D6E09003D0F07AD27B0380047A007B0095
:1057C800025025C082C0839003D5E4F09003D4F042
:1057D8009003CEF0A3F0A374FFF075E1F10246F751
:1057E800C082C083780079009003D5E0600478D245
:1057F800790388828983A3A3A3A3E0F90246F774F7
:10580800F6121927EAFEEBFFEE2463F582EF340067
:10581800F583E0F8A3E0F9E84970030258ACEE24F8
:1058280063F8EF3400F97A007B00A2AFE433F5089F
:10583800C2AF88828983E0FCA3E0FDEC4D603A8822
:10584800828983E0FAA3E0FB8A828B83E0FCA3E0F1
:10585800FD88828983ECF0A3EDF08A828B83E4F0E3
:10586800A3F088828983E0FCA3E0FDEC4D700A88F0
:10587800828983A3A3E4F0A3F0E508A2E092AF1223
:1058880014339004E2E004F09004E3E004F0EE2422
:1058980063F582EF3400F583E0F8A3E0F9E84960A6
:1058A800030258268E828F83A3A3A3E0600F8E8203
:1058B8008F83A3A3A3E4F09003CFE014F09003CE6A
:1058C800E014F070069003D074FFF08E828F83A3EB
:1058D800A3E4F09004E1E0700D9003CFE064017060
:1058E800057900120DB5EEFAEFFB120CE302532B0B
:1058F80074F7121927EAFEEBFF8E828F83A3A3A306
:10590800A3E0FA7B001209BFEEFAEFFB120C351286
:105918000CCB025025C082C08378B5790388828970
:1059280083A3E4F088828983A3A882A983E864BD5D
:105938007003E9640370E69003B674010246F674D6
:10594800F6121927EAFEEBFFEC2403F8ED3400F910
:1059580088088909EC2407F8ED3400F9E8FCE9FD2A
:105968008C828D83E0F8A3E0F9850882850983E0BD
:10597800FAA3E0FB12182CEE240DF582EF3400F5A3
:1059880083E8F0A3E9F08C828D83E0F8A3E0F98541
:105998000882850983E0FAA3E0FB12182C8B09EA38
:1059A80045096013EE240DF582EF3400F583E024F9
:1059B80001F0A3E03400F002532B74F6121927EA21
:1059C800FEEBFFEE242EF582EF3400F583E0FCA316
:1059D800E0FD780079FAECFAEDFB12182CEE246F52
:1059E800F582EF3400F583E8F0A3E9F0780079FA5E
:1059F800ECFAEDFB12182C8B09EA45096013EE242A
:105A08006FF582EF3400F583E02401F0A3E0340061
:105A1800F002532B74EC121927EAFEEBFF741412F0
:105A28001903780812176F120D738A0C8B0D8C0EE0
:105A38008D0F751002751100751200751300780C22
:105A480079101216D57510FF7511FF7512FF780CB5
:105A58007910121736780C121B368E828F83E0F875
:105A6800A3E0F5838882A3A312178D12286B740410
:105A78001218CDE96003025B808E828F83E02402D6
:105A8800F8A3E03400F9E8FAE9FB8A828B83780806
:105A98001216FB8A828B837508FF7509FF750AFF4A
:105AA800750B00780812175CEE240BF582EF3400B2
:105AB800F583C082C0838E828F83A3A3A3A3A3E0B0
:105AC8002401F8A3E03400F9D083D082E0687003A1
:105AD800A3E06970057901025B828E828F83A3A39C
:105AE800A3A3A3A3A3E02401F0A3E03400F0EE24D1
:105AF80073F582EF3400F583E064017036EE2474A8
:105B0800F582EF3400F583E0F8A3E0F98E828F8305
:105B1800A3A3A3A3A3A3A3E0687003A3E0697013DE
