:020000040000FA
:0600000002010702230FBC
:03001B0002278237
:03002B0002276148
:030033000227435E
:0300530002238203
:03006B0002271D4C
:030073000227E77A
:1000830002217BE5C754F84401F5C779012200003A
:100093000080FB120086B900030200F1E4792178A5
:1000A30008B800028004F709D8FCE479297802B87B
:1000B30000028004F709D8FCE490028178E479090E
:1000C3008002F0A3D8FCD9FA7A647B0B90013778CD
:1000D300B979048015E493A3AD82AE838A828B83BE
:1000E300F0A3AA82AB838D828E83D8E9D9E7758288
:1000F300B87583BA740312011975829175830074FC
:100103000012011975D00075813F751881751902A8
:10011300759F00020096C09FF59FE473D09F22D085
:1001230083D082C09FE493C0E0740193C0E0740263
:1001330093F59F22FF0000B4000028002800283018
:1001430075A000A000A000A00000080008E001F0D6
:10015300001000100010001000100010005000509C
:1001630000500010001000D0070000000000000F36
:100173000001000500307507001000010081FF0039
:10018300000000FFED060B07F306FF020202080260
:100193005000A0000000E80302FE83010000E88392
:1001A300021084010000BB0B020A84010000B302A9
:1001B300021084010000BC0B020084010000C9028C
:1001C300021084010000BD0B026E83010000CB020C
:1001D300021084010000BE0B02F483080000CC026D
:1001E300021084010000BF0B02F683010000C00B64
:1001F300FF0100FF2002FE83010000E2830210845E
:10020300010000240C02F8830000000000020E84A9
:100213000300001903A50CA50CA50CA50CA50CA5A2
:100223000CA50CA50CA50CA50CA50CA50CA50C27C1
:100233000F3F0F210FFFFF110199010F12640401FA
:1002430002FE83010000F1830210840100006C0CA4
:100253000202840100006D0C020E8403000071078A
:1002630002FC830100006E0C02020202020202027F
:1002730002010D000000100102FE83010000EB8368
:10028300021084010000980C020C8401000077071F
:10029300021084010000990C0212840100005983AA
:1002A3000210840100009A0C0214840100003D83B3
:1002B3000210840100009B0C021684010000B58229
:1002C3000210840100009C0C021884010000D982F2
:1002D3000210840100009D0C021A84010000C782F1
:1002E3000210840100009E0C022E84010000EB82A8
:1002F3000210840100009F0C0230840100004B8334
:10030300021084010000A00C023684010000A10C3D
:1003130001E803053F100A1509484944204B657954
:10032300626F6172642026204D6F7573650201054B
:100333000319C103050212180F1860EA0000010B2C
:100343001311130000010153130000E60202192ADE
:100353000406011201011202011203010E0002122E
:100363000E120A000302FE83010000E583023284B9
:100373000100007F0A0210840100007C0D02248426
:10038300400000B283021084010000800D02288423
:10039300800000810A021084010000810D022C8478
:1003A300C00000820D0210840100007D0D0226842E
:1003B300400000008002FA830100007E0D021084D9
:1003C300010000830D022A84400000820A020E8489
:1003D300810000830A02FC83010000840D02108463
:1003E300010000860D022A84400000890A020E845F
:1003F3008100008A0A02FC83010000870D02108439
:10040300010000890D022A84400000900A020E8434
:10041300810000910A02FC830100008A0D0210840E
:100423000100008C0D022A84C00000970A02FC839D
:100433000100008D0D0210840100008F0D021E8447
:10044300400000980A020E84810000990A02108479
:10045300010000900D022284C000009F0A02108454
:10046300010000910D022084400000A00A020E84C6
:10047300810000A10A021084010000920D022A8467
:10048300C00000A70A02FC83010000930DFF0001D6
:1004930030750302010600000000000000000000A8
:1004A3000000000000000000000000000000000049
:1004B3000000FFFF0600800CE803041002FE830126
:1004C3000000EE83021084010000EA0E023A8480E9
:1004D3000000590B021084010000EB0E023C840063
:1004E30000005D0B020E848100005E0B120122B03E
:1004F300AA03120122C7AA03120122F8AA031201B6
:100503002233AB031201225DAB0312012287AB033B
:100513001201229EAB03120122B5AB03120122CCBE
:10052300AB03120122F5AB0312012208AC03120143
:10053300221EAC0312012231AC0312012258AC0378
:1005430012012210BE0212012214BF021201224C18
:10055300BF021201226FBF021201227ABF021201EF
:10056300229DBF02120122ACC00212012281C102EC
:10057300120122FCC10212012284C202120122BF13
:10058300C202120122F6C20212012284C302120124
:10059300225DC402120122BDC402120122C8C40298
:1005A30012012247C5021201224AC5021201224D3D
:1005B300C502120122DCC502120122DFC5021201AB
:1005C300220FC60212012239C60212012227C702D4
:1005D300120122D9C702120122FAF00212012222C9
:1005E300F10212012250F10212012287F1021201DB
:1005F30022E5F10212012230F2021201227BF20201
:10060300120122BBF20212012201F3021201222F74
:10061300F302120122ECF302120122F6F302120199
:100623002203F40212012236F40212012202F5021D
:100633001201220EF50212012226F50212012230C6
:10064300F50212012289B60312012297B6031201A1
:1006530022AFB603120122C7B6031201229BBC01CB
:1006630012012247BD01120122C2BD01120122E380
:10067300BE011201221FBF01120122C8BF011201D4
:1006830022AFC00112012213C2011201226AC20168
:10069300120122EBC201120122DBC3011201222843
:1006A300C401120122AEC401120122E0C4011201ED
:1006B30022F4C60112012236C70112012254C701D6
:1006C300120122D7C701120122ABC8011201227302
:1006D300C90112012242DF0212012215E0021201B6
:1006E30022BEE00212012211E102120122C1E10243
:1006F3001201224DE20212012239E30212012268A1
:10070300E3021201227BE402120122C3E40212017A
:100713002298E502120122D4E502120122F0E50239
:1007230012012266B903120122A09003120122B61C
:100733009003120122DC9003120122F891031201AB
:10074300220292031201223793031201222F9403F0
:10075300120122D3EB0212012203ED02120122360F
:10076300ED0212012280ED0212012247EF02120173
:1007730022126E001201227C6E00120122DB6F0036
:10078300120122EB6F001201221870001201226F76
:1007930070001201221871001201221F720012014F
:1007A30022E972001201224974001201228C7400A2
:1007B3001201223175001201227E7500120122A45A
:1007C3007500120122B27700120122B777001201DD
:1007D30022BC7900120122097A001201227C7A00DC
:1007E300120122AF7A00120122517B00120122FA78
:1007F3007B00120122327C00120122357C0012019F
:10080300227D7C00120122BD7C00120122147D0096
:1008130012012242A0031201225AA003120122A2B2
:10082300A003120122B8A003120122FFA0031201A8
:100833002213A203120122A0A203120122EBA2039C
:100843001201225028001201225C28001201229773
:100853002800120122DC28001201229C2900120127
:1008630022222A001201224E2A00120122872A0084
:10087300120122C52C00120122A92E001201228F7F
:100883003000120122D23100120122203400120161
:10089300223235001201227D36001201228D3700EB
:1008A300120122AA3700120122E5370012012207A2
:1008B30038001201226A38001201222B3D00120176
:1008C30022C03D00120122113E00120122383E00D7
:1008D3001201228A3E00120122A83E0012012202C6
:1008E3003F00120122014000120122854000120143
:1008F3002243FA021201224DFA0212012290FA0255
:10090300120122ABFA021201223BFB021201226303
:10091300FB02120122A0FB02120122D7FB021201E9
:100923002200FC0212012275FC021201228AFC023F
:100933001201229FFC02120122D0FC02120122E4C6
:10094300FC0212012209FD0212012243FD021201DF
:10095300226FFD02120122F2FD021201223BFE026E
:1009630012012265FE0212012290FE02120122816F
:10097300B203120122E99A02120122179B02120109
:1009830022659C02120122459D02120122649D02EE
:10099300120122E19D02120122249E021201227AF7
:1009A3009F021201223BA002120122C2A2021201E3
:1009B3002263A30212012259A40212012256A502A4
:1009C300120122B0A6021201223BA7021201222623
:1009D300B1031201228FB103120122E3B103120109
:1009E300220AB2031201223BB20312012200800346
:1009F3001201226D8003120122B48003120122CC62
:100A03008103120122C88203120122AB8303120164
:100A1300220CF6011201224EF60112012220F701E7
:100A2300120122F9F701120122F3F801120122D572
:100A3300F9011201223EFA01120122F4FA01120114
:100A43002268FB01120122D4FB01120122FDFB01EA
:100A530012012277FC0112012210FD0112012275FD
:100A6300FD011201228AFD01120122D0FD011201B2
:100A730022E9FD011201224EFE0112012251FE0163
:100A8300120122809703120122A89703120122E682
:100A93009703120122A498031201220B9903120156
:100AA300222799031201224F99031201227F9903EE
:100AB3001201228E99031201220B9A031201223191
:100AC3009A0312012263AD0112012241AF01120107
:100AD3002273B101120122AFB101120122DCB10173
:100AE300120122C6B20112012211B3011201225CCA
:100AF300B3011201226EB301120122AEB30112013E
:100B030022E3B30112012231B40112012260B401C4
:100B130012012283B401120122D0B4011201225521
:100B2300B5011201226FB701120122AEB901120100
:100B330022EFB90112012291BB01120122D2BB01A2
:100B430012012245BC01120122D48D02120122D2CC
:100B53008E021201226B95021201228C970212015E
:100B630022579902120122BF9A02120122EC40007D
:100B73001201229B4100120122E1410012012221B4
:100B83004300120122B74400120122314500120131
:100B9300224C4500120122C74500120122214700C1
:100BA300120122814800120122874900120122E822
:100BB3004A00120122014B001201225F4B00120175
:100BC300224D4C00120122804C00120122F04C00F5
:100BD3001201226A4D00120122B44D001201227E3D
:100BE3004E00120122534F00120122325000120113
:100BF30022BD50001201222B51001201229F5100ED
:100C0300120122CA5100120122895200120122EE5E
:100C130053001201220B54001201222A5400120124
:100C2300221B55001201224055001201226A550071
:100C3300120122E555001201223F5600120122A89B
:100C43005700120122565800120122975800120130
:100C5300220080021201224E80021201225A8002D7
:100C63001201223881021201226981021201229AA1
:100C730081021201221A82021201225282021201FD
:100C830022A48202120122E18202120122FE8402C4
:100C93001201222487021201220F8902120122F972
:100CA3008A02120122FCFF01120122509901120152
:100CB3002280990112012259A001120122DEA10111
:100CC300120122DBA701120122C3A8011201220093
:100CD300A90112012223A90112012254A90112011F
:100CE300225DA90112012267A90112012255AA015D
:100CF3001201224BAB011201224184011201224055
:100D03008801120122468801120122818F011201FA
:100D1300229A94011201223994031201223395037A
:100D2300120122A79503120122E59503120122590C
:100D33009603120122D29603120122DB96031201BB
:100D430022E79603120122FC96031201223A97032B
:100D53001201225097031201226D84031201227A99
:100D63008403120122948403120122D38403120107
:100D7300221185031201227685031201228B85033A
:100D8300120122968503120122A38503120122BABE
:100D93008503120122C88503120122D385031201A0
:100DA30022DF8503120122EE8503120122F9850356
:100DB3001201221C8603120122C38603120122D3CD
:100DC3008603120122ED86031201220A8703120110
:100DD300222687031201224B87031201225687031F
:100DE3001201226B87031201227F8703120122E083
:100DF3008703120122E68703120122EC8703120103
:100E030022F287031201220A88031201223D88037A
:100E1300120122FDD90112012281DA0112012230CD
:100E2300DB011201228FDC01120122B0DE0112016B
:100E3300229CDF01120122D1DF01120122F3DF0123
:100E4300120122A2E0011201229AE201120122C33D
:100E5300E20112012255E30112012287E30112018B
:100E63002294E301120122EBE30112012211E401B6
:100E73001201227EE60112012281E701120122D929
:100E8300E7011201228CCB0112012296CC0112013F
:100E9300227DCD0112012287CD01120122A9CD01AC
:100EA300120122B5CD011201224ECF011201227D82
:100EB300CF0112012299D001120122F2D0011201B5
:100EC3002258D20112012237D30112012293D301F6
:100ED30012012200D4011201223BD4011201227A11
:100EE300D40112012233D7011201224DD70112017D
:100EF30022D9D701120122E7D70112012240D801DA
:100F03001201224ED801120122C1D8011201222559
:100F1300D9011201226FD901120122BCA7021201C9
:100F230022DEA70212012204AA0212012219AD0233
:100F330012012231AE02120122E4AE02120122C6D4
:100F4300AF021201226AAC031201228FAC03120119
:100F53002201AD031201227AD00212012283D002B0
:100F63001201228CD00212012263D1021201221437
:100F7300D3021201224AD30212012284D3021201A4
:100F830022BAD302120122F4D30212012228D4027C
:100F930012012254D4021201229DD402120122D73B
:100FA300D40212012220D50212012278D5021201A5
:100FB30022ADD50212012208D60212012242D60224
:100FC30012012293D602120122C9D6021201220370
:100FD300D70212012231D70212012254D702120181
:100FE3002221B8031201224DB803120122A8B8032B
:100FF300120122B2B803120122C2B803120122B8AD
:10100300FE02120122E2FE0212012250FF0212012D
:1010130022C5FF0212012265E6021201226FE602D7
:10102300120122ADE602120122F6E602120122307B
:10103300E7021201228AE702120122ABE702120140
:1010430022B4E70212012205E8021201222EE8026D
:1010530012012238E802120122A4E802120122320C
:10106300E90212012280E902120122B6E902120109
:10107300223DEA021201227DEA02120122B5EA02AE
:10108300120122C7EA02120122E6EA02120122EF4A
:10109300EA02120122A9EB021201229EB4031201F9
:1010A30022017E00120122377E001201226D7E0092
:1010B300120122C67F00120122EAB90312012200A3
:1010C300BA031201220ABA03120122BA88031201D7
:1010D30022D38803120122778903120122B78903DD
:1010E300120122D08903120122048A031201225120
:1010F3008A03120122858A03120122C78A0312017D
:1011030022CB8C0312012254BA0312012298B50395
:10111300120122C1B503120122EAB5031201220210
:10112300B60312012244B6031201225E9D0312018B
:1011330022879D03120122F79D03120122159E03AC
:10114300120122D88C03120122088D031201221BE3
:101153008D031201224A8D03120122C88D0312014D
:1011630022E78D031201228C8E031201221E8F03AC
:10117300120122A38F031201226990031201227923
:101183009A031201229E9A0312012254BB031201F5
:1011930022C75800120122215B00120122FA5B00D0
:1011A300120122A95D001201229B5E00120122207E
:1011B3005F001201229E5F00120122C35F00120131
:1011C300222B60001201224F6300120122C9630027
:1011D300120122B86400120122F2640012012232C9
:1011E3006500120122EC66001201223F6700120122
:1011F30022886700120122F6670012012228680084
:101203001201224068001201225169001201226179
:101213006900120122916A00120122B36A001201CD
:1012230022E96A001201228E6C00120122CD6C00A9
:10123300120122ED6D0012012260B7031201227127
:10124300B70312012216B8031201220BBB031201CA
:10125300224ABB03120122EAFF02120122CCB80385
:10126300120122DCB803120122F4B8031201225C3A
:10127300B9031201229AB3031201221FB40312010C
:101283002285B403120122AEAF03120122D7AF03AA
:1012930012012242B00312012293B003120122EC85
:1012A300B003120122B7F502120122CEF502120198
:1012B3002247F60212012220F702120122DEF9026E
:1012C300120122B8A5031201222EA603120122C580
:1012D300A6031201225CA70312012274A7031201C1
:1012E3002288A703120122E5A703120122FDA70307
:1012F3001201220BA803120122F4D7021201221CAD
:10130300DA0212012293DA02120122E8DA0212014E
:1013130022C7DB02120122CADB02120122A5DD026F
:10132300120122EAB2021201224AB3021201224C32
:10133300B4021201226EB40212012281B40212011C
:101343002216B502120122EDB60212012201B902E0
:101353001201220EBA0212012273BA02120122CE24
:10136300BA021201222FBB0212012270BB02120128
:101373002273BB02120122C2BB02120122CEBC02A3
:101383001201226CBD02120122B8BD02120122DD3C
:10139300BD0212012215A303120122DFA4031201CD
:1013A300224CA50312012275FE01120122CAFE017D
:1013B30012012238FF01120122A8FF011201224566
:1013C300A8031201226FA80312012244A9031201E8
:1013D3002238AA031201224AC80212012207C902B3
:1013E30012012242C9021201226AC902120122CC4D
:1013F300C90212012218CA0212012271CA02120181
:101403002202CB0212012204CC02120122C1CD021C
:1014130012012243CE02120122A8CE02120122BFE0
:10142300CE02120122CFCF021201220DD0021201ED
:101433002227E801120122B1EB0112012239ED0149
:1014430012012290ED01120122AFED011201222DB2
:10145300EE01120122CBEF01120122AFF0011201C2
:101463002299F40112012269F5011201220FAE0340
:101473001201223FAE0312012257AE03120122A62C
:10148300AE03120122ABAE0312012277AF031201A6
:10149300229BBB03120122C7BB03E066701008A3A3
:1014A300E066700A08A3E066700408A3E06622C041
:1014B30008C3E096F50808A3E096420808A3E0965F
:1014C300420808A3E0964208A2D265D033E508702B
:1014D30001D3D00822C3E7960809E7960809E796DF
:1014E3000809E79622C3E09608A3E09608A3E096CE
:1014F30008A3E09622C008C3E096F50808A3E09687
:10150300420808A3E096420808A3E0964508700144
:10151300D3D00822080808EAC0E0EBC0E086F0E771
:10152300A4FA180986F0E7A42AFA180986F0E7A4B2
:101533002AFA180986F0E7A42AFA1986F0E7A4FB29
:10154300E5F02AFA190886F0E7A42BFBE5F03AFA4E
:10155300190886F0E7A42BFBE5F03AFA1818098678
:10156300F0E7A4C5F02BFBE43AFA1908E7C5F0C687
:10157300A426F6E5F03BFBE43AFA1886F0E7A4F676
:10158300E5F00826F6E43B08F6E43A08F6D0E0FB7B
:10159300D0E0FA22E4CFC0E0E4CEC0E0E4CDC0E086
:1015A300E4CCC0E075F020E626F608E633F608E65C
:1015B30033F608E633F6181818EC33FCED33FDEE7A
:1015C30033FEEF33FFC3EC9709ED9709EE9709EF6D
:1015D30097191919400FFFEC97FC09ED97FD09EED8
:1015E30097FE191906D5F0BFECF709EDF709EEF7E9
:1015F30009EFF7191919D0E0FCD0E0FDD0E0FED0D7
:10160300E0FF22E4C396F608E496F608E496F608AB
:10161300E496F6226016080808C6C313C618C61354
:10162300C618C613C618C613C6D5E0EA2270090841
:101633000808226016181818C6C333C608C633C66E
:1016430008C633C608C633C6D5E0EA22E627F6083D
:1016530009E637F60809E637F60809E637F622E021
:1016630026F608A3E036F608A3E036F608A3E0362C
:10167300F622E026F008A3E036F008A3E036F008EF
:10168300A3E036F022C3E697F60809E697F60809C1
:10169300E697F60809E697F622C3E096F008A3E07A
:1016A30096F008A3E096F008A3E096F022E657F63A
:1016B3000809E657F60809E657F60809E657F62239
:1016C300E056F608A3E056F608A3E056F608A3E0B2
:1016D30056F622E056F008A3E056F008A3E056F0D1
:1016E30008A3E056F022E0F608A3E0F608A3E0F62C
:1016F30008A3E0F622E6F008A3E6F008A3E6F00864
:10170300A3E6F022E0FAA3E0FBA3E0FCA3E0FD22C2
:10171300EAF0A3EBF0A3ECF0A3EDF022E0F8A3E0F2
:10172300F9A3E0FAA3E0FB22E8F0A3E9F0A3EAF0CF
:10173300A3EBF022CAC0E0E6F0A308DAFAD0E0FA9D
:1017430022CAC0E0E0A3C582CCC582C583CDC583D0
:10175300F0A3C582CCC582C583CDC583DAE6D0E0CC
:10176300CA22C3E498F8E499F91217A68026C3E4C1
:101773009AFAE49BFBE920E7E91217A6E498F8E458
:1017830099F922C3E498F8E499F91217A6E498F8B2
:10179300E499F9C3E49AFAE49BFB22EB20E7CFE94F
:1017A30020E7E0B90010BB0008E88AF084F8AAF04B
:1017B30022E4FBC8FA22EB70227B10C833C8C9337A
:1017C300C9335007C39AC3DBF280069A50012ADB60
:1017D300EAC833F4C8C933F4C9FA2275F008E4C877
:1017E30033C8C933C933C99AC99B5004C92AC93BF1
:1017F300D5F0ECFBC833F4C8E4C9FA22600D08C67F
:10180300A2E713C618C613C6D5E0F322600C08C6B8
:10181300C313C618C613C6D5E0F422700422600DA4
:1018230018C6C333C608C633C6D5E0F41822251834
:1018330010AF08F518400C15198008F5184002156B
:1018430019D2AF2200C0D0251810AF08F518500CDC
:1018530005198008F51850020519D2AFD0D02225FA
:1018630018F58210AF08F518400C15198008F51803
:1018730040021519D2AF851983222518F582E43564
:1018830019F583222518F8E43519F9222518FAE405
:101893003519FB222518FCE43519FD22E4732518BC
:1018A300C582C0E0E51934FFC583C0E0E518C395E0
:1018B3008224F810AF0885831985821880088583F0
:1018C30019858218D2AFCEF0A3E520F0A37808E6FD
:1018D30008F0A3DEFAEFF0A3E58124FAF8E608F0B6
:1018E300A3E608F0A3E608F0A30808E608F0A3E6D9
:1018F30008F0A315811581D0E0FED0E0F81581151D
:10190300811581E8C0E0EEC0E0222518C582C0E061
:10191300E51934FFC583C0E0E518C3958224F910A7
:10192300AF088583198582188008858319858218F5
:10193300D2AFCEF0A3E520F0A37808E608F0A3DE4B
:10194300FAEFF0A3E58124FBF8E608F0A3E608F03C
:10195300A30808E608F0A3E608F0A315811581D0D3
:10196300E0FED0E0F815811581E8C0E0EEC0E0228A
:10197300851983851882E0A3FEE0A3F5207808E0AB
:10198300A3F608DFFAE0A3FFE0A3C0E0E0A3C0E012
:10199300E0A3C0E0E0A3C0E0E0A3C0E010AF08858F
:1019A30082188583198008858218858319D2AFD060
:1019B30083D08202011F851983851882E0A3FEE08C
:1019C300A3F5207808E0A3F608DFFAE0A3FFE0A37D
:1019D300C0E0E0A3C0E0E0A3C0E0E0A3C0E010AF3C
:1019E300088582188583198008858218858319D212
:1019F300AFD083D08222C0D02518C582C0E0E519BC
:101A030034FFC583C0E0E518C3958224F310AF0803
:101A13008583198582188008858319858218D2AF3A
:101A2300C8F0A3E9F0A3EAF0A3EBF0A37908E70970
:101A3300F0A3D8FAECF0A3EDF0A3EEF0A3EFF0A33C
:101A4300D0E0F0A3D0E0F0A3D0E0F0A3E520F0A332
:101A5300E5F0F0A322851983851882E0C0E0A3E0B6
:101A6300F9A3E0FAA3E0FBA37808E0F608A3DFFA02
:101A7300E0FCA3E0FDA3E0FEA3E0FFA3E0C0E0A33E
:101A8300E0C0E0A3E0F5D0A3E0F520A3E0A3F5F0E8
:101A930010AF08858319858218800885831985828C
:101AA30018D2AFD082D083D0E0F8D0E03274048073
:101AB30006740280027401C0E0F404121862D0E0DC
:101AC300121737227404800474028000CCC0E0ED46
:101AD300C0E0E518C39CCCAD1950011D10AF068CB6
:101AE300188D1980068C188D19D2AF121744D0E0C7
:101AF300FDD0E0FC22D083D082E9C0E0E493A3C30D
:101B030086F0C5F095F0F908E493A386F0C5F09547
:101B1300F0700BE493A3C3994005E9048002A3E4A6
:101B230075F002A42582F582E5F03583F583D0E0D4
:101B3300F9E493A3C0E0E493C0E022D083D082EC25
:101B4300C0E0EDC0E0E493A3FCE493A3FDED4C609F
:101B53000D121B8AEC24FFFCED34FFFD80EFE493B0
:101B6300A3FCE493A3FDED4C600D121BC9EC24FF11
:101B7300FCED34FFFD80EFD0E0FDD0E0FCE493A367
:101B8300C0E0E493C0E022C0E0C3E493960874018C
:101B9300939618400FE493667008087401936618CF
:101BA30070007019A3A3C3E4939608740193961865
:101BB300A3A3400DD0E0D0E0D0E0021B7AA3A3A3FF
:101BC300A3A3A3D0E022C0E0C0F088F0E493667042
:101BD300080874019366187000A8F0A3A3700BD0D3
:101BE300F0D0E0D0E0D0E0021B7AA3A3D0F0D0E0A5
:101BF3002274F512190DEAFEEBFFEE2434F8EF34EC
:101C030000F988088909EE2435F582EF3400F5835D
:101C1300E0F8EE2437F582EF3400F583E0F50AECC3
:101C2300850AF0A4FCAAF0850AF0EDA42AFDE82CAD
:101C3300F8E43DF97A257B001217A6EA8508828528
:101C43000983F0F8740758F97401B900028004C3DA
:101C530033D9FCFAE8131313541FF8EE28F8EF34C2
:101C630000F9E8245DF582E93400F583E05A600861
:101C7300EE2434F582EF802CEE2434F582EF340029
:101C8300F583E0C0E0EE2436F582EF3400F583E01F
:101C9300F5F0D0E084A8F0EE28F8EF3400F9E8245A
:101CA30038F582E93400F583E0F97F040219B97449
:101CB300F512190DEAFEEBFFEE2434F582EF340042
:101CC300F583E0C0E0EE2435F582EF3400F583D0F0
:101CD300E0F08E828F83A3A3A3A3A3A3A3C082C098
:101CE300838E828F83A3A3A3A3A3E0F8A3E0F9D0F9
:101CF30083D082E0C398F508A3E099F509EE247F29
:101D0300F582EF3400F583E064017069EE2480F519
:101D130082EF3400F583E0F8A3E0F98E828F83A38A
:101D2300A3A3A3A3A3A3E0FCA3E0FD8E828F83A3BD
:101D3300A3A3A3A3E0FAA3E0FBC3EA9CEB9D50108B
:101D4300C3EC98ED99402EC3EA98EB995027800E87
:101D5300C3EA98EB994007C3EC98ED9940177CDCF4
:101D63007D04EEFAEFFB120C03EE247FF582EF34D1
:101D730000F583E4F0EE2434F8EF3400F9E8FCE9ED
:101D8300FDEE2435F582EF3400F583E0F8EE2437D9
:101D9300F582EF3400F583E0F50AE508850AF0A43F
:101DA300F508AAF0850AF0E509A42AF509E825084B
:101DB300F8E43509F97A257B001217A6EA8C828D9F
:101DC30083F0F8740758F97401B900028004C3332F
:101DD300D9FCFAE8131313541FF8EE28F8EF340074
:101DE300F9E8245DF582E93400F583E05A6008EEF2
:101DF3002434F582EF802CEE2434F582EF3400F5A1
:101E030083E0C0E0EE2436F582EF3400F583E0F59D
:101E1300F0D0E084A8F0EE28F8EF3400F9E8243895
:101E2300F582E93400F583E0F9122709021CADC0FD
:101E330082C083851882851983E0F8A3E0F9C3EA99
:101E43009CEB9D5010C3EC98ED99401BC3EA98EBB3
:101E5300995014800EC3EA98EB994007C3EC98EDB0
:101E6300994004790180027900D083D08222EAC3A9
:101E73009CFAEB9DFB2274EF12190D9003A2E06410
:101E8300086005E06407702A9061C8E0602490034D
:101E9300D0E0F4601DE0F875F003A4C8AAF02AF9B5
:101EA30074D228FE740339FF8E828F83A3A3A3E029
:101EB3007003021FA9906060E0C0E0EE2468F58221
:101EC300EF3400F583D0E0F0750C45750D0575080A
:101ED30000750900E5D914F50AE5D95403F50E6038
:101EE300177403650E605CE50A6010EE2467F582E3
:101EF300EF3400F583E07003021F8E900540E06429
:101F030001602AEE2482F582EF3400F583E0600459
:101F1300780480027800850A08E508C398FA95E0FA
:101F2300FB120AD78A088B09EA45097005120DF5D9
:101F33008074EE2482F582EF3400F583E070048A26
:101F43000C8B0DE50A6012850C82850D83F50BE57C
:101F5300D9F0A3150BE50B70F6EE2482F582EF346E
:101F630000F583E0604474FC250AF50A780C121A24
:101F7300B4AC0AA90EEEFAEFFB120C9F740212180E
:101F830047E97026AA08AB091213AD793D8E828FFB
:101F930083A3A3A3A3E0FA7B001209ABEEFAEFFB42
:101FA300120C1B120CB1790080747403650E605619
:101FB300850A107511007810121AB4AC0CAD0DAA75
:101FC30008AB09120C7B7402121847EE2468F582E1
:101FD300EF3400F583E064807004747F8001E0F5E2
:101FE3000C780C121AB8E50EF50C780C121AB8A975
:101FF3000AAC08AD099003D0E0FA7B0012096F74B4
:102003000212184780139003A2E06408600BAC0C23
:10201300AD0DEEFAEFFB120D0B120E0179017F0AE3
:102023000219B974F512190D74FC121831EAFEEB9A
:10203300FF8908A2AFE433F509C2AF806AEE2463D7
:10204300F8EF3400F97A007B00A2AFE433F50AC25B
:10205300AF88828983E0FCA3E0FDEC4D603A88827F
:102063008983E0FAA3E0FB8A828B83E0FCA3E0FD93
:1020730088828983ECF0A3EDF08A828B83E4F0A35A
:10208300F088828983E0FCA3E0FDEC4D700A88822E
:102093008983A3A3E4F0A3F0E50AA2E092AF1213AD
:1020A300AD9004E3E004F0EE2463F582EF3400F531
:1020B30083E0F8A3E0F9E849603DEE2463F582EF9D
:1020C3003400F583E02402FAA3E03400FBEA24029F
:1020D300F50AEB3400F50B780A121AB48A828B8363
:1020E300E0FCA3E0F9EEFAEFFB120C3F74021218C6
:1020F30047E970030220409004E3E060639004E446
:10210300E0F89004E3E0C398500C74026508705043
:102113009004E5E0604A8E828F83A3A3A3A3E085A6
:102123001882851983F0A3E4F09004E3E0F87402C5
:1021330012187DE8F0A3E4F09004E3E0F89004E2E1
:10214300E028F0740212187DAC82AD838518828575
:102153001983AA82AB83790112097B9004E3E4F02B
:10216300E509A2E092AF7404121847021CAD000007
:10217300008521878522C622C0E0C0D0E8C0E0E9FF
:10218300C0E0EAC0E0EBC0E0ECC0E0EDC0E0EEC0D0
:10219300E0C008C009C00AC00BC082C083C0F0A25F
:1021A300AFE433FEC2AF759B00906182E0A2E050C2
:1021B30012E591A2E0500C7591FE74016521700344
:1021C300121E79E0A2E55051E591A2E5504B7591BD
:1021D300DF9003A2E064076005E0640870237401E4
:1021E3006521703579019003D0E0FA75F003A4CA34
:1021F300A8F028FB74D22AFA74033BFB1220268032
:1022030018E0640D70139003C4E004F064287002B6
:10221300E4F07A00E0F9120E07906182E0A2E64052
:10222300030222C2E591A2E640030222C27591BFD6
:102233009003A2E064057008120D35120D4180036E
:10224300120D3B752100120D95E99003A3F079005F
:10225300120D89120B797A017B009003A1E0F91228
:102263001071907803E064427055900544E014F0D7
:10227300704DC2AF12227A00782AD0E0F618D0E06F
:10228300F6E59F540770057509FF800375097FC440
:10229300C0E07829E6F50808E65509F509740B78D6
:1022A3000812180FD0E02508F8906270E0A2E7400A
:1022B300F8E8C333906272F0906270E0D2E0F0907D
:1022C3006181E0A2E35009E5E9A2E3500375E9F770
:1022D300A3E0A2E75009E591A2E7500375917FEED1
:1022E300A2E092AFD0F0D083D082D00BD00AD00935
:1022F300D008D0E0FED0E0FDD0E0FCD0E0FBD0E0A1
:10230300FAD0E0F9D0E0F8D0D0D0E032C0E0C0D0CD
:10231300C082C083906183E0A2E05009E5BFA2E0E0
:10232300500375BFFEE0A2E15009E5BFA2E15003EF
:1023330075BFFDE0A2E25009E5BFA2E2500375BFFD
:10234300FBE0A2E35009E5BFA2E3500375BFF7E04A
:10235300A2E45009E5BFA2E4500375BFEFE0A2E594
:102363005009E5BFA2E5500375BFDFE0A2E65009BF
:10237300E5BFA2E6500375BFBFD083D0828088C07B
:10238300E0C0D0E8C0E0E9C0E0EAC0E0EBC0E0ECC8
:10239300C0E0EDC0E0C0F0E5A7A2E6500FE5A1A2C2
:1023A300E6500953A7BF75A1BF1223E7E5A7A2E52E
:1023B300500CE5A1A2E5500653A7DF75A1DFE5A701
:1023C300A2E15009E5A1A2E1500375A1FDE5A7A291
:1023D300E2500CE5A1A2E2500653A7FB75A1FBD086
:1023E300F00222F874F812190D7521019003A2E08E
:1023F30064067015120CCF8A828B83A3A3A3A3A3B5
:10240300A3E0FAA3E0FB120D23A2AFE433FED2AFA5
:102413009003A8E0640170187A207B009003A1E088
:10242300F91210EF7A207B009003A1E0F9121077E4
:10243300906182E0D2E6F0900541E0602185C622FA
:1024430080169003A7E064017008E5C654F84405BC
:10245300F5C653BEFC1221747401652160E4EEA23B
:10246300E092AF7F010219B9008E238F2485822861
:10247300858327851882851983E0CEA3E0CF85283D
:1024830082852783EBC9EAC8EDCBECCA75F010C38C
:10249300E833C8E933C9EA33CAEB33CBC3EA9EF561
:1024A30026EB9FF525B35004AB25AA26EC33CCEDE0
:1024B30033CDD5F0DAAE23AF242274ED12190D8A91
:1024C300088B098C0A8D0B741312187D780C121665
:1024D300E97808790C1214D87510017511C87512B2
:1024E3000075130050127808790C12168878107949
:1024F300081214D850168010780C790812168878B0
:1025030010790C1214D840047901800279007F0CF1
:102513000219B974ED12190D8A088B098C0A8D0BF7
:10252300741312187D780C1216E9780C79081214BA
:10253300D840117808790C121688AA08AB09AC0A9E
:10254300AD0B802275100075110075120075130113
:102553007810790C1216887810790812164FAA1081
:10256300AB11AC12AD1380A68A828B837508FF75FD
:1025730009FF750AFF750B0078081216D67F04024F
:1025830019B974F512190D8C828D8378081216E926
:102593008A828B83780812169CEA2404F8EB3400B1
:1025A300F98C828D83A3A3A3A3E0FCA3E0FD88821F
:1025B3008983C3E09CF0A3E09DF088828983C3E014
:1025C3009420A3E0944E40268A828B837508FF757E
:1025D30009FF750AFF750BFF78081216758A828B3F
:1025E30083A3A3A3A3E02420F0A3E0344EF00225A9
:1025F3006B74F512190DE9FE9004F7E0FAA3E0FB02
:10260300EEC333F8E433F9742D28F582748339F576
:1026130083E02AF508A3E03BF5097808121AB47A97
:10262300407B427C0F7D0012246C74021218478A8F
:10263300088B098C0A8D0B74107808121617AA08D8
:10264300AB097F040219B974F112190D8A0C8B0DB1
:102653008C0E8D0F740F12187DE0FAA3E0FB74113A
:1026630012187DE0F508A3E0F5097808121AB4EA18
:102673002401F508EB3400F509E4F50AF50B780CB1
:102683007908121517750871750902780C79081203
:102693001517AA0CAB0DAC0EAD0F12246C740212FD
:1026A30018478B09EA450960047A0180027A00EC35
:1026B3002AFCED3400FD741312187DE0F8A3E0F951
:1026C300E8FEE9FFECF8EDF97A717B021217A688B0
:1026D3000889098E828F8378081216F8ECF8EDF9D1
:1026E3007A717B021217A68A088B0974057808127F
:1026F300181E8E828F83A3A3A3A3E508F0A3E50985
:10270300F07F080219B9C082C083E9906000F0D05D
:1027130083D08222C2AF02000022C0E074F21219F9
:10272300F9A2AFE433FED2AFE589A2E1500312125E
:102733009F758900C2C5EEA2E092AF7F01021A58CD
:10274300C0E074F21219F9A2AFE433FED2AFE58B05
:10275300A2E0500312129F758B00C2E880D8C0E03C
:10276300C0D0E8C0E0E9C0E0E5A8D2AFC2C7A2E7A5
:10277300A2E792AFD0E0F9D0E0F8D0D0D0E032C0F9
:10278300E0C0D0E8C0E0E9C0E0EAC0E0C082C083B6
:10279300A2AFE433FAD2AFE5F9C0E0900910E0F854
:1027A300748F28F582E43408F583D0E0F090090FA4
:1027B300E0F8A3E0687006E595900912F09009101F
:1027C300E004F0C394804002E4F0A3E4F0EAA2E062
:1027D30092AFD083D082D0E0FAD0E0F9D0E0F8D045
:1027E300D0D0E032C0E0C0D0E8C0E0E9C0E0C0082B
:1027F300C009C082C083A2AFE433F9D2AF9009937A
:10280300E0F8A3E0687008539AF7A374018025C227
:10281300EA900993E0F50874012508F0741325087C
:10282300F582E43409F583E0F5F9900993E0C39464
:10283300804002E4F0E9A2E092AFD083D082D009D5
:04284300D0088095A4
:10284800FFFFFFFFFFFFFFFFC082C083E9900C235B
:10285800F0022A7A74F71218A1E99002E1F07C19C3
:102868007D037AFF7BFF1208CD9002E274FFF0A38C
:10287800F0A3E4F0A3F0790512085B9002E1E0F917
:1028880012077D7AE57B08120A897F0102197374A1
:10289800F41218A18A088B09EB548060309002E189
:1028A800E0F91210598A0A8B0BAE0AAF0BEE4F6093
:1028B800138E828F83E064B0700312086DEEFAEF16
:1028C800FB121047AA08E5096480FB80047A007BA4
:1028D80000022A4974F21218A174FC121831EAFE97
:1028E800EBFFEE4F6038740212187DEEF0A3EF1282
:1028F8002CAEECF0A3ED122CAEAA82AB83120777B4
:10290800E9F5087073741212187D123862E50A45E9
:102918000B60658E828F8312298AEE4F70057508C9
:102928000280557A067B001210AD8A0C8B0DA80C1C
:10293800A90DE8497005750813803D88828983E4EC
:10294800122994A3A3EEF0A3EF123CFBE50AF0A32F
:10295800E50BF09002E7122A1C9002E76017E0FCF2
:10296800A3E08003EAFCEBFD8C828D83122A1C70A5
:10297800F38C828D83123787A908740412184702D2
:102988003EFDA3A3A3A3E0FEA3E0FF22F0A3F088EB
:102998008289832274F21218A1890AE975F017A4B2
:1029A800FEAFF09002E6E4F09002E4122A1C600AFE
:1029B8001210B39002E4E4F0A3F0EEFAEFFB121069
:1029C800AD8A088B09EA4509602FEEFCEFFD790016
:1029D8001210359002E4E508F0A3E509F07B0080C9
:1029E80008122A06E4F0A3F00BEBC3950A40F2E5BF
:1029F8000A9002E6F0790080027913023EFDEB7539
:102A0800F017A4F8A9F09002E4E028FAA3E0398AC4
:102A180082F5832212351DEA4B2274F41218A1792B
:102A280000EAA2E0501B7508827509837808121A1B
:102A3800B47C047D007A257B0C12085574021218A8
:102A4800477F04021973C082C0839002E7122A816B
:102A5800601C88828983A3A3E06A7003A3E06B8863
:102A680082898370E8A3A3A3A312351980047A008E
:102A78007B00D083D08202011F123FD0E849227424
:102A8800EE1218A174FC121831EAFEEBFF851882C9
:102A9800851983E4F0A3F0EE240212376BEE2405C7
:102AA800122C9CEE2404F50EEF123081E024FE6017
:102AB8003924FC604624FE605224FE605E24FE70C9
:102AC80003022BA124FE7003022C1924FE700302BA
:102AD8002C2824FE7003022C3724FC7003022C4699
:102AE80024FE7003022C55022C929003007417F0F8
:102AF800A3E4122CB61204F5022C928518828519CB
:102B080083AC82AD83120873022C62851882851902
:102B180083AC82AD83120879022C62850C08850D7E
:102B280009740212187DAC82AD83850882850983F9
:102B380012351912079B8A0C8B0DAC0CAD0DEC4DA0
:102B48006042E4F50CF50D780C121AB4750C00759A
:102B58000D03780C121AB4750C01750D03780C125C
:102B68001AB4740812187D121ACB7916123513127A
:102B780008B57408121847E9F50C700B12350F12D6
:102B8800050D800F750C01850882850983122CA418
:102B9800123787850C08022C65740212187DAC82E6
:102BA800AD83850C82850D8312351912079B8A1017
:102BB8008B11AC10AD11EC4D6043850C82850D83F3
:102BC800A3A3121ACB7510007511037810121AB44A
:102BD8007510017511037810121AB4740812187D53
:102BE800121ACB79161235131208B5740812184741
:102BF800E9F509700B12350F120513800F750901DD
:102C0800850C82850D83122CA412378785090880CC
:102C18004C851882851983AC82AD8312087F803A6F
:102C2800851882851983AC82AD83120885802B852F
:102C38001882851983AC82AD8312088B801C851895
:102C480082851983AC82AD83120891800D85188224
:102C5800851983AC82AD83120897E9F508E5086009
:102C6800298E828F83A3E06414601F850E82850FEE
:102C780083E0900300122CAE123FCC900301123770
:102C880087E508A3122CB61204EFEEFAEFFB120840
:102C980019023673F50CEF3400F50D22123FD0857A
:102CA800188285198322F085188285198322F07C81
:102CB800007D03850A82850B8312351D2274EE126E
:102CC80018A174FC1218318A0A8B0B8C0E8D0FEA2E
:102CD8002405F508EB3400F5097C157D0079007AA8
:102CE800007B03121035E5082402F50CE509122CC7
:102CF8009F85188285198385821085831178101223
:102D08001AB4850882850983A3A3A3A31231C91223
:102D18001AB4E5082405F510E5093400F511781012
:102D2800121AB4850C82850D831235231207957407
:102D3800061218478A108B11AE10AF11E50A24024B
:102D4800F50AE50B12376EEE4F7003022E8B8017D3
:102D5800740212187D12351988828983EAF0A3EB70
:102D6800F0900300E004F0900300E0C394054003F2
:102D7800022E8BE4F510F5117810121AB47510E9CB
:102D88007511027810121AB47510EA7511027810CC
:102D9800121AB4740612187D121ACB7910EEFCEFD1
:102DA800FD1235131208B57408121847E9705E85CC
:102DB8000882850983A3A3A3A3A3A3A3E0F8900291
:102DC800E9E06870481231C9121AB47CEA7D02E55C
:102DD800082408FAE5093400FB12102F74021218AF
:102DE80047E960298E828F83A3A3A3A31235199084
:102DF8000300E0F5107402781012181E74012510F3
:102E0800F58274033511F583EAF0A3EBF07402122E
:102E1800187D8582108583117810121AB4740212F5
:102E2800187D121ACB850C82850D83123FE112079B
:102E3800A174041218478A108B11AE10AF119003B9
:102E480000E0F5107511007402781012181E740055
:102E58002510F874033511F988828983A3122A1C76
:102E68007003022D4FE82403F8E93400F9EE4F60AF
:102E780003022D588882898374FFF0A3F090030021
:102E8800E004F0900300E0600A12350F12050179A2
:102E980000800B85088285098312377E790A0236FD
:102EA8007374EA1218A174FE1218318C128D13EA89
:102EB8002405F50CEB123FEB12298E7508007509F5
:102EC80000EA2402F510EB3400F511851882851903
:102ED8008385820A85830B780A121AB4850C828549
:102EE8000D83A3A3A3A312308B121AB4E50C2405F7
:102EF800F50AE50D12376E780A121AB4850C828528
:102F08000D83123FDF12079574061218478A0A8B41
:102F18000BEA450B700302303CEA2404F50EEB1271
:102F2800308112298E8A828B83A3A3A3E0F98510AE
:102F380082851183123519120783E9F509600302A6
:102F4800303CE4F514F5157814121AB47514E975C3
:102F580015027814121AB47514EA75150278141249
:102F68001AB4740612187D121ACB7913AC0AAD0B79
:102F78008510828511831235191208B57408121844
:102F880047E9F509600302303C9002E9E0F8E508FA
:102F98007009E02402900301F08017900301E0FC1F
:102FA800E82402FAE43400FBEA6C7001EB600302E7
:102FB8003040850882AA821231C094141231B85068
:102FC80073850E82850F83E0C0E074022A12307880
:102FD800D0E0F00508850E82850F83A3E0C0E08568
:102FE800080A7402250A123078D0E0F00508900229
:102FF800E912308B121AB47CEA7D0285080A740241
:10300800250AFA74033400FB12101D7402121847C3
:103018009002E9E02508F50874FF6E700374FF6FED
:103028006012EE24010EEF3400FFE508C39414503B
:1030380003022ED3E508601312340485108285112B
:103048008312351912050779008014E50970037594
:10305800090A851282851383EEF0A3EFF0A909749B
:10306800021218477F0E02197385080C7402250C8A
:10307800F58274033400F583223400F50F850E823F
:10308800F58322123D0E2274EE1218A174FE121856
:10309800318C0E8D0FEA2405F50CEB122C9F750B65
:1030A80000900300E4F0F50AEA2402F508EB340086
:1030B800F5098049900300E0FA9002E9E0F812313E
:1030C800C094171231B8400D900300E0F87416C38D
:1030D800989002E9F01231C9121AB47CEA7D0274A0
:1030E800012AFA74033400FB12101D7402121847E7
:1030F8009002E9E0F8900300E028F0050AE50C24C6
:1031080016F582E50D12307CE0F8E50AC398400315
:103118000231A1900300E0C39416507DE50AC33341
:10312800F8E433F9E50C28FEE50D39FF85188285AA
:103138001983AC82AD838E828F8312351912079B57
:103148008A108B11AC10AD11EC4D7005750B018018
:1031580043E4F510F5117810121AB47510E97511D9
:10316800027810121AB47510EA7511027810121A42
:10317800B4740612187D121ACB791685088285094F
:10318800831235191208B57408121847E9F50B703F
:10319800030230BC12377A80107C007D03850882D8
:1031A800850983123519120519A90B74020236759F
:1031B800E99400C365D03322EA28F8E43400F9E83A
:1031C80022E0F51075110078102274EA1218A17423
:1031D800FC1218318A0C8B0D8C128D13EA2405F51C
:1031E8000AEB12376E750800750900E50A2402F526
:1031F80010E50B3400F511740212187D85820E85D6
:10320800830F780E121AB4850A82850B83A3A3A3B1
:10321800A3123CBA121AB4E50A2405F50EE50B34DC
:1032280000F50F780E121AB48510828511831237B3
:103238007412351312079574061218478A0E8B0FED
:10324800AE0EAF0FE50C2402F50EE50D3400F50FB8
:1032580080408882898374FFF0050812307174FFFA
:10326800F005089002E9E0F50C750D00780C121ACB
:10327800B47CEA7D0285080C7402250CFA740334C8
:1032880000FB12101D74021218479002E9E025088D
:10329800F508EE4F60718E828F83A3A3A3E0F985B2
:1032A8000E82850F83123519120783E9F509EE247A
:1032B80004122C9CE97044E4F514F5157814121ADC
:1032C800B47514E97515027814121AB47514EA75F0
:1032D80015027814121AB4740812187D121ACB79D0
:1032E80011EEFCEFFD850E82850F83123519120849
:1032F800B57408121847E9F5096027850C82850D11
:10330800831233FA123787E50870030233E0123468
:1033180004850E82850F8312351912051F79000264
:1033280033F5850882AA82EA9002E97009E024044C
:10333800900301F08022E0F8900301E0F514E824FE
:1033480004FCE43400FDEC65147001ED70C012312A
:10335800C094121231B850B6850C82850D83E0C036
:10336800E074022A123078D0E0F00508850C8285D6
:103378000D83A3E0C0E0123071D0E01234168582CC
:103388000C85830D780C121AB4740412187D121A65
:10339800CB851082851183123FE11207A1740412B4
:1033A80018478A0C8B0DAE0CAF0D85080C740225DE
:1033B8000CF874033400F9EE4F700302325A851882
:1033C80082851983E088828983123416A3E0C0E0DD
:1033D800123071D0E0023268E509700375090A8578
:1033E8000A82850B831233FA123787A909740402FB
:1033F8003069123FD085128285138322900301E041
:10340800F5F0E50884900300F07C007D0322F005C8
:10341800088518828519832274EC1218A174FE128B
:1034280018318A088B098C0E8D0FEA2405FEEB34BF
:1034380000FF851882851983AC82AD838E828F83C5
:1034480012351912079B8A0A8B0BEE2418122C9C32
:10345800EA450B70030234EA12365C503285188252
:103468008519831235191208A98A108B11EA45119A
:10347800606B7912AC0AAD0B850882850983123519
:103488001985108285118312189FE9F50A7058E48E
:10349800F50AF50B780A121AB48E828F83A3A3E07B
:1034A800F50A780A121AB4EE240312376B780A1256
:1034B8001AB48E828F831235231208BB7406121831
:1034C80047E9F50A7021850C82850D83E0701F8518
:1034D80008828509831235191205258011750A0E8F
:1034E8008009750A018004E50A600312377A850CA1
:1034F80082850D83E0600479008002A90A740212B3
:1035080018477F0C0219737C007D03850A82850B9E
:103518008312351D22E0FAA3E0FB22E0FCA3E0FDC4
:1035280085088285098312351D2274EE1218A1744C
:10353800FE1218318A088B098C0C8D0DEA2405FEC1
:10354800EB3400FF750E00851882851983AC82ADB7
:10355800838E828F8312351912079B8A0A8B0BEA96
:10356800450B700302364812365C50358518828543
:1035780019831235191208A98A0E8B0FEA450F60B4
:103588005E7912AC0AAD0B8508828509831235195C
:10359800850E82850F8312189FE9F50E60030236A7
:1035A8004B850882850983123862AA0AFB12089D96
:1035B8008A108B11A810A911E849701E7AFF7BFFA9
:1035C80012089D8A108B11A810A911E849606C880F
:1035D800828983E50AF0A3E50BF0750A0080077578
:1035E8000E0E805F050A9002E6E0FAE50AC39A50DB
:1035F8004AE50A75F017A4FAABF088828983A3A379
:10360800E02AFAA3E03BFB8A828B83123774EC4DE5
:1036180070D2750A17750B00780A121AB4EEFCEF0F
:10362800FD12101D7402121847EEFCEFFD8508828A
:1036380085098312351912052B8014750E0980032C
:10364800750E01123FC8850C82850D83123787A934
:103658000E0231B3E5082402F508E5093400F5093E
:103668008A828B83A3A3A3E0A2E5227404121847DD
:103678007F0A02197374EC1218A18C108D11EA24B8
:1036880005F50CEB122C9F750F00EA2402F50AEBE6
:1036980012376E850A82F58312351912089D8A0839
:1036A8008B09EA45097003023760750E0080718541
:1036B8000C82850D83E06401704F8E828F83A3A3F3
:1036C800121ACB8E828F83A3A3A3A3E0F5127513DE
:1036D800007812121AB4EE2405F512EF3400F5132F
:1036E8007812121AB41235131208BB74061218474E
:1036F800E9F50F6014850C82850D83E4F0123FC84C
:103708008510828511831237877C177D007900EE3A
:10371800FAEFFB1210358E828F83E4F0A3F0050ECA
:103728009002E6E0F8E50EC398501EE50E75F01716
:10373800A4F8A9F0850882850983A3A3123FF5128E
:103748003774EC4D60030236B785088285098374A7
:10375800FFF0A3F0E50F7006123513120531A90F1B
:1037680002350AF50AEF3400F50B22A3E0FCA3E0CA
:10377800FD228E828F83123FD0850E82850F83E8CB
:10378800F0A3E9F022C082C0839002E2E06A7003ED
:10379800A3E06B70067AE27B0280047A007B000269
:1037A8002A7AC082C08378008C828D83E06A700395
:1037B800A3E06B7010E875F003A4F8A9F0EC28FA00
:1037C800ED39FB8015088C828D83A3A3A3E06A7072
:1037D80003A3E06B60DF7A007B00022A7A74F6129A
:1037E80018A11208678A828B83E582458370067A5E
:1037F800007B008007A3A3A3A3123519023E7974A6
:10380800F21218A1E9FE740E12187D1238627410B3
:1038180012187D123CDA8C828D83E064027036A324
:10382800123FD6F50CA3E0F9A80C74026870037473
:1038380029697021750C02750D00780C121AB4787C
:1038480008121AB4780A121AB4EEF91208DF7406CC
:1038580012184780027901023EFDE0F50AA3E0F55F
:103868000B2274E81218A174FB121831E98518822A
:10387800851983F08A168B17ECFEEDFF751000741E
:103888001D12187D123FCC741D12187D1237878EB9
:10389800828F83A3A3A3E0A2E4502D741D12187D88
:1038A8001235191208A98A828B83E5824583700331
:1038B800023CAB790AEEFCEFFDAA16AB1712189F73
:1038C800E9F5106003023CAE741F12187D123CDA51
:1038D800742112187D123862742312187DE0F50ED7
:1038E800A3E0F50F8E828F83E064026003023C59E7
:1038F800A3123FCC850882850983A385821285831C
:1039080013EE2406122C9C88828983E0FAA3E0F93E
:10391800EA2400F514E439F5157814121B3E010069
:10392800002801284E3907000228133A0328803955
:1039380000294A3B0129753B0229163B03294A3BCA
:103948000429F43B593CE50E450F6003023C5485BD
:103958000C82850D83123CCFFAE9FB8A828B83E0C7
:10396800850A82850B83123D05121AB48A828B83DD
:10397800A3E0FCA3E0023BDEE50E450F6003023C3A
:1039880054850A82850B837401F0123CE285088213
:10399800850983F07C007D008E828F83A3A3A3A377
:1039A800E02401FAA3E03400FB12079BEA4B6041D4
:1039B8008A828B83E02402F8850A82850B83E028BB
:1039C800F0EA2404F8EB3400F988828983E0851250
:1039D80082851383123D17123D05121AB48A828B11
:1039E80083123773E5082403FAE5093400FB023B28
:1039F800E3850A82850B83E02404F07C047D00794A
:103A080000AA12AB13121035023CAEE50E450F604A
:103A180003023C54123CE2FEA3E0FF850A82850BB8
:103A2800837404F0EE850882850983F0EF8512829D
:103A3800851383F0740312187DAC82AD83EEFAEF20
:103A4800FB12079B8A0C8B0DEA450D7003023AF7AF
:103A58008A828B83A3A312298A740112187D858216
:103A68000E85830F780E121AB4740512187D121A77
:103A7800CB7CFF7DFF1207A174041218478B0FEA55
:103A8800450F7033850C82850D83123CBA121AB427
:103A9800850C82850D83A3121ACB7C027D007A34B3
:103AA8007B841205CD7404121847E9700A74011258
:103AB800187D74FFF0A3F08E828F83E06402703962
:103AC800750C02750D00780C121AB48E828F831251
:103AD8003773E5082404FAE5093400FB12101D7455
:103AE80002121847850A82850B83E0240280097434
:103AF8000112187DEEF0A3EFF0740112187D123C4C
:103B0800CBF0740112187DA3123CC3023C4EE50EA3
:103B1800450F6003023C54850C82850D831237746F
:103B2800AA16AB171208D3850A82850B837402F094
:103B3800EA850882850983F0851282851383EB0262
:103B48003C51E50E450F6003023C54123CE2F8A3D9
:103B5800E0F9850A82850B837402F0E8850882857E
:103B68000983F0E9851282851383023C51850C8212
:103B7800850D83123519121017EAFC8C82A882C3AE
:103B8800950EE4950F405FE8650E7002E50F70042E
:103B98007C008022851882851983E0FAE50E2AFACE
:103BA800E50F3400FBC3EA98EB94005003E080056E
:103BB800E50ECCC39CFCEC850A82850B83F08C0A4D
:103BC800750B00780A121AB4850C82850D83E025DE
:103BD8000EFCA3E0350FFDAA08AB0912101D7402F4
:103BE800121847023CAE751007023CAEE50E450FB1
:103BF800705A850C82850D83123FCC850A82850B0D
:103C0800837407122996123CC3122996A3E08512E1
:103C180082851383F0E82402FAE93400FB8A828B58
:103C280083123CC3123CF2123CCBA3123CFB123C65
:103C3800D4F0E82405F8E93400F988828983123C35
:103C4800D4A3123D17A3A3A3A3F0805A75100B8029
:103C580055741D12187D1235191208678A828B83D4
:103C6800E5824583603D123FCC880C890DE8450DFF
:103C78006031780E121AB4780A121AB47808121A37
:103C8800B4740612187DE0F9EEFCEFFDAA16AB1726
:103C9800850C82850D8312189F7406121847E9F562
:103CA80010800375100EA91074051218477F1002B2
:103CB8001973E0F50E750F00780E22E085088285ED
:103CC800098322123D2122123FD0E822123D21A36E
:103CD800A322E0F508A3E0F50922850C82850D836F
:103CE800E0F8A3E0F5838882E022A3A3F08A828B20
:103CF80083A322F088828983A3A3A3A322F08A82C4
:103D08008B83123D0E22E0F50A750B00780A22F02B
:103D180088828983A3123D2122E085088285098350
:103D2800A3A32274EE1218A174FE1218318A0A8B0A
:103D38000BECFAEDFB741412187DE0F510A3E0F516
:103D480011741612187DE0FE741812187DE0F50E35
:103D5800A3E0F50F851882851983AC82AD8312071D
:103D68009B8A0C8B0DEA450D60498518828519835D
:103D78001235191208678A828B83E5824583602F82
:103D8800A3A3123CDAE50845096024780E121AB498
:103D98007810121AB4EEF9AC0CAD0DAA0AAB0B856B
:103DA800088285098312189F7404121847800679BF
:103DB8000E800279010231B374F61218A174FE1252
:103DC8001831740C12187D123CCF8518828519831E
:103DD800F0740112187DE9F0E4F508F50978081285
:103DE8001AB47508027808121AB4740412187D857A
:103DF80082088583097808121AB41208BB7406125F
:103E080018477402121847806874F71218A1EAFE5E
:103E1800EBFF89087C197D031208D3EA5402600B72
:103E2800A908EEFAEFFB12078F80027901022892A7
:103E380074F61218A174FF6A700374FF6B70168C05
:103E4800828D83123E7EE4F08C828D83A3A3A3121D
:103E58003E7EA380181208A38A088B09A808A9091E
:103E6800E849600D8882898374FF122994A3A3E42A
:103E7800F07F0202197374FFF0A3F08C828D83A384
:103E8800A32274F61218A11208A38A828B83E582F2
:103E980045836006A3A3E0FA80027A007B0080D104
:103EA80074F21218A18A088B09ECFEEDFF740E1249
:103EB800187DE0F50A1208A38A0C8B0DA80CA90D31
:103EC800E8497026EEFCEFFD7AFF7BFF1208A38A13
:103ED8000C8B0DA80CA90DE849700479118016887F
:103EE800828983E508F0A3E509F088828983A3A382
:103EF800E50AF079007F0602197374EE1218A1EA38
:103F0800FEEBFF8C088D09890C741412187D123F82
:103F1800CC741612187D123519750D00E849600326
:103F2800023FC07402650C6003023FBB7412121892
:103F38007D123FD6FCA3E0F9EC2400F50EE439F538
:103F48000FEAF4F8EBF4F9EC58F8E50F59F9E849F9
:103F5800705CE5082406F8ED3400F9880A890B88B6
:103F680082F583123FE11208D38A108B11E50E65A2
:103F7800107004E50F65116042780E121AB4850AB4
:103F880082850B83123FE11208D97402121847E99F
:103F9800F50D7027780E121AB4850882850983A357
:103FA800A3123FDF1208EB7402121847800D750D3B
:103FB800808008750D0D8003750D0BA90D023678EC
:103FC8008E828F83123FD022E0F8A3E0F922123FBD
:103FD800D088828983E022A3A3E0FCA3E0FDEEFA67
:103FE800EFFB223400F50D850C82F58322E028FED4
:103FF800A3E039FF8E828F832274F21218A1EAFEA1
:10400800EBFF890B7401650B600E7402650B706A17
:104018007901120AA7E97062EEFAEFFB12089D8A8D
:10402800088B09EA45096047750A00800B7C177DF3
:10403800007900121035050A9002E6E0F8E50AC397
:10404800985021E50A75F017A4F8A9F0850882852B
:104058000983A3A3E028FAA3E039FB8A828B8312A1
:104068002A8170C985088285098374FFF0A3F07CD2
:10407800197D03EEFAEFFB1208CD023EFD74F21231
:1040880018A18A088B09ECFEEDFF740E12187D1238
:104098003862900C23E0F4603D7A097B00121041ED
:1040A800EA4B60328A828B8374B1F0A3E4123CF449
:1040B800A3123CF2A3E508F0A3E5091240E1EEF0F3
:1040C800A3EF1240E1A3A3E50AF0A3E50BF0900CDF
:1040D80023E0F912104D023EFDF08A828B83A3A3E0
:1040E800A3A3A322C082C0839061907404F0A37438
:1040F80048F0A37402F09061807440F09061BC7441
:1041080003F09061877419F0906265741BF09062F7
:1041180049E0C3941390619C400A7409F09060666A
:1041280074018007740DF0906066E4F090619A74F1
:1041380033F0A37455F09061A0743AF090053FE015
:1041480064017009C2919003A6746780059003A664
:104158007461F090284EE493906186F0902848E4CA
:1041680093F46027E493540FF8906185E068601237
:10417800E5C654804449F5C6E59E547F644970F805
:10418800E8F053C680E59E547F70FA7905120DE970
:1041980002431AC082C083E5A8F853A87E906181C3
:1041A800E4F0A3F0A3F0C2BA539AFEC289759B004B
:1041B800C2C275E90075910075BF0075A91175B97E
:1041C80005906181F0A374C0F0A3E4F0D2BA439AD9
:1041D8000174805842A802431AC082C08374F8123E
:1041E80018319003A4E0F8A3E0F9E849700302430A
:1041F8000F9003A4E054406023790885188285193C
:1042080083AA82AB83120C5D851882851983AA82E2
:10421800AB831209579003A4E054BFF0E0548060C8
:1042280010790C7A657B05120C5D9003A4E0547F2D
:10423800F0E0A2E0503190619A7433F0A37455F025
:104248009061A0743AF090053FE064017009C29152
:104258009003A6746780059003A67461F012095D47
:104268009003A4E054FEF0E05402603190619A7427
:104278003FF0A3745AF09061A0747FF090053FE07E
:1042880064017009D2919003A6747180059003A609
:10429800746AF012095D9003A4E054FDF0E0540440
:1042A800601390284CE493906186F01209639003A0
:1042B800A4E054FBF0E05408601390284DE4939078
:1042C8006186F01209639003A4E054F7F0E05410FB
:1042D800601390284EE493906186F012096390036E
:1042E800A4E054EFF0E05420600A1209639003A49C
:1042F800E054DFF0A3E05401600D120B8512096948
:104308009003A5E054FEF0740812184702431AF00F
:10431800A3F0D083D08202011F74EC1218A174F4A8
:10432800121831851882851983AC82AD8375838311
:104338007582CA740412174490284C93F4600302DF
:1043480044AD907808E0C39402500302448D74048D
:1043580012187DAC82AD83758383758266740812EA
:1043680017448518828519838582128583137404FE
:1043780012187DAC82AD83750EFF750FFF7FFF7E2F
:1043880000750C48750D78801574086E700302442A
:104398002174096E7003024421740A6E607B850CD7
:1043A80082850D8378081216E98C828D83A909E528
:1043B8000AC9F8881074187808121617E510450805
:1043C800F8C3E098A3E099850C82850D83780812DC
:1043D80016E940188C828D8374187808121617E530
:1043E800104508F8E0C398F8A3E0801C7418780812
:1043F800121617E5104508FAE9FB8C828D83E0F860
:10440800A3E0F9EAC398F8EB99F9C3E8950EE995A2
:104418000F5006880E890FEEFF0EE50C2404F50CEC
:10442800E50D3400F50DEEC3941350030243917467
:10443800FF650E700474FF650F60238F087402789F
:104448000812181E74482508F58274783509F58312
:1044580078081216E9851282851383E508F0EC24A2
:1044680002FCED3400FD851282851383A385821238
:10447800858313740C12187DE5826C7003E5836DD7
:10448800600302437F7508017509007808121AB4A1
:10449800740212187DAC82AD837A137B0A12127BE8
:1044A8007402121847740C1218477F0C021973C053
:1044B80082C0839061AE7468F0A3746AF09062451C
:1044C80074FBF0A304F053F4FD43FE0290053F741F
:1044D80001F09061A0E0643A90619A70237433F01F
:1044E800A37455F09061A0743AF0740164017009E6
:1044F800C2919003A6746780289003A674618021F6
:10450800743FF0A3745AF09061A0747FF074016452
:10451800017009D2919003A6747180059003A67466
:104528006A0243197F08021973C082C0839004F19C
:10453800E06401700A9004F6E06004790C80027966
:104548000002431AC082C08375E1F19004F4E06070
:104558005B14600914605F14605714705E120B9747
:104568009004EAE0F97AEB7B04120D6B7AD67BBEF5
:104578007C897D8E120DA17A557B557C557D001264
:104588000D779004F5E0F9120D837901120DDD9095
:1045980004E8E0F8A3E0C82416F582E83400F583BF
:1045A80074AFF0A3740BF0790002431A120B9D80CC
:1045B800AF120BA380AA120BA980A5791280EA7406
:1045C800F01218A175D90D9004D5E0A2E0E43313D8
:1045D80013F89004EAE0C4333354C0484401F5D9D1
:1045E80078E8790488828983A3A3A3E0F5D988822F
:1045F8008983A3A882A983E864EE7003E964047040
:10460800E378D5790488828983A3E0F5D9888289FB
:1046180083A3A882A983E864DB7003E9640470E5D6
:1046280075E1959004D5E0F97AD67B04120D719066
:104638000C457449F0A3740BF0A374A5F0A3740C93
:10464800F0A374A5F0A3740CF0A374A5F0A3740CE4
:10465800F0A3744FF0A3740BF0A374A5F0A3740C2B
:10466800F0A37467F0A3740BF0900C5374A5F0A337
:10467800740CF0A374A5F0A3740CF0A374A5F0A3B4
:10468800740CF0A374A5F0A3740CF0A374A5F0A3A4
:10469800740CF0A374A5F0A3740CF09004F4E06417
:1046A800019004E87012E0F8A3E0F5838882A3A3E0
:1046B8007508007509088010E0F8A3E0F583888282
:1046C800A3A3750804750900750A00750B0078081E
:1046D800121662750CFF750DFF750EFF750F0078C9
:1046E80008790C1216B09004E8E0F8A3E0C8240E8C
:1046F800F582E83400F58378081216F89004E8E0AB
:10470800F8A3E0C82414F582E83400F5837413F0A4
:104718009003A27402F002452C74F71218A19004B9
:10472800FAE02407F5D99004EAE0C4333354C0F51D
:10473800D978E8790488828983A3A3A3E0F5D98886
:10474800828983A3A882A983E864EE7003E96404DC
:1047580070E39004FAE0601F78E87904FAE824131B
:10476800F582E93400F583E0F5D988828983A3A826
:1047780082A9831AEA70E690051AE02407F5D99011
:1047880004EAE0C4333354C04404F5D978E8790422
:1047980088828983A3A3A3E0F5D988828983A3A803
:1047A80082A983E864EE7003E9640470E390051A53
:1047B800E0601F78E87904FAE82433F582E93400E8
:1047C800F583E0F5D988828983A3A882A9831AEAA8
:1047D80070E675E195900C457455F0A3740BF0A341
:1047E80074A5F0A3740CF0A374A5F0A3740CF0A343
:1047F80074A5F0A3740CF0A3744FF0A3740BF0A38A
:1048080074A5F0A3740CF0A37467F0A3740BF09074
:104818000C5374A5F0A3740CF0A374A5F0A3740C46
:10482800F0A374A5F0A3740CF0A374A5F0A3740C02
:10483800F0A374A5F0A3740CF0A374A5F0A3740CF2
:10484800F09004E8E0F8A3E0C8240EF582E834000C
:10485800F58374FFF0A3F0A3F0A3F09004E8E0F868
:10486800A3E0C82414F582E83400F5837412F090AC
:1048780003A27401F0FF02197374F71218A19004CF
:10488800FAE02407F5D99004EAE0C4333354C0446D
:1048980002F5D978E8790488828983A3A3A3E0F58F
:1048A800D988828983A3A882A983E864EE7003E982
:1048B800640470E39004FAE0601F78E87904FAE889
:1048C8002413F582E93400F583E0F5D988828983D9
:1048D800A3A882A9831AEA70E675E195900C45743D
:1048E80061F0A3740BF0A37461F0A3740BF0A374CC
:1048F80061F0A3740BF0A37461F0A3740BF0A374BC
:1049080061F0A3740BF0A37461F0A3740BF0A374AB
:1049180067F0A3740BF0900C5374A5F0A3740CF01B
:10492800A374A5F0A3740CF0A374A5F0A3740CF001
:10493800A374A5F0A3740CF0A374A5F0A3740CF0F1
:10494800A374A5F0A3740CF09004E8E0F8A3E0C801
:10495800240EF582E83400F58374FFF0A3F0A3F089
:10496800A3F09004E8E0F8A3E0C82414F582E83442
:1049780000F5837414F09003A27404F0024C487498
:10498800F71218A19004FAE02407F5D99004EAE098
:10499800C4333354C04406F5D978E8790488828949
:1049A80083A3A3A3E0F5D988828983A3A882A983D6
:1049B800E864EE7003E9640470E39004FAE0601FB1
:1049C80078E87904FAE82413F582E93400F583E0FD
:1049D800F5D988828983A3A882A9831AEA70E69008
:1049E800051AE02407F5D99004EAE0C4333354C02B
:1049F8004404F5D978E8790488828983A3A3A3E0DD
:104A0800F5D988828983A3A882A983E864EE700314
:104A1800E9640470E390051AE0601F78E87904FA05
:104A2800E82433F582E93400F583E0F5D9888289F2
:104A380083A3A882A9831AEA70E675E195900C45CC
:104A4800745BF0A3740BF0A374A5F0A3740CF0A32B
:104A580074A5F0A3740CF0A374A5F0A3740CF0A3D0
:104A680074A5F0A3740CF0A374A5F0A3740CF0A3C0
:104A78007467F0A3740BF0900C5374A5F0A3740C36
:104A8800F0A374A5F0A3740CF0A374A5F0A3740CA0
:104A9800F0A374A5F0A3740CF0A374A5F0A3740C90
:104AA800F0A374A5F0A3740CF09004E8E0F8A3E078
:104AB800C8240EF582E83400F58374FFF0A3F0A350
:104AC800F0A3F09004E8E0F8A3E0C82414F582E825
:104AD8003400F5837415F09003A27403F0024C4877
:104AE800C082C0839004E8E0F8A3E0C82406F582F9
:104AF800E83400F583E402431774F71218A1900311
:104B0800D0E0F875F003A4C8AAF02AF974D228F8FE
:104B1800740339F9E82405FAE93400FB8A828B83A7
:104B2800E0FCA3E0FD88828983A3A3A3A3A3A3A396
:104B3800A3A3ECF0A3EDF088828983A3A3A3A3A386
:104B4800A3A3E024FFF8A3E034FFF98A828B83E86B
:104B5800F0A3E9F0024C4874F71218A1EAFEEBFF43
:104B68009061D0E06003024C3C75D90E75D903758D
:104B7800D904EE248BF582EF3400F583E58224080E
:104B8800F8E5833400F9E0F5D9A3E865827003E914
:104B9800658370F2EE2483F582EF3400F583E582B5
:104BA8002404F8E5833400F9E0F5D9A3E8658270B8
:104BB80003E9658370F275E1957908EE248BFAEFC5
:104BC8003400FB120C517904EE2483FAEF3400FB15
:104BD800120C517C00EEF8EFF9ECFAC3E49AFA955E
:104BE800E0FBEE2AFAEF3BFBEA248AF582EB34007D
:104BF800F583E0C0E0E824AAF582E93400F583D023
:104C0800E0F00C88828983A3A882A983ECC3940866
:104C180040C7EE246FF582EF3400F583E0F8A3E097
:104C2800F9EE2471F582EF3400F583E8F0A3E9F09A
:104C38007901800279008008F0EEA2E092AF790055
:104C48007F01021973C082C08375D90275D90375B3
:104C5800D90575E195EA246FF582EB3400F583E018
:104C6800F8A3E0F9EA2471F582EB3400F583E8F063
:104C7800A3E9F0790102431A74F61218A1EAFEEBCF
:104C8800FF9005457406F075084575090578081202
:104C98001AB47C017903120C99740212184775D959
:104CA8000675D903758245758305E0F5D9A3E582B4
:104CB800644A7004E583640570F075E1959003A279
:104CC800E06408701EEE246FF582EF3400F583E08F
:104CD800F8A3E0F9EE2471F582EF3400F583E8F0EB
:104CE800A3E9F07901024F4E74F61218A1EAFEEB1F
:104CF800FF9061D0E070667801900545740BF090E4
:104D080003A2E0640770197508457509057808124B
:104D18001AB47C017903120C9974021218477805A9
:104D2800740128F5D975D903758245758305E8FAA4
:104D3800E0F5D9A31AEA70F875E195EE246FF582CB
:104D4800EF3400F583E0F8A3E0F9EE2471F582EF83
:104D58003400F583E8F0A3E9F079018002790002D4
:104D68004F4E74F71218A1EAFEEBFF75D90375D9F7
:104D78000375D90DEE24DDF582EF3400F583E0F5F7
:104D8800D975E1957904120DA7EE246FF582EF34F9
:104D980000F583E0F8A3E0F9EE2471F582EF340022
:104DA800F583E8F0A3E9F07901024C4874F612188B
:104DB800A1EAFEEBFF9061D0E0F87480C398FAEEA8
:104DC8002482F582EF3400F583E0600478048002E1
:104DD8007800E8240BF8EAC3985003024E797D095D
:104DE800900545EDF0EE24E2F8EF3400F97A467BC1
:104DF800057C0888828983E08A828B83F08882898F
:104E080083A3A882A9838A828B83A3AA82AB831CEB
:104E1800EC70E0EE2482F582EF3400F583E0601D4B
:104E28007508457509057808121AB47C097903EEE6
:104E3800FAEFFB120C9974021218477D0D74012DBC
:104E4800F5D975D9037582457583058D08E0F5D9BF
:104E5800A31508E50870F675E1957904120DA7EE1B
:104E6800241DF582EF3400F583E4F0A3F079018086
:104E7800027900024F4E74F61218A1EAFEEBFF9079
:104E880061D0E0F87480C398FAEE2482F582EF349A
:104E980000F583E06004780480027800E82408F8CC
:104EA800EAC3985003024F4C7806900545740CF0FD
:104EB8009003BFE0900546F09003C0E0900547F0EE
:104EC8009003C1E0900548F09003C2E0900549F0D6
:104ED8009003C3E090054AF0EE2482F582EF340097
:104EE800F583E0601B7508457509057808121AB442
:104EF8007C067903EEFA120C997402121847780AA4
:104F0800740128F5D975D903758245758305880814
:104F1800E0F5D9A31508E50870F675E1957904124E
:104F28000DA7EE246FF582EF3400F583E0F8A3E0D7
:104F3800F9EE2471F582EF3400F583E8F0A3E9F087
:104F48007901800279007F0202197374F61218A1A0
:104F5800EAFEEBFF9061D0E0F87480C398FAEE2483
:104F680082F582EF3400F583E060047804800278EB
:104F780000E82404F8EAC398500302502D78029000
:104F88000545E8F0EE24F4F582EF3400F583E0906F
:104F98000546F0EE2482F582EF3400F583E0601BCD
:104FA8007508457509057808121AB47C027903EE6C
:104FB800FA120C9974021218477806740128F5D968
:104FC80075D9037582457583058808E0F5D9A31559
:104FD80008E50870F675E195EE2473F582EF340064
:104FE800F583E4F0EE247FF582EF3400F583E4F0F6
:104FF800EE241DF582EF3400F583E4F0A3F0790484
:10500800120DA7EE240DF582EF3400F583E0F8A326
:10501800E0F9EE2471F582EF3400F583E8F0A3E9B6
:10502800F0790180027900024F4E74F61218A190AF
:1050380061D0E0F87480C398FCEA2482F582EB34EE
:1050480000F583E06004780480027800E82404F81E
:10505800ECC398405B79029005457407F0EA24F5A3
:10506800F582EB3400F583E0900546F0EA2482F5FA
:1050780082EB3400F583E0601875084575090578FA
:1050880008121AB47C0209120C9974021218477992
:1050980006740129F5D975D903758245758305E923
:1050A800F8E0F5D9A318E870F875E1957901800260
:1050B8007900024F4E74F51218A1E9FCA2AFE4334F
:1050C800F50AC2AF7D0080010DEA246EF582EB344B
:1050D80000F583E0F8EDC398501A8D08EA2508F822
:1050E800EB3400F9E8246AF582E93400F583E06CD2
:1050F80070D68024EA246EF8EB3400F9E0FEEA2E3C
:10510800FAEB3400FBEA246AF582EB3400F583EC11
:10511800F088828983E004F0E50AA2E092AF7F0379
:1051280002197374F61218A1A2AFE433FDC2AFEAF4
:10513800246EF582EB3400F583E014F07C006036D1
:105148008C08EA2508F8EB3400F9E8246BF582E9C5
:105158003400F583E0C0E0E8246AF582E93400F51C
:1051680083D0E0F00CEA246EF582EB3400F583E09E
:10517800F8ECC39840CAEA246DF582EB3400F58355
:1051880074FFF0EA2469F582EB3400F583E4F0ED6E
:10519800A2E092AF024F4EC082C083E5A8F8C2AF2A
:1051A800EA246AF582EB3400F583E9F0EA2469F52C
:1051B80082EB3400F583E4F0E8A2E7A2E792AF02BD
:1051C800431A74F31218A1EAFEEBFFECFAEDFB8A1E
:1051D800828B83A3A3A3A3E0541FF0EE2436F582A9
:1051E800EF3400F583E4F0F50AEEFCEFFD8A828BDC
:1051F80083E0C0E0EC245DF582ED3400F583D0E077
:10520800F0750B00E50A33333354F8F50C8A828BBA
:1052180083E0F508750900E50B78081217FFE50823
:10522800A2E0502FEE2436F8EF3400F98882898303
:10523800E0F508EE2508F508EF3400F509E508243F
:1052480038F582E5093400F583E50CF08882898316
:10525800E004F0050B050CE50BC3940840AF050A04
:105268008A828B83A3AA82AB838C828D83A3AC8230
:10527800AD83E50AC3940550030251F57F05021971
:105288007374F71218A19003CEE0640170030253FF
:10529800E77A009003D4E060030253E77401F0A3B7
:1052A800E4F0A3F090043404F0900439F09003D7AC
:1052B800E4F0A3F0A3F0A3F09003E104F090040756
:1052C800E4F09003EAF0A3F0A3F0A3F0A3F0A3F0B6
:1052D800A3F0900451F0900445F090043A7480F0E3
:1052E800A3E4F0900440F09004BCF0A3F0A3F0A372
:1052F800F0A3F0A3F0A3F0A3F09004C5F090045439
:10530800F09004A4F0A3F0A3F0A3F0A3F0A3F0A3FB
:10531800F0A3F0A3F0A3F09004B0F09004B2F090E2
:1053280004AEF09004C8F0A3F0A3F0A3F0A3F0A398
:10533800F0A3F0A3F078CE7903E8246EF582E9347F
:1053480000F58374FFF00A88828983A3A882A98361
:10535800EAC3940440E37ACE7B0378DC790488823C
:105368008983E0C0E0EA2461F582EB3400F583D05C
:10537800E0F088828983A3A882A9838A828B83A389
:10538800AA82AB83E864E17003E9640470D07ACE42
:105398007B0378B5790388828983A3E0C0E0EA2497
:1053A800E6F582EB3400F583D0E0F088828983A3A8
:1053B800A882A9838A828B83A3AA82AB83E864BD6F
:1053C8007003E9640370CF9003CEE004F0640170C9
:1053D800089003D6E09003D0F07AD27B0380047A59
:1053E800007B00024C48C082C0839003D5E4F09053
:1053F80003D4F09003CEF0A3F0A374FFF075E1F1AD
:1054080002431AC082C083780079009003D5E06017
:105418000478D2790388828983A3A3A3A3E0F9023D
:10542800431A74F61218A1EAFEEBFFEE2463F58224
:10543800EF3400F583E0F8A3E0F9E849700302547B
:10544800CFEE2463F8EF3400F97A007B00A2AFE4D2
:1054580033F508C2AF88828983E0FCA3E0FDEC4DF8
:10546800603A88828983E0FAA3E0FB8A828B83E032
:10547800FCA3E0FD88828983ECF0A3EDF08A828B9F
:1054880083E4F0A3F088828983E0FCA3E0FDEC4D7F
:10549800700A88828983A3A3E4F0A3F0E508A2E058
:1054A80092AF1213AD9004E2E004F09004E3E0043C
:1054B800F0EE2463F582EF3400F583E0F8A3E0F919
:1054C800E84960030254498E828F83A3A3A3E06056
:1054D8000F8E828F83A3A3A3E4F09003CFE014F090
:1054E8009003CEE014F070069003D074FFF08E8223
:1054F8008F83A3A3E4F09004E1E0700D9003CFE064
:10550800640170057900120D89EEFAEFFB120CC9DF
:10551800024F4E74F71218A1EAFEEBFF8E828F83BA
:10552800A3A3A3A3E0FA7B001209ABEEFAEFFB12E8
:105538000C1B120CB1024C48C082C08378B57903A9
:1055480088828983A3E4F088828983A3A882A983B7
:10555800E864BD7003E9640370E69003B674010261
:10556800431974F61218A1EAFEEBFFEC2403F8EDD8
:105578003400F988088909EC2407F8ED3400F9E8C3
:10558800FCE9FD8C828D83E0F8A3E0F9850882852B
:105598000983E0FAA3E0FB1217A6EE240DF582EFCB
:1055A8003400F583E8F0A3E9F08C828D83E0F8A35A
:1055B800E0F9850882850983E0FAA3E0FB1217A6C3
:1055C8008B09EA45096013EE240DF582EF3400F5E6
:1055D80083E02401F0A3E03400F0024F4E74F61289
:1055E80018A1EAFEEBFFEE242EF582EF3400F583D6
:1055F800E0FCA3E0FD780079FAECFAEDFB1217A6BF
:10560800EE246FF582EF3400F583E8F0A3E9F07833
:105618000079FAECFAEDFB1217A68B09EA45096046
:1056280013EE246FF582EF3400F583E02401F0A334
:10563800E03400F0024F4E74EC1218A1EAFEEBFFC2
:10564800741412187D78081216E9120D4D8A0C8B05
:105658000D8C0E8D0F7510027511007512007513E3
:1056680000780C791012164F7510FF7511FF75121E
:10567800FF780C79101216B0780C121AB08E828F3F
:1056880083E0F8A3E0F5838882A3A3121707122406
:10569800BD7404121847E960030257A38E828F83F2
:1056A800E02402F8A3E03400F9E8FAE9FB8A828BE7
:1056B8008378081216758A828B837508FF7509FF2F
:1056C800750AFF750B0078081216D6EE240BF582C2
:1056D800EF3400F583C082C0838E828F83A3A3A397
:1056E800A3A3E02401F8A3E03400F9D083D082E03A
:1056F800687003A3E069700579010257A58E828F4F
:1057080083A3A3A3A3A3A3A3E02401F0A3E03400ED
:10571800F0EE2473F582EF3400F583E0640170360F
:10572800EE2474F582EF3400F583E0F8A3E0F98EF7
:10573800828F83A3A3A3A3A3A3A3E0687003A3E01A
:10574800697013EE2474F582EF3400F583E02401C8
:10575800F0A3E03400F0EE247FF582EF3400F58307
:10576800E064017036EE2480F582EF3400F583E0C2
:10577800F8A3E0F98E828F83A3A3A3A3A3A3A3E036
:10578800687003A3E0697013EE2480F582EF34009B
:10579800F583E02401F0A3E03400F079000244B27C
:1057A80074F61218A1E9FEECFFEA2462F582EB34E4
:1057B80000F583E0640160030258519061D0E0F580
:1057C80008EA2482F582EB3400F583E0600478046B
:1057D800800278007480C39508FC95E0FDEF28F8F6
:1057E800E43400F9E82402F8E93400F9EC98ED997A
:1057F800A2D265D033404E740A12187DE0F508A392
:10580800E0F509EA2482F582EB3400F583E06015BF
:105818007808121AB4EFFCEEF9120C9974021218F7
:105828004774042FFF74012FF5D98ED9EF600F85C7
:105838000882850983F8E0F5D9A318E870F875E1BE
:1058480095790080067907800279FF024F4E74F738
:105858001218A1A2AFE433FEC2AF8A828B83E0F8AC
:10586800A3E0F9E8498A828B83600AA3A3E0F8A33E
:10587800E0F5838882ECF0A3EDF08A828B83A3A302
:10588800ECF0A3EDF08C828D83E4F0A3024C40741D
:10589800F71218A1E96021F88C828D83E08A828B47
:1058A80083F08C828D83A3AC82AD838A828B83A3A1
:1058B800AA82AB8318E870E0ECFAEDFB024C48745E
:1058C800F01218A174FA1218318908ECFEEDFF7570
:1058D80009008A0A8B0B780A121AF8000410EF5A8A
:1058E8000A59285942595A5978599059B359CB5994
:1058F800DF59095A865A975AAE5AC95AEF5AEF5A77
:105908001F5A740165086003025AEA8E828F83E089
:10591800F8C394034003025AEAE8900D40025AC6BD
:10592800740265086003025AEA8E828F831263C389
:10593800900D41E8F0A3E9025AC6740165086003B6
:10594800025AEA125B174003025AEAE890078002FB
:105958005AC6740165086003025AEA8E828F83E092
:10596800F8C394054003025AEAE8900781025AC630
:10597800740165086003025AEA125B174003025A71
:10598800EAE8900782025AC6741065086003025A52
:10599800EA750A10750B00780A121AB47A837B0725
:1059A80012101D7402121847025B1074016508601A
:1059B80003025AEA125B174003025AEAE890079377
:1059C800025AC6740165086003025AEA8E828F8300
:1059D800E0900D44025AC6740465086003025AEA4E
:1059E8008E828F83780C1216E99083D2780C121469
:1059F800F85003025AEA900795780C1216F8025BE1
:105A080010E96003025AEA12073BE970051211FD1A
:105A180080569008288063740765086003025AEA74
:105A2800750A06750B00780A121AB48E828F83A342
:105A3800AC82AD83740212188F12102374021218EC
:105A4800477C007D00AA18AB198E828F83E0F9127B
:105A580011A3E9F50AC3940A4003025B0D12073B40
:105A6800E9700CA90A121203795012142B806E7473
:105A780029250AF582E43408F5837401804074010D
:105A88006508705E125B175059E8900794802F7470
:105A9800016508704D8E828F83E0F8C3940A5042E6
:105AA800E8900D4380187401650870368E828F83E4
:105AB800E0F874F928C3940A5028E8900D45F0805E
:105AC8004774016508701B900827E0F88E828F8361
:105AD800E0900827F0E87030E06401702B1211F1B3
:105AE80080267509188021C3EA9427EB9400501585
:105AF80074026508700F8E828F831266E61205D9CC
:105B0800E9F5098003750902A90974060260238E64
:105B1800828F83E0F8C394022274F41218A1ECFE79
