:020000040000FA
:0600000002011A02230FA9
:03002B00022A7531
:0300530002238203
:03006B00022A4323
:1000830002217BE5C754F84401F5C779012200003A
:100093000080FB120086B90003020104E479217891
:1000A30008B800028004F709D8FCE479297802B87B
:1000B30000028004F709D8FCE490028178DD790816
:1000C3008002F0A3D8FCD9FA781A90014A7A01BACF
:1000D30000028007E493A3F608DAF97A5D7B0A90BD
:1000E300014B78B879048015E493A3AD82AE838A7B
:1000F300828B83F0A3AA82AB838D828E83D8E9D9C6
:10010300E77582047583B9740312012C75829175A6
:100113008300740012012C75D00075813F7518811E
:10012300751902759F00020096C09FF59FE473D076
:100133009F22D083D082C09FE493C0E0740193C018
:10014300E0740293F59F2201FF0000B40000280031
:100153002800283075A000A000A000A0000008001F
:1001630008E001F000100010001000100010001053
:100173000050005000500010001000D00700000095
:100183000000000F0001000500307507001000019A
:100193000081FF00000000FF00071E070607FF02A3
:1001A300020208025000A0000000E80302D8820106
:1001B3000000A88202CC82010000B40A02BA8201C4
:1001C3000000B30202CC82010000B50A02BC820126
:1001D3000000C90202CC82010000B60A02BE8201FD
:1001E3000000CB0202CC82010000B70A02C08208E1
:1001F3000000CC0202CC82010000B80A02FC82019A
:100203000000B90AFF0100FF2002D882010000B7F5
:100213008202CC820100001D0B02C4820000000098
:100223000002CA820300001903BE0CBE0CBE0CBE42
:100233000CBE0CBE0CBE0CBE0CBE0CBE0CBE0CBE6B
:100243000CBE0C520F6A0F4C0FFFFF110199010FE7
:100253001264040102D882010000B18202CC82013F
:100263000000650B02D082010000660B02CA820304
:100273000000710702C882010000670B020202023C
:100283000202020202010D000000100102D88201E5
:100293000000AB8202CC82010000910B02D68201E6
:1002A3000000770702CC82010000920B02FE82015C
:1002B3000000128202CC82010000930B02F882013B
:1002C3000000048202CC82010000940B02F682013A
:1002D3000000908102CC82010000950B02E28201B2
:1002E3000000B48102CC82010000960B02E082017F
:1002F3000000A28102CC82010000970B02DE820182
:1003030000007E8102CC82010000980B02DC820196
:100313000000F68102CC82010000990B02DA82010F
:1003230000009A0B01E803053F100A1509484944E8
:10033300204B6579626F6172642026204D6F75735F
:10034300650201050319C103050212180F1860EABB
:10035300000001421348130000018A130000E60263
:1003630002192A0406011201011202011203010EED
:100373000002120E120A000302D882010000AE82AC
:1003830002D282010000780902CC82010000740CC1
:1003930002EC82400000608202CC82010000780CF3
:1003A30002F0828000007A0902CC82010000790CFD
:1003B30002F482C000007A0C02CC82010000750CAA
:1003C30002EE82400000008002C682010000760C2B
:1003D30002CC820100007B0C02F2824000007B0908
:1003E30002CA828100007C0902C8820100007C0CE1
:1003F30002CC820100007E0C02F2824000008209DE
:1004030002CA82810000830902C8820100007F0CB6
:1004130002CC82010000810C02F2824000008909B3
:1004230002CA828100008A0902C882010000820C8C
:1004330002CC82010000840C02F282C00000900909
:1004430002C882010000850C02CC82010000870CE7
:1004530002E682400000910902CA828100009209EB
:1004630002CC82010000880C02EA82C000009809D5
:1004730002CC82010000890C02E882400000990945
:1004830002CA828100009A0902CC820100008A0C10
:1004930002F282C00000A00902C8820100008B0C96
:1004A300FF00013075030201060000000000000098
:1004B3000000000000000000000000000000000039
:1004C3000000000000FFFF0600800CE80304100298
:1004D300D882010000B48202CC82010000E20D0246
:1004E3000283800000520A02CC82010000E30D0265
:1004F3000483000000560A02CA82810000570A12D0
:10050300013583A6031201359AA603120135CBA642
:100513000312013506A70312013530A70312013573
:100523005AA70312013571A70312013588A70312D5
:1005330001359FA703120135C8A703120135DBA7B5
:1005430003120135F1A70312013504A80312013583
:100553002BA8031201358AF5011201358EF601121B
:100563000135C6F601120135E9F601120135F4F63B
:100573000112013517F70112013526F80112013571
:10058300FBF80112013576F901120135FEF901126A
:10059300013539FA0112013570FA01120135FEFAFB
:1005A30001120135D7FB0112013537FC0112013568
:1005B30042FC01120135C1FC01120135C4FC0112D8
:1005C3000135C7FC0112013556FD0112013559FDF4
:1005D3000112013589FD01120135B3FD0112013507
:1005E300A1FE0112013553FF0112013584F20212FB
:1005F3000135ACF202120135DAF20212013511F3C0
:10060300021201356FF302120135BAF302120135FA
:1006130005F40212013545F4021201358BF402127E
:100623000135B9F40212013576F50212013580F570
:10063300021201358DF502120135C0F502120135A2
:100643008CF60212013598F602120135B0F6021249
:100653000135BAF602120135A5B503120135B3B55A
:1006630003120135CBB503120135E3B5031201358E
:1006730019BC01120135C5BC0112013540BD01127F
:10068300013561BE011201359DBE0112013546BF20
:10069300011201352DC00112013591C1011201353D
:1006A300E8C10112013569C20112013559C30112B2
:1006B3000135A6C3011201352CC4011201355EC4F4
:1006C3000112013572C601120135B4C6011201359A
:1006D300D2C60112013555C70112013529C80112CD
:1006E3000135F1C80112013523D602120135F6D6C0
:1006F300021201359FD702120135F2D702120135DA
:10070300A2D8021201352ED9021201351ADA0212C9
:10071300013549DA021201355CDB02120135A4DB33
:100723000212013579DC02120135B5DC0212013502
:10073300D1DC0212013580B803120135F7900312A0
:1007430001350D91031201353391031201354F9297
:10075300031201355992031201358E9303120135A9
:1007630086940312013569E80212013599E90212F0
:100773000135CCE90212013516EA02120135DDEB2F
:10078300021201352AAC0112013594AC0112013574
:10079300F3AD0112013503AE0112013530AE011282
:1007A300013587AE0112013530AF0112013537B083
:1007B3000112013501B10112013561B20112013596
:1007C300A4B20112013549B30112013596B30112E6
:1007D3000135BCB301120135CAB501120135CFB5DC
:1007E30001120135D4B70112013521B801120135C7
:1007F30094B801120135C7B80112013569B9011264
:10080300013512BA011201354ABA011201354DBA46
:100813000112013595BA01120135D5BA011201351C
:100823002CBB011201356E9A03120135869A03120D
:100833000135CE9A03120135E49A031201352B9B3D
:10084300031201353F9C03120135CC9C0312013581
:10085300179D03120135A42A00120135B02A001294
:100863000135EB2A00120135302B00120135F02B34
:1008730000120135762C00120135A22C001201352D
:10088300DB2C00120135192F00120135FD30001247
:100893000135E33200120135263400120135743676
:1008A30000120135863700120135D13800120135A7
:1008B300E13900120135FE3900120135393A0012CF
:1008C30001355B3A00120135BE3A001201357F3F14
:1008D3000012013514400012013565400012013544
:1008E3008C4000120135DE4000120135FC4000123D
:1008F3000135564100120135554200120135D942E6
:10090300001201350080031201350A8003120135FC
:100913004D8003120135688003120135F8800312FC
:1009230001352081031201355D8103120135948164
:1009330003120135BD8103120135328203120135E1
:100943004782031201355C82031201358D82031243
:100953000135A18203120135C682031201350083DA
:10096300031201352C8303120135AF8303120135C2
:10097300F883031201352284031201354D840312D7
:100983000135BEB003120135E99A02120135179BF6
:1009930002120135659C02120135459D0212013593
:1009A300649D02120135E19D02120135249E02125B
:1009B30001357A9F021201353BA002120135C2A212
:1009C3000212013563A30212013559A40212013543
:1009D30056A502120135B0A6021201353BA7021239
:1009E300013508AD0312013571AD03120135C5ADF3
:1009F30003120135ECAD031201351DAE03120135AF
:100A0300758403120135E28403120135298503122B
:100A130001354186031201353D87031201352088D4
:100A23000312013510BE0212013552BE0212013506
:100A330024BF02120135FDBF02120135F7C00212B5
:100A43000135D9C10212013542C202120135F8C281
:100A5300021201356CC302120135D8C302120135EB
:100A630001C4021201357BC40212013514C50212FE
:100A7300013579C5021201358EC502120135D4C57F
:100A830002120135EDC50212013552C602120135BB
:100A930055C602120135909403120135B89403121E
:100AA3000135F69403120135B495031201351B96F3
:100AB300031201353796031201355F960312013590
:100AC3008F96031201359E96031201351B9703126D
:100AD300013541970312013593700012013571728C
:100AE30000120135A37400120135DF7400120135C1
:100AF3000C7500120135F6750012013541760012AE
:100B030001358C76001201359E7600120135DE76B2
:100B13000012013513770012013561770012013598
:100B2300907700120135B377001201350078001277
:100B330001358578001201359F7A00120135DE7C7C
:100B4300001201351F7D00120135C17E00120135EF
:100B5300027F00120135757F00120135D48D021218
:100B63000135D28E021201356B95021201358C9735
:100B730002120135579902120135BF9A021201354B
:100B8300404300120135EF43001201351C440012AB
:100B93000135624400120135A24500120135384780
:100BA30000120135B24700120135CD47001201355D
:100BB300484800120135A24900120135024B0012C8
:100BC3000135084C00120135694D00120135824D83
:100BD30000120135E04D00120135CE4E00120135F1
:100BE300014F00120135714F00120135EB4F001216
:100BF3000135355000120135FF5000120135D45133
:100C030000120135B352001201353E530012013573
:100C1300AC53001201352054001201354B5400121D
:100C230001350A55001201356F56001201358C56F5
:100C330000120135AB56001201359C5700120135E5
:100C4300C15700120135EB570012013566580012E7
:100C53000135C05800120135295A00120135D75AFF
:100C630000120135185B00120135008002120135B4
:100C73004E80021201355A80021201353881021268
:100C830001356981021201359A81021201351A82F6
:100C930002120135528202120135A4820212013579
:100CA300E18202120135FE84021201352487021209
:100CB30001350F8902120135F98A02120135992A89
:100CC30000120135179801120135479801120135B9
:100CD300209F01120135A5A001120135A2A6011220
:100CE30001358AA701120135C7A701120135EAA709
:100CF300011201351BA80112013524A80112013587
:100D03002EA8011201351CA90112013512AA0112E4
:100D130001350883011201350787011201350D875B
:100D230001120135488E011201356193011201351B
:100D3300C8FB021201355EFC0212013574FC02127B
:100D43000135EAFC021201355EFD021201359CFDFC
:100D53000212013510FE0212013589FE021201351D
:100D630092FE021201359EFE02120135B3FE0212FB
:100D73000135F1FE0212013507FF0212013566FF4C
:100D830002120135E28803120135EF88031201359F
:100D93000989031201354889031201358689031233
:100DA3000135EB8903120135008A031201350B8AE1
:100DB30003120135188A031201352F8A03120135F4
:100DC3003D8A03120135488A03120135548A0312FE
:100DD3000135638A031201356E8A03120135918A44
:100DE30003120135388B03120135488B0312013589
:100DF300628B031201357F8B031201359B8B031228
:100E03000135C08B03120135CB8B03120135E08B07
:100E130003120135F48B03120135558C031201358E
:100E23005B8C03120135618C03120135678C03124D
:100E330001357F8C03120135B28C031201357BD946
:100E430001120135FFD901120135AEDA0112013564
:100E53000DDC011201352EDE011201351ADF0112FC
:100E630001354FDF0112013571DF0112013520E039
:100E73000112013518E20112013541E20112013577
:100E8300D3E20112013505E30112013512E3011228
:100E9300013569E3011201358FE301120135FCE5E8
:100EA30001120135FFE60112013557E70112013541
:100EB3000ACB0112013514CC01120135FBCC01120E
:100EC300013505CD0112013527CD0112013533CD91
:100ED30001120135CCCE01120135FBCE01120135D1
:100EE30017D00112013570D001120135D6D101128C
:100EF3000135B5D20112013511D3011201357ED36B
:100F030001120135B9D301120135F8D301120135AC
:100F1300B1D601120135CBD60112013557D70112D3
:100F2300013565D701120135BED701120135CCD782
:100F3300011201353FD801120135A3D80112013541
:100F4300EDD801120135BCA702120135DEA702124A
:100F5300013504AA0212013519AD0212013531AE71
:100F630002120135E4AE02120135C6AF0212013599
:100F73003DA80312013562A803120135D4A8031258
:100F83000135A9CE02120135B2CE02120135BBCE14
:100F93000212013592CF0212013543D102120135FB
:100FA30079D102120135B3D102120135E9D102120E
:100FB300013523D20212013557D20212013583D2F1
:100FC30002120135CCD20212013506D302120135C9
:100FD3004FD302120135A7D302120135DCD302121B
:100FE300013537D40212013571D402120135C2D44E
:100FF30002120135F8D40212013532D5021201353D
:1010030060D50212013583D5021201353DB70312B3
:10101300013569B703120135C4B703120135CEB7E1
:1010230003120135DEB70312013563AE0312013536
:101033008DAE03120135FBAE0312013570AF0312FF
:101043000135F6E20212013500E3021201353EE3F7
:101053000212013587E302120135C1E302120135A1
:101063001BE4021201353CE40212013545E402128D
:10107300013596E402120135BFE402120135C9E4D9
:101083000212013535E502120135C3E502120135BD
:1010930011E60212013547E602120135CEE60212CD
:1010A30001350EE70212013546E70212013558E712
:1010B3000212013577E70212013580E7021201358A
:1010C3003FE802120135DBB20312013584A4031297
:1010D3000135BAA403120135F0A40312013549A660
:1010E30003120135E8B703120135FEB703120135C8
:1010F30008B80312013552B80312013541F7021241
:1011030001355AF702120135FEF7021201353EF896
:101113000212013557F8021201358BF8021201351C
:10112300D8F8021201350CF9021201354EF90212F8
:1011330001354EFB02120135BBFB0212013596FF4E
:1011430002120135D5B303120135FEB30312013583
:1011530027B4031201353FB40312013581B40312DE
:1011630001352F8D031201355F8D03120135728D09
:1011730003120135A18D031201351F8E03120135B0
:101183003E8E03120135E38E03120135758F031270
:101193000135FA8F03120135C09003120135899787
:1011A30003120135AE9703120135A5B903120135B8
:1011B300485B00120135A25D001201357B5E00120F
:1011C30001352A60001201351C6100120135A1614D
:1011D300001201351F62001201354462001201350D
:1011E300AC6200120135D065001201354A66001267
:1011F3000135396700120135736700120135B36792
:10120300001201356D6900120135C0690012013504
:10121300096A00120135776A00120135A96A0012C2
:101223000135C16A00120135D26B00120135E26B40
:1012330000120135126D00120135346D00120135B3
:101243006A6D001201350F6F001201354E6F0012E7
:1012530001356E70001201357CB6031201358DB66F
:101263000312013532B7031201355CB9031201359C
:101273009BB903120135E2FF01120135C6B4031213
:101283000135D6B403120135EBB4031201359FB512
:1012930003120135D7B1031201355CB203120135D4
:1012A300C2B20312013595AF03120135BCAF03126D
:1012B300013512B00312013524B00312013574B0A5
:1012C30003120135B2B003120135B5B00312013573
:1012D30090ED02120135A4ED021201351DEE02124A
:1012E3000135F6EE02120135B4F10212013519F29D
:1012F3000212013570F202120135F87F0012013536
:101303004FA203120135DAA3031201353BA40312E2
:10131300013581A403120135ECB903120135EFB98C
:1013230003120135F4B903120135FBB90312013578
:1013330046DD021201356DDF021201354EE0021265
:101343000135A2E00212013581E10212013584E187
:101353000212013508E202120135EAB20212013526
:101363004AB3021201354CB4021201356EB40212B3
:10137300013581B40212013516B502120135EDB6FD
:101383000212013501B9021201350EBA02120135FA
:1013930073BA02120135CEBA021201352FBB021203
:1013A300013570BB0212013573BB02120135C2BB9A
:1013B30002120135CEBC021201356CBD0212013599
:1013C300B8BD02120135DDBD02120135419D031284
:1013D30001350B9F03120135789F0312013581AB51
:1013E30003120135D6AB0312013544AC03120135A8
:1013F300B4AC03120135E49F031201350EA00312AE
:101403000135E3A003120135D7A10312013579C6D3
:101413000212013536C70212013571C702120135B6
:1014230099C702120135FBC70212013547C80212E0
:101433000135A0C80212013531C90212013533CA80
:1014430002120135F0CB0212013572CC02120135C2
:10145300D7CC02120135EECC02120135FECD0212B9
:1014630001353CCE02120135A5E7011201352FEB00
:1014730001120135B7EC011201350EED01120135F0
:101483002DED01120135ABED0112013549EF0112CA
:1014930001352DF00112013517F401120135E7F47E
:1014A30001120135E2A90312013512AA0312013513
:1014B3002AAA0312013579AA031201357EAA03125F
:1014C30001354AAB03120135CB7F00120135C4FF4E
:1014D30001E066701008A3E066700A08A3E0667076
:1014E3000408A3E06622C3E7960809E7960809E71C
:1014F300960809E79622C3E09608A3E09608A3E0BE
:101503009608A3E09622C008C3E096F50808A3E076
:1015130096420808A3E096420808A3E0964508709F
:1015230001D3D00822080808EAC0E0EBC0E086F047
:10153300E7A4FA180986F0E7A42AFA180986F0E75F
:10154300A42AFA180986F0E7A42AFA1986F0E7A470
:10155300FBE5F02AFA190886F0E7A42BFBE5F03A3D
:10156300FA190886F0E7A42BFBE5F03AFA181809F4
:1015730086F0E7A4C5F02BFBE43AFA1908E7C5F0B7
:10158300C6A426F6E5F03BFBE43AFA1886F0E7A496
:10159300F6E5F00826F6E43B08F6E43A08F6D0E070
:1015A300FBD0E0FA22E4CFC0E0E4CEC0E0E4CDC05B
:1015B300E0E4CCC0E075F020E626F608E633F60852
:1015C300E633F608E633F6181818EC33FCED33FD72
:1015D300EE33FEEF33FFC3EC9709ED9709EE97095E
:1015E300EF97191919400FFFEC97FC09ED97FD09C7
:1015F300EE97FE191906D5F0BFECF709EDF709EEE2
:10160300F709EFF7191919D0E0FCD0E0FDD0E0FE9F
:10161300D0E0FF226016080808C6C313C618C61315
:10162300C618C613C618C613C6D5E0EA2270090841
:101633000808226016181818C6C333C608C633C66E
:1016430008C633C608C633C6D5E0EA22E627F6083D
:1016530009E637F60809E637F60809E637F622E021
:1016630026F608A3E036F608A3E036F608A3E0362C
:10167300F622E026F008A3E036F008A3E036F008EF
:10168300A3E036F022C3E697F60809E697F60809C1
:10169300E697F60809E697F622C3E096F008A3E07A
:1016A30096F008A3E096F008A3E096F022E657F63A
:1016B3000809E657F60809E657F60809E657F62239
:1016C300E056F608A3E056F608A3E056F608A3E0B2
:1016D30056F622E056F008A3E056F008A3E056F0D1
:1016E30008A3E056F022E0F608A3E0F608A3E0F62C
:1016F30008A3E0F622E6F008A3E6F008A3E6F00864
:10170300A3E6F022E0FAA3E0FBA3E0FCA3E0FD22C2
:10171300EAF0A3EBF0A3ECF0A3EDF022E0F8A3E0F2
:10172300F9A3E0FAA3E0FB22E8F0A3E9F0A3EAF0CF
:10173300A3EBF022CAC0E0E6F0A308DAFAD0E0FA9D
:1017430022CAC0E0E0A3C582CCC582C583CDC583D0
:10175300F0A3C582CCC582C583CDC583DAE6D0E0CC
:10176300CA22C3E498F8E499F91217A68026C3E4C1
:101773009AFAE49BFBE920E7E91217A6E498F8E458
:1017830099F922C3E498F8E499F91217A6E498F8B2
:10179300E499F9C3E49AFAE49BFB22EB20E7CFE94F
:1017A30020E7E0B90010BB0008E88AF084F8AAF04B
:1017B30022E4FBC8FA22EB70227B10C833C8C9337A
:1017C300C9335007C39AC3DBF280069A50012ADB60
:1017D300EAC833F4C8C933F4C9FA2275F008E4C877
:1017E30033C8C933C933C99AC99B5004C92AC93BF1
:1017F300D5F0ECFBC833F4C8E4C9FA22600D08C67F
:10180300A2E713C618C613C6D5E0F322600C08C6B8
:10181300C313C618C613C6D5E0F422700422600DA4
:1018230018C6C333C608C633C6D5E0F41822251834
:1018330010AF08F518400C15198008F5184002156B
:1018430019D2AF2200C0D0251810AF08F518500CDC
:1018530005198008F51850020519D2AFD0D02225FA
:1018630018F58210AF08F518400C15198008F51803
:1018730040021519D2AF851983222518F582E43564
:1018830019F583222518F8E43519F9222518FAE405
:101893003519FB222518FCE43519FD22E4732518BC
:1018A300C582C0E0E51934FFC583C0E0E518C395E0
:1018B3008224F810AF0885831985821880088583F0
:1018C30019858218D2AFCEF0A3E520F0A37808E6FD
:1018D30008F0A3DEFAEFF0A3E58124FAF8E608F0B6
:1018E300A3E608F0A3E608F0A30808E608F0A3E6D9
:1018F30008F0A315811581D0E0FED0E0F81581151D
:10190300811581E8C0E0EEC0E0222518C582C0E061
:10191300E51934FFC583C0E0E518C3958224F910A7
:10192300AF088583198582188008858319858218F5
:10193300D2AFCEF0A3E520F0A37808E608F0A3DE4B
:10194300FAEFF0A3E58124FBF8E608F0A3E608F03C
:10195300A30808E608F0A3E608F0A315811581D0D3
:10196300E0FED0E0F815811581E8C0E0EEC0E0228A
:10197300851983851882E0A3FEE0A3F5207808E0AB
:10198300A3F608DFFAE0A3FFE0A3C0E0E0A3C0E012
:10199300E0A3C0E0E0A3C0E0E0A3C0E010AF08858F
:1019A30082188583198008858218858319D2AFD060
:1019B30083D082020132851983851882E0A3FEE079
:1019C300A3F5207808E0A3F608DFFAE0A3FFE0A37D
:1019D300C0E0E0A3C0E0E0A3C0E0E0A3C0E010AF3C
:1019E300088582188583198008858218858319D212
:1019F300AFD083D08222C0D02518C582C0E0E519BC
:101A030034FFC583C0E0E518C3958224F310AF0803
:101A13008583198582188008858319858218D2AF3A
:101A2300C8F0A3E9F0A3EAF0A3EBF0A37908E70970
:101A3300F0A3D8FAECF0A3EDF0A3EEF0A3EFF0A33C
:101A4300D0E0F0A3D0E0F0A3D0E0F0A3E520F0A332
:101A5300E5F0F0A322851983851882E0C0E0A3E0B6
:101A6300F9A3E0FAA3E0FBA37808E0F608A3DFFA02
:101A7300E0FCA3E0FDA3E0FEA3E0FFA3E0C0E0A33E
:101A8300E0C0E0A3E0F5D0A3E0F520A3E0A3F5F0E8
:101A930010AF08858319858218800885831985828C
:101AA30018D2AFD082D083D0E0F8D0E03274048073
:101AB30006740280027401C0E0F404121862D0E0DC
:101AC300121737227404800474028000CCC0E0ED46
:101AD300C0E0E518C39CCCAD1950011D10AF068CB6
:101AE300188D1980068C188D19D2AF121744D0E0C7
:101AF300FDD0E0FC22D083D082E9C0E0E493A3C30D
:101B030086F0C5F095F0F908E493A386F0C5F09547
:101B1300F0700BE493A3C3994005E9048002A3E4A6
:101B230075F002A42582F582E5F03583F583D0E0D4
:101B3300F9E493A3C0E0E493C0E022D083D082EC25
:101B4300C0E0EDC0E0E493A3FCE493A3FDED4C609F
:101B53000D121B8AEC24FFFCED34FFFD80EFE493B0
:101B6300A3FCE493A3FDED4C600D121BC9EC24FF11
:101B7300FCED34FFFD80EFD0E0FDD0E0FCE493A367
:101B8300C0E0E493C0E022C0E0C3E493960874018C
:101B9300939618400FE493667008087401936618CF
:101BA30070007019A3A3C3E4939608740193961865
:101BB300A3A3400DD0E0D0E0D0E0021B7AA3A3A3FF
:101BC300A3A3A3D0E022C0E0C0F088F0E493667042
:101BD300080874019366187000A8F0A3A3700BD0D3
:101BE300F0D0E0D0E0D0E0021B7AA3A3D0F0D0E0A5
:101BF3002274F512190DEAFEEBFFEE2434F8EF34EC
:101C030000F988088909EE2435F582EF3400F5835D
:101C1300E0F8EE2437F582EF3400F583E0F50AECC3
:101C2300850AF0A4FCAAF0850AF0EDA42AFDE82CAD
:101C3300F8E43DF97A257B001217A6EA8508828528
:101C43000983F0F8740758F97401B900028004C3DA
:101C530033D9FCFAE8131313541FF8EE28F8EF34C2
:101C630000F9E8245DF582E93400F583E05A600861
:101C7300EE2434F582EF802CEE2434F582EF340029
:101C8300F583E0C0E0EE2436F582EF3400F583E01F
:101C9300F5F0D0E084A8F0EE28F8EF3400F9E8245A
:101CA30038F582E93400F583E0F97F040219B97449
:101CB300F512190DEAFEEBFFEE2434F582EF340042
:101CC300F583E0C0E0EE2435F582EF3400F583D0F0
:101CD300E0F08E828F83A3A3A3A3A3A3A3C082C098
:101CE300838E828F83A3A3A3A3A3E0F8A3E0F9D0F9
:101CF30083D082E0C398F508A3E099F509EE247F29
:101D0300F582EF3400F583E064017069EE2480F519
:101D130082EF3400F583E0F8A3E0F98E828F83A38A
:101D2300A3A3A3A3A3A3E0FCA3E0FD8E828F83A3BD
:101D3300A3A3A3A3E0FAA3E0FBC3EA9CEB9D50108B
:101D4300C3EC98ED99402EC3EA98EB995027800E87
:101D5300C3EA98EB994007C3EC98ED9940177CDCF4
:101D63007D04EEFAEFFB120C1CEE247FF582EF34B8
:101D730000F583E4F0EE2434F8EF3400F9E8FCE9ED
:101D8300FDEE2435F582EF3400F583E0F8EE2437D9
:101D9300F582EF3400F583E0F50AE508850AF0A43F
:101DA300F508AAF0850AF0E509A42AF509E825084B
:101DB300F8E43509F97A257B001217A6EA8C828D9F
:101DC30083F0F8740758F97401B900028004C3332F
:101DD300D9FCFAE8131313541FF8EE28F8EF340074
:101DE300F9E8245DF582E93400F583E05A6008EEF2
:101DF3002434F582EF802CEE2434F582EF3400F5A1
:101E030083E0C0E0EE2436F582EF3400F583E0F59D
:101E1300F0D0E084A8F0EE28F8EF3400F9E8243895
:101E2300F582E93400F583E0F9122A2F021CADC0D4
:101E330082C083851882851983E0F8A3E0F9C3EA99
:101E43009CEB9D5010C3EC98ED99401BC3EA98EBB3
:101E5300995014800EC3EA98EB994007C3EC98EDB0
:101E6300994004790180027900D083D08222EAC3A9
:101E73009CFAEB9DFB2274EF12190D9003A2E06410
:101E8300086005E06407702A9061C8E0602490034D
:101E9300D0E0F4601DE0F875F003A4C8AAF02AF9B5
:101EA30074D228FE740339FF8E828F83A3A3A3E029
:101EB3007003021FA9906060E0C0E0EE2468F58221
:101EC300EF3400F583D0E0F0750C45750D0575080A
:101ED30000750900E5D914F50AE5D95403F50E6038
:101EE300177403650E605CE50A6010EE2467F582E3
:101EF300EF3400F583E07003021F8E900540E06429
:101F030001602AEE2482F582EF3400F583E0600459
:101F1300780480027800850A08E508C398FA95E0FA
:101F2300FB120AEA8A088B09EA45097005120E209A
:101F33008074EE2482F582EF3400F583E070048A26
:101F43000C8B0DE50A6012850C82850D83F50BE57C
:101F5300D9F0A3150BE50B70F6EE2482F582EF346E
:101F630000F583E0604474FC250AF50A780C121A24
:101F7300B4AC0AA90EEEFAEFFB120CB874021218F5
:101F830047E97026AA08AB091213E4793D8E828FC4
:101F930083A3A3A3A3E0FA7B001209BEEEFAEFFB2F
:101FA300120C34120CCA790080747403650E6056E7
:101FB300850A107511007810121AB4AC0CAD0DAA75
:101FC30008AB09120C947402121847EE2468F582C8
:101FD300EF3400F583E064807004747F8001E0F5E2
:101FE3000C780C121AB8E50EF50C780C121AB8A975
:101FF3000AAC08AD099003D0E0FA7B0012098274A1
:102003000212184780139003A2E06408600BAC0C23
:10201300AD0DEEFAEFFB120D24120E2C79017F0A9F
:102023000219B974F512190D74FC121831EAFEEB9A
:10203300FF8908A2AFE433F509C2AF806AEE2463D7
:10204300F8EF3400F97A007B00A2AFE433F50AC25B
:10205300AF88828983E0FCA3E0FDEC4D603A88827F
:102063008983E0FAA3E0FB8A828B83E0FCA3E0FD93
:1020730088828983ECF0A3EDF08A828B83E4F0A35A
:10208300F088828983E0FCA3E0FDEC4D700A88822E
:102093008983A3A3E4F0A3F0E50AA2E092AF1213AD
:1020A300E49004E3E004F0EE2463F582EF3400F5FA
:1020B30083E0F8A3E0F9E849603DEE2463F582EF9D
:1020C3003400F583E02402FAA3E03400FBEA24029F
:1020D300F50AEB3400F50B780A121AB48A828B8363
:1020E300E0FCA3E0F9EEFAEFFB120C5874021218AD
:1020F30047E970030220409004E3E060639004E446
:10210300E0F89004E3E0C398500C74026508705043
:102113009004E5E0604A8E828F83A3A3A3A3E085A6
:102123001882851983F0A3E4F09004E3E0F87402C5
:1021330012187DE8F0A3E4F09004E3E0F89004E2E1
:10214300E028F0740212187DAC82AD838518828575
:102153001983AA82AB83790112098E9004E3E4F018
:10216300E509A2E092AF7404121847021CAD000007
:10217300008521878522C622C0E0C0D0E8C0E0E9FF
:10218300C0E0EAC0E0EBC0E0ECC0E0EDC0E0EEC0D0
:10219300E0C008C009C00AC00BC082C083C0F0A25F
:1021A300AFE433FEC2AF759B00906182E0A2E050C2
:1021B30012E591A2E0500C7591FE74016521700344
:1021C300121E79E0A2E55051E591A2E5504B7591BD
:1021D300DF9003A2E064076005E0640870237401E4
:1021E3006521703579019003D0E0FA75F003A4CA34
:1021F300A8F028FB74D22AFA74033BFB1220268032
:1022030018E0640D70139003C4E004F064287002B6
:10221300E4F07A00E0F9120E32906182E0A2E64027
:10222300030222C2E591A2E640030222C27591BFD6
:102233009003A2E064057008120D5A120D66800324
:10224300120D60752100120DC0E99003A3F079000F
:10225300120DB4120B927A017B009003A1E0F912E4
:10226300109C907803E064427055900544E014F0AC
:10227300704DC2AF12227A00782AD0E0F618D0E06F
:10228300F6E59F540770057509FF800375097FC440
:10229300C0E07829E6F50808E65509F509740B78D6
:1022A3000812180FD0E02508F8906270E0A2E7400A
:1022B300F8E8C333906272F0906270E0D2E0F0907D
:1022C3006181E0A2E35009E5E9A2E3500375E9F770
:1022D300A3E0A2E75009E591A2E7500375917FEED1
:1022E300A2E092AFD0F0D083D082D00BD00AD00935
:1022F300D008D0E0FED0E0FDD0E0FCD0E0FBD0E0A1
:10230300FAD0E0F9D0E0F8D0D0D0E032C0E0C0D0CD
:10231300C082C083906183E0A2E05009E5BFA2E0E0
:10232300500375BFFEE0A2E15009E5BFA2E15003EF
:1023330075BFFDE0A2E25009E5BFA2E2500375BFFD
:10234300FBE0A2E35009E5BFA2E3500375BFF7E04A
:10235300A2E45009E5BFA2E4500375BFEFE0A2E594
:102363005009E5BFA2E5500375BFDFE0A2E65009BF
:10237300E5BFA2E6500375BFBFD083D0828088C07B
:10238300E0C0D0E8C0E0E9C0E0EAC0E0EBC0E0ECC8
:10239300C0E0EDC0E0C0F0E5A7A2E6500FE5A1A2C2
:1023A300E6500953A7BF75A1BF1223E7E5A7A2E52E
:1023B300500CE5A1A2E5500653A7DF75A1DFE5A701
:1023C300A2E15009E5A1A2E1500375A1FDE5A7A291
:1023D300E2500CE5A1A2E2500653A7FB75A1FBD086
:1023E300F00222F874F812190D7521019003A2E08E
:1023F30064067015120CE88A828B83A3A3A3A3A39C
:10240300A3E0FAA3E0FB120D48A2AFE433FED2AF80
:102413009003A8E0640170187A207B009003A1E088
:10242300F91211207A207B009003A1E0F91210A287
:10243300906182E0D2E6F0900541E0602185C622FA
:1024430080169003A7E064017008E5C654F84405BC
:10245300F5C653BEFC1221747401652160E4EEA23B
:10246300E092AF7F010219B9008E238F2485822861
:10247300858327851882851983E0CEA3E0CF85283D
:1024830082852783EBC9EAC8EDCBECCA75F010C38C
:10249300E833C8E933C9EA33CAEB33CBC3EA9EF561
:1024A30026EB9FF525B35004AB25AA26EC33CCEDE0
:1024B30033CDD5F0DAAE23AF242274E912190D74AB
:1024C300F8121831851882851983ECF0A3EDF08A90
:1024D300088B099003A2E024F7C3940550067508FE
:1024E30001022654120CE88A0A8B0BAE0AAF0BEEDC
:1024F3004F7003022651AC08AD09740212187DAA6D
:1025030082AB83120D788E828F83A3A3750CFF7524
:102513000DFF750EFF750F00780C1216C3740212AF
:10252300187D7510FF7511FF7512FF751300781074
:102533001216C3780C79101214E9502A780C79100A
:102543001216887508017509C8750A00750B00789D
:1025530008790C1214E95052850C08850D09850E73
:102563000A850F0B80507514017515C87516007513
:10257300170085100885110985120A85130B780841
:10258300790C121688781479081214E9401C75081E
:1025930000750900750A00750B0178087910121689
:1025A300887808790C12164F800C7508017509009C
:1025B300750A00750B0074097808121630750C192A
:1025C300F50DF50EF50F7808790C1215A88E828F8C
:1025D30083A3A3A3A3A3A3E0F8A3E0F97AD07B0387
:1025E3001217A6880C890DE4F50EF50F7808790CFF
:1025F30012164F740612187DE0F8A3E0F97AD07B27
:10260300031217A6E8FA8A0CE4F50D7808790C1280
:1026130014E950077808790C1216889003A2E06435
:1026230008600AE064066005E06405702D750C0D12
:10263300780C79081214E94021750CF4750DFF75B7
:102643000EFF750FFF7808790C12164F800C750872
:1026530000750900750A00750B00851882851983BA
:10266300E0F8A3E0F583888278081216F87408125C
:1026730018477F100219B974F712190D120D8A90B9
:10268300053FE064017010906245E4F0A3F053F459
:10269300F343FE0C5390F3120D36E5C654804449C0
:1026A300F5C6E59E547F644970F8906185740FF018
:1026B30090053DE0F47002A3E0604E90053EE060BB
:1026C3000814601B14602E80407508017509009082
:1026D300053DE0780812181EE508F45280802A753B
:1026E300080175090090053DE0780812181EE508F9
:1026F300F45290801475080175090090053DE07847
:102703000812181EE508F452A079007F020219B9D5
:1027130074F712190DE9FEEAFF74016E700C7A80EA
:102723007B009003A1E0F912109C902A9CE493F49F
:102733006008E493F9120B86800953C680E59E5422
:102743007F70FA120D3C90053FE064017003120B99
:102753009E90053DE0F47002A3E0604B90053EE0DF
:10276300600814601A14602C803D75080175090017
:1027730090053DE0780812181EE508428080287510
:10278300080175090090053DE0780812181EE50858
:102793004290801375080175090090053DE07808A3
:1027A30012181EE50842A0120D8A120CE88A088B43
:1027B30009A808A909E8496015E5E170FCE82414B3
:1027C300F582E93400F583E0F46003E0F5E1740198
:1027D3006F700A7A019003A1E0F91210F002270E3C
:1027E30074ED12190D8A088B098C0A8D0B74131260
:1027F300187D780C1216E97808790C1214E9751013
:10280300017511C875120075130050127808790C00
:10281300121688781079081214E950168010780C73
:1028230079081216887810790C1214E9400479019A
:10283300800279007F0C0219B974ED12190D8A0810
:102843008B098C0A8D0B741312187D780C1216E900
:10285300780C79081214E940117808790C1216885B
:10286300AA08AB09AC0AAD0B8022751000751100E4
:102873007512007513017810790C12168878107987
:102883000812164FAA10AB11AC12AD1380A68A82A0
:102893008B837508FF7509FF750AFF750B007808B0
:1028A3001216D67F040219B974F512190D8C828D94
:1028B3008378081216E98A828B83780812169CEAB9
:1028C3002404F8EB3400F98C828D83A3A3A3A3E043
:1028D300FCA3E0FD88828983C3E09CF0A3E09DF024
:1028E30088828983C3E09420A3E0944E40268A82A1
:1028F3008B837508FF7509FF750AFF750BFF780851
:102903001216758A828B83A3A3A3A3E02420F0A3CA
:10291300E0344EF002289174F512190DE9FE90048B
:10292300F7E0FAA3E0FBEEC333F8E433F974E628E7
:10293300F582748139F583E02AF508A3E03BF509B4
:102943007808121AB47A407B427C0F7D0012246C03
:1029530074021218478A088B098C0A8D0B7410783D
:1029630008121617AA08AB097F040219B974F112E9
:10297300190D8A0C8B0D8C0E8D0F740F12187DE0C0
:10298300FAA3E0FB741112187DE0F508A3E0F50942
:102993007808121AB4EA2401F508EB3400F509E4C7
:1029A300F50AF50B780C7908121528750871750965
:1029B30002780C7908121528AA0CAB0DAC0EAD0FDA
:1029C30012246C74021218478B09EA450960047AD1
:1029D3000180027A00EC2AFCED3400FD7413121816
:1029E3007DE0F8A3E0F9E8FEE9FFECF8EDF97A7190
:1029F3007B021217A6880889098E828F83780812B2
:102A030016F8ECF8EDF97A717B021217A68A088B97
:102A1300097405780812181E8E828F83A3A3A3A3BB
:102A2300E508F0A3E509F07F080219B9C082C08365
:102A3300E9906000F0D083D08222C2AF020000226E
:102A4300C0E074F21219F9A2AFE433FED2AFE58904
:102A5300A2E04006E589A2E150031212BE75890087
:102A6300758900C2C5751A00EEA2E092AF7F01021C
:102A73001A58C0E0C0D0E8C0E0E9C0E0E5A8D2AF92
:102A8300C2C7751A00A2E7A2E792AFD0E0F9D0E07F
:102A9300F8D0D0D0E032020132FFFFFFFFFFFFFF8B
:102AA300FFC082C083E9900B1CF0022CCE74F71296
:102AB30018A1E99002E1F07C197D037AFF7BFF12F4
:102AC30008E09002E274FFF0A3F0A3E4F0A3F0792E
:102AD3000512086E9002E1E0F91207907AF87B087C
:102AE300120A9C7F0102197374F41218A18A088BCD
:102AF30009EB548060309002E1E0F91210848A0AF5
:102B03008B0BAE0AAF0BEE4F60138E828F83E064A4
:102B1300B07003120880EEFAEFFB121072AA08E5F8
:102B2300096480FB80047A007B00022C9D74F212FE
:102B330018A174FC121831EAFEEBFFEE4F603874F3
:102B43000212187DEEF0A3EF122F02ECF0A3ED12A8
:102B53002F02AA82AB8312078AE9F50870737412F5
:102B630012187D123AB6E50A450B60658E828F8393
:102B7300122BDEEE4F700575080280557A067B0036
:102B83001210D88A0C8B0DA80CA90DE84970057595
:102B93000813803D88828983E4122BE8A3A3EEF017
:102BA300A3EF123F4FE50AF0A3E50BF09002E71203
:102BB3002C709002E76017E0FCA3E08003EAFCEBD3
:102BC300FD8C828D83122C7070F38C828D8312396D
:102BD300DBA9087404121847024151A3A3A3A3E07D
:102BE300FEA3E0FF22F0A3F0888289832274F2120D
:102BF30018A1890AE975F017A4FEAFF09002E6E484
:102C0300F09002E4122C70600A1210DE9002E4E4E9
:102C1300F0A3F0EEFAEFFB1210D88A088B09EA450D
:102C230009602FEEFCEFFD79001210609002E4E5DD
:102C330008F0A3E509F07B008008122C5AE4F0A306
:102C4300F00BEBC3950A40F2E50A9002E6F0790037
:102C530080027913024151EB75F017A4F8A9F090A3
:102C630002E4E028FAA3E0398A82F583221237715D
:102C7300EA4B2274F41218A17900EAA2E0501B7502
:102C8300082E7509827808121AB47C047D007A1E16
:102C93007B0B12086874021218477F04021973C071
:102CA30082C0839002E7122CD5601C88828983A39B
:102CB300A3E06A7003A3E06B8882898370E8A3A30F
:102CC300A3A312376D80047A007B00D083D08202E5
:102CD3000132124224E8492274EE1218A174FC1244
:102CE3001831EAFEEBFF851882851983E4F0A3F01F
:102CF300EE24021239BFEE2405122EF0EE2404F561
:102D03000EEF1232D5E024FE603924FC604624FE27
:102D1300605224FE605E24FE7003022DF524FE70D3
:102D230003022E6D24FE7003022E7C24FE70030228
:102D33002E8B24FC7003022E9A24FE7003022EA90C
:102D4300022EE69003007417F0A3E4122F0A120573
:102D530008022EE6851882851983AC82AD8312089A
:102D630086022EB6851882851983AC82AD8312083C
:102D73008C022EB6850C08850D09740212187DACE1
:102D830082AD8385088285098312376D1207AE8A67
:102D93000C8B0DAC0CAD0DEC4D6042E4F50CF50D58
:102DA300780C121AB4750C00750D03780C121AB452
:102DB300750C01750D03780C121AB4740812187D82
:102DC300121ACB79161237671208C87408121847FB
:102DD300E9F50C700B123763120520800F750C0197
:102DE300850882850983122EF81239DB850C0802C7
:102DF3002EB9740212187DAC82AD83850C82850DC9
:102E03008312376D1207AE8A108B11AC10AD11EC23
:102E13004D6043850C82850D83A3A3121ACB7510D5
:102E2300007511037810121AB47510017511037827
:102E330010121AB4740812187D121ACB79161237AD
:102E4300671208C87408121847E9F509700B12379E
:102E530063120526800F750901850C82850D831287
:102E63002EF81239DB850908804C85188285198371
:102E7300AC82AD83120892803A851882851983AC9F
:102E830082AD83120898802B851882851983AC82C2
:102E9300AD8312089E801C851882851983AC82AD90
:102EA300831208A4800D851882851983AC82AD83B3
:102EB3001208AAE9F508E50860298E828F83A3E04A
:102EC3006414601F850E82850F83E0900300122F28
:102ED300021242209003011239DBE508A3122F0AE4
:102EE300120502EEFAEFFB12082C0238C7F50CEFBD
:102EF3003400F50D2212422485188285198322F0AD
:102F030085188285198322F07C007D03850A8285DA
:102F13000B831237712274EE1218A174FC1218314C
:102F23008A0A8B0B8C0E8D0FEA2405F508EB34000F
:102F3300F5097C157D0079007A007B03121060E5AA
:102F4300082402F50CE509122EF3851882851983EE
:102F53008582108583117810121AB4850882850939
:102F630083A3A3A3A312341D121AB4E5082405F501
:102F730010E5093400F5117810121AB4850C828516
:102F83000D831237771207A874061218478A108B1D
:102F930011AE10AF11E50A2402F50AE50B1239C28E
:102FA300EE4F70030230DF8017740212187D123760
:102FB3006D88828983EAF0A3EBF0900300E004F0CC
:102FC300900300E0C3940540030230DFE4F510F5FD
:102FD300117810121AB47510E97511027810121ACB
:102FE300B47510EA7511027810121AB47406121827
:102FF3007D121ACB7910EEFCEFFD1237671208C869
:103003007408121847E9705E850882850983A3A3B3
:10301300A3A3A3A3A3E0F89002E9E06870481234E5
:103023001D121AB47CEA7D02E5082408FAE5093486
:1030330000FB12105A7402121847E960298E828F1E
:1030430083A3A3A3A312376D900300E0F5107402CA
:10305300781012181E74012510F58274033511F5CA
:1030630083EAF0A3EBF0740212187D858210858346
:10307300117810121AB4740212187D121ACB850C2F
:1030830082850D831242351207B474041218478ADD
:10309300108B11AE10AF11900300E0F51075110005
:1030A3007402781012181E74002510F87403351179
:1030B300F988828983A3122C707003022FA3E8245A
:1030C30003F8E93400F9EE4F6003022FAC888289DC
:1030D3008374FFF0A3F0900300E004F0900300E09A
:1030E300600A1237631205147900800B8508828504
:1030F30009831239D2790A0238C774EA1218A17403
:10310300FE1218318C128D13EA2405F50CEB1242D2
:103113003F122BE2750800750900EA2402F510EB53
:103123003400F51185188285198385820A85830BFE
:10313300780A121AB4850C82850D83A3A3A3A31264
:1031430032DF121AB4E50C2405F50AE50D1239C273
:10315300780A121AB4850C82850D83124233120742
:10316300A874061218478A0A8B0BEA450B700302F0
:103173003290EA2404F50EEB1232D5122BE28A8246
:103183008B83A3A3A3E0F985108285118312376D86
:10319300120796E9F5096003023290E4F514F51578
:1031A3007814121AB47514E97515027814121AB446
:1031B3007514EA7515027814121AB4740612187D80
:1031C300121ACB7913AC0AAD0B85108285118312C9
:1031D300376D1208C87408121847E9F5096003022D
:1031E30032909002E9E0F8E5087009E024029003C8
:1031F30001F08017900301E0FCE82402FAE43400B4
:10320300FBEA6C7001EB6003023294850882AA82A8
:10321300123414941412340C5073850E82850F8368
:10322300E0C0E074022A1232CCD0E0F00508850E2B
:1032330082850F83A3E0C0E085080A7402250A1281
:1032430032CCD0E0F005089002E91232DF121AB452
:103253007CEA7D0285080A7402250AFA74033400A5
:10326300FB12104874021218479002E9E02508F592
:103273000874FF6E700374FF6F6012EE24010EEF8B
:103283003400FFE508C394145003023127E50860B6
:103293001312365885108285118312376D12051A61
:1032A30079008014E509700375090A851282851374
:1032B30083EEF0A3EFF0A90974021218477F0E0200
:1032C300197385080C7402250CF58274033400F518
:1032D30083223400F50F850E82F58322123F62228A
:1032E30074EE1218A174FE1218318C0E8D0FEA249D
:1032F30005F50CEB122EF3750B00900300E4F0F5CB
:103303000AEA2402F508EB3400F50980499003002A
:10331300E0FA9002E9E0F8123414941712340C40E6
:103323000D900300E0F87416C3989002E9F012348C
:103333001D121AB47CEA7D0274012AFA7403340064
:10334300FB12104874021218479002E9E0F8900348
:1033530000E028F0050AE50C2416F582E50D12328B
:10336300D0E0F8E50AC39840030233F5900300E088
:10337300C39416507DE50AC333F8E433F9E50C280A
:10338300FEE50D39FF851882851983AC82AD838EE6
:10339300828F8312376D1207AE8A108B11AC10AD7A
:1033A30011EC4D7005750B018043E4F510F51178B0
:1033B30010121AB47510E97511027810121AB47547
:1033C30010EA7511027810121AB4740612187D12DD
:1033D3001ACB791685088285098312376D1208C8BE
:1033E3007408121847E9F50B70030233101239CE33
:1033F30080107C007D0385088285098312376D1256
:10340300052CA90B74020238C9E99400C365D033B3
:1034130022EA28F8E43400F9E822E0F510751100F7
:1034230078102274EA1218A174FC1218318A0C8BDA
:103433000D8C128D13EA2405F50AEB1239C27508B7
:1034430000750900E50A2402F510E50B3400F511B7
:10345300740212187D85820E85830F780E121AB4BA
:10346300850A82850B83A3A3A3A3123F0E121AB46A
:10347300E50A2405F50EE50B3400F50F780E121A54
:10348300B48510828511831239C81237671207A8D1
:1034930074061218478A0E8B0FAE0EAF0FE50C247D
:1034A30002F50EE50D3400F50F80408882898374A0
:1034B300FFF005081232C574FFF005089002E9E039
:1034C300F50C750D00780C121AB47CEA7D028508A0
:1034D3000C7402250CFA74033400FB1210487402B6
:1034E3001218479002E9E02508F508EE4F60718E47
:1034F300828F83A3A3A3E0F9850E82850F831237FE
:103503006D120796E9F509EE2404122EF0E97044D2
:10351300E4F514F5157814121AB47514E975150247
:103523007814121AB47514EA7515027814121AB4C1
:10353300740812187D121ACB7911EEFCEFFD850E7B
:1035430082850F8312376D1208C87408121847E971
:10355300F5096027850C82850D8312364E1239DBFF
:10356300E5087003023634123658850E82850F83C0
:1035730012376D1205327900023649850882AA8214
:10358300EA9002E97009E02404900301F08022E04C
:10359300F8900301E0F514E82404FCE43400FDECA6
:1035A30065147001ED70C0123414941212340C506F
:1035B300B6850C82850D83E0C0E074022A1232CCFA
:1035C300D0E0F00508850C82850D83A3E0C0E012EE
:1035D30032C5D0E012366A85820C85830D780C12D1
:1035E3001AB4740412187D121ACB851082851183C4
:1035F3001242351207B474041218478A0C8B0DAEAD
:103603000CAF0D85080C7402250CF874033400F913
:10361300EE4F70030234AE851882851983E08882E9
:10362300898312366AA3E0C0E01232C5D0E00234C7
:10363300BCE509700375090A850A82850B83123676
:103643004E1239DBA90974040232BD1242248512D9
:103653008285138322900301E0F5F0E5088490034B
:1036630000F07C007D0322F005088518828519830C
:103673002274EC1218A174FE1218318A088B098C7B
:103683000E8D0FEA2405FEEB3400FF8518828519A1
:1036930083AC82AD838E828F8312376D1207AE8A1D
:1036A3000A8B0BEE2418122EF0EA450B7003023737
:1036B3003E1238B0503285188285198312376D1245
:1036C30008BC8A108B11EA4511606B7912AC0AAD04
:1036D3000B85088285098312376D851082851183D6
:1036E30012189FE9F50A7058E4F50AF50B780A12E7
:1036F3001AB48E828F83A3A3E0F50A780A121AB450
:10370300EE24031239BF780A121AB48E828F831201
:1037130037771208CE7406121847E9F50A70218527
:103723000C82850D83E0701F85088285098312371B
:103733006D1205388011750A0E8009750A0180041F
:10374300E50A60031239CE850C82850D83E060049F
:1037530079008002A90A74021218477F0C021973B8
:103763007C007D03850A82850B8312377122E0FA80
:10377300A3E0FB22E0FCA3E0FD8508828509831218
:1037830037712274EE1218A174FE1218318A088B55
:10379300098C0C8D0DEA2405FEEB3400FF750E0039
:1037A300851882851983AC82AD838E828F8312370D
:1037B3006D1207AE8A0A8B0BEA450B700302389C25
:1037C3001238B0503585188285198312376D120867
:1037D300BC8A0E8B0FEA450F605E7912AC0AAD0B03
:1037E30085088285098312376D850E82850F8312C2
:1037F300189FE9F50E600302389F850882850983C7
:10380300123AB6AA0AFB1208B08A108B11A810A9A3
:1038130011E849701E7AFF7BFF1208B08A108B11E2
:10382300A810A911E849606C88828983E50AF0A38E
:10383300E50BF0750A008007750E0E805F050A9090
:1038430002E6E0FAE50AC39A504AE50A75F017A4BE
:10385300FAABF088828983A3A3E02AFAA3E03BFBB7
:103863008A828B831239C8EC4D70D2750A17750B97
:1038730000780A121AB4EEFCEFFD1210487402121B
:103883001847EEFCEFFD85088285098312376D1218
:10389300053E8014750E098003750E0112421C85C6
:1038A3000C82850D831239DBA90E023407E5082447
:1038B30002F508E5093400F5098A828B83A3A3A3E3
:1038C300E0A2E52274041218477F0A02197374EC0C
:1038D3001218A18C108D11EA2405F50CEB122EF3AE
:1038E300750F00EA2402F50AEB1239C2850A82F544
:1038F3008312376D1208B08A088B09EA45097003F1
:103903000239B4750E008071850C82850D83E064E5
:1039130001704F8E828F83A3A3121ACB8E828F8363
:10392300A3A3A3A3E0F5127513007812121AB4EE41
:103933002405F512EF3400F5137812121AB4123776
:10394300671208CE7406121847E9F50F6014850C48
:1039530082850D83E4F012421C8510828511831247
:1039630039DB7C177D007900EEFAEFFB1210608ED5
:10397300828F83E4F0A3F0050E9002E6E0F8E50EF3
:10398300C398501EE50E75F017A4F8A9F0850882B8
:10399300850983A3A31242491239C8EC4D6003027F
:1039A300390B85088285098374FFF0A3F0E50F7056
:1039B30006123767120544A90F02375EF50AEF3482
:1039C30000F50B22A3E0FCA3E0FD228E828F83127D
:1039D3004224850E82850F83E8F0A3E9F022C0829A
:1039E300C0839002E2E06A7003A3E06B70067AE2A0
:1039F3007B0280047A007B00022CCEC082C08378D5
:103A0300008C828D83E06A7003A3E06B7010E8750D
:103A1300F003A4F8A9F0EC28FAED39FB8015088C23
:103A2300828D83A3A3A3E06A7003A3E06B60DF7AB4
:103A3300007B00022CCE74F61218A112087A8A8237
:103A43008B83E582458370067A007B008007A3A3FE
:103A5300A3A312376D0240CD74F21218A1E9FE74CC
:103A63000E12187D123AB6741012187D123F2E8C66
:103A7300828D83E064027036A312422AF50CA3E020
:103A8300F9A80C74026870037429697021750C021B
:103A9300750D00780C121AB47808121AB4780A1249
:103AA3001AB4EEF91208F27406121847800279016B
:103AB300024151E0F50AA3E0F50B2274E81218A1C4
:103AC30074FB121831E9851882851983F08A168BE5
:103AD30017ECFEEDFF751000741D12187D124220C5
:103AE300741D12187D1239DB8E828F83A3A3A3E08A
:103AF300A2E4502D741D12187D12376D1208BC8A72
:103B0300828B83E58245837003023EFF790AEEFCD4
:103B1300EFFDAA16AB1712189FE9F5106003023FD9
:103B230002741F12187D123F2E742112187D123A4F
:103B3300B6742312187DE0F50EA3E0F50F8E828F85
:103B430083E064026003023EADA312422085088233
:103B5300850983A3858212858313EE2406122EF032
:103B630088828983E0FAA3E0F9EA2400F514E439B2
:103B7300F5157814121B3E010000280128A23B070B
:103B8300000228673C0328D43B00299E3D0129C934
:103B93003D02296A3D03299E3D0429483EAD3EE589
:103BA3000E450F6003023EA8850C82850D83123FEC
:103BB30023FAE9FB8A828B83E0850A82850B8312D1
:103BC3003F59121AB48A828B83A3E0FCA3E0023E1E
:103BD30032E50E450F6003023EA8850A82850B83FA
:103BE3007401F0123F36850882850983F07C007DDD
:103BF300008E828F83A3A3A3A3E02401FAA3E0345E
:103C030000FB1207AEEA4B60418A828B83E02402F9
:103C1300F8850A82850B83E028F0EA2404F8EB3464
:103C230000F988828983E0851282851383123F6BB2
:103C3300123F59121AB48A828B831239C7E50824BA
:103C430003FAE5093400FB023E37850A82850B83BC
:103C5300E02404F07C047D007900AA12AB13121057
:103C630060023F02E50E450F6003023EA8123F3695
:103C7300FEA3E0FF850A82850B837404F0EE8508BA
:103C830082850983F0EF851282851383F074031212
:103C9300187DAC82AD83EEFAEFFB1207AE8A0C8B74
:103CA3000DEA450D7003023D4B8A828B83A3A31259
:103CB3002BDE740112187D85820E85830F780E1218
:103CC3001AB4740512187D121ACB7CFF7DFF1207FC
:103CD300B474041218478B0FEA450F7033850C82B6
:103CE300850D83123F0E121AB4850C82850D83A3B2
:103CF300121ACB7C027D007AD47B821205E0740415
:103D0300121847E9700A740112187D74FFF0A3F0CA
:103D13008E828F83E064027039750C02750D007812
:103D23000C121AB48E828F831239C7E5082404FA61
:103D3300E5093400FB1210487402121847850A8201
:103D4300850B83E024028009740112187DEEF0A331
:103D5300EFF0740112187D123F1FF0740112187DE9
:103D6300A3123F17023EA2E50E450F6003023EA8D1
:103D7300850C82850D831239C8AA16AB171208E683
:103D8300850A82850B837402F0EA8508828509839C
:103D9300F0851282851383EB023EA5E50E450F6085
:103DA30003023EA8123F36F8A3E0F9850A82850B89
:103DB300837402F0E8850882850983F0E98512821D
:103DC300851383023EA5850C82850D8312376D1200
:103DD3001042EAFC8C82A882C3950EE4950F405FE3
:103DE300E8650E7002E50F70047C0080228518825E
:103DF300851983E0FAE50E2AFAE50F3400FBC3EADE
:103E030098EB94005003E08005E50ECCC39CFCECDA
:103E1300850A82850B83F08C0A750B00780A121AC7
:103E2300B4850C82850D83E0250EFCA3E0350FFDE0
:103E3300AA08AB091210487402121847023F027510
:103E43001007023F02E50E450F705A850C82850D5F
:103E530083124220850A82850B837407122BEA1290
:103E63003F17122BEAA3E0851282851383F0E8241F
:103E730002FAE93400FB8A828B83123F17123F4612
:103E8300123F1FA3123F4F123F28F0E82405F8E921
:103E93003400F988828983123F28A3123F6BA3A3BE
:103EA300A3A3F0805A75100B8055741D12187D1250
:103EB300376D12087A8A828B83E5824583603D12CF
:103EC3004220880C890DE8450D6031780E121AB432
:103ED300780A121AB47808121AB4740612187DE01C
:103EE300F9EEFCEFFDAA16AB17850C82850D831244
:103EF300189F7406121847E9F510800375100EA970
:103F03001074051218477F10021973E0F50E750F30
:103F130000780E22E085088285098322123F7522EC
:103F2300124224E822123F75A3A322E0F508A3E07E
:103F3300F50922850C82850D83E0F8A3E0F58388DB
:103F430082E022A3A3F08A828B83A322F088828952
:103F530083A3A3A3A322F08A828B83123F6222E06E
:103F6300F50A750B00780A22F088828983A3123F31
:103F73007522E0850882850983A3A32274EE1218B3
:103F8300A174FE1218318A0A8B0BECFAEDFB741440
:103F930012187DE0F510A3E0F511741612187DE0F8
:103FA300FE741812187DE0F50EA3E0F50F85188254
:103FB300851983AC82AD831207AE8A0C8B0DEA455B
:103FC3000D604985188285198312376D12087A8A24
:103FD300828B83E5824583602FA3A3123F2EE508DE
:103FE30045096024780E121AB47810121AB4EEF947
:103FF300AC0CAD0DAA0AAB0B850882850983121898
:104003009F74041218478006790E800279010234E6
:104013000774F61218A174FE121831740C12187D6D
:10402300123F23851882851983F0740112187DE9E4
:10403300F0E4F508F5097808121AB475080278084F
:10404300121AB4740412187D8582088583097808CE
:10405300121AB41208CE74061218477402121847C3
:10406300806874F71218A1EAFEEBFF89087C197DBA
:10407300031208E6EA5402600BA908EEFAEFFB12FA
:1040830007A280027901022AE674F61218A174FFCE
:104093006A700374FF6B70168C828D831240D2E4B6
:1040A300F08C828D83A3A3A31240D2A3801812089D
:1040B300B68A088B09A808A909E849600D8882898E
:1040C3008374FF122BE8A3A3E4F07F020219737435
:1040D300FFF0A3F08C828D83A3A32274F61218A1A0
:1040E3001208B68A828B83E58245836006A3A3E028
:1040F300FA80027A007B0080D174F21218A18A0838
:104103008B09ECFEEDFF740E12187DE0F50A120820
:10411300B68A0C8B0DA80CA90DE8497026EEFCEFAE
:10412300FD7AFF7BFF1208B68A0C8B0DA80CA90D34
:10413300E84970047911801688828983E508F0A321
:10414300E509F088828983A3A3E50AF079007F0655
:1041530002197374EE1218A1EAFEEBFF8C088D09A5
:10416300890C741412187D124220741612187D12D1
:10417300376D750D00E84960030242147402650C43
:10418300600302420F741212187D12422AFCA3E04C
:10419300F9EC2400F50EE439F50FEAF4F8EBF4F941
:1041A300EC58F8E50F59F9E849705CE5082406F87E
:1041B300ED3400F9880A890B8882F583124235129F
:1041C30008E68A108B11E50E65107004E50F651182
:1041D3006042780E121AB4850A82850B8312423527
:1041E3001208EC7402121847E9F50D7027780E12C5
:1041F3001AB4850882850983A3A31242331208FEE9
:104203007402121847800D750D808008750D0D809E
:1042130003750D0BA90D0238CC8E828F83124224B5
:1042230022E0F8A3E0F92212422488828983E02263
:10423300A3A3E0FCA3E0FDEEFAEFFB223400F50DAF
:10424300850C82F58322E028FEA3E039FF8E828F5E
:10425300832274F21218A1EAFEEBFF890B74016545
:104263000B600E7402650B706A7901120ABAE97069
:1042730062EEFAEFFB1208B08A088B09EA4509607F
:1042830047750A00800B7C177D00790012106005CA
:104293000A9002E6E0F8E50AC3985021E50A75F0B2
:1042A30017A4F8A9F0850882850983A3A3E028FA57
:1042B300A3E039FB8A828B83122CD570C9850882CF
:1042C30085098374FFF0A3F07C197D03EEFAEFFBFD
:1042D3001208E002415174F21218A18A088B09EC0A
:1042E300FEEDFF740E12187D123AB6900B1CE0F42B
:1042F300603D7A097B0012106CEA4B60328A828B34
:104303008374B1F0A3E4123F48A3123F46A3E50828
:10431300F0A3E509124335EEF0A3EF124335A3A34F
:10432300E50AF0A3E50BF0900B1CE0F912107802FC
:104333004151F08A828B83A3A3A3A3A322C082C08B
:10434300839061907404F0A37448F0A37402F09016
:1043530061807440F09061BC7403F09061877419BC
:10436300F0906265741BF0906249E0C3941390610E
:104373009C400A7409F090606674018007740DF024
:10438300906066E4F090619A7433F0A37455F090F2
:1043930061A0743AF090053FE064017009C2919006
:1043A30003A6746780059003A67461F0902AA2E4C3
:1043B30093906186F0902A9CE493F46027E49354ED
:1043C3000FF8906185E0686012E5C654804449F5B2
:1043D300C6E59E547F644970F8E8F053C680E59EB5
:1043E300547F70FA7905120E1402459BC082C08374
:1043F300E9540FF9906185E0696012E5C654804481
:1044030049F5C6E59E547F644970F8E9F053C680C8
:10441300E59E547F70FA02459BC082C083E5A8F8ED
:1044230053A87E906181E4F0A3F0A3F0C2BA539A3B
:10443300FEC289759B00C2C275E90075910075BF04
:104443000075A91175B905906181F0A374C0F0A33B
:10445300E4F0D2BA439A0174805842A802459BC043
:1044630082C08374F81218319003A4E0F8A3E0F932
:10447300E84970030245909003A4E0544060237917
:1044830008851882851983AA82AB83120C76851856
:1044930082851983AA82AB8312096A9003A4E0542C
:1044A300BFF0E054806010790C7A657B05120C76BE
:1044B3009003A4E0547FF0E0A2E0503190619A743D
:1044C30033F0A37455F09061A0743AF090053FE087
:1044D30064017009C2919003A6746780059003A6D6
:1044E3007461F01209709003A4E054FEF0E05402EA
:1044F300603190619A743FF0A3745AF09061A07494
:104503007FF090053FE064017009D2919003A67497
:104513007180059003A6746AF01209709003A4E0F9
:1045230054FDF0E054046013902AA0E49390618654
:10453300F01209769003A4E054FBF0E054086013F2
:10454300902AA1E493906186F01209769003A4E087
:1045530054F7F0E054106013902AA2E4939061861C
:10456300F01209769003A4E054EFF0E05420600ABF
:104573001209769003A4E054DFF0A3E05401600D28
:10458300120B9E12097C9003A5E054FEF0740812EE
:10459300184702459BF0A3F0D083D0820201327406
:1045A300EC1218A174F4121831851882851983ACA2
:1045B30082AD837583827582987404121744902A9E
:1045C300A093F4600302472E907808E0C39402504E
:1045D3000302470E740412187DAC82AD8375838287
:1045E300758226740812174485188285198385827B
:1045F30012858313740412187DAC82AD83750EFF8C
:10460300750FFF7FFF7E00750C48750D788015745C
:10461300086E70030246A274096E70030246A27408
:104623000A6E607B850C82850D8378081216E98CEF
:10463300828D83A909E50AC9F888107418780812CD
:104643001617E5104508F8C3E098A3E099850C8296
:10465300850D8378081216E940188C828D837418AF
:104663007808121617E5104508F8E0C398F8A3E098
:10467300801C74187808121617E5104508FAE9FB30
:104683008C828D83E0F8A3E0F9EAC398F8EB99F9FB
:10469300C3E8950EE9950F5006880E890FEEFF0EBD
:1046A300E50C2404F50CE50D3400F50DEEC394136D
:1046B300500302461274FF650E700474FF650F60A9
:1046C300238F087402780812181E74482508F5828F
:1046D30074783509F58378081216E98512828513F3
:1046E30083E508F0EC2402FCED3400FD851282859D
:1046F3001383A3858212858313740C12187DE582BC
:104703006C7003E5836D600302460075080175094B
:10471300007808121AB4740212187DAC82AD837A41
:10472300A87B0A12129A7402121847740C121847C3
:104733007F0C021973C082C0839061AE7468F0A3CA
:10474300746AF090624574FBF0A304F053F4FD43E4
:10475300FE0290053F7401F09061A0E0643A90611D
:104763009A70237433F0A37455F09061A0743AF0F7
:10477300740164017009C2919003A6746780289044
:1047830003A674618021743FF0A3745AF09061A072
:10479300747FF0740164017009D2919003A674715F
:1047A30080059003A6746A02459A7F08021973C0B4
:1047B30082C0839004F1E06401700A9004F6E06023
:1047C30004790C8002790002459BC082C08375E1A5
:1047D300F19004F4E0605B14600914605F146057A7
:1047E30014705E120BB09004EAE0F97AEB7B0412CA
:1047F3000D967AD67BBE7C897D8E120DCC7A557B45
:10480300557C557D00120DA29004F5E0F9120DAE12
:104813007901120E089004E8E0F8A3E0C82416F525
:1048230082E83400F58374C8F0A3740BF0790002B6
:10483300459B120BB680AF120BBC80AA120BC28031
:10484300A5791280EA74F01218A175D90D9004D5D8
:10485300E0A2E0E4331313F89004EAE0C4333354E2
:10486300C0484401F5D978E8790488828983A3A3F1
:10487300A3E0F5D988828983A3A882A983E864EE9B
:104883007003E9640470E378D5790488828983A38B
:10489300E0F5D988828983A3A882A983E864DB70C1
:1048A30003E9640470E575E1959004D5E0F97AD6DF
:1048B3007B04120D9C900B3E745CF0A3740BF0A36D
:1048C30074BEF0A3740CF0A374BEF0A3740CF0A335
:1048D30074BEF0A3740CF0A37462F0A3740BF0A382
:1048E30074BEF0A3740CF0A3747AF0A3740BF0906D
:1048F3000B4C74BEF0A3740CF0A374BEF0A3740C41
:10490300F0A374BEF0A3740CF0A374BEF0A3740CF4
:10491300F0A374BEF0A3740CF0A374BEF0A3740CE4
:10492300F09004F4E064019004E87012E0F8A3E06E
:10493300F5838882A3A37508007509088010E0F841
:10494300A3E0F5838882A3A3750804750900750A9B
:1049530000750B007808121662750CFF750DFF7554
:104963000EFF750F007808790C1216B09004E8E07A
:10497300F8A3E0C8240EF582E83400F58378081222
:1049830016F89004E8E0F8A3E0C82414F582E834AC
:1049930000F5837413F09003A27402F00247AD7420
:1049A300F71218A19004FAE02407F5D99004EAE07D
:1049B300C4333354C0F5D978E8790488828983A352
:1049C300A3A3E0F5D988828983A3A882A983E86495
:1049D300EE7003E9640470E39004FAE0601F78E882
:1049E3007904FAE82413F582E93400F583E0F5D974
:1049F30088828983A3A882A9831AEA70E690051A9C
:104A0300E02407F5D99004EAE0C4333354C04404E6
:104A1300F5D978E8790488828983A3A3A3E0F5D93B
:104A230088828983A3A882A983E864EE7003E9647A
:104A33000470E390051AE0601F78E87904FAE8242B
:104A430033F582E93400F583E0F5D988828983A3BD
:104A5300A882A9831AEA70E675E195900B3E746803
:104A6300F0A3740BF0A374BEF0A3740CF0A374BE94
:104A7300F0A3740CF0A374BEF0A3740CF0A37462DF
:104A8300F0A3740BF0A374BEF0A3740CF0A3747AB8
:104A9300F0A3740BF0900B4C74BEF0A3740CF0A352
:104AA30074BEF0A3740CF0A374BEF0A3740CF0A353
:104AB30074BEF0A3740CF0A374BEF0A3740CF0A343
:104AC30074BEF0A3740CF09004E8E0F8A3E0C824EB
:104AD3000EF582E83400F58374FFF0A3F0A3F0A38E
:104AE300F09004E8E0F8A3E0C82414F582E8340069
:104AF300F5837412F09003A27401F0FF021973742A
:104B0300F71218A19004FAE02407F5D99004EAE01B
:104B1300C4333354C04402F5D978E87904888289D0
:104B230083A3A3A3E0F5D988828983A3A882A98359
:104B3300E864EE7003E9640470E39004FAE0601F34
:104B430078E87904FAE82413F582E93400F583E080
:104B5300F5D988828983A3A882A9831AEA70E675A6
:104B6300E195900B3E7474F0A3740BF0A37474F08E
:104B7300A3740BF0A37474F0A3740BF0A37474F018
:104B8300A3740BF0A37474F0A3740BF0A37474F008
:104B9300A3740BF0A3747AF0A3740BF0900B4C7412
:104BA300BEF0A3740CF0A374BEF0A3740CF0A37452
:104BB300BEF0A3740CF0A374BEF0A3740CF0A37442
:104BC300BEF0A3740CF0A374BEF0A3740CF09004B5
:104BD300E8E0F8A3E0C8240EF582E83400F5837416
:104BE300FFF0A3F0A3F0A3F09004E8E0F8A3E0C87B
:104BF3002414F582E83400F5837414F09003A2744E
:104C030004F0024EC974F71218A19004FAE02407C5
:104C1300F5D99004EAE0C4333354C04406F5D97897
:104C2300E8790488828983A3A3A3E0F5D9888289DC
:104C330083A3A882A983E864EE7003E9640470E3A4
:104C43009004FAE0601F78E87904FAE82413F58207
:104C5300E93400F583E0F5D988828983A3A882A982
:104C6300831AEA70E690051AE02407F5D99004EA5E
:104C7300E0C4333354C04404F5D978E87904888216
:104C83008983A3A3A3E0F5D988828983A3A882A9F2
:104C930083E864EE7003E9640470E390051AE0604E
:104CA3001F78E87904FAE82433F582E93400F583C0
:104CB300E0F5D988828983A3A882A9831AEA70E6DA
:104CC30075E195900B3E746EF0A3740BF0A374BE64
:104CD300F0A3740CF0A374BEF0A3740CF0A374BE21
:104CE300F0A3740CF0A374BEF0A3740CF0A374BE11
:104CF300F0A3740CF0A3747AF0A3740BF0900B4C34
:104D030074BEF0A3740CF0A374BEF0A3740CF0A3F0
:104D130074BEF0A3740CF0A374BEF0A3740CF0A3E0
:104D230074BEF0A3740CF0A374BEF0A3740CF090E3
:104D330004E8E0F8A3E0C8240EF582E83400F58324
:104D430074FFF0A3F0A3F0A3F09004E8E0F8A3E06D
:104D5300C82414F582E83400F5837415F09003A297
:104D63007403F0024EC9C082C0839004E8E0F8A344
:104D7300E0C82406F582E83400F583E4024598741C
:104D8300F71218A19003D0E0F875F003A4C8AAF0B5
:104D93002AF974D228F8740339F9E82405FAE934B6
:104DA30000FB8A828B83E0FCA3E0FD88828983A3D6
:104DB300A3A3A3A3A3A3A3A3ECF0A3EDF0888289E9
:104DC30083A3A3A3A3A3A3A3E024FFF8A3E034FF37
:104DD300F98A828B83E8F0A3E9F0024EC974F712D3
:104DE30018A1EAFEEBFF9061D0E06003024EBD75AF
:104DF300D90E75D90375D904EE248BF582EF3400EF
:104E0300F583E5822408F8E5833400F9E0F5D9A3B6
:104E1300E865827003E9658370F2EE2483F582EF1F
:104E23003400F583E5822404F8E5833400F9E0F5E2
:104E3300D9A3E865827003E9658370F275E195791A
:104E430008EE248BFAEF3400FB120C6A7904EE248B
:104E530083FAEF3400FB120C6A7C00EEF8EFF9ECF6
:104E6300FAC3E49AFA95E0FBEE2AFAEF3BFBEA2455
:104E73008AF582EB3400F583E0C0E0E824AAF582EA
:104E8300E93400F583D0E0F00C88828983A3A882FB
:104E9300A983ECC3940840C7EE246FF582EF340076
:104EA300F583E0F8A3E0F9EE2471F582EF3400F521
:104EB30083E8F0A3E9F07901800279008008F0EE3D
:104EC300A2E092AF79007F01021973C082C083759B
:104ED300D90275D90375D90575E195EA246FF58271
:104EE300EB3400F583E0F8A3E0F9EA2471F582EBF3
:104EF3003400F583E8F0A3E9F0790102459B74F6E9
:104F03001218A1EAFEEBFF9005457406F0750845FB
:104F13007509057808121AB47C017903120CB2746E
:104F23000212184775D90675D9037582457583052D
:104F3300E0F5D9A3E582644A7004E583640570F063
:104F430075E1959003A2E06408701EEE246FF5826C
:104F5300EF3400F583E0F8A3E0F9EE2471F582EF76
:104F63003400F583E8F0A3E9F079010251CF74F638
:104F73001218A1EAFEEBFF9061D0E0706678019011
:104F83000545740BF09003A2E0640770197508459A
:104F93007509057808121AB47C017903120CB274EE
:104FA300021218477805740128F5D975D90375825B
:104FB30045758305E8FAE0F5D9A31AEA70F875E1B7
:104FC30095EE246FF582EF3400F583E0F8A3E0F962
:104FD300EE2471F582EF3400F583E8F0A3E9F0796C
:104FE30001800279000251CF74F71218A1EAFEEB97
:104FF300FF75D90375D90375D90DEE24DDF582EF5D
:105003003400F583E0F5D975E1957904120DD2EEFC
:10501300246FF582EF3400F583E0F8A3E0F9EE2482
:1050230071F582EF3400F583E8F0A3E9F07901022A
:105033004EC974F61218A1EAFEEBFF9061D0E0F8B6
:105043007480C398FAEE2482F582EF3400F583E08E
:105053006004780480027800E8240BF8EAC39850CF
:10506300030250FA7D09900545EDF0EE24E2F8EFD6
:105073003400F97A467B057C0888828983E08A823A
:105083008B83F088828983A3A882A9838A828B83F6
:10509300A3AA82AB831CEC70E0EE2482F582EF348A
:1050A30000F583E0601D7508457509057808121A37
:1050B300B47C097903EEFAEFFB120CB274021218F6
:1050C300477D0D74012DF5D975D903758245758317
:1050D300058D08E0F5D9A31508E50870F675E19587
:1050E3007904120DD2EE241DF582EF3400F583E42A
:1050F300F0A3F07901800279000251CF74F61218FF
:10510300A1EAFEEBFF9061D0E0F87480C398FAEE59
:105113002482F582EF3400F583E060047804800292
:105123007800E82408F8EAC39850030251CD7806C2
:10513300900545740CF09003BFE0900546F0900392
:10514300C0E0900547F09003C1E0900548F090035C
:10515300C2E0900549F09003C3E090054AF0EE24C5
:1051630082F582EF3400F583E0601B75084575090D
:10517300057808121AB47C067903EEFA120CB2749D
:1051830002121847780A740128F5D975D903758274
:10519300457583058808E0F5D9A31508E50870F679
:1051A30075E1957904120DD2EE246FF582EF340088
:1051B300F583E0F8A3E0F9EE2471F582EF3400F50E
:1051C30083E8F0A3E9F07901800279007F020219F4
:1051D3007374F61218A1EAFEEBFF9061D0E0F87445
:1051E30080C398FAEE2482F582EF3400F583E06001
:1051F30004780480027800E82404F8EAC398500392
:105203000252AE7802900545E8F0EE24F4F582EF01
:105213003400F583E0900546F0EE2482F582EF3406
:1052230000F583E0601B7508457509057808121AB7
:10523300B47C027903EEFA120CB2740212184778A6
:1052430006740128F5D975D90375824575830588D8
:1052530008E0F5D9A31508E50870F675E195EE2485
:1052630073F582EF3400F583E4F0EE247FF582EFEB
:105273003400F583E4F0EE241DF582EF3400F5836A
:10528300E4F0A3F07904120DD2EE240DF582EF348D
:1052930000F583E0F8A3E0F9EE2471F582EF340022
:1052A300F583E8F0A3E9F07901800279000251CF98
:1052B30074F61218A19061D0E0F87480C398FCEAE8
:1052C3002482F582EB3400F583E0600478048002E5
:1052D3007800E82404F8ECC398405B790290054514
:1052E3007407F0EA24F5F582EB3400F583E09005CA
:1052F30046F0EA2482F582EB3400F583E06018750A
:1053030008457509057808121AB47C0209120CB213
:1053130074021218477906740129F5D975D90375F2
:105323008245758305E9F8E0F5D9A318E870F875A7
:10533300E1957901800279000251CF74F51218A129
:10534300E9FCA2AFE433F50AC2AF7D0080010DEAA8
:10535300246EF582EB3400F583E0F8EDC398501A20
:105363008D08EA2508F8EB3400F9E8246AF582E9A8
:105373003400F583E06C70D68024EA246EF8EB34B5
:1053830000F9E0FEEA2EFAEB3400FBEA246AF58228
:10539300EB3400F583ECF088828983E004F0E50ABE
:1053A300A2E092AF7F0302197374F61218A1A2AFA1
:1053B300E433FDC2AFEA246EF582EB3400F583E0FB
:1053C30014F07C0060368C08EA2508F8EB3400F909
:1053D300E8246BF582E93400F583E0C0E0E8246A51
:1053E300F582E93400F583D0E0F00CEA246EF5820F
:1053F300EB3400F583E0F8ECC39840CAEA246DF57A
:1054030082EB3400F58374FFF0EA2469F582EB3410
:1054130000F583E4F0EDA2E092AF0251CFC082C069
:1054230083E5A8F8C2AFEA246AF582EB3400F5837A
:10543300E9F0EA2469F582EB3400F583E4F0E8A2AD
:10544300E7A2E792AF02459B74F31218A1EAFEEBC1
:10545300FFECFAEDFB8A828B83A3A3A3A3E0541F83
:10546300F0EE2436F582EF3400F583E4F0F50AEE2E
:10547300FCEFFD8A828B83E0C0E0EC245DF582EDD6
:105483003400F583D0E0F0750B00E50A3333335471
:10549300F8F50C8A828B83E0F508750900E50B7833
:1054A300081217FFE508A2E0502FEE2436F8EF3478
:1054B30000F988828983E0F508EE2508F508EF34C2
:1054C30000F509E5082438F582E5093400F583E59C
:1054D3000CF088828983E004F0050B050CE50BC30F
:1054E300940840AF050A8A828B83A3AA82AB838C7C
:1054F300828D83A3AC82AD83E50AC3940550030276
:1055030054767F0502197374F71218A19003CEE045
:10551300640170030256687A009003D4E0600302CA
:1055230056687401F0A3E4F0A3F090043404F090FF
:105533000439F09003D7E4F0A3F0A3F0A3F09003B1
:10554300E104F0900407E4F09003EAF0A3F0A3F081
:10555300A3F0A3F0A3F0A3F0900451F0900445F05E
:1055630090043A7480F0A3E4F0900440F09004BCFB
:10557300F0A3F0A3F0A3F0A3F0A3F0A3F0A3F090A3
:1055830004C5F0900454F09004A4F0A3F0A3F0A396
:10559300F0A3F0A3F0A3F0A3F0A3F0A3F09004B062
:1055A300F09004B2F09004AEF09004C8F0A3F0A31E
:1055B300F0A3F0A3F0A3F0A3F0A3F078CE7903E86F
:1055C300246EF582E93400F58374FFF00A8882893A
:1055D30083A3A882A983EAC3940440E37ACE7B031E
:1055E30078DC790488828983E0C0E0EA2461F5826B
:1055F300EB3400F583D0E0F088828983A3A882A9E5
:10560300838A828B83A3AA82AB83E864E17003E974
:10561300640470D07ACE7B0378B57903888289835A
:10562300A3E0C0E0EA24E6F582EB3400F583D0E0A2
:10563300F088828983A3A882A9838A828B83A3AA01
:1056430082AB83E864BD7003E9640370CF9003CE3B
:10565300E004F0640170089003D6E09003D0F07A80
:10566300D27B0380047A007B00024EC9C082C083D0
:105673009003D5E4F09003D4F09003CEF0A3F0A30D
:1056830074FFF075E1F102459BC082C08378007915
:10569300009003D5E0600478D2790388828983A3DC
:1056A300A3A3A3E0F902459B74F61218A1EAFEEB4B
:1056B300FFEE2463F582EF3400F583E0F8A3E0F90D
:1056C300E8497003025750EE2463F8EF3400F97A87
:1056D300007B00A2AFE433F508C2AF88828983E080
:1056E300FCA3E0FDEC4D603A88828983E0FAA3E0F5
:1056F300FB8A828B83E0FCA3E0FD88828983ECF044
:10570300A3EDF08A828B83E4F0A3F088828983E09F
:10571300FCA3E0FDEC4D700A88828983A3A3E4F027
:10572300A3F0E508A2E092AF1213E49004E2E004D0
:10573300F09004E3E004F0EE2463F582EF3400F527
:1057430083E0F8A3E0F9E84960030256CA8E828F2A
:1057530083A3A3A3E0600F8E828F83A3A3A3E4F0AC
:105763009003CFE014F09003CEE014F070069003A2
:10577300D074FFF08E828F83A3A3E4F09004E1E062
:10578300700D9003CFE0640170057900120DB4EE43
:10579300FAEFFB120CE20251CF74F71218A1EAFEE2
:1057A300EBFF8E828F83A3A3A3A3E0FA7B001209EE
:1057B300BEEEFAEFFB120C34120CCA024EC9C082C1
:1057C300C08378B5790388828983A3E4F0888289CA
:1057D30083A3A882A983E864BD7003E9640370E628
:1057E3009003B6740102459A74F61218A1EAFEEB0F
:1057F300FFEC2403F8ED3400F988088909EC240749
:10580300F8ED3400F9E8FCE9FD8C828D83E0F8A320
:10581300E0F9850882850983E0FAA3E0FB1217A665
:10582300EE240DF582EF3400F583E8F0A3E9F08C64
:10583300828D83E0F8A3E0F9850882850983E0FA85
:10584300A3E0FB1217A68B09EA45096013EE240DAA
:10585300F582EF3400F583E02401F0A3E03400F097
:105863000251CF74F61218A1EAFEEBFFEE242EF5D7
:1058730082EF3400F583E0FCA3E0FD780079FAECD5
:10588300FAEDFB1217A6EE246FF582EF3400F583D1
:10589300E8F0A3E9F0780079FAECFAEDFB1217A629
:1058A3008B09EA45096013EE246FF582EF3400F5A6
:1058B30083E02401F0A3E03400F00251CF74EC1232
:1058C30018A1EAFEEBFF741412187D78081216E98A
:1058D300120D728A0C8B0D8C0E8D0F7510027511C3
:1058E30000751200751300780C791012164F75109D
:1058F300FF7511FF7512FF780C79101216B0780C32
:10590300121AB08E828F83E0F8A3E0F5838882A316
:10591300A31217071227E37404121847E96003025E
:105923005A248E828F83E02402F8A3E03400F9E83E
:10593300FAE9FB8A828B8378081216758A828B8335
:105943007508FF7509FF750AFF750B0078081216B5
:10595300D6EE240BF582EF3400F583C082C0838E2C
:10596300828F83A3A3A3A3A3E02401F8A3E03400BD
:10597300F9D083D082E0687003A3E06970057901F0
:10598300025A268E828F83A3A3A3A3A3A3A3E024F7
:1059930001F0A3E03400F0EE2473F582EF3400F558
:1059A30083E064017036EE2474F582EF3400F583EE
:1059B300E0F8A3E0F98E828F83A3A3A3A3A3A3A3F9
:1059C300E0687003A3E0697013EE2474F582EF348A
:1059D30000F583E02401F0A3E03400F0EE247FF52A
:1059E30082EF3400F583E064017036EE2480F582A3
:1059F300EF3400F583E0F8A3E0F98E828F83A3A34D
:105A0300A3A3A3A3A3E0687003A3E0697013EE2428
:105A130080F582EF3400F583E02401F0A3E0340045
:105A2300F0790002473374F61218A1E9FEECFFEA9D
:105A33002462F582EB3400F583E064016003025ACB
:105A4300D29061D0E0F508EA2482F582EB3400F5C8
:105A530083E060047804800278007480C39508FCB6
:105A630095E0FDEF28F8E43400F9E82402F8E9347E
:105A730000F9EC98ED99A2D265D033404E740A1226
:105A8300187DE0F508A3E0F509EA2482F582EB34FA
:105A930000F583E060157808121AB4EFFCEEF912F2
:105AA3000CB2740212184774042FFF74012FF5D936
:105AB3008ED9EF600F850882850983F8E0F5D9A3B5
:105AC30018E870F875E19579008006790780027906
:105AD300FF0251CF74F71218A1A2AFE433FEC2AF95
:105AE3008A828B83E0F8A3E0F9E8498A828B83609A
:105AF3000AA3A3E0F8A3E0F5838882ECF0A3EDF01A
:105B03008A828B83A3A3ECF0A3EDF08C828D83E4D4
:105B1300F0A3024EC174F71218A1E96021F88C8238
:105B23008D83E08A828B83F08C828D83A3AC82ADDC
:105B3300838A828B83A3AA82AB8318E870E0ECFA92
